:020000040800F2
:100000006004002001010008C9050008D3040008AD
:10001000C5050008A9020008F51600080000000048
:10002000000000000000000000000000ED100008CB
:10003000C702000800000000250900081912000886
:100040001B0100081B0100081B010008110E00081D
:100050001B0100081B0100081B0100081B01000810
:100060001B0100081B0100081B0100081B01000800
:100070001B0100081B0100081B0100081B010008F0
:100080001B0100081B0100081B0100081B010008E0
:100090001B0100081B0100081B010008C902000821
:1000A0001B0100081B0100081B0100081B010008C0
:1000B0001B0100087D1200081B0100081B0100083D
:1000C0001B0100081B0100081B0100081B010008A0
:1000D0001B010008FD1300081B010008591400084B
:1000E0001B0100081B0100081B010008DFF80CD0F1
:1000F00000F02EF8004800479D1B00086004002017
:100100000648804706480047FEE7FEE7FEE7FEE7B1
:10011000FEE7FEE7FEE7FEE7FEE7FEE71D1200084A
:10012000ED00000830B50B460146002020220124D6
:1001300009E021FA02F59D4205D303FA02F5491BB5
:1001400004FA02F52844151EA2F10102F1DC30BDCB
:10015000064C074D06E0E06840F0010394E8070014
:1001600098471034AC42F6D3FFF7C4FF681C000870
:10017000881C000838B5684600F0ADF90446012C2B
:1001800001D1002038BD4FF4A060FBE710B501207D
:1001900000F094FC002000F091FC10BD08B5014671
:1001A00000200090034800900098084400900098B8
:1001B000008808BD006C004008B500220092044A87
:1001C0000092009A02440092009A116008BD00005B
:1001D000006C00401FB501210C2000F04FFC1020E6
:1001E0008DF80F0003208DF80E004FF40060ADF87D
:1001F0000C0010208DF80F0003208DF80E0003A9CD
:10020000274800F0D7F84FF48050ADF80C001020CC
:100210008DF80F0003208DF80E0003A9204800F090
:10022000C9F84FF48070ADF80C0004208DF80F0071
:1002300003208DF80E0003A91A4800F0BBF8012135
:10024000084600F01BFC0821012000F093F84FF451
:100250008070019000208DF8080008208DF80900BA
:1002600001208DF80A0001A800F03AF817208DF857
:10027000000002208DF8010005208DF80200012009
:100280008DF80300684600F0B5F94FF400610448AA
:1002900000F01DF94FF48051014800F018F91FBD1E
:1002A00000080140000C014000BFFEE770B50546A4
:1002B0000C46284600F008FF064626EA04012846B8
:1002C00001F08AFA70BD704710B54FF4807000F0ED
:1002D00001F810BD01490860704700001404014096
:1002E000002123498279002A3AD00A46126803681D
:1002F0009A430B461A600A1D126803689A430B1D45
:100300001A60027911440A6803681A430A60184A9D
:100310000832126803689A43154B08331A601A1D95
:10032000126803689A43124B0C331A604279102A00
:100330000ED11A1F126803681A430D4B08331A6056
:100340001A1D126803681A43094B0C331A600DE03A
:100350000749427911440A6803681A430A6005E0B4
:10036000027911440A6803689A430A6070470000E2
:100370000004014030B500228B071C0F0F2303FA45
:1003800004F20B4B8C1053F824309343084C8D101F
:1003900044F8253023468C1053F824308C07240F62
:1003A00000FA04F42343024C8D1044F8253030BD8C
:1003B000080001402DE9F0410246002500260020FA
:1003C00000230024002791F803C00CF00F0591F8DA
:1003D00003C00CF0100CBCF1000F03D091F802C068
:1003E0004CEA050591F800C0BCF1000F31D014684B
:1003F00000202BE04FF0010C0CFA00F3B1F800C024
:100400000CEA03069E4220D183004FF00F0C0CFA39
:1004100003F7BC4305FA03FC4CEA040491F803C05B
:10042000BCF1280F06D14FF0010C0CFA00FCC2F809
:1004300014C00AE091F803C0BCF1480F05D14FF099
:10044000010C0CFA00FCC2F810C0401C0828D1D3E3
:100450001460B1F800C0BCF1FF0F34DD5468002017
:100460002EE000F1080C4FF0010808FA0CF3B1F887
:1004700000C00CEA03069E4221D183004FF00F0C0E
:100480000CFA03F7BC4305FA03FC4CEA040491F8A8
:1004900003C0BCF1280F05D100F1080C08FA0CF8D4
:1004A000C2F8148091F803C0BCF1480F07D100F1E5
:1004B000080C4FF0010808FA0CF8C2F81080401C34
:1004C0000828CED35460BDE8F081416170470161D6
:1004D000704700BFFEE7F8B5044600202060002703
:1004E0006946522000F0B3F90646262804D0694632
:1004F000522000F0ACF90646262E12D1684600F0D4
:10050000D4F826280DD100F0BDF80127002506E01B
:100510001DF80500216840EA012020606D1C042DB3
:10052000F6DB3846F8BD0146CA1701EB927292100D
:10053000A1EB820292B9642091FBF0F200FB121051
:1005400050B94FF4C87091FBF0F200FB121008B9DB
:10055000012070470020FCE70120FAE70020F8E7BF
:1005600010B50446412C2CD108210846FFF79EFE09
:100570003D21112001F030F98621172001F02CF9DE
:100580007F21262001F028F9F821272001F024F905
:100590003F21282001F020F91E212D2001F01CF917
:1005A00000212C2001F018F98D212A2001F014F9E6
:1005B0003E212B2001F010F9022001F0B7FA00F0E3
:1005C00067F810BD00BFFEE7704708B54FF4A060A4
:1005D00000F048F825208DF8000001208DF801007A
:1005E00002208DF8020001208DF80300684600F01B
:1005F00001F808BD70B5002100230F22C47804B3B0
:10060000154C246804F4E064C4F5E064210AC1F1E7
:100610000403CA40447804FA03F184781440214367
:1006200009010E4C0678A155047804F01F05012439
:10063000AC4005786D11AD0005F1E025C5F800412D
:1006400009E0047804F01F050124AC40044D06784D
:10065000761145F8264070BD0CED00E000E400E0A6
:1006600080E100E002490143024A11607047000046
:100670000000FA050CED00E0014908627047000037
:1006800000000E4210B503211420FFF70FFE10BD2D
:1006900010B5142000F018FD044604F0030018B94A
:1006A0000321142000F023FD10BDF0B587B00546EE
:1006B000002708210846FFF7F9FD00210D2001F071
:1006C0008BF880210E20FFF7F1FD93208DF80800B4
:1006D00020208DF8090001A802AB022202A9009097
:1006E0000C2000F01BF80646262E10D1002407E04F
:1006F00002A8005D285502A8005D4740601CC4B2F6
:10070000042CF5DB02A8005DB84200D0BB26802196
:100710000E2000F0ECFC304607B0F0BD2DE9FE4F96
:100720000646884691469A46DDF830B0BB200290D6
:100730000020019000900C2E06D00E2E09D1122020
:1007400001901020009005E077200190302000906B
:1007500000E000BF00BF019840F08001022001F0DE
:100760003BF880210420FFF7A1FD0021012001F0CA
:1007700033F880210A2000F0BAFC002505E018F8C3
:100780000510092001F028F86D1C4D45F7D33146BE
:10079000012001F021F80C2E03D180210D2000F062
:1007A000A6FC4FF47A7500BF042000F08DFC0446CF
:1007B0006D1E35B104F0010018B9009820400028E2
:1007C000F2D080210D20FFF771FD95B3062000F0D7
:1007D0007BFC00F01B0068BB2620029001982040A3
:1007E00000F0010008B1CC2002900C2E24D10A2088
:1007F00000F06AFC04460C2000F066FC00F00707DD
:100800002FB1601E07EBC000CBF8000002E0E00053
:10081000CBF8000004B90124122C00DD12240025BD
:1008200005E0092000F050FC0AF805006D1CA54207
:10083000F7D301E0BB20029080210C2000F057FC90
:100840000021012000F0C8FF0298BDE8FE8F70B5BE
:1008500088B005460C4608210846FFF727FD07210A
:100860000D2000F0B9FF0321142000F040FC8DF8AA
:100870000C5002A803AB012203A900900C20FFF743
:100880004DFF0646262E09D10298102806D19DF864
:100890000C0020709DF80D00607000E0BB26304613
:1008A00008B070BD10B502211D48FFF710FE0A20E8
:1008B00001F016F902211A48FFF707FE0A2001F09D
:1008C0000FF902211648FFF702FE0A2001F008F98D
:1008D0000F21012000F080FF00BF012000F0F4FB99
:1008E00000F010000028F8D10A2001F0F9F83D21AD
:1008F000112000F071FF1E212D2000F06DFF00215E
:100900002C2000F069FF8D212A2000F065FF3E2198
:100910002B2000F061FF4021152000F05DFF10BD8D
:10092000000C01407047000010B500F01DF80221D6
:100930000C48FFF7CCFD0A2001F0D2F8FFF7B2FF18
:10094000FFF7A0FE4120FFF70BFE7A211F2000F0E9
:1009500043FF012001F0C4F84FF4E13000F02CF81F
:1009600010BD0000000C014008B50121082000F076
:1009700085F80220ADF8000003208DF80200102059
:100980008DF8030069460B48FFF714FD0221094862
:10099000FFF79DFD0220ADF8000028208DF8030030
:1009A00069460448FFF706FD4FF4165000F004F8BE
:1009B00008BD0000000C014010B586B004461D487B
:1009C00000F06EFD4FF40060ADF8040004208DF8D7
:1009D000070003208DF8060001A91748FFF7EAFC7D
:1009E0004FF48060ADF8040018208DF80700032054
:1009F0008DF8060001A91048FFF7DCFC01218804EE
:100A000000F01CF802940020ADF80C00ADF80E00C8
:100A1000ADF81000ADF814000C20ADF8120002A9DA
:100A2000044800F0E7FD0121024800F02DFD06B06A
:100A300010BD000000480040000C014029B1064AEA
:100A4000D2690243044BDA6104E0034AD26982436B
:100A5000014BDA61704700000010024029B1064ADC
:100A600012690243044B1A6104E0034A126982438B
:100A7000014B1A61704700000010024029B1064A7C
:100A800092690243044B9A6104E0034A92698243EB
:100A9000014B9A61704700000010024029B1064ADC
:100AA000D2680243044BDA6004E0034AD26882430E
:100AB000014BDA60704700000010024001490860F5
:100AC000704700004004424230B50021002200245B
:100AD00000232D4D6D6805F00C0121B1042905D0CE
:100AE000082923D105E0294D056022E0274D056046
:100AF0001FE0254D6D6805F47012234D6D6805F4F7
:100B00008034022505EB92421CB9214D5543056006
:100B10000BE01D4D6D6805F400351DB11C4D5543AE
:100B2000056002E0194D5543056002E0174D056070
:100B300000BF00BF144D6D6805F0F0010909154DA7
:100B40006B5C0568DD4045600F4D6D6805F4E06144
:100B5000090A104D6B5C4568DD4085600A4D6D6883
:100B600005F46051C90A0B4D6B5C4568DD40C560FA
:100B7000054D6D6805F44041890B074D6B5CC568F8
:100B8000B5FBF3F5056130BD0010024000127A009C
:100B900000093D00140000202400002010B501468B
:100BA0000022002300204A11012A02D1094C2368A7
:100BB00006E0022A02D1074C236A01E0054C636A71
:100BC00001F01F02012494401C400CB1012000E000
:100BD000002010BD0010024000210B4A11700A4A8B
:100BE000203A82F82010012802D0042808D103E01E
:100BF0000121054A117004E00521034A117000E04B
:100C000000BF00BF7047000020100240014908608B
:100C1000704700003C0442420249096A0143014A0C
:100C20001162704700100240024909888143014A5D
:100C300011807047042800400348008840F01000ED
:100C400001490880704700000428004003480088DC
:100C50004FF6EF71084001490880704704280040B2
:100C600070B500260024002500F07AF806463848C2
:100C7000B6FBF0F437480088A0423CD035490C80E0
:100C800040F2B27510E02846FFF74DFC40B1B4F5D4
:100C9000B77F02D3A4F5B77404E0681C85B206E000
:100CA000A4F26D14681C85B2B4F5B67FEBD800BF12
:100CB00029488580002516E027498888FFF733FCFE
:100CC00030B1012D04D11D2C01D31D3C09E00CE0F5
:100CD0002248405DA04203D82048405D241A00E02D
:100CE00003E0681C85B21C2CE6D200BF681C1A49C0
:100CF0008871601CC8711648B6FBF0F100FB1164E6
:100D00004FF46160B4FBF0F0134908704FF4616078
:100D1000B4FBF0F100FB11403C21B0FBF1F00E49B7
:100D200048704FF46160B4FBF0F100FB11403C21CE
:100D3000B0FBF1F201FB1200074988700B46DA792B
:100D40009979988800F028F803490872002070BD4E
:100D50008051010036000020500000205A1C00087D
:100D6000002103480188001F008841EA00407047C5
:100D70001C28004001460020064A12880A40D0B2D2
:100D8000044A121F12880A4012B108B1012000E083
:100D90000020704704280040F0B503460C46154675
:100DA000642093FBF0F0C6B2642093FBF0F700FBE5
:100DB0001730C1B2132E02DD01F16400C1B2084642
:100DC000CF1701EB977701EBA707BAB2072092FB89
:100DD000F0F700FB172082B25719601EDFF82CC015
:100DE0001CF80000384482B2CF1701EB9777BF1090
:100DF000A1EB87071FB9032C01DA501E82B207202E
:100E000092FBF0F700FB1720C0B2F0BD4E1C0008AB
:100E10000EB50120FFF7AEFF20B1FFF721FF012043
:100E2000104908700220FFF7A5FFA0B10220FFF7CC
:100E3000FBFEFFF715FF0C4880780B4949780A4AFA
:100E40001278CDE9002102900748C3798279818820
:100E500006A000F0D3FC0520FFF7E6FE00F018F92D
:100E60000EBD00003400002050000020416C617273
:100E70006D2054696D653A25642D25642D25642007
:100E800025643A25643A25640A00000029B1064A1F
:100E900012880243044B1A8004E0034A12888243FA
:100EA000014B1A8070470000002800401CB5002448
:100EB00001214FF0C050FFF7C1FD0120FFF7DCFB1F
:100EC0000420FFF76BF945F2500188423FD0FFF74D
:100ED0005DF90120FFF780FE04E0601CC4B20A2027
:100EE00000F0FEFD4120FFF759FE08B9FA2CF4DBB3
:100EF000FA2C01DB01201CBD4FF48070FFF78CFE43
:100F00000120FFF783FE00F0C3F800F0CBF80121C9
:100F10000846FFF7BBFF00F0BBF8FFF78DFE47F672
:100F2000FF7000F0A5F800F0B3F800200090034631
:100F300001221146019040F2DF7000F027F8FFF720
:100F400085FE45F250010420FFF736F907E000F076
:100F5000A9F801210846FFF799FF00F099F800F081
:100F600004F8FFF77DFE0020C5E708B503208DF8E3
:100F7000000000208DF801008DF8020001208DF89E
:100F800003006846FFF736FB08BD00002DE9F05F5F
:100F900006460F4690469946DDE90AAB002440F22A
:100FA000B270864203DB40F63300864202DD012048
:100FB000BDE8F09F40F2B2750AE02846FFF7B3FAA9
:100FC00010B12048044401E01F480444681C85B265
:100FD000B542F2DB781EC7B2002510E01B48405D29
:100FE00040F2A321484304EBC0143046FFF79BFABC
:100FF00018B1012D01D116480444681C85B2BD42C8
:10100000ECDBA8F1010040F2A321484304EBC0143B
:10101000C9EB4910C0EB092004EB0014CAEB0A101D
:1010200004EB80045C4401214FF0C050FFF706FD43
:101030000120FFF721FB204600F00CF800F028F813
:101040000020B5E70085E2018033E1015A1C000869
:101050008051010000B50246FFF7EEFD100C034978
:101060000880091D0A80FFF7F1FD00BD1828004027
:1010700000B50246FFF7E0FDC2F3034003490880D4
:10108000091D0A80FFF7E2FD00BD000008280040AE
:1010900000BF0348008800F020000028F9D0704706
:1010A00004280040074800884FF6F77108400549BA
:1010B000088000BF0348008800F008000028F9D02D
:1010C000704700000428004070B5044604F03F005B
:1010D00040F08005284600F003FB034800F00CFBBD
:1010E000C6B2304670BD000000480040704770B581
:1010F00005460C462846FFF7E7FF064646EA040188
:10110000284600F069FB70BD10B500F001F810BD75
:101110000CB50020019000903348006840F4803006
:101120003149086000BF3048006800F4003000908A
:101130000198401C0190009818B90198B0F5A06F73
:10114000F1D12948006800F4003010B1012000906E
:1011500001E0002000900098012843D12348006856
:1011600040F01000214908600846006820F00300A4
:1011700008600846006840F0020008601A484068AD
:10118000194948600846406848600846406840F48D
:10119000806048600846406820F47C10486008463B
:1011A000406840F4E81048600846006840F08070ED
:1011B000086000BF0C48006800F000700028F9D0FB
:1011C0000948406820F00300074948600846406825
:1011D00040F00200486000BF0348406800F00C0087
:1011E0000828F9D10CBD0000001002400020024088
:1011F000042808D14FF0E021096941F004014FF0C3
:10120000E022116107E04FF0E021096921F00401BB
:101210004FF0E022116170477047000010B513488D
:10122000006840F001001149086008464068104914
:1012300008400E494860084600680E4908400B49BE
:1012400008600846006820F480200860084640686E
:1012500020F4FE0048604FF41F008860FFF754FF41
:101260004FF000600449086010BD0000001002400B
:101270000000FFF8FFFFF6FE08ED00E010B50121C9
:10128000064800F04EF818B10121044800F03AF881
:1012900003480068401C0249086010BD000400407B
:1012A0003C0000207FB505460C4601210220FFF7D7
:1012B000C5FBADF80850ADF804400020ADF80A00B9
:1012C000ADF8060001A90E4800F046F801221146CB
:1012D0000B4800F037F81D208DF8000000208DF835
:1012E000010003208DF8020001208DF803006846FC
:1012F000FFF780F90121024800F007F87FBD0000E8
:1013000000040040CA430282704721B1028842F0C3
:101310000102028004E002884FF6FE731A40028048
:10132000704730B50246002000230024158A05EAE4
:101330000103958905EA010413B10CB1012000E015
:10134000002030BD1AB183890B43838102E0838979
:101350008B43838170470000002202881D4B984216
:101360000ED01D4B98420BD0B0F1804F08D01B4BD4
:10137000984205D01A4B984202D01A4B984204D199
:101380004FF68F731A404B881A43174B984207D079
:10139000164B984204D04FF6FF431A40CB881A43AD
:1013A00002808B8883850B8803850A4B98420BD07B
:1013B000094B984208D00E4B984205D00D4B9842ED
:1013C00002D00D4B984201D10B7A03860123838210
:1013D00070470000002C0140003401400004004030
:1013E00000080040000C00400010004000140040C5
:1013F00000400140004401400048014010B500BFDA
:1014000040F22551104800F0A6F860B10E48001DCA
:101410000088C1B20D4802780078401C0B4B187050
:101420000B4881540FE040F22441074800F093F844
:1014300048B10548001D0088C4B203480088C4B202
:1014400001200449087010BD003801402900002027
:10145000440000202A00002010B540F22551074822
:1014600000F079F840B1054800F030F9C4B2FF202F
:10147000034908700348047010BD00000048004094
:10148000380000203900002021B1828942F4005246
:10149000828104E082894DF6FF731A408281704791
:1014A00010B504462048844209D101218803FFF782
:1014B000F5FA00214FF48040FFF7F0FA32E01B48C4
:1014C000844209D101214804FFF7C8FA00214FF4F2
:1014D0000030FFF7C3FA25E01548844209D1012105
:1014E0008804FFF7BBFA00214FF48020FFF7B6FA1B
:1014F00018E01048844209D10121C804FFF7AEFA70
:1015000000214FF40020FFF7A9FA0BE00A488442BB
:1015100008D101210805FFF7A1FA00214FF480103E
:10152000FFF79CFA10BD0000003801400044004065
:1015300000480040004C004000500040024600209F
:10154000B1F5007F00D100BF13880B400BB1012023
:1015500000E00020704770B50246002400230025FB
:10156000002040F66A16B14200D100BFC1F3421517
:1015700001F01F03012606FA03F3012D02D196891B
:10158000334006E0022D02D1168A334001E0968AEC
:1015900033400C12012606FA04F41688344013B1C5
:1015A0000CB1012000E0002070BDF0B5034600241E
:1015B00000260025002040F66A17B94200D100BF7E
:1015C0001846C1F3421401F01F06012707FA06F579
:1015D000012C01D10C3004E0022C01D1103000E0CC
:1015E00014301AB107682F43076002E00768AF4361
:1015F0000760F0BD2DE9F04786B005460E46002491
:10160000A24600BFA1460027B08900B100BF2F4607
:101610002C8A4CF6FF700440F08804432C82AC897D
:101620004EF6F3100440B0883189084371890843AD
:101630000443AC81AC8A4FF6FF400440B0890443B8
:10164000AC8201A8FFF740FA1F48874202D1DDF8BB
:1016500010A001E0DDF80CA0A88900F4004040B122
:101660000AEBCA0000EB0A1031684900B0FBF1F840
:1016700007E00AEBCA0000EB0A1031688900B0FBF2
:10168000F1F86420B8FBF0F004012009642101FBAB
:101690001089A88900F4004040B1322000EBC90055
:1016A000B0FBF1F000F00700044308E0322000EB4B
:1016B00009106421B0FBF1F000F00F0004432C810D
:1016C00006B0BDE8F0870000003801400146888878
:1016D000C0F308007047C1F3080282807047000021
:1016E00010B504462146024800F024F810BD000061
:1016F0000048004000BFFEE710B504460B480C4907
:10170000086008E00A490868411E094A116010B9DA
:1017100000F09AFA10BD20212046FFF70FFF0028A5
:10172000F0D02046FFF7D2FFC0B2F3E7FFFF0F0073
:101730002C00002070B504460D460C480C4908608A
:1017400029462046FFF7C7FF08E009490868411EFF
:10175000074A116010B900F077FA70BD8021204669
:10176000FFF7ECFE0028F0D00020F6E7FFFF0F00A7
:101770002C000020F8B506460D466946284600F0C4
:101780000CF8002406E00DEB0401304600F02AFAC4
:10179000601CC4B2032CF6DBF8BDF0B5642590FBE9
:1017A000F5F5ECB20A2590FBF5F50A2695FBF6F760
:1017B00006FB1755EAB20A2590FBF5F605FB160560
:1017C000EBB204F130050D7002F130054D7003F1FC
:1017D00030058D70F0BD000070B504460D4604F074
:1017E0003F063046FFF77CFF0348FFF785FF28469A
:1017F000FFF776FF70BD0000004800400FB4054BB6
:1018000010B503A9044A029800F018F810BC5DF85E
:1018100014FB0000791B00084000002002E008C80B
:10182000121F08C1002AFAD170477047002001E05A
:1018300001C1121F002AFBD1704700002DE9FF4FA4
:101840008BB09A460F460546002606E025280BD0A9
:1018500052460D9990476D1C761C28780028F5D1CA
:101860000FB03046BDE8F08F0024A0460122604949
:1018700000E0044315F8013F203B02FA03F0084260
:10188000F7D128782E2817D115F8010F44F0040459
:101890002A280ED06FF02F022878A0F130010929F4
:1018A0000AD808EB880102EB410100EB01086D1C2E
:1018B000F2E757F8048B6D1C287869283ED006DCC7
:1018C0000028CDD063280BD0642804D136E07328DB
:1018D00010D075284BD052460D999047761C85E064
:1018E00017F8040B8DF8000000208DF80100E94680
:1018F000012003E057F8049B4FF0FF3061074FF0E1
:10190000000401D40AE0641C44450DDA8442FADB89
:1019100019F804100029F6D106E0641C8442FCDBAF
:1019200019F804100029F8D1264404E019F8010B35
:1019300052460D999047641EF8D257E001CF4FF000
:101940000A0B002802DA40422D2102E0210504D5CD
:101950002B218DF82410012103E0E10705D020217F
:10196000F7E70DF1200908910CE00021F9E701CF1C
:101970004FF00A0BF9E75946FEF7D4FB01F13002AC
:1019800009F8012D0028F6D1ADEB090000F1200B7C
:10199000600701D44FF00108D84502DDA8EB0B0029
:1019A00000E000208046002406E009A85246005DC1
:1019B0000D999047641C761C08988442F5DB04E07E
:1019C000302052460D999047761CB8F10001A8F1DD
:1019D0000108F5DC05E019F8010B52460D99904716
:1019E000761CBBF10001ABF1010BF4DC6D1C34E79C
:1019F0000928010000B585B001210420FFF73EF859
:101A00002448FFF74DFD4FF48060ADF8100004202E
:101A10008DF8130003208DF8120004A91E48FEF76C
:101A2000C9FC4FF40070ADF8100018208DF81300B9
:101A300003208DF8120004A91748FEF7BBFC012112
:101A40008803FFF71BF84FF4E13000900020ADF859
:101A50000400ADF80600ADF80800ADF80C000C204D
:101A6000ADF80A0069460B48FFF7C4FDFEF7ADFD6F
:101A7000012240F225510748FFF797FD012240F26D
:101A800024410448FFF791FD01210248FFF7FCFCC7
:101A900005B000BD003801400008014010B56FF0EE
:101AA0000400FFF7A5FB0A4800680A49B0FBF1F003
:101AB000094908700846007800EB4001C1EBC010EE
:101AC0004FF6FF7101EAC0000449088010BD000014
:101AD0000000002000127A003000002032000020B8
:101AE0000146114A12884A434FF0E0235A6100220E
:101AF0009A611A46126942F001021A6100BF4FF062
:101B0000E022106900F001021AB100F48032002ACC
:101B1000F5D04FF0E022126922F001024FF0E023ED
:101B20001A6100229A617047320000200146114A72
:101B300012784A434FF0E0235A6100229A611A4614
:101B4000126942F001021A6100BF4FF0E0221069F1
:101B500000F001021AB100F48032002AF5D04FF0F3
:101B6000E022126922F001024FF0E0231A61002204
:101B70009A6170473000002070B504460D46E1B20E
:101B80000548FFF7A8FD00BF80210348FFF7D6FCFA
:101B90000028F9D0204670BD00380140FFF77EFFD5
:101BA000FFF784F9FEF716FBFFF724FF00F02AF891
:101BB0004FF400710948FEF78AFCFEF7B5FE41F6C6
:101BC0001F416320FFF76EFB06E0FEF7D3FA18B95A
:101BD00001210348FFF7CEFDF7E70000000C0140AC
:101BE0000038014070B505460C4621782846FFF7BD
:101BF00072FD00BF80212846FFF7A0FC0028F9D025
:101C000070BD000038B501210820FEF737FF4FF402
:101C10000070ADF8000010208DF8030003208DF84F
:101C2000020069460748FEF7C5FB4FF400710548FE
:101C3000FEF74BFC002400E0641C40F2E7308442D5
:101C4000FADB38BD000C01404FF6FF70704700030F
:101C5000030601040602050003051F1C1F1E1F1EAC
:101C60001F1F1E1F1E1F0000881C000800000020F0
:101C7000440000001C180008CC1C00084400002090
:101C80001C0400002C18000800A24A0400000000F8
:101C9000000000000102030406070809000000001C
:101CA00001020304010203040607080902040608EE
:101CB00000000000FFFF0F00000000000000000017
:0C1CC00000000000000000000000000018
:04000005080000ED02
:00000001FF
