:020000040800F2
:100000005808002001010008E9070008E906000877
:10001000E507000811030008311B0008000000007C
:10002000000000000000000000000000371400087D
:100030002F03000800000000450B000865150008AC
:100040001B0100081B0100081B01000831100008FB
:100050001B0100081B0100081B0100081B01000810
:100060001B0100081B0100081B0100081B01000800
:100070001B0100081B0100081B0100081B010008F0
:100080001B0100081B0100081B0100081B010008E0
:100090001B0100081B0100081B01000831030008B8
:1000A0001B0100081B0100081B0100081B010008C0
:1000B0001B010008C91500081B0100081B010008EE
:1000C0001B0100081B0100081B0100081B010008A0
:1000D0001B010008491700081B010008A5170008AC
:1000E0001B0100081B0100081B010008DFF80CD0F1
:1000F00000F02EF800480047A9200008580800200A
:100100000648804706480047FEE7FEE7FEE7FEE7B1
:10011000FEE7FEE7FEE7FEE7FEE7FEE769150008FB
:10012000ED00000830B50B460146002020220124D6
:1001300009E021FA02F59D4205D303FA02F5491BB5
:1001400004FA02F52844151EA2F10102F1DC30BDCB
:10015000064C074D06E0E06840F0010394E8070014
:1001600098471034AC42F6D3FFF7C4FFD8210008FB
:10017000F8210008FEB5054602A800F0B7FA0746C8
:10018000012F31D1002429E0194800EBC4060422D4
:100190006946304601F0BAF8BDF800004FF6FF712D
:1001A00088420ED1ADF800400220ADF8020002985E
:1001B000019004226946304601F0B6F82C800020F8
:1001C000FEBDBDF80200022806D1DDE9010188422A
:1001D00002D14FF4A060F3E7601C84B2B4F57A7FDB
:1001E000D2DB4FF4A060EBE74FF4A060E8E700003B
:1001F000BEE0000810B5012000F070FD002000F006
:100200006DFD10BD08B50146002000900348009028
:100210000098084400900098008808BD006C0040D9
:1002200008B500220092044A0092009A024400920B
:10023000009A116008BD0000006C00401FB501214C
:100240000C2000F02BFD10208DF80F0003208DF8FE
:100250000E004FF40060ADF80C0010208DF80F0078
:1002600003208DF80E0003A9274800F065F94FF42C
:100270008050ADF80C0010208DF80F0003208DF891
:100280000E0003A9204800F057F94FF48070ADF834
:100290000C0004208DF80F0003208DF80E0003A938
:1002A0001A4800F049F90121084600F0F7FC08213E
:1002B000012000F021F94FF48070019000208DF8AA
:1002C000080008208DF8090001208DF80A0001A817
:1002D00000F03AF817208DF8000002208DF8010098
:1002E00005208DF8020001208DF80300684600F01B
:1002F00091FA4FF40061044800F0F4F94FF4805192
:10030000014800F0EFF91FBD00080140000C01405A
:1003100000BFFEE770B505460C46284600F0E4FF36
:10032000064626EA0401284601F0DCFC70BD704751
:1003300010B54FF4807000F001F810BD014908605D
:100340007047000014040140002123498279002AEB
:100350003AD00A46126803689A430B461A600A1D8F
:10036000126803689A430B1D1A60027911440A68E7
:1003700003681A430A60184A0832126803689A43ED
:10038000154B08331A601A1D126803689A43124B02
:100390000C331A604279102A0ED11A1F12680368B2
:1003A0001A430D4B08331A601A1D126803681A436A
:1003B000094B0C331A600DE00749427911440A6871
:1003C00003681A430A6005E0027911440A68036869
:1003D0009A430A60704700000004014030B50546AA
:1003E00004244FF4302000F073F80446042C19D193
:1003F0000D48006940F002000B490861084645615C
:10040000006940F0400008614FF4302000F060F8CF
:100410000446052C06D00448006941F6FD710840E9
:1004200001490861204630BD0020024004200B49EC
:10043000C96801F0010109B101200EE00749C9684E
:1004400001F0040109B1022007E00449C96801F084
:10045000100109B1032000E0042070470020024091
:100460000348006940F080000149086170470000BE
:100470000020024070B505460E460424E00200F05C
:1004800027F80446042C13D10A48006940F0010003
:10049000084908612E80E00200F01AF80446052C95
:1004A00006D00448006941F6FE7108400149086120
:1004B000204670BD002002400248034948600348BE
:1004C000486070472301674500200240AB89EFCDAB
:1004D00000B502460423FFF7A9FF034603E0FFF738
:1004E000A5FF0346521E012B01D1002AF7D102B904
:1004F0000523184600BD000030B500228B071C0FF5
:100500000F2303FA04F20B4B8C1053F8243093435F
:10051000084C8D1044F8253023468C1053F82430B5
:100520008C07240F00FA04F42343024C8D1044F886
:10053000253030BD080001402DE9F041024600257C
:100540000026002000230024002791F803C00CF0AF
:100550000F0591F803C00CF0100CBCF1000F03D094
:1005600091F802C04CEA050591F800C0BCF1000FFB
:1005700031D0146800202BE04FF0010C0CFA00F38E
:10058000B1F800C00CEA03069E4220D183004FF070
:100590000F0C0CFA03F7BC4305FA03FC4CEA040405
:1005A00091F803C0BCF1280F06D14FF0010C0CFAF2
:1005B00000FCC2F814C00AE091F803C0BCF1480F77
:1005C00005D14FF0010C0CFA00FCC2F810C0401C21
:1005D0000828D1D31460B1F800C0BCF1FF0F34DD9E
:1005E000546800202EE000F1080C4FF0010808FAD2
:1005F0000CF3B1F800C00CEA03069E4221D183003F
:100600004FF00F0C0CFA03F7BC4305FA03FC4CEA5D
:10061000040491F803C0BCF1280F05D100F1080CC7
:1006200008FA0CF8C2F8148091F803C0BCF1480F26
:1006300007D100F1080C4FF0010808FA0CF8C2F8D5
:100640001080401C0828CED35460BDE8F081000023
:10065000F0B50A46002300240021002500F00046E2
:10066000B6F1004F02D11D4EF16901E01B4E7168D9
:10067000C0F3034583B200F44016B6F5401F08D11D
:1006800021F07061154E766826F07066134F7E601B
:1006900012E000F48016B6F5801F06D1032606FA94
:1006A00005F4A14341F0706106E0460D360103FAFE
:1006B00006F6B14341F0706122B1460D360103FAEE
:1006C00006F6314300F00046B6F1004F02D1034E6A
:1006D000F16101E0014E7160F0BD000000000140D9
:1006E000416170470161704700BFFEE7F8B50446FD
:1006F00000202060002700260BE06946522000F011
:10070000B6F90546262D00D104E0761C962E00DDB4
:1007100000E0F2E700BF262D13D1684600F0D5F8BF
:1007200026280ED100F0BEF80127002007E01DF8B2
:100730000010226841EA02212160411CC8B204284D
:10074000F5DB3846F8BD0146CA1701EB92729210EC
:10075000A1EB820292B9642091FBF0F200FB12102F
:1007600050B94FF4C87091FBF0F200FB121008B9B9
:10077000012070470020FCE70120FAE70020F8E79D
:1007800010B50446412C2CD108210846FFF7C2FDC4
:100790003D21112001F0A6FA8621172001F0A2FACE
:1007A0007F21262001F09EFAF821272001F09AFAF5
:1007B0003F21282001F096FA1E212D2001F092FA07
:1007C00000212C2001F08EFA8D212A2001F08AFAD6
:1007D0003E212B2001F086FA022001F02DFC00F0D2
:1007E00067F810BD00BFFEE7704708B54FF4A06082
:1007F00000F048F825208DF8000001208DF8010058
:1008000002208DF8020001208DF80300684600F0F8
:1008100001F808BD70B5002100230F22C47804B38D
:10082000154C246804F4E064C4F5E064210AC1F1C5
:100830000403CA40447804FA03F184781440214345
:1008400009010E4C0678A155047804F01F05012417
:10085000AC4005786D11AD0005F1E025C5F800410B
:1008600009E0047804F01F050124AC40044D06782B
:10087000761145F8264070BD0CED00E000E400E084
:1008800080E100E002490143024A11607047000024
:100890000000FA050CED00E0014908627047000015
:1008A00000000E4210B503211420FFF733FD10BDE8
:1008B00010B5142000F018FD044604F0030018B928
:1008C0000321142000F0B8FD10BDF0B587B0054637
:1008D000002708210846FFF71DFD00210D2001F02B
:1008E00001FA80210E20FFF715FD93208DF80800F6
:1008F00020208DF8090001A802AB022202A9009075
:100900000C2000F01BF80646262E10D1002407E02C
:1009100002A8005D285502A8005D4740601CC4B2D3
:10092000042CF5DB02A8005DB84200D0BB26802174
:100930000E2000F081FD304607B0F0BD2DE9FE4FDE
:100940000646884691469A46DDF830B0BB200290B4
:100950000020019000900C2E06D00E2E09D11220FE
:1009600001901020009005E0772001903020009049
:1009700000E000BF00BF019840F08001022001F0BC
:10098000B1F980210420FFF7C5FC0021012001F00E
:10099000A9F980210A2000F04FFD002505E018F894
:1009A0000510092001F09EF96D1C4D45F7D3314625
:1009B000012001F097F90C2E03D180210D2000F0C9
:1009C0003BFD4FF47A7500BF042000F08DFC044617
:1009D0006D1E35B104F0010018B9009820400028C0
:1009E000F2D080210D20FFF795FC95B3062000F092
:1009F0007BFC00F01B0068BB262002900198204081
:100A000000F0010008B1CC2002900C2E24D10A2065
:100A100000F06AFC04460C2000F066FC00F00707BA
:100A20002FB1601E07EBC000CBF8000002E0E00031
:100A3000CBF8000004B90124122C00DD122400259B
:100A400005E0092000F050FC0AF805006D1CA542E5
:100A5000F7D301E0BB20029080210C2000F0ECFCD9
:100A60000021012001F03EF90298BDE8FE8F70B52B
:100A700088B005460C4608210846FFF74BFC0721C5
:100A80000D2001F02FF90321142000F0D5FC8DF882
:100A90000C5002A803AB012203A900900C20FFF721
:100AA0004DFF0646262E09D10298102806D19DF842
:100AB0000C0020709DF80D00607000E0BB263046F1
:100AC00008B070BD10B502211D48FFF70BFE0A20CB
:100AD00001F08CFA02211A48FFF702FE0A2001F009
:100AE00085FA02211648FFF7FDFD0A2001F07EFA83
:100AF0000F21012001F0F6F800BF012000F0F4FB07
:100B000000F010000028F8D10A2001F06FFA3D2112
:100B1000112001F0E7F81E212D2001F0E3F800215B
:100B20002C2001F0DFF88D212A2001F0DBF83E2196
:100B30002B2001F0D7F84021152001F0D3F810BD8B
:100B4000000C01407047000010B500F01DF80221B4
:100B50000C48FFF7C7FD0A2001F048FAFFF7B2FF83
:100B6000FFF7A0FE4120FFF70BFE7A211F2001F0C6
:100B7000B9F8012001F03AFA4FF4E13000F02CF816
:100B800010BD0000000C014008B50121082000F054
:100B900085F80220ADF8000003208DF80200102037
:100BA0008DF8030069460B48FFF7C6FC022109488F
:100BB000FFF798FD0220ADF8000028208DF8030013
:100BC00069460448FFF7B8FC4FF4165000F004F8EB
:100BD00008BD0000000C014010B586B004461D4859
:100BE00000F004FE4FF40060ADF8040004208DF81E
:100BF000070003208DF8060001A91748FFF79CFCA9
:100C00004FF48060ADF8040018208DF80700032031
:100C10008DF8060001A91048FFF78EFC0121880419
:100C200000F01CF802940020ADF80C00ADF80E00A6
:100C3000ADF81000ADF814000C20ADF8120002A9B8
:100C4000044800F07DFE0121024800F0C3FD06B01B
:100C500010BD000000480040000C014029B1064AC8
:100C6000D2690243044BDA6104E0034AD269824349
:100C7000014BDA61704700000010024029B1064ABA
:100C800012690243044B1A6104E0034A1269824369
:100C9000014B1A61704700000010024029B1064A5A
:100CA00092690243044B9A6104E0034A92698243C9
:100CB000014B9A61704700000010024029B1064ABA
:100CC000D2680243044BDA6004E0034AD2688243EC
:100CD000014BDA60704700000010024001490860D3
:100CE000704700004004424230B500210022002439
:100CF00000232D4D6D6805F00C0121B1042905D0AC
:100D0000082923D105E0294D056022E0274D056023
:100D10001FE0254D6D6805F47012234D6D6805F4D4
:100D20008034022505EB92421CB9214D55430560E4
:100D30000BE01D4D6D6805F400351DB11C4D55438C
:100D4000056002E0194D5543056002E0174D05604E
:100D500000BF00BF144D6D6805F0F0010909154D85
:100D60006B5C0568DD4045600F4D6D6805F4E06122
:100D7000090A104D6B5C4568DD4085600A4D6D6861
:100D800005F46051C90A0B4D6B5C4568DD40C560D8
:100D9000054D6D6805F44041890B074D6B5CC568D6
:100DA000B5FBF3F5056130BD0010024000127A007A
:100DB00000093D00140000202400002010B5014669
:100DC0000022002300204A11012A02D1094C236885
:100DD00006E0022A02D1074C236A01E0054C636A4F
:100DE00001F01F02012494401C400CB1012000E0DE
:100DF000002010BD0010024000210B4A11700A4A69
:100E0000203A82F82010012802D0042808D103E0FB
:100E10000121054A117004E00521034A117000E028
:100E200000BF00BF70470000201002400149086069
:100E3000704700003C0442420249096A0143014AEA
:100E40001162704700100240024909888143014A3B
:100E500011807047042800400348008840F01000CB
:100E600001490880704700000428004003480088BA
:100E70004FF6EF7108400149088070470428004090
:100E800070B500260024002500F07AF806463848A0
:100E9000B6FBF0F437480088A0423CD035490C80BE
:100EA00040F2B27510E02846FFF74DFC40B1B4F5B2
:100EB000B77F02D3A4F5B77404E0681C85B206E0DE
:100EC000A4F26D14681C85B2B4F5B67FEBD800BFF0
:100ED00029488580002516E027498888FFF733FCDC
:100EE00030B1012D04D11D2C01D31D3C09E00CE0D3
:100EF0002248405DA04203D82048405D241A00E00B
:100F000003E0681C85B21C2CE6D200BF681C1A499D
:100F10008871601CC8711648B6FBF0F100FB1164C3
:100F20004FF46160B4FBF0F0134908704FF4616056
:100F3000B4FBF0F100FB11403C21B0FBF1F00E4995
:100F400048704FF46160B4FBF0F100FB11403C21AC
:100F5000B0FBF1F201FB1200074988700B46DA7909
:100F60009979988800F028F803490872002070BD2C
:100F700080510100340000204C000020CC210008EA
:100F8000002103480188001F008841EA00407047A3
:100F90001C28004001460020064A12880A40D0B2B0
:100FA000044A121F12880A4012B108B1012000E061
:100FB0000020704704280040F0B503460C46154653
:100FC000642093FBF0F0C6B2642093FBF0F700FBC3
:100FD0001730C1B2132E02DD01F16400C1B2084620
:100FE000CF1701EB977701EBA707BAB2072092FB67
:100FF000F0F700FB172082B25719601EDFF82CC0F3
:101000001CF80000384482B2CF1701EB9777BF106D
:10101000A1EB87071FB9032C01DA501E82B207200B
:1010200092FBF0F700FB1720C0B2F0BDC021000812
:101030000EB50120FFF7AEFF20B1FFF721FF012021
:10104000104908700220FFF7A5FFA0B10220FFF7AA
:10105000FBFEFFF715FF0C4880780B4949780A4AD8
:101060001278CDE9002102900748C37982798188FE
:1010700006A000F049FE0520FFF7E6FE00F018F993
:101080000EBD0000320000204C000020416C617257
:101090006D2054696D653A25642D25642D256420E5
:1010A00025643A25643A25640A00000029B1064AFD
:1010B00012880243044B1A8004E0034A12888243D8
:1010C000014B1A8070470000002800401CB5002426
:1010D00001214FF0C050FFF7C1FD0120FFF7DCFBFD
:1010E0000420FFF78FF845F2500188423FD0FFF708
:1010F00081F80120FFF780FE04E0601CC4B20A20E2
:1011000000F074FF4120FFF759FE08B9FA2CF4DB18
:10111000FA2C01DB01201CBD4FF48070FFF78CFE20
:101120000120FFF783FE00F0C3F800F0CBF80121A7
:101130000846FFF7BBFF00F0BBF8FFF78DFE47F650
:10114000FF7000F0A5F800F0B3F80020009003460F
:1011500001221146019040F2DF7000F027F8FFF7FE
:1011600085FE45F250010420FFF75AF807E000F031
:10117000A9F801210846FFF799FF00F099F800F05F
:1011800004F8FFF77DFE0020C5E708B503208DF8C1
:10119000000000208DF801008DF8020001208DF87C
:1011A00003006846FFF736FB08BD00002DE9F05F3D
:1011B00006460F4690469946DDE90AAB002440F208
:1011C000B270864203DB40F63300864202DD012026
:1011D000BDE8F09F40F2B2750AE02846FFF7B3FA87
:1011E00010B12048044401E01F480444681C85B243
:1011F000B542F2DB781EC7B2002510E01B48405D07
:1012000040F2A321484304EBC0143046FFF79BFA99
:1012100018B1012D01D116480444681C85B2BD42A5
:10122000ECDBA8F1010040F2A321484304EBC01419
:10123000C9EB4910C0EB092004EB0014CAEB0A10FB
:1012400004EB80045C4401214FF0C050FFF706FD21
:101250000120FFF721FB204600F00CF800F028F8F1
:101260000020B5E70085E2018033E101CC210008D0
:101270008051010000B50246FFF7EEFD100C034956
:101280000880091D0A80FFF7F1FD00BD1828004005
:1012900000B50246FFF7E0FDC2F3034003490880B2
:1012A000091D0A80FFF7E2FD00BD0000082800408C
:1012B00000BF0348008800F020000028F9D07047E4
:1012C00004280040074800884FF6F7710840054998
:1012D000088000BF0348008800F008000028F9D00B
:1012E000704700000428004070B5044604F03F0039
:1012F00040F08005284600F011FC034800F066FC31
:10130000C6B2304670BD00000048004010B50B4624
:10131000002105E0048823F81140801C4C1CA1B278
:101320009142F7DB10BD00002DE9F05F80468A4650
:101330001746B8F1006F02D33348804501D3BDE8AA
:10134000F09FFFF7B9F8A8F1006B4FEA9B25CBF3AC
:101350004809C9F50074A74200DC3C464DE04FF057
:10136000006101EB85208A142849FFF7CFFF002692
:101370000BE009EB0600254931F810004FF6FF712C
:10138000884200D003E0701C86B2A642F1DB00BFA9
:10139000A6421BDA4FF0006101EB8520FFF71EF833
:1013A000002608E03AF8160006EB0901174A22F871
:1013B0001100701C86B2A642F4DB4FF0006101EB15
:1013C00085208A14114900F023F804E02246514692
:1013D000404600F01DF8A74200D10FE06D1C4FF011
:1013E00000090AEB440AA044381B87B2B7F5007F16
:1013F00002DD4FF4007400E03C46B0E700BFFFF7A9
:101400002FF800BF9BE700000000010856000020F5
:101410002DE9F04105460E461746002407E036F850
:1014200014102846FFF726F8AD1C601C84B2BC429D
:10143000F5DBBDE8F081704770B505460C462846DF
:10144000FFF752FF064646EA0401284600F04AFC30
:1014500070BD10B500F002F810BD00000CB5002002
:10146000019000903348006840F4803031490860B2
:1014700000BF3048006800F4003000900198401C24
:101480000190009818B90198B0F5A06FF1D12948E2
:10149000006800F4003010B10120009001E000204D
:1014A00000900098012843D12348006840F01000C4
:1014B000214908600846006820F0030008600846DB
:1014C000006840F0020008601A4840681949486006
:1014D0000846406848600846406840F480604860BC
:1014E0000846406820F47C1048600846406840F494
:1014F000E81048600846006840F08070086000BF4F
:101500000C48006800F000700028F9D009484068D5
:1015100020F00300074948600846406840F0020098
:10152000486000BF0348406800F00C000828F9D16B
:101530000CBD00000010024000200240042808D129
:101540004FF0E021096941F004014FF0E022116100
:1015500007E04FF0E021096921F004014FF0E0229B
:10156000116170477047000010B51348006840F0E3
:1015700001001149086008464068104908400E49BA
:101580004860084600680E4908400B490860084654
:10159000006820F4802008600846406820F4FE00BF
:1015A00048604FF41F008860FFF753FF4FF0006062
:1015B0000449086010BD0000001002400000FFF860
:1015C000FFFFF6FE08ED00E010B50121064800F02F
:1015D0004EF818B10121044800F03AF803480068B9
:1015E000401C0249086010BD000400403800002083
:1015F0007FB505460C4601210220FFF72FFBADF811
:101600000850ADF804400020ADF80A00ADF806001F
:1016100001A90E4800F046F8012211460B4800F0DF
:1016200037F81D208DF8000000208DF80100032000
:101630008DF8020001208DF803006846FFF7EAF8F4
:101640000121024800F007F87FBD000000040040BF
:10165000CA430282704721B1028842F0010202802F
:1016600004E002884FF6FE731A400280704730B5DE
:101670000246002000230024158A05EA010395890B
:1016800005EA010413B10CB1012000E0002030BDD7
:101690001AB183890B43838102E083898B43838161
:1016A00070470000002202881D4B98420ED01D4B4F
:1016B00098420BD0B0F1804F08D01B4B984205D018
:1016C0001A4B984202D01A4B984204D14FF68F73AE
:1016D0001A404B881A43174B984207D0164B984232
:1016E00004D04FF6FF431A40CB881A4302808B8800
:1016F00083850B8803850A4B98420BD0094B98428F
:1017000008D00E4B984205D00D4B984202D00D4B9D
:10171000984201D10B7A038601238382704700002F
:10172000002C01400034014000040040000800404B
:10173000000C004000100040001400400040014038
:10174000004401400048014010B500BF40F225515F
:10175000104800F0A6F860B10E48001D0088C1B224
:101760000D4802780078401C0B4B18700B488154D0
:101770000FE040F22441074800F093F848B10548D3
:10178000001D0088C4B203480088C4B20120044987
:10179000087010BD003801402C00002040000020DF
:1017A0002D00002010B540F22551074800F079F8CF
:1017B00040B1054800F030F9C4B2FF200349087079
:1017C0000348047010BD00000048004036000020AF
:1017D0003700002021B1828942F40052828104E066
:1017E00082894DF6FF731A408281704710B5044616
:1017F0002048844209D101218803FFF75FFA0021C4
:101800004FF48040FFF75AFA32E01B48844209D176
:1018100001214804FFF732FA00214FF40030FFF7AE
:101820002DFA25E01548844209D101218804FFF7EB
:1018300025FA00214FF48020FFF720FA18E0104825
:10184000844209D10121C804FFF718FA00214FF49E
:101850000020FFF713FA0BE00A48844208D1012167
:101860000805FFF70BFA00214FF48010FFF706FA86
:1018700010BD000000380140004400400048004016
:10188000004C00400050004002460020B1F5007FAF
:1018900000D100BF13880B400BB1012000E00020F5
:1018A000704770B50246002400230025002040F652
:1018B0006A16B14200D100BFC1F3421501F01F0307
:1018C000012606FA03F3012D02D19689334006E082
:1018D000022D02D1168A334001E0968A33400C1261
:1018E000012606FA04F41688344013B10CB1012025
:1018F00000E0002070BDF0B503460024002600255E
:10190000002040F66A17B94200D100BF1846C1F363
:10191000421401F01F06012707FA06F5012C01D138
:101920000C3004E0022C01D1103000E014301AB168
:1019300007682F43076002E00768AF430760F0BD08
:101940002DE9F04786B005460E460024A24600BFAA
:10195000A1460027B08900B100BF2F462C8A4CF663
:10196000FF700440F08804432C82AC894EF6F310DB
:101970000440B08831890843718908430443AC812D
:10198000AC8A4FF6FF400440B0890443AC8201A802
:10199000FFF7AAF91F48874202D1DDF810A001E045
:1019A000DDF80CA0A88900F4004040B10AEBCA00A1
:1019B00000EB0A1031684900B0FBF1F807E00AEBD0
:1019C000CA0000EB0A1031688900B0FBF1F864200E
:1019D000B8FBF0F004012009642101FB1089A889FB
:1019E00000F4004040B1322000EBC900B0FBF1F040
:1019F00000F00700044308E0322000EB09106421E6
:101A0000B0FBF1F000F00F0004432C8106B0BDE8FC
:101A1000F08700000038014001468888C0F30800C4
:101A20007047C1F3080282807047000008B50121A9
:101A30000820FFF733F901210846FFF72FF90121AC
:101A40001548FEF705FE2020ADF8000010208DF8A7
:101A5000030003208DF8020069461048FEF76CFD74
:101A60001020ADF8000069460C48FEF765FD002027
:101A70000B4908600B49C1F890014FF40071074809
:101A8000FEF72EFE642000F0B1FA4FF40071034817
:101A9000FEF728FE08BD000000023000000C0140E7
:101AA000948121420080214270B5044600201949EA
:101AB00008601949C1F89401642000F0BDFA0120C2
:101AC00014490860642000F0B7FA00201249C1F8F8
:101AD0009001642000F0B0FA01200E4908606420F3
:101AE00000F0AAFA00200C49C1F8900101250EE08F
:101AF00001200849091D0860642000F09DFA0020BB
:101B00000549C1F89401642000F096FA6D1CA542C5
:101B1000EEDD70BD908121420080214210B5044667
:101B20002146024800F08CF810BD0000004800403B
:101B300000BFFEE73EB505464FF6CF60ADF80000AA
:101B40000120ADF802000C20ADF8040040F2023094
:101B5000ADF806000020ADF808004FF4A060ADF825
:101B60000A00002407E0684600EB4401284600F024
:101B7000E6FA601CC4B2062CF5DB3EBDFEB5054698
:101B80000E464FF6CF60ADF800000120ADF8020020
:101B90000F20ADF8040040F20230ADF8060000203E
:101BA000ADF80800ADF80A00002407E0684600EB35
:101BB0004401284600F0C3FA601CC4B2062CF5DBD1
:101BC0003146284600F05CF8FEBD000010B5044622
:101BD0000B480C49086008E00A490868411E094A98
:101BE000116010B94FF6FF7010BD20212046FFF79D
:101BF0004BFE0028F0D02046FFF70EFFC0B2F3E7FF
:101C0000FFFF0F002800002001460020094A12783B
:101C1000012A0ED10022074B1A70074A90794FF61D
:101C2000FF7202EA0020044AD27910430022034BDB
:101C30001A7070472D000020400000202C0000206A
:101C400070B504460D460C480C49086029462046EC
:101C5000FFF7E7FE08E009490868411E074A1160DE
:101C600010B94FF6FF7070BD80212046FFF70CFEC3
:101C70000028F0D00020F6E7FFFF0F00280000202A
:101C8000F8B506460D466946284600F00CF80024D3
:101C900006E00DEB0401304600F042FA601CC4B2CD
:101CA000032CF6DBF8BDF0B5642590FBF5F5ECB23E
:101CB0000A2590FBF5F50A2695FBF6F706FB175566
:101CC000EAB20A2590FBF5F605FB1605EBB204F126
:101CD00030050D7002F130054D7003F130058D7047
:101CE000F0BD000070B504460D4604F03F063046D6
:101CF000FFF714FF0348FFF769FF2846FFF70EFFC1
:101D000070BD0000004800400FB4054B10B503A99A
:101D1000044A029800F018F810BC5DF814FB0000AB
:101D2000852000083C00002002E008C8121F08C1FE
:101D3000002AFAD170477047002001E001C1121F4C
:101D4000002AFBD1704700002DE9FF4F8BB09A4667
:101D50000F460546002606E025280BD052460D9971
:101D600090476D1C761C28780028F5D10FB03046BE
:101D7000BDE8F08F0024A0460122604900E0044342
:101D800015F8013F203B02FA03F00842F7D128780A
:101D90002E2817D115F8010F44F004042A280ED07C
:101DA0006FF02F022878A0F1300109290AD808EB3A
:101DB000880102EB410100EB01086D1CF2E757F8C6
:101DC000048B6D1C287869283ED006DC0028CDD015
:101DD00063280BD0642804D136E0732810D075280E
:101DE0004BD052460D999047761C85E017F8040BAE
:101DF0008DF8000000208DF80100E946012003E085
:101E000057F8049B4FF0FF3061074FF0000401D4F6
:101E10000AE0641C44450DDA8442FADB19F8041028
:101E20000029F6D106E0641C8442FCDB19F804109A
:101E30000029F8D1264404E019F8010B52460D9907
:101E40009047641EF8D257E001CF4FF00A0B0028EC
:101E500002DA40422D2102E0210504D52B218DF824
:101E60002410012103E0E10705D02021F7E70DF15F
:101E7000200908910CE00021F9E701CF4FF00A0B8F
:101E8000F9E75946FEF74EF901F1300209F8012D44
:101E90000028F6D1ADEB090000F1200B600701D45A
:101EA0004FF00108D84502DDA8EB0B0000E0002050
:101EB0008046002406E009A85246005D0D9990472F
:101EC000641C761C08988442F5DB04E030205246FE
:101ED0000D999047761CB8F10001A8F10108F5DCD6
:101EE00005E019F8010B52460D999047761CBBF19D
:101EF0000001ABF1010BF4DC6D1C34E70928010093
:101F000000B585B001210420FEF7C8FE2448FFF784
:101F10006DFC4FF48060ADF8100004208DF81300C4
:101F200003208DF8120004A91E48FEF705FB4FF4AC
:101F30000070ADF8100018208DF8130003208DF804
:101F4000120004A91748FEF7F7FA01218803FEF7EB
:101F5000A5FE4FF4E13000900020ADF80400ADF88C
:101F60000600ADF80800ADF80C000C20ADF80A0032
:101F700069460B48FFF7E4FCFEF737FC012240F20C
:101F800025510748FFF7B7FC012240F224410448DD
:101F9000FFF7B1FC01210248FFF71CFC05B000BDB2
:101FA000003801400008014010B56FF00400FFF751
:101FB000C5FA0A4800680A49B0FBF1F009490870FF
:101FC0000846007800EB4001C1EBC0104FF6FF71EE
:101FD00001EAC0000449088010BD00000000002094
:101FE00000127A002E000020300000200146114A25
:101FF00012884A434FF0E0235A6100229A611A4640
:10200000126942F001021A6100BF4FF0E02210692C
:1020100000F001021AB100F48032002AF5D04FF02E
:10202000E022126922F001024FF0E0231A6100223F
:102030009A617047300000200146114A12784A43E5
:102040004FF0E0235A6100229A611A46126942F069
:1020500001021A6100BF4FF0E022106900F0010296
:102060001AB100F48032002AF5D04FF0E022126954
:1020700022F001024FF0E0231A6100229A617047BA
:102080002E00002070B504460D46E1B20548FFF76A
:10209000C8FC00BF80210348FFF7F6FB0028F9D0F9
:1020A000204670BD0038014008B5FFF77DFFFFF7FF
:1020B0000DF8FEF7C3F8FFF723FF00F05FF84FF4C9
:1020C00000711548FEF70EFBFEF73EFD41F61F417D
:1020D0006320FFF78DFAFFF7A9FC1CE00F48FFF71C
:1020E00093FD04461CB1A4F2023090B900E011E067
:1020F0000520FFF7D9FC6846FEF73CF828B9BDF883
:1021000000100648FFF73AFD02E00448FFF712FD11
:1021100000E000BF00BFE1E7000C014000380140D3
:1021200070B505460C4621782846FFF77AFC00BFBB
:1021300080212846FFF7A8FB0028F9D070BD2DE9C3
:10214000F04105460C462088060A27783146284685
:10215000FFF767FC00BF80212846FFF795FB0028AA
:10216000F9D039462846FFF75CFC00BF802128469D
:10217000FFF78AFB0028F9D0BDE8F08138B50121CE
:102180000820FEF78BFD4FF40070ADF80000102022
:102190008DF8030003208DF8020069460748FEF71A
:1021A000CBF94FF400710548FEF79AFA002400E0DD
:1021B000641C40F2E7308442FADB38BD000C014079
:1021C0000003030601040602050003051F1C1F1E71
:1021D0001F1E1F1F1E1F1E1FF821000800000020C9
:1021E00040000000281D00083822000840000020A0
:1021F00018080000381D000800A24A040000000072
:1022000000000000010203040607080900000000A6
:102210000102030401020304060708090204060878
:10222000FFFF0F00000000000000000000000000A1
:082230000000000000000000A6
:04000005080000ED02
:00000001FF
