:020000040800F2
:10000000B80800200101000861240008C118000898
:100010005D240008B50D00082B5300080000000007
:10002000000000000000000000000000AB480008D5
:100030007D11000800000000F5350008D9490008CE
:100040001B0100081B0100081B010008D943000820
:100050001B0100081B010008311300081B010008E8
:100060001B0100081B0100081B0100081B01000800
:100070001B0100081B0100081B0100081B010008F0
:100080001B0100081B0100081B0100081B010008E0
:100090001B0100081B0100081B010008E1130008F8
:1000A0001B0100081B0100081B0100081B010008C0
:1000B0001B0100083D4A00081B0100081B01000845
:1000C0001B0100081B0100081B0100081B010008A0
:1000D0001B010008794E0008D54E0008394F000872
:1000E000851300081B0100081B010008DFF80CD075
:1000F00000F082FA00480047595E0008B808002066
:100100000648804706480047FEE7FEE7FEE7FEE7B1
:10011000FEE7FEE7FEE7FEE7FEE7FEE7DD49000853
:10012000ED000008F0B480EA0102D40F4200B2EB07
:10013000410F02D20246084611464A0042D0C30D82
:10014000DDB2C1F3C752AD1A202D35DAC1F3160165
:1001500041F4000204B15242C5F1200602FA06F150
:100160002A411044B3EBD05F23D0C4B1012DA0EBE2
:10017000C35009DCF0BC4FF0004202EAC352DBB2CC
:1001800000F5000000F0ADB9400000F1807000EB18
:10019000C350A0F1807040EAD170490009E04908DD
:1001A00041EAC071A0EBC35000F50000400800EB2D
:1001B000C350F0BC00F08CB96142012202EB410156
:1001C000001BF6E7F0BC704781F00041AAE780F021
:1001D0000040A7E780EA010210B502F000434000AA
:1001E00022D04A001FD0010E01EB1261C0F356006D
:1001F000C2F3560240F4000042F40002A0FB0220C9
:1002000000047F39140400D0401C50EA124001D48D
:100210004000491EC2B20C0604EBD010401C40083E
:10022000802A02D003E0002010BD20F00100002948
:1002300000DA0020184310BD2DE9FE4F81EA0304C7
:1002400004F0004421F0004100944FF0000B23F033
:10025000004350EA01045ED052EA03045BD0C3F3CA
:100260000A54C1F30A552C44A4F2F3340194A0FBC0
:100270000254C1F3130141F48011C3F3130343F497
:10028000801301FB024400FB034E840A970A44EAF0
:10029000815447EA8357A4FB076802958D0A05FB42
:1002A00007854FEA932C04FB0C542705029D4FEA67
:1002B000065847EA1637B5EB08056EEB070C870EB4
:1002C000920E47EA811742EA8312A7FB0201B6EBBE
:1002D0000B0164EB00042B0D43EA0C335E1844EB76
:1002E0001C50DA465146E7FB0201C5F313044FEAFE
:1002F0000B3343EA14534FEA0432019C43EA0603EA
:10030000A4F10C040294009CCDE900B400F026F99D
:1003100003B0BDE8F08F00200146F9E72DE9F04D6C
:1003200081EA030404F0004B21F0004514464FF02D
:10033000000A23F0004150EA050220D054EA0102ED
:100340001DD0C5F30A570246C5F31303C1F31300CA
:10035000C1F30A5640F4801543F48013A7EB060856
:10036000101BD64608F2FD3873EB050002D308F1E6
:10037000010801E092185B41B8F1000F03DA002098
:100380000146BDE8F08D00204FF4801106468446FA
:100390000EE0171B73EB050705D3121B63EB050378
:1003A00006434CEA010C49084FEA300092185B41C1
:1003B00050EA0107EDD152EA030012D082EA0400AC
:1003C00083EA0501084305D0101BAB4106D2012288
:1003D000002306E000224FF0004302E06FF001022C
:1003E00053101AEB06004CEB085110EB0A0041EBDE
:1003F0000B01BDE8F04D00F0A2B80EB540F233415C
:1004000002910021CDE900110A460B4600F0A6F842
:1004100003B000BD00F0004230F000400AD0C10D32
:1004200001F56071C0F3160042EA0151C2084007AD
:1004300011437047002001467047000030B5041E8C
:1004400071F1000404DB4FF00044404264EB010111
:10045000141E73F1000405DB1C464FF000435242AA
:1004600063EB04038B4208BF824230BD01F00043BE
:1004700030B421F0004150EA010206D00A0DA2F585
:100480006072C1F31301002A02DC30BC0020704707
:10049000440F44EAC104C100E01830BC00EBC25074
:1004A00000F016B830B50B4601460020202201248A
:1004B00009E021FA02F59D4205D303FA02F5491B32
:1004C00004FA02F52844151EA2F10102F1DC30BD48
:1004D0000029A8BF7047401C490008BF20F0010058
:1004E000704710B4B0FA80FC00FA0CF050EA010436
:1004F00004BF10BC704749B1CCF1200421FA04F4C8
:1005000011FA0CF118BF012121430843A3EB0C01A0
:10051000CB1D4FEA00614FEA102042BF002010BC03
:10052000704700EBC35010440029A4BF10BC7047B3
:10053000401C490008BF20F0010010BC704710B5F6
:10054000141E73F1000408DA401C41F100019218F6
:100550005B411A4301D120F0010010BD2DE9F04D9F
:1005600092469B4611B1B1FA81F202E0B0FA80F2F4
:100570002032904600F052F804460F4640EA0A0046
:1005800041EA0B0153465A46084313D0114653EA39
:10059000010019D0C8F14002504600F04EF805465F
:1005A0000E4650465946424600F038F8084305D0FA
:1005B000012004E020463946BDE8F08D00200543C7
:1005C00046EAE0762C4337430A986305E40AA0EB39
:1005D00008000022FD0A44EA47540A3002D50020F0
:1005E0000146E9E7010510196941DDE908450019EF
:1005F0006941BDE8F04DA2E7064C074D06E0E06812
:1006000040F0010394E8070098471034AC42F6D359
:10061000FFF770FDFC8A00081C8B0008202A04DB11
:10062000203A00FA02F1002070479140C2F1200305
:1006300020FA03F3194390407047202A04DB203A44
:1006400021FA02F00021704721FA02F3D040C2F1F2
:100650002002914008431946704721B1826842F058
:100660000102826003E0826822F00102826070472A
:1006700010B504461248844208D10121401503F008
:10068000BBFC0021601503F0B7FC17E00D48844265
:1006900008D10121001503F0AFFC0021201503F063
:1006A000ABFC0BE00848844208D10121C80303F0E9
:1006B000A3FC00214FF4004003F09EFC10BD00009D
:1006C0000024014000280140003C01400146002078
:1006D0008A6802F004020AB1012000E0002070479D
:1006E0000146C86C80B270470246002013680B4078
:1006F0000BB1012000E000207047014600208A680D
:1007000002F008020AB1012000E00020704700005A
:1007100030B502460020002350680F4C20400D7970
:100720000C6844EA05242043506090680B4C20403C
:10073000D1E902542C434D7944EA450420439060AA
:10074000D06A20F470000C7C641EE4B2234340EABB
:100750000350D06230BD0000FFFEF0FFFDF7F1FF57
:10076000F0B504460D4600200021092D11DDE0689A
:10077000A5F10A0606EB4607072606FA07F18843A5
:10078000A5F10A0606EB460603FA06F10843E06007
:100790000CE0206905EB4507072606FA07F18843B8
:1007A00005EB450603FA06F108432061072A0FDA34
:1007B000606B561E06EB86071F2606FA07F1884374
:1007C000561E06EB860605FA06F10843606322E032
:1007D0000D2A0FDA206BD61F06EB86071F2606FAB6
:1007E00007F18843D61F06EB860605FA06F1084393
:1007F000206310E0E06AA2F10D0606EB86071F26D3
:1008000006FA07F18843A2F10D0606EB860605FA03
:1008100006F10843E062F0BD816841F008018160A3
:10082000704721B1826842F4A002826003E08268CE
:1008300022F4A00282607047816841F00401816067
:100840007047000030B10749096841F40001054ACA
:10085000116005E00349096821F40001014A1160B3
:1008600070470000082401402DE9FF4106460022A0
:1008700011465E4804F0D1FD00253BE042F21070C5
:1008800003F0B2FAF2280AD14FF4A062691C57486B
:1008900004F0A0FD4FF4A06004B0BDE8F081280290
:1008A00002F03EFF0446F02C03D0F12C01D0262CA0
:1008B00008D14FF4A062691C4C4804F08BFD4FF442
:1008C000A060E9E7192C08D14FF44072691C474831
:1008D00004F080FD4FF44070DEE7022D04DA0022C0
:1008E000691C424804F099FD4FF47A7005F0AEF9A6
:1008F000681CC5B2032DC1DB02F0AEFF0446F02C2C
:1009000007D0F12C05D0262C03D0252C01D01A2C91
:1009100008D14FF440720321344804F05BFD4FF4DA
:100920004070B9E703A802F047FF0446F02C03D05B
:10093000F12C01D0222C08D14FF4A06203212B48C6
:1009400004F048FD4FF4A060A6E79DF80C100802E3
:1009500003F02EF80446F02C05D0F12C03D01D2C0A
:1009600001D0262C08D14FF4A06203211F4804F0C7
:1009700031FD4FF4A0608FE7182C08D14FF480624E
:1009800003211A4804F026FD4FF4806084E7002517
:100990001FE0174800EBC507012202A9384603F003
:1009A000EFFEBDF808004FF6FF7188420FD1ADF899
:1009B00000500120ADF802009DF80C0001900422C7
:1009C0006946384603F0EAFE3580002064E7681C7B
:1009D00085B2B5F57A7FDCDB4FF4A06203210348D2
:1009E00004F0F8FC4FF4A06056E700000038014026
:1009F0005EF000082DE9F04389B007464F4890F8B3
:100A000005900024007B303840F63541484304EB24
:100A100040144A48407B303840F27121484304EB8F
:100A200000144648807B303800EB4001C1EBC01019
:100A300004EBC0044148C07B303800EBC00101EB3F
:100A4000001004EB80043D48007C303800EB80004F
:100A500004EB40043948407C30380444B9F1120FAB
:100A600001D1012505E0B9F12A0F01D1022500E0ED
:100A7000032500265CE006EB8600314901EB800887
:100A80000A2208A9404603F07BFEBDF820004FF67D
:100A9000FF7188424AD13E80ADF80060ADF8025047
:100AA0000194012D04D0022D08D0032D38D126E069
:100AB00004226946404603F071FE32E005A803F0C7
:100AC00005FEBDF81400ADF80800BDF81600ADF83D
:100AD0000A00BDF81800ADF80C00BDF81A00ADF81A
:100AE0000E00BDF81C00ADF81000BDF81E00ADF8FA
:100AF00012000A226946404603F050FE11E005A8A4
:100B000003F0E4FDBDF81400ADF80800BDF81600D0
:100B1000ADF80A0006226946404603F03FFE00E0B9
:100B200000BF00BF002009B0BDE8F083701C86B292
:100B3000B6F5FA7F9FDB4FF40060F4E75000002029
:100B40004CC900082DE9FF41054603A800F0CBFE83
:100B50000746012F53D100241CE02A4800EBC406AD
:100B600004226946304603F00BFEBDF800004FF644
:100B7000FF7188420CD0BDF80200022808D1039909
:100B80000198884204D14FF4806004B0BDE8F08140
:100B9000601C84B2B4F57A7FDFDB002429E01948B9
:100BA00000EBC406012202A9304603F0E9FDBDF8BE
:100BB00008004FF6FF7188420ED1ADF800400220C8
:100BC000ADF802000398019004226946304603F014
:100BD000E5FD2C800020D8E7BDF80200022806D1F0
:100BE00003990198884202D14FF4A060CDE7601CC0
:100BF00084B2B4F57A7FD2DB4FF4A060C5E74FF43E
:100C0000A060C2E75EF0000830B5014608783038D1
:100C1000C4B248783038C2B288783038C3B2642061
:100C2000604302EB820500EB4500184480B230BD02
:100C300010B5012003F0F0F9002003F0EDF910BD2C
:100C400008B5014600200090034800900098084431
:100C500000900098008808BD006C004008B5002294
:100C60000092044A0092009A02440092009A116095
:100C700008BD0000006C004010B505A004F074FE33
:100C80004FF4FA6004F0E2FF04A004F06DFE10BD22
:100C900041542B444953430D0A00000041542B5347
:100CA0004C454550320D0A0010B54FF480510B48A9
:100CB00000F070FD4FF48051084800F069FD642099
:100CC00004F0C4FF4FF48051044800F063FD4FF47A
:100CD0000061024800F05EFD10BD00000008014008
:100CE0001FB501210C2003F077F910208DF80F00BB
:100CF00003208DF80E004FF40060ADF80C001020BA
:100D00008DF80F0003208DF80E0003A9274800F08E
:100D10006BFC4FF48050ADF80C0010208DF80F00E4
:100D200003208DF80E0003A9204800F05DFC4FF46D
:100D30008070ADF80C0004208DF80F0003208DF8B2
:100D40000E0003A91A4800F04FFC0121084603F0E9
:100D500043F90821012000F027FC4FF48070019036
:100D600000208DF8080008208DF8090001208DF87A
:100D70000A0001A800F040FB17208DF800000220B7
:100D80008DF8010005208DF8020001208DF8030088
:100D9000684601F08FFB4FF40061044800F0FAFC54
:100DA0004FF48051014800F0F5FC1FBD00080140E0
:100DB000000C014000BFFEE770B505460C46284612
:100DC00003F066FC064626EA0401284604F0BAFD54
:100DD00070BD00002DE9FC47002500260027A8462D
:100DE000A94600243248007B303800EB4001C1EBBB
:100DF000C01004EBC0042E48407B303800EBC0012B
:100E000001EB001004EB80042948807B303800EBB4
:100E1000800004EB40042648C07B3038204484B274
:100E20002348007C303800EB800005EB400520486B
:100E3000407C30382844C5B21D48807C303800EBF7
:100E4000800006EB40061A48C07C30383044C6B2F9
:100E50001748007D303800EB800007EB400714484E
:100E6000407D30383844C7B21148807D303800EBBF
:100E7000800008EB40080E48C07D3038404400F048
:100E8000FF080B48007E303800EB800009EB40097A
:100E90000748407E3038484400F0FF093B46324660
:100EA00029462046CDE9008903F054FBBDE8FC87C4
:100EB0005000002070B503460024002007E01D5CB0
:100EC0000E5CB54201D1651CECB2451CE8B2904203
:100ED000F5DB944201D1002070BD4FF40060FBE7C8
:100EE0003EB502A802F06AFEE8B9002414E00F48FB
:100EF00000EBC40504226946284603F041FC9DF836
:100F000008100198884205D1BDF80200012801D1DE
:100F100000203EBD601C84B240F2E7308442E6DB34
:100F20004FF40060F5E74FF40060F2E75EF0000870
:100F30002DE9F04104460E460027062E22D12078E6
:100F400031494843617840F27122514300EB01106E
:100F5000A17801EB4102C2EBC11100EBC100E178C5
:100F600001EBC10202EB011100EB8100217901EBE1
:100F7000810100EB410061794718384600F046F8DE
:100F8000BDE8F08100252DE0605D1F494843691CE4
:100F9000615C40F27122514300EB0111A81C205CFE
:100FA00000EB4002C2EBC01001EBC001E81C205C6A
:100FB00000EBC00202EB001001EB8001281D205C59
:100FC00000EB800001EB4001681D205C0F183846E3
:100FD00000F01CF88046B8F1000F01D14046CFE781
:100FE000681CC5B2B01FA842CEDA082E09D120462F
:100FF00000F05AF818B1204600F036F808B9002081
:10100000BEE74FF40060BBE7A086010070B586B074
:10101000054600241FE004EB8400124901EB800622
:101020000A2201A9304603F0ABFBBDF804004FF6DD
:10103000FF71884201D0012000E000200299A942FE
:1010400001D1012100E00021084010B1002006B0CC
:1010500070BD601C84B2B4F5FA7FDCDB4FF4006035
:10106000F5E700004CC9000810B586B004466A4692
:1010700002A904A801F068FC0822214604A8FFF791
:1010800019FF58B10822214602A8FFF713FF28B123
:10109000082221466846FFF70DFF10B9002006B070
:1010A00010BD4FF40060FAE770B58CB0054600241F
:1010B0002CE004EB8400184901EB80060A2201A908
:1010C000304603F05DFBBDF804004FF6FF71884227
:1010D0001AD006AB08AA0AA9029801F09DFE0822C0
:1010E00029460AA8FFF7E6FE58B10822294608A8B3
:1010F000FFF7E0FE28B10822294606A8FFF7DAFE2E
:1011000010B900200CB070BD601C84B2B4F5FA7F39
:10111000CFDB4FF40060F5E74CC900087CB505460D
:10112000002418E00F4800EBC4060422694630464C
:1011300003F026FBBDF800004FF6FF71884208D08F
:10114000BDF80200022804D10198A84201D1002074
:101150007CBD601C84B2B4F57A7FE3DB4FF40060A1
:10116000F6E700005EF000080146002003E02022C0
:101170000A54421CD0B21028F9DB704770470000B7
:101180003EB504464FF6FF700290104800EBC405D0
:1011900004226946284603F0F3FAB4F57A7F12DA9E
:1011A000BDF80000A0420ED1012202A9284603F09A
:1011B000F5FA0199C8B202F01FFA08B900203EBD45
:1011C0004FF40060FBE74FF40060F8E75EF00008C2
:1011D00038B504464FF6FF700090B4F5FA7F0ADA8E
:1011E00004EB8401054A02EB81000122694603F009
:1011F000D5FA002038BD4FF40060FBE74CC9000869
:1012000038B504464FF6FF700090B4F57A7F08DADF
:10121000054901EBC4000122694603F0BFFA002032
:1012200038BD4FF40060FBE75EF000082DE9F84F91
:1012300006460F469046994644463546BA46B9F1A9
:10124000000F01D001F0B4F91BE0207880280CDAFF
:1012500001200090637822785146284601F08CFAEC
:1012600005F10800C5B2641C0BE000200090637813
:1012700022785146284601F07FFA05F11000C5B2E8
:10128000A41C20780028E0D1BDE8F88F2DE9F84FA4
:1012900006460F469046994644463546BA46B9F149
:1012A000000F23D05146002001F053FA4FF0000BFD
:1012B00006E0002004F03EFB0BF1010000F0FF0B04
:1012C000BBF1800FF5DB0AF10100C1B2002001F093
:1012D00040FA4FF0000B06E0002004F02BFB0BF16E
:1012E000010000F0FF0BBBF1800FF5DB1BE0207865
:1012F00080280CDA01200090637822785146284635
:1013000001F03AFA05F10800C5B2641C0BE00020B8
:101310000090637822785146284601F02DFA05F1B5
:101320001000C5B2A41C20780028E0D1BDE8F88FD9
:1013300010B511480078D0B103F050FB04F014FD53
:1013400000200D4908700D49087004F04FFA01F0B3
:10135000F5F94FF400710A4800F01CFA552003F02B
:10136000A7FF02F077FD03F02BFDFFF79DFC0120A6
:1013700000F03CF810BD00003A0000202D000020D5
:10138000000C014010B513480078E8B103F026FBCB
:1013900004F0EAFC00200F49087001200E49087093
:1013A00004F024FA02F0EAFB01F0C8F94FF40071EE
:1013B0000A4800F0EFF9552003F07AFF02F04AFDE9
:1013C00003F0FEFCFFF770FC4FF4804000F00EF8D5
:1013D00010BD00003A0000202D000020000C01404C
:1013E00010B54FF4807000F001F810BD014908609D
:1013F0007047000014040140002123498279002A2B
:101400003AD00A46126803689A430B461A600A1DCE
:10141000126803689A430B1D1A60027911440A6826
:1014200003681A430A60184A0832126803689A432C
:10143000154B08331A601A1D126803689A43124B41
:101440000C331A604279102A0ED11A1F12680368F1
:101450001A430D4B08331A601A1D126803681A43A9
:10146000094B0C331A600DE00749427911440A68B0
:1014700003681A430A6005E0027911440A680368A8
:101480009A430A60704700000004014030B50546E9
:1014900004244FF4302000F073F80446042C19D1D2
:1014A0000D48006940F002000B490861084645619B
:1014B000006940F0400008614FF4302000F060F80F
:1014C0000446052C06D00448006941F6FD71084029
:1014D00001490861204630BD0020024004200B492C
:1014E000C96801F0010109B101200EE00749C9688E
:1014F00001F0040109B1022007E00449C96801F0C4
:10150000100109B1032000E00420704700200240D0
:101510000348006940F080000149086170470000FD
:101520000020024070B505460E460424E00200F09B
:1015300027F80446042C13D10A48006940F0010042
:10154000084908612E80E00200F01AF80446052CD4
:1015500006D00448006941F6FE710840014908615F
:10156000204670BD002002400248034948600348FD
:10157000486070472301674500200240AB89EFCDEA
:1015800000B502460423FFF7A9FF034603E0FFF777
:10159000A5FF0346521E012B01D1002AF7D102B943
:1015A0000523184600BD000030B500228B071C0F34
:1015B0000F2303FA04F20B4B8C1053F8243093439F
:1015C000084C8D1044F8253023468C1053F82430F5
:1015D0008C07240F00FA04F42343024C8D1044F8C6
:1015E000253030BD080001402DE9F04102460025BC
:1015F0000026002000230024002791F803C00CF0EF
:101600000F0591F803C00CF0100CBCF1000F03D0D3
:1016100091F802C04CEA050591F800C0BCF1000F3A
:1016200031D0146800202BE04FF0010C0CFA00F3CD
:10163000B1F800C00CEA03069E4220D183004FF0AF
:101640000F0C0CFA03F7BC4305FA03FC4CEA040444
:1016500091F803C0BCF1280F06D14FF0010C0CFA31
:1016600000FCC2F814C00AE091F803C0BCF1480FB6
:1016700005D14FF0010C0CFA00FCC2F810C0401C60
:101680000828D1D31460B1F800C0BCF1FF0F34DDDD
:10169000546800202EE000F1080C4FF0010808FA11
:1016A0000CF3B1F800C00CEA03069E4221D183007E
:1016B0004FF00F0C0CFA03F7BC4305FA03FC4CEA9D
:1016C000040491F803C0BCF1280F05D100F1080C07
:1016D00008FA0CF8C2F8148091F803C0BCF1480F66
:1016E00007D100F1080C4FF0010808FA0CF8C2F815
:1016F0001080401C0828CED35460BDE8F081000063
:10170000F0B50A46002300240021002500F0004621
:10171000B6F1004F02D11D4EF16901E01B4E716818
:10172000C0F3034583B200F44016B6F5401F08D15C
:1017300021F07061154E766826F07066134F7E605A
:1017400012E000F48016B6F5801F06D1032606FAD3
:1017500005F4A14341F0706106E0460D360103FA3D
:1017600006F6B14341F0706122B1460D360103FA2D
:1017700006F6314300F00046B6F1004F02D1034EA9
:10178000F16101E0014E7160F0BD00000000014018
:10179000416170470161704708B50121082002F0DE
:1017A0001BFC4020ADF8000010208DF80300032042
:1017B0008DF8020069460548FFF716FF8020ADF856
:1017C000000069460148FFF70FFF08BD000C01400B
:1017D00010B580211848FFF7DDFF40211648FFF7BC
:1017E000D7FF00F0C5FC4FF4C27004F02FFA40217F
:1017F0001148FFF7CDFF80210F48FFF7C9FF4FF4D5
:101800007A7004F023FA4FF47A7004F01FFA402142
:101810000948FFF7BFFF80210748FFF7B9FF4FF4E2
:10182000FA7004F013FA40210348FFF7B1FF80215A
:101830000148FFF7ADFF10BD000C01402DE9F04F4E
:1018400085B01421112004F04BF8834614210020A8
:1018500004F046F804900498FEF7CFFD80468946D0
:101860005846FEF7CAFD02460B46CDE900014FF08F
:1018700033301049FEF752FD42464B46CDE9020196
:10188000FEF7DAFC064600224FF08043FEF7D4FC58
:101890000446FEF7EBFD824651460748FEF79AFCE8
:1018A00004460649FEF790FC8246504605B0BDE866
:1018B000F08F00003333F33F2A3ACA3F41F1EB3F48
:1018C00000BFFEE770B505460C4600F05DF97820D4
:1018D00000F0F8F8284600F0F5F8204600F0F2F89D
:1018E00000F09EF970BDF8B5044600202060002786
:1018F00000260BE06946522001F011FE0546262D18
:1019000000D104E0761C962E00DD00E0F2E700BF77
:10191000262D13D1684601F030FD26280ED101F0A6
:1019200019FD0127002007E01DF80010226841EA98
:1019300002212160411CC8B20428F5DB3846F8BDFD
:1019400010B500200F4908600F48006820F470208F
:101950000D4908600846006840F4403008600020E7
:101960000A49C1F8B001052004F096F901200549A3
:101970000860052004F090F900200449C1F8B40182
:1019800010BD0000B4812142040C014000802142BE
:1019900010B500200F4908600F48006820F470203F
:1019A0000D4908600846006840F440300860012096
:1019B0000A49C1F8B001052004F06EF9012005497B
:1019C0000860052004F068F900200449C1F8B4015A
:1019D00010BD0000B4812142040C0140008021426E
:1019E00070B5054600241748006820F4702015499A
:1019F00008600846006840F400200860002616E0F1
:101A0000002011490860052004F046F901200F4923
:101A1000C1F8B4016006040E0B488438006808B1B0
:101A2000601CC4B2012004F037F9701CC6B2082E45
:101A3000E6DB15B9FFF7ACFF01E0FFF781FF2046B9
:101A400070BD0000040C0140B4812142008021429D
:101A500070B504461848006820F4702016490860E4
:101A60000846006840F440300860002013490860D0
:101A700000251EE0E00920B101201049091F08607F
:101A800003E000200D49091F08606006040E0520D0
:101A900004F002F9012009490860052004F0FCF86F
:101AA00000200749C1F8B401052004F0F5F8681CCE
:101AB000C5B2082DDEDB70BD040C0140B4812142AB
:101AC0000080214270B504461848006820F070403C
:101AD000164908600846006840F040500860002041
:101AE0001349086000251CE0E00918B101201149E4
:101AF000086002E000200F4908606006040E022022
:101B000004F0CAF801200A490860022004F0C4F871
:101B100000200949C1F88C01022004F0BDF8681CBE
:101B2000C5B2082DE0DB00F0D5F870BD0408014017
:101B30008C812142BC0121420080214210B50F4816
:101B4000006820F470200D4908600846006840F4E1
:101B50004030086001200A4908600A49C1F8B40110
:101B6000052004F099F8002005490860052004F0DC
:101B700093F800200349C1F8B40110BD040C0140E2
:101B8000B08121420080214210B50F48006820F04A
:101B900070400D4908600846006840F040500860F9
:101BA00001200A4908600A49C1F88C01042004F0A8
:101BB00073F8002005490860042004F06DF8002047
:101BC0000349C1F88C0110BD04080140BC01214249
:101BD0000080214210B50F48006820F470200D49A4
:101BE00008600846006840F44030086000200A4958
:101BF00008600A49C1F8B001052004F04DF8012041
:101C0000054908600549C1F8B001052004F044F811
:101C100010BD0000040C0140B4812142008021422B
:101C200010B50F48006820F070400D490860084664
:101C3000006840F04050086000200A4908600A49E6
:101C4000C1F8BC01042004F027F801200549086010
:101C50000549C1F8BC01042004F01EF810BD0000C5
:101C6000040801408C8121420000214210B500246B
:101C70001548006820F47020134908600846006881
:101C800040F400200860012010490860052004F09D
:101C900003F801200E49C1F8B401052003F0FCFF50
:101CA00007E0601CC4B2FA2C03DDFFF793FF0120AC
:101CB00010BD0648803800680028F2D10349091D8C
:101CC000086000BFF4E70000040C0140B08121422D
:101CD0000080214210B500241348006820F07040B5
:101CE000114908600846006840F000400860012083
:101CF0000E49086003F0D0FF01200D49C1F88C01A6
:101D000003F0CAFF07E0601CC4B2FA2C03DDFFF742
:101D100087FF012010BD0548803800680028F2D1F7
:101D20000449086000BFF5E704080140BC012142F6
:101D3000008021428C81214210B515A003F014FED1
:101D40000A2003F083FF15480078012804D1002001
:101D500012490870124908700524002015E0022875
:101D600007D0052805D0082803D00B2801D00E285D
:101D700003D13A210B4A115405E00B49095D094A88
:101D80001154611CCCB2411CC8B21128E7DB10BD54
:101D900041542B4D41430D0A000000003500002046
:101DA000340000207A0000205000002010B51F4AA7
:101DB00090FBF2F20A701E4A90FBF2F20A2392FBA9
:101DC000F3F403FB14224A701A4A90FBF2F292FBDE
:101DD000F3F403FB14228A7042F2107290FBF2F2C9
:101DE00092FBF3F403FB1422CA704FF47A7290FB57
:101DF000F2F292FBF3F403FB14220A71642290FBCB
:101E0000F2F292FBF3F403FB14224A710A2290FBD4
:101E1000F2F292FBF3F403FB14228A710A2290FB84
:101E2000F2F302FB1302CA7110BD00008096980005
:101E300040420F00A08601003EB500F0B9FBFFF75D
:101E4000FDFC7349086008460068FEF7E3FA0446A3
:101E5000704A714BFEF7F2FA03D2002000F0F0FC5A
:101E60002CE06B480068FEF7D5FA04466B4A6C4BD1
:101E7000FEF7E4FA03D2012000F0E2FC1EE0644821
:101E80000068FEF7C7FA0446644A664BFEF7D6FAC6
:101E900003D2022000F0D4FC10E05D480068FEF799
:101EA000B9FA04465D4A604BFEF7C8FA03D2032034
:101EB00000F0C6FC02E0042000F0C2FC54480068B8
:101EC000FEF7A8FA0446554A554BFEF7B7FA06D86E
:101ED000002356A202211720FFF7A8F997E000235C
:101EE00055A202212020FFF7A1F9564880884FF41F
:101EF0007A7190FBF1F03030C0B28DF8000051489B
:101F00008088642190FBF1F00A2190FBF1F201FB43
:101F100012003030C0B28DF801004A48808890FB32
:101F2000F1F090FBF1F201FB12003030C0B28DF8FD
:101F300002004448808890FBF1F201FB120030302F
:101F4000C0B28DF803002D208DF804003D48807943
:101F500090FBF1F03030C0B28DF80500394880793F
:101F600090FBF1F201FB12003030C0B28DF8060098
:101F70002D208DF807003348C07990FBF1F0303008
:101F8000C0B28DF808002F48C07990FBF1F201FB38
:101F900012003030C0B28DF8090000208DF80A0020
:101FA00000236A4604211720FFF770F925480078BE
:101FB0000A2190FBF1F03030C0B28DF800002148CA
:101FC000007890FBF1F201FB12003030C0B28DF8C6
:101FD00001003A208DF802001A48407890FBF1F099
:101FE0003030C0B28DF803001648407890FBF1F213
:101FF00001FB12003030C0B28DF8040000208DF8D3
:10200000050000236A4606212B20FFF73FF93EBD5D
:10201000280000209A99999999990D40CDCCCCCC63
:10202000CCCC1040CCCC1240CCCC1440C7EBB8FC8C
:10203000BBBBB5E7B3D80000BBB6D3ADCAB9D3C3F9
:1020400000000000AC00002010B586B00446102C43
:1020500000DD102400200AE0A04203DA2A2101AAB0
:10206000115402E0202101AA1154411CC8B21028C9
:10207000F2DB00208DF81400002301AA0421184689
:10208000FFF704F906B010BD0146CA1701EB9272C2
:102090009210A1EB820292B9642091FBF0F200FB56
:1020A000121050B94FF4C87091FBF0F200FB1210FF
:1020B00008B9012070470020FCE70120FAE7002062
:1020C000F8E770B502F07AFD0446FF2C00D170BD30
:1020D000002503E06D1CC82D00D103E002F06EFD69
:1020E000FF28F7D100BF0C2C1FD2DFE804F01A1430
:1020F0000E080A101606120C181C0020E7E7012033
:10210000E5E70220E3E70320E1E70420DFE705201D
:10211000DDE70620DBE70720D9E70820D7E709201D
:10212000D5E70A20D3E70B20D1E76420CFE770B5CD
:10213000012417E0002511E06D1C03F051FE20463C
:1021400003F0AAFD03F010FEC4F1320003F0A4FD79
:102150006000C0F16400A84200DC00E0ECE700BFD2
:10216000601CC4B2322CE5DB03F03AFE70BD000007
:1021700010B54FF480516748FFF70CFB1E2003F0A9
:1021800065FD01216348FFF705FB1E2003F05EFD9E
:1021900010216148FFF7FEFA1E2003F057FD2021B1
:1021A0005C48FFF7F7FA1E2003F050FD80215948E4
:1021B000FFF7F0FA1E2003F049FD4FF48051554817
:1021C000FFF7E6FA4FF480715248FFF7E3FA1E205A
:1021D00003F03CFD01214F48FFF7DAFA4FF400719C
:1021E0004C48FFF7D7FA1E2003F030FD10214A4873
:1021F000FFF7CEFA04214948FFF7CCFA1E2003F07E
:1022000025FD20214348FFF7C3FA4FF40051414810
:10221000FFF7C0FA1E2003F019FD80213D48FFF7AB
:10222000B7FA02213B48FFF7B5FA1E2003F00EFD76
:102230004FF480713748FFF7ABFA04213548FFF7B8
:10224000A9FA1E2003F002FD4FF400713148FFF798
:102250009FFA08212F48FFF79DFA1E2003F0F6FC95
:1022600004212E48FFF794FA10212B48FFF792FA29
:102270001E2003F0EBFC4FF400512648FFF788FACC
:1022800020212448FFF786FA1E2003F0DFFC0221FC
:102290002048FFF77DFA80211E48FFF77BFA1E20B9
:1022A00003F0D4FC04211B48FFF772FA4FF480714D
:1022B0001848FFF76FFA1E2003F0C8FC08211548E4
:1022C000FFF766FA4FF480511248FFF763FA1E20B9
:1022D00003F0BCFC10211048FFF75AFA20210D48EA
:1022E000FFF756FA1E2003F0B1FC80210948FFF7E2
:1022F0004FFA1E2003F0AAFC4FF480710548FFF747
:1023000047FA1E2003F0A2FC4FF480510148FFF76A
:102310003FFA10BD001001400008014000140140C8
:1023200010B580213248FFF735FA4FF4007130487C
:10233000FFF730FA4FF480512D48FFF72BFA1021A8
:102340002C48FFF727FA4FF400512948FFF722FAEB
:10235000642003F07BFC80212548FFF719FA4FF435
:1023600000712348FFF714FA4FF480512048FFF71B
:102370000FFA10211F48FFF70BFA4FF400511C48C9
:10238000FFF706FA642003F061FC80211848FFF78C
:1023900001FA4FF400711648FFF7FCF94FF4805131
:1023A0001348FFF7F7F910211248FFF7F3F94FF43C
:1023B00000510F48FFF7EEF9642003F047FC80213D
:1023C0000B48FFF7E5F94FF400710948FFF7E0F912
:1023D0004FF480510648FFF7DBF910210548FFF75D
:1023E000D7F94FF400510248FFF7D2F910BD0000B1
:1023F000001001400008014010B50446412C2CD1CA
:1024000008210846FEF7D8FC3D21112003F09AFA76
:102410008621172003F096FA7F21262003F092FAF6
:10242000F821272003F08EFA3F21282003F08AFAB2
:102430001E212D2003F086FA00212C2003F082FAC1
:102440008D212A2003F07EFA3E212B2003F07AFA18
:10245000022003F021FC00F083FF10BD00BFFEE767
:10246000704708B54FF4A06000F05CF825208DF8A7
:10247000000001208DF8010002208DF802000120EB
:102480008DF80300684600F015F808BD08B54FF454
:10249000A06000F047F826208DF8000001208DF89C
:1024A00001008DF802008DF80300684600F002F884
:1024B00008BD000070B5002100230F22C47804B3CA
:1024C000154C246804F4E064C4F5E064210AC1F109
:1024D0000403CA40447804FA03F184781440214389
:1024E00009010E4C0678A155047804F01F0501245B
:1024F000AC4005786D11AD0005F1E025C5F800414F
:1025000009E0047804F01F050124AC40044D06786E
:10251000761145F8264070BD0CED00E000E400E0C7
:1025200080E100E002490143024A11607047000067
:102530000000FA050CED00E008B50121042001F0CF
:102540004BFD1020ADF800008DF8030003208DF83E
:10255000020069461348FFF747F80121202001F0E7
:102560003BFD0420ADF8000010208DF8030003208F
:102570008DF8020069460C48FFF736F8012110205B
:1025800001F02AFD43F2AF30ADF8000010208DF8C5
:10259000030003208DF8020069460448FFF724F881
:1025A00008BD000000080140001401400010014077
:1025B00010B5002000F001F810BD70B506460024EB
:1025C00015E004F1B001C8B203F0ADF9002003F04A
:1025D000AAF9102003F0A7F9002504E0304603F023
:1025E000A9F9681CC5B2802DF8DB601CC4B2082CA8
:1025F000E7DB70BD08B501210C2001F0EDFC0121E5
:10260000084601F0E9FC01210F48FFF779F808209E
:10261000ADF8000010208DF8030003208DF80200B3
:1026200069460A48FEF7E0FF4FF40040ADF80000AD
:1026300069460748FEF7D8FF0120064908600649A9
:10264000C1F88C0108BD000000023000000C014000
:1026500000080140BC0121420080214210B5FFF773
:10266000C9FF002400E0641CB4F57A7FFBDDAE20D6
:1026700003F059F9202003F056F9102003F053F924
:10268000B02003F050F9C82003F04DF9002003F00A
:102690004AF9102003F047F9402003F044F9812063
:1026A00003F041F9FF2003F03EF9A12003F03BF9CC
:1026B000A62003F038F9A82003F035F93F2003F0F5
:1026C00032F9A42003F02FF9D32003F02CF90020D5
:1026D00003F029F9D52003F026F9F02003F023F9BF
:1026E000D92003F020F9222003F01DF9DA2003F0AD
:1026F0001AF9122003F017F9DB2003F014F9202057
:1027000003F011F98D2003F00EF9142003F00BF9FA
:10271000AF2003F008F9FFF74BFF642003F096FAAF
:1027200010BD10B5FFF744FF8D2003F0FCF810201A
:1027300003F0F9F8AE2003F0F6F810BD10B58D20C7
:1027400003F0F1F8142003F0EEF8AF2003F0EBF8FB
:1027500010BD70B504460D4605F1B001C8B203F0D6
:10276000E2F8102141EA141003F0DDF804F00F0044
:1027700003F0D9F870BD00002DE9F05F82460F46E6
:1027800090469946DDF828B0002439465046FFF7B8
:10279000E0FF00250026BBF1000F1ED0A8F12000AD
:1027A000050100BF06E02449485D03F0C3F86D1C35
:1027B000601CC4B2082CF6DB781CC1B25046FFF78F
:1027C000C8FF002406E01C49485D03F0B3F86D1C07
:1027D000601CC4B2082CF6DB2CE00BE01748805DCF
:1027E000404506D11549701C085C484501D1B51C0F
:1027F00004E0223641F222108642EFD300BF0024CB
:1028000006E00E49485D03F095F86D1C601CC4B2EB
:10281000102CF6DB781CC1B25046FFF79AFF00245B
:1028200006E00649485D03F085F86D1C601CC4B2E3
:10283000102CF6DBBDE8F09F1A780008F866000857
:1028400070B5054600210846FFF783FF002404E029
:10285000002003F06FF8601CC4B26F2CF8DB00217D
:102860006F20FFF776FF002409E005EB4501054ADC
:1028700002EBC101085D03F05DF8601CC4B2112CCD
:10288000F3DB70BD806600080149086270470000F4
:1028900000000E4210B5024600200C4B186820F0D4
:1028A0000300104318600A4B1B6843F00403084CF4
:1028B0002360012901D130BF00E020BF044B1B6819
:1028C00023F00403024C236010BD000000700040A0
:1028D00010ED00E038B50024E020ADF80000002045
:1028E0008DF8030069461548FEF77EFE4FF47A70B6
:1028F00003F0ACF9FEF7C0F902F0C8FF01F0CAFA24
:1029000002F04CFA4FF400710D48FEF741FFFFF75B
:1029100008FF06E001F02AF90A2003F097F9601C8D
:10292000C4B201F07BF908B1052CF3DB01200549A5
:10293000087001210846FFF7ADFF38BD00080140CF
:10294000000C01403A0000202DE9F74F88B0002527
:1029500000270024002005E0FE49095C01AA11546B
:10296000411CC8B21128F7DB01F0DEFC0746FA482B
:10297000B7FBF0F4F9480088A0423BD0F7490C803F
:1029800040F2B27510E02846FFF77EFB40B1B4F587
:10299000B77F02D3A4F5B77404E0681C85B206E0E3
:1029A000A4F26D14681C85B2B4F5B67FEBD800BFF5
:1029B0002E46002515E03046FFF766FB30B1012DAD
:1029C00004D11D2C01D31D3C09E00CE0E448405D1E
:1029D000A04203D8E248405D241A00E003E0681CEE
:1029E00085B21C2CE7D200BF681C00F0FF09601CF8
:1029F00000F0FF0AD848B7FBF0F100FB11744FF468
:102A00006160B4FBF0F000F0FF084FF46160B4FBCC
:102A1000F0F100FB11403C21B0FBF1F000F0FF0BA6
:102A20004FF47A7096FBF0F03030C0B28DF815009C
:102A3000642096FBF0F00A2190FBF1F201FB1200FA
:102A40003030C0B28DF816000A2096FBF0F090FBF3
:102A5000F1F201FB12003030C0B28DF817000A20ED
:102A600096FBF0F100FB11603030C0B28DF8180019
:102A70000A2099FBF0F03030C0B28DF819000A201E
:102A800099FBF0F100FB11903030C0B28DF81A00C4
:102A90000A209AFBF0F03030C0B28DF81B000A20FB
:102AA0009AFBF0F100FB11A03030C0B28DF81C0091
:102AB0000A2098FBF0F03030C0B28DF81D000A20DB
:102AC00098FBF0F100FB11803030C0B28DF81E0091
:102AD0000A209BFBF0F03030C0B28DF81F001C21A3
:102AE00001A803F065FC009009990098FFF75EF9D2
:102AF000A7F516779848B7FBF0F498480088A042ED
:102B00003BD096490C8040F2B27510E02846FFF7A2
:102B1000BBFA40B1B4F5B77F02D3A4F5B77404E0B3
:102B2000681C85B206E0A4F26D14681C85B2B4F589
:102B3000B67FEBD800BF2E46002515E03046FFF7E4
:102B4000A3FA30B1012D04D11D2C01D31D3C09E0A5
:102B50000CE08348405DA04203D88148405D241AC0
:102B600000E003E0681C85B21C2CE7D200BF681CA3
:102B700000F0FF09601C00F0FF0A7748B7FBF0F196
:102B800000FB11744FF46160B4FBF0F000F0FF083B
:102B90004FF46160B4FBF0F100FB11403C21B0FB4D
:102BA000F1F000F0FF0B4FF47A7096FBF0F030304C
:102BB000C0B28DF81500642096FBF0F00A2190FB5E
:102BC000F1F201FB12003030C0B28DF816000A207D
:102BD00096FBF0F090FBF1F201FB12003030C0B236
:102BE0008DF817000A2096FBF0F100FB11603030E1
:102BF000C0B28DF818000A2099FBF0F03030C0B256
:102C00008DF819000A2099FBF0F100FB119030308B
:102C1000C0B28DF81A000A209AFBF0F03030C0B232
:102C20008DF81B000A209AFBF0F100FB11A0303058
:102C3000C0B28DF81C000A2098FBF0F03030C0B212
:102C40008DF81D000A2098FBF0F100FB1180303058
:102C5000C0B28DF81E000A209BFBF0F03030C0B2ED
:102C60008DF81F00112101A803F0A2FB0090089924
:102C70000098FFF79BF807F596673748B7FBF0F425
:102C800036480088A0423BD034490C8040F2B275EF
:102C900010E02846FFF7F8F940B1B4F5B77F02D34A
:102CA000A4F5B77404E0681C85B206E0A4F26D14C4
:102CB000681C85B2B4F5B67FEBD800BF2E46002560
:102CC00015E03046FFF7E0F930B1012D04D11D2C9D
:102CD00001D31D3C09E00CE02148405DA04203D82F
:102CE0001F48405D241A00E003E0681C85B21C2CDC
:102CF000E7D200BF681C00F0FF09601C00F0FF0A6B
:102D00001548B7FBF0F100FB11744FF46160B4FBA0
:102D1000F0F000F0FF084FF46160B4FBF0F100FB4D
:102D200011403C21B0FBF1F000F0FF0B4FF47A7042
:102D300096FBF0F03030C0B28DF81500642096FBA1
:102D4000F0F00A2190FBF1F201FB12003030C0B22A
:102D500008E000007A000020805101003E000020C1
:102D6000746600088DF816000A2096FBF0F090FBC0
:102D7000F1F201FB12003030C0B28DF817000A20CA
:102D800096FBF0F100FB11603030C0B28DF81800F6
:102D90000A2099FBF0F03030C0B28DF819000A20FB
:102DA00099FBF0F100FB11903030C0B28DF81A00A1
:102DB0000A209AFBF0F03030C0B28DF81B000A20D8
:102DC0009AFBF0F100FB11A03030C0B28DF81C006E
:102DD0000A2098FBF0F03030C0B28DF81D000A20B8
:102DE00098FBF0F100FB11803030C0B28DF81E006E
:102DF0000A209BFBF0F03030C0B28DF81F0011218B
:102E000001A803F0D5FA00900A990098FEF7CEFFCA
:102E10000BB0BDE8F08F00002DE9FF4F87B0804672
:102E2000002500270024F948B8FBF0F03030C0B28C
:102E30008DF8080042F21070B8FBF0F00A21B0FBE8
:102E4000F1F201FB120030308DF809004FF47A7076
:102E5000B8FBF0F0B0FBF1F201FB120030308DF85E
:102E60000A006420B8FBF0F0B0FBF1F201FB1200A5
:102E700030308DF80B000A20B8FBF0F0B0FBF1F217
:102E800001FB120030308DF80C000A20B8FBF0F185
:102E900000FB118030308DF80D0001F045FA074637
:102EA000DB48B7FBF0F4DB480088A0423BD0D949AF
:102EB0000C8040F2B27510E02846FFF7E5F840B10B
:102EC000B4F5B77F02D3A4F5B77404E0681C85B2EB
:102ED00006E0A4F26D14681C85B2B4F5B67FEBD899
:102EE00000BF2E46002515E03046FFF7CDF830B183
:102EF000012D04D11D2C01D31D3C09E00CE0C64876
:102F0000405DA04203D8C448405D241A00E003E0BD
:102F1000681C85B21C2CE7D200BF681C00F0FF0AB9
:102F2000601C00F0FF0BBA48B7FBF0F100FB117416
:102F30004FF46160B4FBF0F000F0FF094FF4616002
:102F4000B4FBF0F100FB11403C21B0FBF1F0C0B24A
:102F500000904FF47A7096FBF0F03030C0B28DF8EC
:102F60000E00642096FBF0F00A2190FBF1F201FBC9
:102F700012003030C0B28DF80F000A2096FBF0F03E
:102F800090FBF1F201FB12003030C0B28DF810005E
:102F90000A2096FBF0F100FB11603030C0B28DF8D2
:102FA00011000A209AFBF0F03030C0B28DF8120008
:102FB0000A209AFBF0F100FB11A03030C0B28DF86E
:102FC00013000A209BFBF0F03030C0B28DF81400E3
:102FD0000A209BFBF0F100FB11B03030C0B28DF83D
:102FE00015000A2099FBF0F03030C0B28DF81600C1
:102FF0000A2099FBF0F100FB11903030C0B28DF83F
:1030000017000A21009890FBF1F03030C0B28DF823
:103010001800112102A803F0CBF901900999019839
:10302000FEF7C4FEA7F516777948B7FBF0F47948A8
:103030000088A0423BD077490C8040F2B27510E086
:103040002846FFF721F840B1B4F5B77F02D3A4F5C5
:10305000B77404E0681C85B206E0A4F26D14681C25
:1030600085B2B4F5B67FEBD800BF2E46002515E03B
:103070003046FFF709F830B1012D04D11D2C01D3E2
:103080001D3C09E00CE06448405DA04203D8624862
:10309000405D241A00E003E0681C85B21C2CE7D2D6
:1030A00000BF681C00F0FF0A601C00F0FF0B5848CE
:1030B000B7FBF0F100FB11744FF46160B4FBF0F06A
:1030C00000F0FF094FF46160B4FBF0F100FB114028
:1030D0003C21B0FBF1F0C0B200904FF47A7096FB47
:1030E000F0F03030C0B28DF80E00642096FBF0F0A6
:1030F0000A2190FBF1F201FB12003030C0B28DF8D2
:103100000F000A2096FBF0F090FBF1F201FB120099
:103110003030C0B28DF810000A2096FBF0F100FBB1
:1031200011603030C0B28DF811000A209AFBF0F027
:103130003030C0B28DF812000A209AFBF0F100FB8B
:1031400011A03030C0B28DF813000A209BFBF0F0C4
:103150003030C0B28DF814000A209BFBF0F100FB68
:1031600011B03030C0B28DF815000A2099FBF0F094
:103170003030C0B28DF816000A2099FBF0F100FB48
:1031800011903030C0B28DF817000A21009890FBE2
:10319000F1F03030C0B28DF81800112102A803F010
:1031A00007F9019008990198FEF700FE07F5966768
:1031B0001748B7FBF0F417480088A04243D01549E0
:1031C0000C8040F2B27510E02846FEF75DFF40B17A
:1031D000B4F5B77F02D3A4F5B77404E0681C85B2D8
:1031E00006E0A4F26D14681C85B2B4F5B67FEBD886
:1031F00000BF2E4600251DE03046FEF745FF70B1AA
:10320000012D0CD11D2C09D31D3C11E0A08601001D
:10321000805101003C000020746600080CE04B481F
:10322000405DA04203D84948405D241A00E003E015
:10323000681C85B21C2CDFD200BF681C00F0FF0A9E
:10324000601C00F0FF0B4248B7FBF0F100FB11746B
:103250004FF46160B4FBF0F000F0FF094FF46160DF
:10326000B4FBF0F100FB11403C21B0FBF1F0C0B227
:1032700000904FF47A7096FBF0F03030C0B28DF8C9
:103280000E00642096FBF0F00A2190FBF1F201FBA6
:1032900012003030C0B28DF80F000A2096FBF0F01B
:1032A00090FBF1F201FB12003030C0B28DF810003B
:1032B0000A2096FBF0F100FB11603030C0B28DF8AF
:1032C00011000A209AFBF0F03030C0B28DF81200E5
:1032D0000A209AFBF0F100FB11A03030C0B28DF84B
:1032E00013000A209BFBF0F03030C0B28DF81400C0
:1032F0000A209BFBF0F100FB11B03030C0B28DF81A
:1033000015000A2099FBF0F03030C0B28DF816009D
:103310000A2099FBF0F100FB11903030C0B28DF81B
:1033200017000A21009890FBF1F03030C0B28DF800
:103330001800112102A803F03BF801900A990198A6
:10334000FEF734FD0BB0BDE8F08F00007466000896
:103350008051010010B503211420FDF72DFD10BD93
:1033600010B5142001F094F9044604F0030018B9D4
:103370000321142001F09AFA10BDF0B587B005467C
:10338000002708210846FDF717FD00210D2002F057
:10339000D9FA80210E20FDF70FFD93208DF808004B
:1033A00020208DF8090001A802AB022202A900909A
:1033B0000C2000F01BF80646262E10D1002407E052
:1033C00002A8005D285502A8005D4740601CC4B2F9
:1033D000042CF5DB02A8005DB84200D0BB2680219A
:1033E0000E2001F063FA304607B0F0BD2DE9FE4F24
:1033F0000646884691469A46DDF830B0BB200290DA
:103400000020019000900C2E06D00E2E09D1122023
:1034100001901020009005E077200190302000906E
:1034200000E000BF00BF019840F08001022002F0E0
:1034300089FA80210420FDF7BFFC0021012002F061
:1034400081FA80210A2001F031FA002505E018F800
:103450000510092002F076FA6D1C4D45F7D3314670
:10346000012002F06FFA0C2E03D180210D2001F013
:103470001DFA4FF47A7500BF042001F009F90446E3
:103480006D1E35B104F0010018B9009820400028E5
:10349000F2D080210D20FDF78FFC95B3062001F0BE
:1034A000F7F800F01B0068BB26200290019820402E
:1034B00000F0010008B1CC2002900C2E24D10A208B
:1034C00001F0E6F804460C2001F0E2F800F00707EE
:1034D0002FB1601E07EBC000CBF8000002E0E00057
:1034E000CBF8000004B90124122C00DD12240025C1
:1034F00005E0092001F0CCF80AF805006D1CA54292
:10350000F7D301E0BB20029080210C2001F0CEF91E
:103510000021012002F016FA0298BDE8FE8F70B576
:1035200088B005460C4608210846FDF745FC0721F2
:103530000D2002F007FA0321142001F0B7F98DF8ED
:103540000C5002A803AB012203A900900C20FFF746
:103550004DFF0646262E09D10298102806D19DF867
:103560000C0020709DF80D00607000E0BB26304616
:1035700008B070BD10B502211D48FEF70BF90A20F6
:1035800002F064FB02211A48FEF702F90A2002F059
:103590005DFB02211648FEF7FDF80A2002F056FBFB
:1035A0000F21012002F0CEF900BF012001F070F8D8
:1035B00000F010000028F8D10A2002F047FB3D215E
:1035C000112002F0BFF91E212D2002F0BBF90021CD
:1035D0002C2002F0B7F98D212A2002F0B3F93E2108
:1035E0002B2002F0AFF94021152002F0ABF910BDFD
:1035F000000C01407047000070B588B0044600F030
:10360000B5FA04F24710051945F2AA5000F00CFC77
:10361000002000F0FFFB002000F0FCFB4FF488408E
:1036200000F002FC4FF4806000F0FEFB200200F08E
:10363000FBFB200200F0F8FB002603E0002000F076
:10364000E9FB761C0C2EF9DBE8B200F0E3FB281254
:1036500000F0E0FB01201049087001A800F066FBB3
:10366000FF2802D1F02008B070BDBDF80800FF2887
:1036700001D1F020F7E7BDF80C00222800D1F2E7D5
:10368000BDF80C00122800D1EDE7BDF80C0008B918
:103690000020E8E7F120E6E78B00002010B588B0B5
:1036A00000F064FA45F2AA5000F0BEFB002000F0E2
:1036B000B1FB002000F0AEFB4FF4045000F0B4FB6F
:1036C000002000F0B1FB002403E0002000F0A2FB8A
:1036D000641C102CF9DB42F2010000F0A5FB012074
:1036E0000E49087001A800F021FBFF2802D1F0204C
:1036F00008B010BDBDF80800FF2801D1F020F7E7A1
:103700009DF80E0008B9F420F2E79DF80E0001289C
:1037100001D1F520ECE7F120EAE700008B00002062
:1037200030B587B0044600F021FA45F2AA5000F007
:103730007BFB002000F06EFB002000F06BFB4FF4E1
:10374000C04000F071FB4FF4007000F06DFB2046AC
:1037500000F06AFB002503E0002000F05BFB6D1C1D
:103760000E2DF9DB46F20111214488B200F05CFB1A
:10377000012010490870684600F0D8FAFF2802D1ED
:10378000F02007B030BDBDF80400FF2801D1F020C3
:10379000F7E7BDF80800262800D1F2E7BDF80800D9
:1037A000192800D1EDE7BDF8080008B90020E8E7C6
:1037B000F120E6E78B00002030B587B0044600F02A
:1037C000D5F90020207045F2AA5000F02DFB002012
:1037D00000F020FB002000F01DFB4FF48A4000F0B9
:1037E00023FB4FF4806000F01FFB4FF4807000F06B
:1037F0001BFB4FF4484000F017FB002503E00020BE
:1038000000F008FB6D1C0C2DF9DB41F2021000F0FA
:103810000BFB01200F490870684600F087FAFF286B
:1038200002D1F02007B030BDBDF80400FF2801D15F
:10383000F020F7E7BDF80800222800D1F2E7BDF834
:10384000080020B99DF80A0020700020EAE7F12066
:10385000E8E700008B00002010B588B000F086F982
:1038600045F2AA5000F0E0FA002000F0D3FA002060
:1038700000F0D0FA4FF4C24000F0D6FA4FF4407096
:1038800000F0D2FA002000F0CFFA032000F0C2FAD4
:10389000002403E0002000F0BDFA641C0D2CF9DBCD
:1038A00046F2016000F0C0FA01201349087001A837
:1038B00000F03CFAFF2802D1F02008B010BDBDF89E
:1038C0000800FF2801D1F020F7E7BDF80C002628FA
:1038D00000D1F2E7BDF80C00252800D1EDE7BDF8D6
:1038E0000C001A2800D1E8E7BDF80C0008B9002048
:1038F000E3E7F120E1E700008B00002030B587B05E
:10390000044600F033F945F2AA5000F08DFA002089
:1039100000F080FA002000F07DFA4FF4C64000F07D
:1039200083FA4FF4C06000F07FFA002000F07CFAC8
:103930004FF4807000F078FA4FF4484000F074FAC9
:10394000002503E0002000F065FA6D1C0A2DF9DB6C
:1039500043F2021000F068FA01201449087068462A
:1039600000F0E4F9FF2802D1F02007B030BDBDF827
:103970000400FF2801D1F020F7E7BDF80800262851
:1039800000D1F2E7BDF80800142800D1EDE7BDF83A
:103990000800112800D1E8E7BDF8080020B99DF81B
:1039A0000A0020700020E0E7F120DEE78B00002015
:1039B00030B587B0044600F0D9F845F2AA5000F0BF
:1039C00033FA002000F026FA002000F023FA4FF42A
:1039D000804000F029FA4FF4806000F025FA20467C
:1039E00000F022FA002000F01FFA002503E000207A
:1039F00000F010FA6D1C0C2DF9DB44F2013121446A
:103A000088B200F011FA012012490870684600F0EF
:103A10008DF9FF2802D1F02007B030BDBDF80400B9
:103A2000FF2801D1F020F7E7BDF808001D2800D1DC
:103A3000F2E7BDF80800262800D1EDE7BDF8080040
:103A4000182800D1E8E7BDF8080008B90020E3E72E
:103A5000F120E1E78B00002010B588B000F086F877
:103A600045F2AA5000F0E0F9002000F0D3F9002060
:103A700000F0D0F94FF4005000F0D6F9002000F02B
:103A8000D3F9002403E0002000F0C4F9641C102CDA
:103A9000F9DB41F6017000F0C7F901200D4908700B
:103AA00001A800F043F9FF2802D1F02008B010BDB2
:103AB000BDF80800FF2801D1F020F7E7BDF80C00A1
:103AC000282800D1F2E7BDF80C0008B90020EDE786
:103AD000F120EBE78B0000201FB500F0DBF801219F
:103AE000042000F079FA0220ADF80C0010208DF8C7
:103AF0000F0003208DF80E0003A91A48FDF774FD8E
:103B00000120ADF80C0028208DF80F0003A91648FD
:103B1000FDF76AFD0121084600F05EFA0021012050
:103B2000FDF742FD0120019000208DF808000C20D7
:103B30008DF8090001208DF80A0001A8FDF75CFC52
:103B400006208DF8000002208DF8010003208DF87A
:103B5000020001208DF803006846FEF7ABFC00F080
:103B60000DF81FBD00080140000C01400020024973
:103B700048708870087070478B00002010B50221D3
:103B80000D48FDF707FE002400E0641CB4F57A7FC1
:103B9000FBDB02210848FDF7FBFD002400E0641C6C
:103BA000B4F57A7FFBDB02210348FDF7F3FD6420C7
:103BB00002F04CF810BD00000008014070B5054649
:103BC0004FF47A7000F010F90446F22C00D170BD69
:103BD0000020FFF7A5FD0446F02C03D0F12C01D006
:103BE000262C01D1F020F2E7192C01D11920EEE7A3
:103BF0002846FFF783FE0446F02C03D0F12C01D0B9
:103C0000262C01D1F020E2E7142C01D11420DEE7AC
:103C1000112C01D11120DAE70020D8E710B588B0C7
:103C2000FFF7A4FF45F2AA5000F0FEF8002000F0D4
:103C3000F1F8002000F0EEF84FF4406000F0F4F8E6
:103C4000002000F0F1F8002403E0002000F0E2F88A
:103C5000641C102CF9DB40F6013000F0E5F801207F
:103C60000B49087001A800F061F8FF2802D1F0208C
:103C700008B010BDBDF80800FF2801D1F020F7E71B
:103C8000BDF80C0008B90020F2E7F120F0E70000D1
:103C90008B00002000B585B00121042000F09CF9C4
:103CA000204801F06DF90820ADF8100004208DF8CF
:103CB000130003208DF8120004A91B48FDF794FCA3
:103CC0000420ADF8100018208DF8130003208DF8A3
:103CD000120004A91448FDF787FC0121480400F0F4
:103CE0005BF94FF4E13000900020ADF80400ADF82E
:103CF0000600ADF80800ADF80C000C20ADF80A0085
:103D00006946084801F0E6F9FEF7C0FB012240F2DF
:103D10002551044801F0B9F90121024801F024F9C4
:103D200005B000BD00440040000801402DE9F0410D
:103D3000044600250026A8464FF4A00707E07F1E92
:103D4000002F04DCFFF712FFFF20BDE8F0812548BB
:103D500040780128F3D1032001F078FFFFF706FF38
:103D6000002505E01F48C01C405D304486B26D1C34
:103D7000182DF7DB1B48C17E007F41EA002846452D
:103D800001D0FF20E1E71748C178007941EA00201F
:103D9000208014484079A07012488079E070114862
:103DA000C179007A41EA0020A0800E48417A807AE9
:103DB00041EA0020E0800B48C17A007B41EA002004
:103DC0002081002508E00748C01C05F10A01415C7C
:103DD00004F10A0041556D1C0E2DF4DB26830020F2
:103DE000B3E700008B00002070B50546B420B5FB9A
:103DF000F0F60BE0FFF730FE0446282C01D1761ECA
:103E000004E00CB9002070BDF020FCE7002EF1D1D9
:103E1000F220F8E710B504462146024801F0BAFA4C
:103E200010BD00000044004010B5044621120848AF
:103E300001F0B0FA10B14FF6FF7010BDE1B20448C6
:103E400001F0A8FA10B14FF6FF70F6E70020F4E792
:103E50000044004010B500F029F802210C48FDF79D
:103E600099FC0A2001F0F2FEFFF784FBFFF772FADB
:103E70004120FEF7C1FA7A211F2001F063FD0120E5
:103E800001F0E4FE4FF4E13000F038F810BD00001E
:103E9000000C014010B5012000F0FAFB044644F08C
:103EA0001001012001F04EFD10BD000008B50121F8
:103EB000082000F091F80220ADF8000003208DF8F2
:103EC000020010208DF8030069460B48FDF78CFBBB
:103ED00002210948FDF75EFC0220ADF80000282011
:103EE0008DF8030069460448FDF77EFB4FF4165039
:103EF00000F004F808BD0000000C014010B586B0C9
:103F000004461D4801F03CF84FF40060ADF8040091
:103F100004208DF8070003208DF8060001A917483A
:103F2000FDF762FB4FF48060ADF8040018208DF8B7
:103F3000070003208DF8060001A91048FDF754FB87
:103F40000121880400F028F802940020ADF80C004C
:103F5000ADF80E00ADF81000ADF814000C20ADF86F
:103F6000120002A9044801F0B5F80121024800F04E
:103F7000FBFF06B010BD000000480040000C0140EF
:103F800001460020034A506820F440400843506036
:103F9000704700000010024029B1064AD26902436E
:103FA000044BDA6104E0034AD2698243014BDA61CF
:103FB000704700000010024029B1064A126902430E
:103FC000044B1A6104E0034A12698243014B1A61EF
:103FD000704700000010024029B1064A926902436E
:103FE000044B9A6104E0034A92698243014B9A614F
:103FF000704700000010024029B1064AD26802430F
:10400000044BDA6004E0034AD2688243014BDA6071
:10401000704700000010024001490860704700002E
:104020004004424230B500210022002400232D4DDF
:104030006D6805F00C0121B1042905D0082923D1B0
:1040400005E0294D056022E0274D05601FE0254D64
:104050006D6805F47012234D6D6805F480340225F7
:1040600005EB92421CB9214D554305600BE01D4DF7
:104070006D6805F400351DB11C4D5543056002E027
:10408000194D5543056002E0174D056000BF00BFA4
:10409000144D6D6805F0F0010909154D6B5C05685C
:1040A000DD4045600F4D6D6805F4E061090A104D73
:1040B0006B5C4568DD4085600A4D6D6805F46051B4
:1040C000C90A0B4D6B5C4568DD40C560054D6D68E8
:1040D00005F44041890B074D6B5CC568B5FBF3F5F2
:1040E000056130BD0010024000127A0000093D0059
:1040F000140000202400002010B5014600220023F7
:1041000000204A11012A02D1094C236806E0022A44
:1041100002D1074C236A01E0054C636A01F01F02DB
:10412000012494401C400CB1012000E0002010BD8F
:104130000010024000210B4A11700A4A203A82F80E
:104140002010012802D0042808D103E00121054AEB
:10415000117004E00521034A117000E000BF00BFA8
:1041600070470000201002400149086070470000BD
:104170003C0442420249096A0143014A1162704704
:1041800000100240F8B504460020206000270026F9
:104190000BE069465220FFF7C2F90546262D00D1F3
:1041A00004E0761C022E00DD00E0F2E700BF262DC1
:1041B00013D16846FFF7E1F826280ED1FFF7CAF8B9
:1041C0000127002007E01DF80010226841EA0221C3
:1041D0002160411CC8B20428F5DB3846F8BD024610
:1041E000C1F1200022FA00F302FA01F018437047EF
:1041F000024909888143014A118070470428004020
:104200000348008840F01000014908807047000012
:1042100004280040034800884FF6EF710840014928
:10422000088070470428004070B50025002600244F
:1042300000F07AF806463848B6FBF0F437480088B4
:10424000A0423CD035490C8040F2B27510E02846BF
:10425000FDF71AFF40B1B4F5B77F02D3A4F5B774E8
:1042600004E0681C85B206E0A4F26D14681C85B2F7
:10427000B4F5B67FEBD800BF29488580002516E04D
:1042800027498888FDF700FF30B1012D04D11D2C8E
:1042900001D31D3C09E00CE02248405DA04203D858
:1042A0002048405D241A00E003E0681C85B21C2C05
:1042B000E6D200BF681C1A498871601CC871164894
:1042C000B6FBF0F100FB11644FF46160B4FBF0F059
:1042D000134908704FF46160B4FBF0F100FB11402A
:1042E0003C21B0FBF1F00E4948704FF46160B4FB23
:1042F000F0F100FB11403C21B0FBF1F201FB120098
:10430000074988700B46DA799979988800F028F87F
:1043100003490872002070BD805101004200002056
:10432000AC00002074660008002103480188001FCB
:10433000008841EA004070471C28004001460020E8
:10434000064A12880A40D0B2044A121F12880A4054
:1043500012B108B1012000E000207047042800409D
:10436000F0B503460C461546642093FBF0F0C6B248
:10437000642093FBF0F700FB1730C1B2132E02DD6F
:1043800001F16400C1B20846CF1701EB977701EB4A
:10439000A707BAB2072092FBF0F700FB172082B202
:1043A0005719601EDFF82CC01CF80000384482B298
:1043B000CF1701EB9777BF10A1EB87071FB9032C2D
:1043C00001DA501E82B2072092FBF0F700FB1720A3
:1043D000C0B2F0BD686600080EB50120FFF7AEFF61
:1043E00020B1FFF721FF0120104908700220FFF7DC
:1043F000A5FFA0B10220FFF7FBFEFFF715FF0C4859
:1044000080780B4949780A4A1278CDE90021029058
:104410000748C3798279818806A001F0A5FA0520B2
:10442000FFF7E6FE00F018F90EBD00004000002086
:10443000AC000020416C61726D2054696D653A25B5
:10444000642D25642D25642025643A25643A25646D
:104450000A00000029B1064A12880243044B1A8060
:1044600004E0034A12888243014B1A80704700001F
:10447000002800401CB5002401214FF0C050FFF778
:104480008BFD0120FEF700FA0420FCF7D9FB45F272
:10449000500188423FD0FCF7CBFB0120FFF74AFEDA
:1044A00004E0601CC4B20A2001F0D0FB4120FFF7F9
:1044B00023FE08B9FA2CF4DBFA2C01DB01201CBD29
:1044C0004FF48070FFF756FE0120FFF74DFE00F01D
:1044D000C3F800F0CBF801210846FFF7BBFF00F05E
:1044E000BBF8FFF78DFE47F6FF7000F0A5F800F06F
:1044F000B3F800200090034601221146019040F2DB
:10450000DF7000F027F8FFF785FE45F25001042028
:10451000FCF7A4FB07E000F0A9F801210846FFF72B
:1045200099FF00F099F800F004F8FFF77DFE0020F5
:10453000C5E708B503208DF8000000208DF80100C4
:104540008DF8020001208DF803006846FDF7B2FFE8
:1045500008BD00002DE9F05F06460F4690469946DB
:10456000DDE90AAB002440F2B270864203DB40F67C
:104570003300864202DD0120BDE8F09F40F2B275B3
:104580000AE02846FDF780FD10B12048044401E010
:104590001F480444681C85B2B542F2DB781EC7B2DE
:1045A000002510E01B48405D40F2A321484304EB86
:1045B000C0143046FDF768FD18B1012D01D1164831
:1045C0000444681C85B2BD42ECDBA8F1010040F256
:1045D000A321484304EBC014C9EB4910C0EB0920E8
:1045E00004EB0014CAEB0A1004EB80045C440121C4
:1045F0004FF0C050FFF7D0FC0120FEF745F92046F0
:1046000000F00CF800F028F80020B5E70085E20182
:104610008033E101746600088051010000B5024654
:10462000FFF7EEFD100C03490880091D0A80FFF713
:10463000F1FD00BD1828004000B50246FFF7E0FD7F
:10464000C2F3034003490880091D0A80FFF7E2FD19
:1046500000BD00000828004000BF0348008800F0AB
:1046600020000028F9D0704704280040074800883F
:104670004FF6F77108400549088000BF03480088DD
:1046800000F008000028F9D070470000042800401E
:1046900070B5044604F03F0040F08005284600F065
:1046A00007FE034800F044FEC6B2304670BD00006D
:1046B00000480040044988794FF6FF7101EA002064
:1046C0000149C97908437047500000202DE9F043A3
:1046D0000146122037E0DFF878C01CF80020E046E1
:1046E00000F1010C18F80C5000F1020C18F80C3015
:1046F00000F1030C18F80C40A2F1300C4FF47A785A
:104700000CFB08FCA5F1300808EBC80909EB0818F8
:104710000CEB8808A3F1300C0CEB8C0C08EB4C086C
:10472000A4F1300CC4441FFA8CF7A0F1120C4FEA2C
:10473000EC780CEB9878C8F3870621F8167000F136
:10474000040C0CF0FF002A28C5DBBDE8F083000054
:104750005000002018B50948007B8DF8000007487C
:10476000407B8DF801000548807B8DF8020068468B
:10477000FCF74AFA0446204618BD0000500000200D
:1047800010B50B46002105E0048823F81140801C79
:104790004C1CA1B29142F7DB10BD00002DE9F05F87
:1047A00080468A461746B8F1006F02D333488045E9
:1047B00001D3BDE8F09FFCF7D7FEA8F1006B4FEAEC
:1047C0009B25CBF34809C9F50074A74200DC3C46A1
:1047D0004DE04FF0006101EB85208A142849FFF776
:1047E000CFFF00260BE009EB0600254931F8100049
:1047F0004FF6FF71884200D003E0701C86B2A642DB
:10480000F1DB00BFA6421BDA4FF0006101EB85200F
:10481000FCF73CFE002608E03AF8160006EB09011A
:10482000174A22F81100701C86B2A642F4DB4FF042
:10483000006101EB85208A14114900F023F804E09F
:1048400022465146404600F01DF8A74200D10FE035
:104850006D1C4FF000090AEB440AA044381B87B2D4
:10486000B7F5007F02DD4FF4007400E03C46B0E78E
:1048700000BFFCF74DFE00BF9BE7000000000108F1
:10488000B60000202DE9F04105460E4617460024EB
:1048900007E036F814102846FCF744FEAD1C601CF7
:1048A00084B2BC42F5DBBDE8F081704770B50546C7
:1048B0000C462846FFF7ECFE064646EA0401284669
:1048C00001F040F870BD10B500F002F810BD000016
:1048D0000CB50020019000903348006840F480300F
:1048E0003149086000BF3048006800F40030009093
:1048F0000198401C0190009818B90198B0F5A06F7C
:10490000F1D12948006800F4003010B10120009076
:1049100001E0002000900098012843D1234800685E
:1049200040F01000214908600846006820F00300AC
:1049300008600846006840F0020008601A484068B5
:10494000194948600846406848600846406840F495
:10495000806048600846406820F47C104860084643
:10496000406840F4E81048600846006840F08070F5
:10497000086000BF0C48006800F000700028F9D003
:104980000948406820F0030007494860084640682D
:1049900040F00200486000BF0348406800F00C008F
:1049A0000828F9D10CBD0000001002400020024090
:1049B000042808D14FF0E021096941F004014FF0CB
:1049C000E022116107E04FF0E021096921F00401C4
:1049D0004FF0E022116170477047000010B5134896
:1049E000006840F00100114908600846406810491D
:1049F00008400E494860084600680E4908400B49C7
:104A000008600846006820F4802008600846406876
:104A100020F4FE0048604FF41F008860FFF753FF4A
:104A20004FF000600449086010BD00000010024013
:104A30000000FFF8FFFFF6FE08ED00E010B50121D1
:104A4000064800F04EF818B10121044800F03AF889
:104A500003480068401C0249086010BD0004004083
:104A6000480000207FB505460C4601210220FFF7D3
:104A700093FAADF80850ADF804400020ADF80A00F4
:104A8000ADF8060001A90E4800F046F801221146D3
:104A90000B4800F037F81D208DF8000000208DF83D
:104AA000010003208DF8020001208DF80300684604
:104AB000FDF700FD0121024800F007F87FBD00006E
:104AC00000040040CA430282704721B1028842F0CC
:104AD0000102028004E002884FF6FE731A40028051
:104AE000704730B50246002000230024158A05EAED
:104AF0000103958905EA010413B10CB1012000E01E
:104B0000002030BD1AB183890B43838102E0838981
:104B10008B43838170470000002202881D4B98421E
:104B20000ED01D4B98420BD0B0F1804F08D01B4BDC
:104B3000984205D01A4B984202D01A4B984204D1A1
:104B40004FF68F731A404B881A43174B984207D081
:104B5000164B984204D04FF6FF431A40CB881A43B5
:104B600002808B8883850B8803850A4B98420BD083
:104B7000094B984208D00E4B984205D00D4B9842F5
:104B800002D00D4B984201D10B7A03860123838218
:104B900070470000002C0140003401400004004038
:104BA00000080040000C00400010004000140040CD
:104BB0000040014000440140004801402DE9F04719
:104BC00003250024102000F00DF90646112000F006
:104BD00009F90746122000F005F98046300440EA42
:104BE000072040EA080900BF07E0A94502D1204696
:104BF000BDE8F087AD00601CC4B20C2CF5DBFF20D3
:104C0000F6E7000010B500F053F8642001F01EF83C
:104C10004FF400412548FCF7BDFD642001F016F873
:104C20004FF400412148FCF7B3FD642001F00EF879
:104C30000B21092000F0FEF80721092000F0FAF806
:104C40008821022000F0F6F88821032000F0F2F815
:104C50008821042000F0EEF88821052000F0EAF811
:104C60008821062000F0E6F88821072000F0E2F80D
:104C70008021082000F0DEF800210A2000F0DAF898
:104C800000210B2000F0D6F8FF210E2000F0D2F812
:104C90000F21084600F0CEF800210C2000F0CAF8E1
:104CA00000210D2000F0C6F810BD0000000C0140EE
:104CB0001FB501210C20FFF78FF910208DF80F0090
:104CC00003208DF80E004FF48050ADF80C0003A9BE
:104CD0003048FCF789FC4FF480512E48FCF75AFD10
:104CE0004FF40050ADF80C0003A92A48FCF77CFCF7
:104CF0004FF400512748FCF74DFD4FF40040ADF84C
:104D00000C0003A92348FCF76FFC4FF40041214835
:104D1000FCF73EFD4FF48070ADF80C0003A91E486F
:104D2000FCF762FC4FF480711B48FCF731FD482012
:104D30008DF80F004FF48040ADF80C0003A9154822
:104D4000FCF752FC01210846FFF746F90E2101202D
:104D5000FCF72AFC4FF48040019000208DF80800F9
:104D600008208DF8090001208DF80A0001A8FCF741
:104D700043FB28208DF8000002208DF8010004205C
:104D80008DF8020001208DF803006846FDF792FBC4
:104D90001FBD0000000C01400008014010B5232198
:104DA000082000F047F80721092000F043F84FF4ED
:104DB00080710248FCF7EEFC10BD000000080140C5
:104DC00010B54FF480710648FCF7E2FC032109207E
:104DD00000F030F88021082000F02CF810BD000011
:104DE0000008014070B50446FCF7A8FED020FCF78F
:104DF0002FFEFCF73BFF08B1002070BD2046FCF7FA
:104E000027FEFCF733FF08B10020F6E7FCF7E2FECF
:104E1000FCF794FED120FCF71BFEFCF727FF08B13E
:104E20000020EAE70020FCF7DBFD0546FCF7D2FE98
:104E30002846E2E770B505460C46FCF77FFED02019
:104E4000FCF706FEFCF712FF08B1012070BD2846F2
:104E5000FCF7FEFDFCF70AFF08B10120F6E720464B
:104E6000FCF7F6FDFCF702FF08B10120EEE7FCF7C6
:104E7000B1FE0020EAE7000010B500BF40F2255166
:104E8000104800F0D8F860B10E48001D0088C1B28B
:104E90000D4802780078401C0B4B18700B48815469
:104EA0000FE040F22441074800F0C5F848B105483A
:104EB000001D0088C4B203480088C4B20120044920
:104EC000087010BD00380140340000205000002060
:104ED0003500002010B515480078401C13490870B3
:104EE00040F22551124800F0A6F8F0B1104800F049
:104EF0005DF9C4B20F48407870B9AA2C15D10120D1
:104F00000C49487008468178C01C4454C01E807803
:104F1000401C0849887008E006488178C01C445449
:104F2000C01E8078401C0349887010BD2F000020EF
:104F3000004400408B00002010B540F22551074886
:104F400000F079F840B1054800F030F9C4B2FF2014
:104F5000034908700348047010BD00000048004079
:104F6000440000204500002021B1828942F4005213
:104F7000828104E082894DF6FF731A408281704776
:104F800010B504462048844209D101218803FFF767
:104F900033F800214FF48040FFF72EF832E01B4831
:104FA000844209D101214804FFF706F800214FF49B
:104FB0000030FFF701F825E01548844209D10121AE
:104FC0008804FEF7F9FF00214FF48020FEF7F4FF7C
:104FD00018E01048844209D10121C804FEF7ECFF13
:104FE00000214FF40020FEF7E7FF0BE00A4884425F
:104FF00008D101210805FEF7DFFF00214FF48010E2
:10500000FEF7DAFF10BD0000003801400044004008
:1050100000480040004C0040005000400246002084
:10502000B1F5007F00D100BF13880B400BB1012008
:1050300000E00020704770B50246002400230025E0
:10504000002040F66A16B14200D100BFC1F34215FC
:1050500001F01F03012606FA03F3012D02D1968900
:10506000334006E0022D02D1168A334001E0968AD1
:1050700033400C12012606FA04F41688344013B1AA
:105080000CB1012000E0002070BDF0B50346002403
:1050900000260025002040F66A17B94200D100BF63
:1050A0001846C1F3421401F01F06012707FA06F55E
:1050B000012C01D10C3004E0022C01D1103000E0B1
:1050C00014301AB107682F43076002E00768AF4346
:1050D0000760F0BD2DE9F04786B005460E46002476
:1050E000A24600BFA1460027B08900B100BF2F46ED
:1050F0002C8A4CF6FF700440F08804432C82AC8963
:105100004EF6F3100440B088318908437189084392
:105110000443AC81AC8A4FF6FF400440B08904439D
:10512000AC8201A8FEF77EFF1F48874202D1DDF85E
:1051300010A001E0DDF80CA0A88900F4004040B107
:105140000AEBCA0000EB0A1031684900B0FBF1F825
:1051500007E00AEBCA0000EB0A1031688900B0FBD7
:10516000F1F86420B8FBF0F004012009642101FB90
:105170001089A88900F4004040B1322000EBC9003A
:10518000B0FBF1F000F00700044308E0322000EB30
:1051900009106421B0FBF1F000F00F0004432C81F2
:1051A00006B0BDE8F087000000380140014688885D
:1051B000C0F308007047C1F3080282807047000006
:1051C00008B501210820FEF707FF01210846FEF778
:1051D00003FF01211548FCF793FA2020ADF80000E9
:1051E00010208DF8030003208DF802006946104856
:1051F000FCF7FAF91020ADF8000069460C48FCF7FE
:10520000F3F900200B4908600B49C1F890014FF4F5
:1052100000710748FCF7BCFA642000F017FD4FF45A
:1052200000710348FCF7B6FA08BD00000002300028
:10523000000C0140948121420080214270B5044657
:105240000020194908601949C1F89401642000F050
:1052500023FD012014490860642000F01DFD00209A
:105260001249C1F89001642000F016FD01200E499A
:105270000860642000F010FD00200C49C1F8900186
:1052800001250EE001200849091D0860642000F096
:1052900003FD00200549C1F89401642000F0FCFCE6
:1052A0006D1CA542EEDD70BD90812142008021423F
:1052B00010B504462146024800F06CF810BD00000D
:1052C0000048004070B506460C46154600F01FFB2E
:1052D00028702878FF2801D1022070BD28780A287C
:1052E0000CD1207808B90320F7E72078401E207001
:1052F00020212078401E31540420EEE728780B2826
:1053000006D12078062801DB0020E6E70120E4E74B
:105310002078102801D10420DFE728782178705404
:105320002078401C20700420D7E700BFFEE7000073
:1053300010B504460B480C49086008E00A490868A3
:10534000411E094A116010B94FF6FF7010BD2021AF
:105350002046FFF763FE0028F0D02046FFF726FF27
:10536000C0B2F3E7FFFF0F003000002001460748FE
:105370000078012807D10020044A1070044A1070F8
:1053800046F26660704743F23330FBE73500002099
:105390003400002070B504460D460C480C490860E6
:1053A00029462046FFF707FF08E009490868411E23
:1053B000074A116010B94FF6FF7070BD802120467A
:1053C000FFF72CFE0028F0D00020F6E7FFFF0F00CB
:1053D00030000020FEB507460D4616464FF6CF605A
:1053E000ADF800000120ADF802000C20ADF804007B
:1053F00040F20130ADF80600ADF80850ADF80A6093
:10540000002407E0684600EB4401384600F08FFFB7
:10541000601CC4B2062CF5DBFEBDFEB507460C468B
:1054200016464FF6CF60ADF800000120ADF802003F
:10543000032C03DA0C20ADF8040002E00F20ADF8D5
:10544000040040F20130ADF80600ADF8084000203D
:10545000ADF80A00002507E0684600EB4501384634
:1054600000F065FF681CC5B2062DF5DB032C03D1E7
:105470003146384600F089F9FEBD3EB505464FF687
:10548000CF60ADF800000120ADF802000C20ADF8AF
:10549000040040F60200ADF806000020ADF8080058
:1054A0004FF40060ADF80A00002407E0684600EB06
:1054B0004401284600F03BFF601CC4B2062CF5DB1B
:1054C0003EBD3EB505464FF6CF60ADF80000012069
:1054D000ADF802000C20ADF8040040F60200ADF873
:1054E00006000020ADF80800ADF80A00002407E02F
:1054F000684600EB4401284600F019FF601CC4B266
:10550000062CF5DB3EBD3EB505464FF6CF60ADF847
:1055100000000120ADF802000C20ADF804004FF4AB
:105520008370ADF806000020ADF80800ADF80A0061
:10553000002407E0684600EB4401284600F0F7FE2F
:10554000601CC4B2062CF5DB3EBDFEB506460D461A
:105550004FF6CF60ADF800000120ADF802000C203E
:10556000ADF804004FF48270ADF806000020ADF8ED
:105570000800ADF80A50002407E0684600EB44013B
:10558000304600F0D4FE601CC4B2062CF5DBFEBD34
:10559000FEB505460E464FF6CF60ADF8000001207F
:1055A000ADF802000F20ADF804004FF48270ADF8A2
:1055B00006000020ADF80800ADF80A00002407E05E
:1055C000684600EB4401284600F0B1FE601CC4B2FE
:1055D000062CF5DB3146284600F0D7F8FEBD3EB577
:1055E00005464FF6CF60ADF800000120ADF802008F
:1055F0000C20ADF8040040F60400ADF806000020D1
:10560000ADF808004FF40060ADF80A00002407E090
:10561000684600EB4401284600F089FE601CC4B2D5
:10562000062CF5DB3EBD3EB505464FF6CF60ADF826
:1056300000000120ADF802000C20ADF8040040F697
:105640000400ADF806000020ADF80800ADF80A002F
:10565000002407E0684600EB4401284600F067FE9E
:10566000601CC4B2062CF5DB3EBDFEB506460D46F9
:105670004FF6CF60ADF800000120ADF802000C201D
:10568000ADF8040040F20230ADF806000020ADF89D
:105690000800ADF80A50002407E0684600EB44011A
:1056A000304600F044FE601CC4B2062CF5DBFEBDA3
:1056B000FEB505460E464FF6CF60ADF8000001205E
:1056C000ADF802000F20ADF8040040F20230ADF852
:1056D00006000020ADF80800ADF80A00002407E03D
:1056E000684600EB4401284600F021FE601CC4B26D
:1056F000062CF5DB3146284600F047F8FEBD3EB5E6
:1057000005464FF6CF60ADF800000120ADF802006D
:105710000C20ADF8040040F60300ADF806000020B0
:10572000ADF808004FF40060ADF80A00002407E06F
:10573000684600EB4401284600F0F9FD601CC4B245
:10574000062CF5DB3EBD3EB505464FF6CF60ADF805
:1057500000000120ADF802000C20ADF8040040F676
:105760000300ADF806000020ADF80800ADF80A000F
:10577000002407E0684600EB4401284600F0D7FD0E
:10578000601CC4B2062CF5DB3EBDF8B506460D46DE
:105790006946284600F00CF8002406E00DEB0401F1
:1057A000304600F0B5FD601CC4B2032CF6DBF8BD3A
:1057B000F0B5642590FBF5F5ECB20A2590FBF5F504
:1057C0000A2695FBF6F706FB1755EAB20A2590FB69
:1057D000F5F605FB1605EBB204F130050D7002F18C
:1057E00030054D7003F130058D70F0BD00B587B008
:1057F00001210420FEF7F0FB0120ADF81800002085
:105800008DF81B0003208DF81A0006A91D48FBF730
:10581000EBFE01214802FEF7DFFB4FF44040FEF7AC
:10582000AFFB1948FAF724FF002001908DF808001B
:105830008DF809004FF460200390002004900120AF
:105840008DF8140001A91048FAF762FF0120FAF759
:10585000F9FF01210C48FAF700FF0B48FAF7DCFFCB
:1058600000BF0948FAF749FF0028FAD10648FAF7BD
:10587000E3FF00BF0448FAF729FF0028FAD107B078
:1058800000BD0000000801400024014010B50021C7
:105890000548FAF7E2FE0020FAF7D4FF00214FF4A2
:1058A0000070FEF799FB10BD0024014010B50446BE
:1058B0000723012221460948FAF752FF0121074830
:1058C000FAF7AFFF00BF02210448FAF70DFF0028E6
:1058D000F9D00248FAF704FF10BD0000002401408F
:1058E0002DE9F04107460C460025002608E0384621
:1058F000FFF7DCFF0544052000F0A8F9701CC6B2D4
:10590000A642F4DBB5FBF4F080B2BDE8F08110B53F
:10591000002400BFFCF7D5FB641CFF2802D1B4F5BE
:105920007A6FF7DB10BD10B5044621460020FBF767
:10593000C9FF10BD10B5044621464020FBF7C2FF49
:1059400010BD000070B504460D4604F03F06304619
:10595000FFF7AEFC0348FFF7EBFC2846FFF7A8FC77
:1059600070BD0000004800400FB4054B10B503A9FE
:10597000044A029800F018F810BC5DF814FB00000F
:10598000E55C00084C00002002E008C8121F08C1B6
:10599000002AFAD170477047002001E001C1121FB0
:1059A000002AFBD1704700002DE9FF4F8BB09A46CB
:1059B0000F460546002606E025280BD052460D99D5
:1059C00090476D1C761C28780028F5D10FB0304622
:1059D000BDE8F08F0024A0460122604900E00443A6
:1059E00015F8013F203B02FA03F00842F7D128786E
:1059F0002E2817D115F8010F44F004042A280ED0E0
:105A00006FF02F022878A0F1300109290AD808EB9D
:105A1000880102EB410100EB01086D1CF2E757F829
:105A2000048B6D1C287869283ED006DC0028CDD078
:105A300063280BD0642804D136E0732810D0752871
:105A40004BD052460D999047761C85E017F8040B11
:105A50008DF8000000208DF80100E946012003E0E8
:105A600057F8049B4FF0FF3061074FF0000401D45A
:105A70000AE0641C44450DDA8442FADB19F804108C
:105A80000029F6D106E0641C8442FCDB19F80410FE
:105A90000029F8D1264404E019F8010B52460D996B
:105AA0009047641EF8D257E001CF4FF00A0B002850
:105AB00002DA40422D2102E0210504D52B218DF888
:105AC0002410012103E0E10705D02021F7E70DF1C3
:105AD000200908910CE00021F9E701CF4FF00A0BF3
