:020000040800F2
:10000000A0080020010100086F150008A90F0008D2
:100010006B1500087D0700085F380008000000002D
:10002000000000000000000000000000032E000897
:100030006D09000800000000511B0008312F000866
:100040001B0100081B0100081B01000831290008E2
:100050001B0100081B010008210B00081B01000800
:100060001B0100081B0100081B0100081B01000800
:100070001B0100081B0100081B0100081B010008F0
:100080001B0100081B0100081B0100081B010008E0
:100090001B0100081B0100081B010008B90B000828
:1000A0001B0100081B0100081B0100081B010008C0
:1000B0001B010008952F00081B0100081B01000808
:1000C0001B0100081B0100081B0100081B010008A0
:1000D0001B010008AD330008093400086D34000826
:1000E000690B00081B0100081B010008DFF80CD099
:1000F00000F02EF80048004775410008A0080020D5
:100100000648804706480047FEE7FEE7FEE7FEE7B1
:10011000FEE7FEE7FEE7FEE7FEE7FEE7352F000815
:10012000ED00000830B50B460146002020220124D6
:1001300009E021FA02F59D4205D303FA02F5491BB5
:1001400004FA02F52844151EA2F10102F1DC30BDCB
:10015000064C074D06E0E06840F0010394E8070014
:1001600098471034AC42F6D3FFF7C4FFA0680008EC
:10017000C068000821B1826842F00102826003E099
:10018000826822F0010282607047000010B50446C8
:100190001248844208D10121401502F0E1F9002102
:1001A000601502F0DDF917E00D48844208D1012105
:1001B000001502F0D5F90021201502F0D1F90BE06D
:1001C0000848844208D10121C80302F0C9F900217E
:1001D0004FF4004002F0C4F910BD000000240140BB
:1001E00000280140003C0140014600208A6802F0DE
:1001F00004020AB1012000E00020704701460020FF
:100200008A6802F008020AB1012000E0002070476D
:1002100030B502460020002350680F4C20400D7975
:100220000C6844EA05242043506090680B4C204041
:10023000D1E902542C434D7944EA450420439060AF
:10024000D06A20F470000C7C641EE4B2234340EAC0
:100250000350D06230BD0000FFFEF0FFFDF7F1FF5C
:10026000816841F0080181607047816841F00401B4
:100270008160704730B10749096841F40001054ABF
:10028000116005E00349096821F40001014A116089
:1002900070470000082401402DE9FF410646002276
:1002A00011465E4803F053FB00253BE042F210701C
:1002B00002F05AF8F2280AD14FF4A062691C57489C
:1002C00003F022FB4FF4A06004B0BDE8F0812802E7
:1002D00001F022FD0446F02C03D0F12C01D0262C95
:1002E00008D14FF4A062691C4C4803F00DFB4FF499
:1002F000A060E9E7192C08D14FF44072691C474807
:1003000003F002FB4FF44070DEE7022D04DA002216
:10031000691C424803F01BFB4FF47A7003F0CCFEDB
:10032000681CC5B2032DC1DB01F092FD0446F02C20
:1003300007D0F12C05D0262C03D0252C01D01A2C67
:1003400008D14FF440720321344803F0DDFA4FF432
:100350004070B9E703A801F02BFD0446F02C03D050
:10036000F12C01D0222C08D14FF4A06203212B489C
:1003700003F0CAFA4FF4A060A6E79DF80C1008023B
:1003800001F012FE0446F02C05D0F12C03D01D2CF8
:1003900001D0262C08D14FF4A06203211F4803F09E
:1003A000B3FA4FF4A0608FE7182C08D14FF48062A5
:1003B00003211A4803F0A8FA4FF4806084E700256F
:1003C0001FE0174800EBC507012202A9384602F0DA
:1003D00083FCBDF808004FF6FF7188420FD1ADF8DD
:1003E00000500120ADF802009DF80C00019004229D
:1003F0006946384602F07EFC3580002064E7681CC0
:1004000085B2B5F57A7FDCDB4FF4A06203210348A7
:1004100003F07AFA4FF4A06056E70000003801407C
:10042000BEE000082DE9F04389B007464F4890F838
:1004300005900024007B303840F63541484304EBFA
:1004400040144A48407B303840F27121484304EB65
:1004500000144648807B303800EB4001C1EBC010EF
:1004600004EBC0044148C07B303800EBC00101EB15
:10047000001004EB80043D48007C303800EB800025
:1004800004EB40043948407C30380444B9F1120F81
:1004900001D1012505E0B9F12A0F01D1022500E0C3
:1004A000032500265CE006EB8600314901EB80085D
:1004B0000A2208A9404602F00FFCBDF820004FF6C2
:1004C000FF7188424AD13E80ADF80060ADF802501D
:1004D0000194012D04D0022D08D0032D38D126E03F
:1004E00004226946404602F005FC32E005A802F00D
:1004F00099FBBDF81400ADF80800BDF81600ADF882
:100500000A00BDF81800ADF80C00BDF81A00ADF8EF
:100510000E00BDF81C00ADF81000BDF81E00ADF8CF
:1005200012000A226946404602F0E4FB11E005A8E9
:1005300002F078FBBDF81400ADF80800BDF8160015
:10054000ADF80A0006226946404602F0D3FB00E0FF
:1005500000BF00BF002009B0BDE8F083701C86B268
:10056000B6F57A7F9FDB4FF40060F4E74800002087
:10057000BE9200082DE9FF41054603A800F027FDC3
:100580000746012F53D100241CE02A4800EBC40683
:1005900004226946304602F09FFBBDF800004FF68A
:1005A000FF7188420CD0BDF80200022808D10399DF
:1005B0000198884204D14FF4806004B0BDE8F08116
:1005C000601C84B2B4F57A7FDFDB002429E019488F
:1005D00000EBC406012202A9304602F07DFBBDF803
:1005E00008004FF6FF7188420ED1ADF8004002209E
:1005F000ADF802000398019004226946304602F0EB
:1006000079FB2C800020D8E7BDF80200022806D133
:1006100003990198884202D14FF4A060CDE7601C95
:1006200084B2B4F57A7FD2DB4FF4A060C5E74FF413
:10063000A060C2E7BEE0000830B501460878303857
:10064000C4B248783038C2B288783038C3B2642037
:10065000604302EB820500EB4500184480B230BDD8
:1006600010B5012001F08CFF002001F089FF10BDC2
:1006700008B5014600200090034800900098084407
:1006800000900098008808BD006C004008B500226A
:100690000092044A0092009A02440092009A11606B
:1006A00008BD0000006C00401FB501210C2001F0C6
:1006B00047FF10208DF80F0003208DF80E004FF437
:1006C0000060ADF80C0010208DF80F0003208DF8AD
:1006D0000E0003A9274800F073FB4FF48050ADF8DB
:1006E0000C0010208DF80F0003208DF80E0003A9D8
:1006F000204800F065FB4FF48070ADF80C0004203A
:100700008DF80F0003208DF80E0003A91A4800F0A1
:1007100057FB0121084601F013FF0821012000F0DA
:100720002FFB4FF48070019000208DF80800082006
:100730008DF8090001208DF80A0001A800F048FAA0
:1007400017208DF8000002208DF8010005208DF89B
:10075000020001208DF80300684600F031FF4FF4DD
:100760000061044800F002FC4FF48051014800F0A1
:10077000FDFB1FBD00080140000C014000BFFEE76B
:1007800070B505460C46284602F02EFA064626EAC3
:100790000401284603F00CFB70BD00003EB502A822
:1007A00001F008FDE8B9002414E00F4800EBC4058F
:1007B00004226946284602F08FFA9DF80810019835
:1007C000884205D1BDF80200012801D100203EBDBC
:1007D000601C84B240F2E7308442E6DB4FF40060F4
:1007E000F5E74FF40060F2E7BEE000082DE9F041C4
:1007F00004460E460027062E22D120782B49484376
:10080000617840F27122514300EB0110A17801EBB5
:100810004102C2EBC11100EBC100E17801EBC10262
:1008200002EB011100EB8100217901EB810100EB6A
:10083000410061794718384600F03AF8BDE8F08188
:1008400000252DE0605D19494843691C615C40F258
:100850007122514300EB0111A81C205C00EB400207
:10086000C2EBC01001EBC001E81C205C00EBC00231
:1008700002EB001001EB8001281D205C00EB8000E2
:1008800001EB4001681D205C0F18384600F010F89D
:100890008046B8F1000F01D14046CFE7681CC5B2D1
:1008A000B01FA842CEDA4FF40060C7E7A08601006F
:1008B00070B586B0054600241FE004EB84001249A1
:1008C00001EB80060A2201A9304602F005FABDF8C4
:1008D00004004FF6FF71884201D0012000E00020A3
:1008E0000299A94201D1012100E00021084010B184
:1008F000002006B070BD601C84B2B4F57A7FDCDBEA
:100900004FF40060F5E70000BE9200087CB5054694
:10091000002418E00F4800EBC40604226946304664
:1009200002F0DAF9BDF800004FF6FF71884208D0F6
:10093000BDF80200022804D10198A84201D100208C
:100940007CBD601C84B2B4F57A7FE3DB4FF40060B9
:10095000F6E70000BEE000080146002003E0202288
:100960000A54421CD0B21028F9DB704770470000CF
:100970003EB504464FF6FF700290104800EBC405E8
:1009800004226946284602F0A7F9B4F57A7F12DA04
:10099000BDF80000A0420ED1012202A9284602F0B3
:1009A000A9F90199C8B201F023F908B900203EBDA8
:1009B0004FF40060FBE74FF40060F8E7BEE000088A
:1009C00038B504464FF6FF700090B4F57A7F0ADA26
:1009D00004EB8401054A02EB81000122694602F022
:1009E00089F9002038BD4FF40060FBE7BE92000893
:1009F00038B504464FF6FF700090B4F57A7F08DAF8
:100A0000054901EBC4000122694602F073F9002098
:100A100038BD4FF40060FBE7BEE000082DE9F84F59
:100A200006460F469046994644463546BA46B9F1C1
:100A3000000F01D000F006FE1BE0207880280CDAC1
:100A400001200090637822785146284600F0C6FEC7
:100A500005F10800C5B2641C0BE00020009063782B
:100A600022785146284600F0B9FE05F11000C5B2C3
:100A7000A41C20780028E0D1BDE8F88F2DE9F84FBC
:100A800006460F469046994644463546BA46B9F161
:100A9000000F23D05146002000F08DFE4FF0000BD8
:100AA00006E0002003F07DF90BF1010000F0FF0BE0
:100AB000BBF1800FF5DB0AF10100C1B2002000F0AC
:100AC0007AFE4FF0000B06E0002003F06AF90BF10C
:100AD000010000F0FF0BBBF1800FF5DB1BE020787D
:100AE00080280CDA0120009063782278514628464D
:100AF00000F074FE05F10800C5B2641C0BE0002094
:100B00000090637822785146284600F067FE05F190
:100B10001000C5B2A41C20780028E0D1BDE8F88FF1
:100B200010B50E480078A0B102F004FA00200B497D
:100B300008700B49087003F0D1F84FF400710948B0
:100B400000F014FA552002F04DFE01F043FC02F0D3
:100B5000D1FB012000F036F810BD00003600002067
:100B600028000020000C014010B510480078B8B1F2
:100B700002F0E0F900200D49087001200C490870CE
:100B800003F0ACF801F0F6FA4FF40071094800F0F8
:100B9000EDF9552002F026FE01F01CFC02F0AAFB44
:100BA0004FF4804000F00EF810BD00003600002029
:100BB00028000020000C014010B54FF4807000F0B8
:100BC00001F810BD0149086070470000140401409D
:100BD000002123498279002A3AD00A461268036824
:100BE0009A430B461A600A1D126803689A430B1D4C
:100BF0001A60027911440A6803681A430A60184AA5
:100C00000832126803689A43154B08331A601A1D9C
:100C1000126803689A43124B0C331A604279102A07
:100C20000ED11A1F126803681A430D4B08331A605D
:100C30001A1D126803681A43094B0C331A600DE041
:100C40000749427911440A6803681A430A6005E0BB
:100C5000027911440A6803689A430A6070470000E9
:100C60000004014030B5054604244FF4302000F064
:100C700073F80446042C19D10D48006940F00200B5
:100C80000B49086108464561006940F04000086171
:100C90004FF4302000F060F80446052C06D00448DC
:100CA000006941F6FD71084001490861204630BDE8
:100CB0000020024004200B49C96801F0010109B17C
:100CC00001200EE00749C96801F0040109B10220C2
:100CD00007E00449C96801F0100109B1032000E0F0
:100CE00004207047002002400348006940F0800063
:100CF00001490861704700000020024070B50546B8
:100D00000E460424E00200F027F80446042C13D118
:100D10000A48006940F00100084908612E80E0029D
:100D200000F01AF80446052C06D00448006941F684
:100D3000FE71084001490861204670BD0020024054
:100D400002480349486003484860704723016745EB
:100D500000200240AB89EFCD00B502460423FFF727
:100D6000A9FF034603E0FFF7A5FF0346521E012B30
:100D700001D1002AF7D102B90523184600BD0000B1
:100D800030B500228B071C0F0F2303FA04F20B4B24
:100D90008C1053F824309343084C8D1044F82530C0
:100DA00023468C1053F824308C07240F00FA04F4E7
:100DB0002343024C8D1044F8253030BD080001401B
:100DC0002DE9F041024600250026002000230024E2
:100DD000002791F803C00CF00F0591F803C00CF048
:100DE000100CBCF1000F03D091F802C04CEA0505CD
:100DF00091F800C0BCF1000F31D0146800202BE046
:100E00004FF0010C0CFA00F3B1F800C00CEA030635
:100E10009E4220D183004FF00F0C0CFA03F7BC4325
:100E200005FA03FC4CEA040491F803C0BCF1280F56
:100E300006D14FF0010C0CFA00FCC2F814C00AE015
:100E400091F803C0BCF1480F05D14FF0010C0CFA2A
:100E500000FCC2F810C0401C0828D1D31460B1F8BF
:100E600000C0BCF1FF0F34DD546800202EE000F11B
:100E7000080C4FF0010808FA0CF3B1F800C00CEAB6
:100E800003069E4221D183004FF00F0C0CFA03F7AA
:100E9000BC4305FA03FC4CEA040491F803C0BCF11E
:100EA000280F05D100F1080C08FA0CF8C2F81480DC
:100EB00091F803C0BCF1480F07D100F1080C4FF0C6
:100EC000010808FA0CF8C2F81080401C0828CED39C
:100ED0005460BDE8F0810000F0B50A46002300240C
:100EE0000021002500F00046B6F1004F02D11D4E52
:100EF000F16901E01B4E7168C0F3034583B200F451
:100F00004016B6F5401F08D121F07061154E766885
:100F100026F07066134F7E6012E000F48016B6F57E
:100F2000801F06D1032606FA05F4A14341F0706143
:100F300006E0460D360103FA06F6B14341F0706152
:100F400022B1460D360103FA06F6314300F00046A1
:100F5000B6F1004F02D1034EF16101E0014E716024
:100F6000F0BD000000000140416170470161704721
:100F700008B50121082001F0E3FA4020ADF8000097
:100F800010208DF8030003208DF802006946054803
:100F9000FFF716FF8020ADF8000069460148FFF713
:100FA0000FFF08BD000C014000BFFEE770B505460D
:100FB0000C4600F05DF9782000F0F8F8284600F0C3
:100FC000F5F8204600F0F2F800F09EF970BDF8B593
:100FD000044600202060002700260BE069465220CE
:100FE00000F04BFD0546262D00D104E0761C962E20
:100FF00000DD00E0F2E700BF262D13D1684600F0C7
:101000006AFC26280ED100F053FC0127002007E0DF
:101010001DF80010226841EA02212160411CC8B27B
:101020000428F5DB3846F8BD10B500200F490860EC
:101030000F48006820F470200D49086008460068D9
:1010400040F44030086000200A49C1F8B001052092
:1010500003F058F8012005490860052003F052F814
:1010600000200449C1F8B40110BD0000B481214240
:10107000040C01400080214210B500200F49086097
:101080000F48006820F470200D4908600846006889
:1010900040F44030086001200A49C1F8B001052041
:1010A00003F030F8012005490860052003F02AF814
:1010B00000200449C1F8B40110BD0000B4812142F0
:1010C000040C01400080214270B5054600241748F9
:1010D000006820F47020154908600846006840F454
:1010E00000200860002616E0002011490860052055
:1010F00003F008F801200F49C1F8B4016006040E9E
:101100000B488438006808B1601CC4B2012002F0AA
:10111000F9FF701CC6B2082EE6DB15B9FFF7ACFF6D
:1011200001E0FFF781FF204670BD0000040C014084
:10113000B48121420080214270B5044618480068FD
:1011400020F47020164908600846006840F44030DA
:10115000086000201349086000251EE0E00920B166
:1011600001201049091F086003E000200D49091FF4
:1011700008606006040E052002F0C4FF0120094942
:101180000860052002F0BEFF00200749C1F8B40145
:10119000052002F0B7FF681CC5B2082DDEDB70BD6C
:1011A000040C0140B48121420080214270B5044604
:1011B0001848006820F0704016490860084600682A
:1011C00040F04050086000201349086000251CE0F2
:1011D000E00918B101201149086002E000200F4920
:1011E00008606006040E022002F08CFF01200A490C
:1011F0000860022002F086FF00200949C1F88C0136
:10120000022002F07FFF681CC5B2082DE0DB00F071
:10121000D5F870BD040801408C812142BC012142F7
:101220000080214210B50F48006820F470200D495D
:1012300008600846006840F44030086001200A4910
:1012400008600A49C1F8B401052002F05BFF0020E4
:1012500005490860052002F055FF00200349C1F848
:10126000B40110BD040C0140B08121420080214234
:1012700010B50F48006820F070400D49086008461E
:10128000006840F04050086001200A4908600A499F
:10129000C1F88C01042002F035FF002005490860E8
:1012A000042002F02FFF00200349C1F88C0110BD7B
:1012B00004080140BC0121420080214210B50F48C2
:1012C000006820F470200D4908600846006840F46A
:1012D0004030086000200A4908600A49C1F8B0019E
:1012E000052002F00FFF0120054908600549C1F8FB
:1012F000B001052002F006FF10BD0000040C014003
:10130000B48121420080214210B50F48006820F0CE
:1013100070400D4908600846006840F04050086081
:1013200000200A4908600A49C1F8BC01042002F003
:10133000E9FE0120054908600549C1F8BC01042007
:1013400002F0E0FE10BD0000040801408C81214243
:101350000000214210B500241548006820F47020D8
:10136000134908600846006840F400200860012026
:1013700010490860052002F0C5FE01200E49C1F8A1
:10138000B401052002F0BEFE07E0601CC4B2FA2CD6
:1013900003DDFFF793FF012010BD06488038006889
:1013A0000028F2D10349091D086000BFF4E70000DE
:1013B000040C0140B08121420080214210B500247C
:1013C0001348006820F07040114908600846006822
:1013D00040F00040086001200E49086002F092FED3
:1013E00001200D49C1F88C0102F08CFE07E0601C61
:1013F000C4B2FA2C03DDFFF787FF012010BD0548BA
:10140000803800680028F2D10449086000BFF5E781
:1014100004080140BC012142008021428C8121420C
:1014200010B586B00446102C00DD102400200AE020
:10143000A04203DA2A2101AA115402E0202101AAC4
:101440001154411CC8B21028F2DB00208DF81400A2
:10145000002301AA02211846FFF710FB06B010BDB9
:101460000146CA1701EB92729210A1EB820292B967
:10147000642091FBF0F200FB121050B94FF4C870D9
:1014800091FBF0F200FB121008B901207047002018
:10149000FCE70120FAE70020F8E770B501F03AFE1A
:1014A0000446FF2C00D170BD002503E06D1C642DA7
:1014B00000D103E001F02EFEFF28F7D100BF0C2C75
:1014C0001FD2DFE804F01A140E080A101606120CD8
:1014D000181C0020E7E70120E5E70220E3E70320EE
:1014E000E1E70420DFE70520DDE70620DBE7072052
:1014F000D9E70820D7E70920D5E70A20D3E70B2052
:10150000D1E76420CFE710B50446412C2CD1082147
:101510000846FFF735F93D21112002F049FC8621EC
:10152000172002F045FC7F21262002F041FCF82123
:10153000272002F03DFC3F21282002F039FC1E212B
:101540002D2002F035FC00212C2002F031FC8D21F1
:101550002A2002F02DFC3E212B2002F029FC022043
:1015600002F0D0FD00F0AAF910BD00BFFEE7704701
:1015700008B54FF4A06000F05BF825208DF800005E
:1015800001208DF8010002208DF8020001208DF865
:101590000300684600F014F808BD08B54FF4A060D9
:1015A00000F046F826208DF8000001208DF801009B
:1015B0008DF802008DF80300684600F001F808BDC0
:1015C00070B5002100230F22C47804B3154C2468A1
:1015D00004F4E064C4F5E064210AC1F10403CA40E4
:1015E000447804FA03F184781440214309010E4C35
:1015F0000678A155047804F01F050124AC40057855
:101600006D11AD0005F1E025C5F8004109E0047851
:1016100004F01F050124AC40044D0678761145F80E
:10162000264070BD0CED00E000E400E080E100E049
:1016300002490143024A1160704700000000FA05A8
:101640000CED00E010B5002000F001F810BD70B501
:101650000646002415E004F1B001C8B202F09AFB7E
:10166000002002F097FB102002F094FB002504E01C
:10167000304602F096FB681CC5B2802DF8DB601C7A
:10168000C4B2082CE7DB70BD08B501210C2000F0C6
:1016900057FF0121084600F053FF01210F48FFF7D3
:1016A0001BFC0820ADF8000010208DF8030003207B
:1016B0008DF8020069460A48FFF782FB4FF40040AC
:1016C000ADF8000069460748FFF77AFB012006499C
:1016D00008600649C1F88C0108BD00000002300016
:1016E000000C014000080140BC0121420080214261
:1016F00010B5FFF7C9FF002400E0641CB4F57A7F41
:10170000FBDDAE2002F046FB202002F043FB102060
:1017100002F040FBB02002F03DFBC82002F03AFB93
:10172000002002F037FB102002F034FB402002F0D2
:1017300031FB812002F02EFBFF2002F02BFBA120C9
:1017400002F028FBA62002F025FBA82002F022FBD5
:101750003F2002F01FFBA42002F01CFBD32002F06C
:1017600019FB002002F016FBD52002F013FBF0203D
:1017700002F010FBD92002F00DFB222002F00AFB40
:10178000DA2002F007FB122002F004FBDB2002F05B
:1017900001FB202002F0FEFA8D2002F0FBFA14205B
:1017A00002F0F8FAAF2002F0F5FAFFF74BFF6420E1
:1017B00002F082FC10BD70B504460D4605F1B00183
:1017C000C8B202F0E7FA102141EA141002F0E2FA7E
:1017D00004F00F0002F0DEFA70BD00002DE9F05FAA
:1017E00082460F4690469946DDF828B000243946D7
:1017F0005046FFF7E0FF00250026BBF1000F1ED08A
:10180000A8F12000050100BF06E02449485D02F070
:10181000C8FA6D1C601CC4B2082CF6DB781CC1B27F
:101820005046FFF7C8FF002406E01C49485D02F05F
:10183000B8FA6D1C601CC4B2082CF6DB2CE00BE07F
:101840001748805D404506D11549701C085C484525
:1018500001D1B51C04E0223641F234008642EFD3B8
:1018600000BF002406E00E49485D02F09AFA6D1CA4
:10187000601CC4B2102CF6DB781CC1B25046FFF7D6
:101880009AFF002406E00649485D02F08AFA6D1CC2
:10189000601CC4B2102CF6DBBDE8F09FC0550008F8
:1018A0008C450008014908627047000000000E42A4
:1018B00010B503211420FEF763FF10BD10B51420EE
:1018C00001F092F9044604F0030018B90321142032
:1018D00001F098FA10BDF0B587B005460027082141
:1018E0000846FEF74DFF00210D2002F061FA80212D
:1018F0000E20FEF745FF93208DF8080020208DF87C
:10190000090001A802AB022202A900900C2000F0FD
:101910001BF80646262E10D1002407E002A8005D21
:10192000285502A8005D4740601CC4B2042CF5DBBA
:1019300002A8005DB84200D0BB2680210E2001F035
:1019400061FA304607B0F0BD2DE9FE4F06468846E5
:1019500091469A46DDF830B0BB20029000200190FD
:1019600000900C2E06D00E2E09D1122001901020CE
:10197000009005E0772001903020009000E000BF4B
:1019800000BF019840F08001022002F011FA80218E
:101990000420FEF7F5FE0021012002F009FA802163
:1019A0000A2001F02FFA002505E018F8051009209B
:1019B00002F0FEF96D1C4D45F7D33146012002F0CF
:1019C000F7F90C2E03D180210D2001F01BFA4FF402
:1019D0007A7500BF042001F007F904466D1E35B189
:1019E00004F0010018B9009820400028F2D08021AE
:1019F0000D20FEF7C5FE95B3062001F0F5F800F0C6
:101A00001B0068BB262002900198204000F00100D6
:101A100008B1CC2002900C2E24D10A2001F0E4F869
:101A200004460C2001F0E0F800F007072FB1601E1B
:101A300007EBC000CBF8000002E0E000CBF80000AC
:101A400004B90124122C00DD1224002505E0092030
:101A500001F0CAF80AF805006D1CA542F7D301E0B1
:101A6000BB20029080210C2001F0CCF90021012044
:101A700002F09EF90298BDE8FE8F70B588B0054669
:101A80000C4608210846FEF77BFE07210D2002F0D8
:101A90008FF90321142001F0B5F98DF80C5002A83C
:101AA00003AB012203A900900C20FFF74DFF06466F
:101AB000262E09D10298102806D19DF80C0020701E
:101AC0009DF80D00607000E0BB26304608B070BD88
:101AD00010B502211D48FFF749FA0A2002F0ECFA7E
:101AE00002211A48FFF740FA0A2002F0E5FA022123
:101AF0001648FFF73BFA0A2002F0DEFA0F21012018
:101B000002F056F900BF012001F06EF800F010005D
:101B10000028F8D10A2002F0CFFA3D21112002F06E
:101B200047F91E212D2002F043F900212C2002F05C
:101B30003FF98D212A2002F03BF93E212B2002F0B3
:101B400037F94021152002F033F910BD000C014097
:101B50007047000010B588B000F004FB45F2AA50B1
:101B600000F022FC002000F015FC002000F012FC28
:101B70004FF4884000F018FC4FF4806000F014FC33
:101B80004FF4807000F010FC4FF4484000F00CFC63
:101B9000002403E0002000F0FDFB641C0C2CF9DBAA
:101BA00041F2020000F000FC01201049087001A879
:101BB00000F07CFBFF2802D1F02008B010BDBDF87A
:101BC0000800FF2801D1F020F7E7BDF80C0022281B
:101BD00000D1F2E7BDF80C00122800D1EDE7BDF806
:101BE0000C0008B90020E8E7F120E6E772000020C9
:101BF00070B588B0044600F0B5FA04F24710051934
:101C000045F2AA5000F0D0FB002000F0C3FB0020FA
:101C100000F0C0FB4FF4884000F0C6FB4FF480603A
:101C200000F0C2FB200200F0BFFB200200F0BCFB72
:101C3000002603E0002000F0ADFB761C0C2EF9DB43
:101C4000E8B200F0A7FB281200F0A4FB0120104925
:101C5000087001A800F02AFBFF2802D1F02008B08C
:101C600070BDBDF80800FF2801D1F020F7E7BDF8EE
:101C70000C00222800D1F2E7BDF80C00122800D198
:101C8000EDE7BDF80C0008B90020E8E7F120E6E731
:101C90007200002010B588B000F064FA45F2AA5036
:101CA00000F082FB002000F075FB002000F072FBCA
:101CB0004FF4045000F078FB002000F075FB002486
:101CC00003E0002000F066FB641C102CF9DB42F2FC
:101CD000010000F069FB01200E49087001A800F026
:101CE000E5FAFF2802D1F02008B010BDBDF80800C9
:101CF000FF2801D1F020F7E79DF80E0008B9F42085
:101D0000F2E79DF80E00012801D1F520ECE7F12063
:101D1000EAE700007200002030B587B0044600F00A
:101D200021FA45F2AA5000F03FFB002000F032FB00
:101D3000002000F02FFB4FF4C04000F035FB4FF4C3
:101D4000007000F031FB204600F02EFB002503E080
:101D5000002000F01FFB6D1C0E2DF9DB46F2011177
:101D6000214488B200F020FB012010490870684629
:101D700000F09CFAFF2802D1F02007B030BDBDF87A
:101D80000400FF2801D1F020F7E7BDF8080026285D
:101D900000D1F2E7BDF80800192800D1EDE7BDF841
:101DA000080008B90020E8E7F120E6E7720000200B
:101DB00030B587B0044600F0D5F90020207045F218
:101DC000AA5000F0F1FA002000F0E4FA002000F040
:101DD000E1FA4FF48A4000F0E7FA4FF4806000F037
:101DE000E3FA4FF4807000F0DFFA4FF4484000F05F
:101DF000DBFA002503E0002000F0CCFA6D1C0C2D6E
:101E0000F9DB41F2021000F0CFFA01200F4908700F
:101E1000684600F04BFAFF2802D1F02007B030BD31
:101E2000BDF80400FF2801D1F020F7E7BDF8080055
:101E3000222800D1F2E7BDF8080020B99DF80A0079
:101E400020700020EAE7F120E8E70000720000209F
:101E500010B588B000F086F945F2AA5000F0A4FA57
:101E6000002000F097FA002000F094FA4FF4C240EE
:101E700000F09AFA4FF4407000F096FA002000F05B
:101E800093FA032000F086FA002403E0002000F01B
:101E900081FA641C0D2CF9DB46F2016000F084FA33
:101EA00001201349087001A800F000FAFF2802D1B0
:101EB000F02008B010BDBDF80800FF2801D1F020C7
:101EC000F7E7BDF80C00262800D1F2E7BDF80C00BA
:101ED000252800D1EDE7BDF80C001A2800D1E8E76D
:101EE000BDF80C0008B90020E3E7F120E1E70000AD
:101EF0007200002030B587B0044600F033F945F297
:101F0000AA5000F051FA002000F044FA002000F03E
:101F100041FA4FF4C64000F047FA4FF4C06000F0B9
:101F200043FA002000F040FA4FF4807000F03CFAD1
:101F30004FF4484000F038FA002503E0002000F09C
:101F400029FA6D1C0A2DF9DB43F2021000F02CFA7D
:101F5000012014490870684600F0A8F9FF2802D152
:101F6000F02007B030BDBDF80400FF2801D1F020FB
:101F7000F7E7BDF80800262800D1F2E7BDF8080011
:101F8000142800D1EDE7BDF80800112800D1E8E7DA
:101F9000BDF8080020B99DF80A0020700020E0E795
:101FA000F120DEE77200002030B587B0044600F073
:101FB000D9F845F2AA5000F0F7F9002000F0EAF94C
:101FC000002000F0E7F94FF4804000F0EDF94FF405
:101FD000806000F0E9F9204600F0E6F9002000F00A
:101FE000E3F9002503E0002000F0D4F96D1C0C2D6E
:101FF000F9DB44F20131214488B200F0D5F9012027
:1020000012490870684600F051F9FF2802D1F0200B
:1020100007B030BDBDF80400FF2801D1F020F7E77C
:10202000BDF808001D2800D1F2E7BDF808002628F9
:1020300000D1EDE7BDF80800182800D1E8E7BDF8A9
:10204000080008B90020E3E7F120E1E77200002072
:1020500010B588B000F086F845F2AA5000F0A4F957
:10206000002000F097F9002000F094F94FF40050A0
:1020700000F09AF9002000F097F9002403E0002016
:1020800000F088F9641C102CF9DB41F6017000F0B7
:102090008BF901200D49087001A800F007F9FF280D
:1020A00002D1F02008B010BDBDF80800FF2801D112
:1020B000F020F7E7BDF80C00282800D1F2E7BDF8C2
:1020C0000C0008B90020EDE7F120EBE772000020DA
:1020D0001FB500F09FF80121042000F031FA022022
:1020E000ADF80C0010208DF80F0003208DF80E00C5
:1020F00003A91A48FEF764FE0120ADF80C00282061
:102100008DF80F0003A91648FEF75AFE0121084674
:1021100000F016FA00210120FEF732FE01200190A6
:1021200000208DF808000C208DF8090001208DF8A2
:102130000A0001A8FEF74CFD06208DF800000220E1
:102140008DF8010003208DF8020001208DF80300B6
:102150006846FFF735FA00F00DF81FBD0008014092
:10216000000C0140002002494870887008707047D8
:102170007200002010B502210D48FEF7F7FE002482
:1021800000E0641CB4F57A7FFBDB02210848FEF70F
:10219000EBFE002400E0641CB4F57A7FFBDB022137
:1021A0000348FEF7E3FE642001F086FF10BD000047
:1021B0000008014070B505464FF47A7000F0D4F87D
:1021C0000446F22C00D170BD0020FFF7A5FD0446A7
:1021D000F02C03D0F12C01D0262C01D1F020F2E715
:1021E000192C01D11920EEE72846FFF783FE04469B
:1021F000F02C03D0F12C01D0262C01D1F020E2E705
:10220000142C01D11420DEE7112C01D11120DAE7C2
:102210000020D8E700B585B00121042000F090F936
:10222000204801F047F90820ADF8100004208DF88F
:10223000130003208DF8120004A91B48FEF7C0FD0F
:102240000420ADF8100018208DF8130003208DF83D
:10225000120004A91448FEF7B3FD0121480400F060
:102260004FF94FF4E13000900020ADF80400ADF8D4
:102270000600ADF80800ADF80C000C20ADF80A001F
:102280006946084801F0C0F9FFF787F9012240F2DA
:102290002551044801F093F90121024801F0FEF8AC
:1022A00005B000BD00440040000801402DE9F041A8
:1022B000044600250026A8464FF4A00707E07F1E2D
:1022C000002F04DCFFF74EFFFF20BDE8F08125481A
:1022D00040780128F3D1032001F0EEFEFFF742FF22
:1022E000002505E01F48C01C405D304486B26D1CCF
:1022F000182DF7DB1B48C17E007F41EA00284645C8
:1023000001D0FF20E1E71748C178007941EA0020B9
:10231000208014484079A07012488079E0701148FC
:10232000C179007A41EA0020A0800E48417A807A83
:1023300041EA0020E0800B48C17A007B41EA00209E
:102340002081002508E00748C01C05F10A01415C16
:1023500004F10A0041556D1C0E2DF4DB268300208C
:10236000B3E700007200002070B50546B420B5FB4D
:10237000F0F60BE0FFF76CFE0446282C01D1761E28
:1023800004E00CB9002070BDF020FCE7002EF1D174
:10239000F220F8E710B504462146024801F094FA0D
:1023A00010BD00000044004010B50446211208484A
:1023B00001F08AFA10B14FF6FF7010BDE1B2044887
:1023C00001F082FA10B14FF6FF70F6E70020F4E753
:1023D0000044004010B500F01DF802210C48FEF743
:1023E000C5FD0A2001F068FEFFF772FBFFF760FAF7
:1023F0004120FFF788F87A211F2001F0D9FC012045
:1024000001F05AFE4FF4E13000F02CF810BD00004E
:10241000000C014008B50121082000F091F80220CD
:10242000ADF8000003208DF8020010208DF80300A5
:1024300069460B48FEF7C4FC02210948FEF796FDE9
:102440000220ADF8000028208DF8030069460448FA
:10245000FEF7B6FC4FF4165000F004F808BD00007B
:10246000000C014010B586B004461D4801F022F86A
:102470004FF40060ADF8040004208DF8070003203D
:102480008DF8060001A91748FEF79AFC4FF480600A
:10249000ADF8040018208DF8070003208DF8060021
:1024A00001A91048FEF78CFC0121880400F028F8EF
:1024B00002940020ADF80C00ADF80E00ADF810004D
:1024C000ADF814000C20ADF8120002A9044801F088
:1024D0009BF80121024800F0E1FF06B010BD0000AA
:1024E00000480040000C014001460020034A5068AB
:1024F00020F4404008435060704700000010024044
:1025000029B1064AD2690243044BDA6104E0034A66
:10251000D2698243014BDA6170470000001002402B
:1025200029B1064A12690243044B1A6104E0034AC6
:1025300012698243014B1A6170470000001002408B
:1025400029B1064A92690243044B9A6104E0034AA6
:1025500092698243014B9A6170470000001002406B
:1025600029B1064AD2680243044BDA6004E0034A08
:10257000D2688243014BDA607047000000100240CD
:1025800001490860704700004004424230B5002114
:102590000022002400232D4D6D6805F00C0121B1AF
:1025A000042905D0082923D105E0294D056022E042
:1025B000274D05601FE0254D6D6805F47012234D11
:1025C0006D6805F48034022505EB92421CB9214D5B
:1025D000554305600BE01D4D6D6805F400351DB1D8
:1025E0001C4D5543056002E0194D5543056002E05E
:1025F000174D056000BF00BF144D6D6805F0F00178
:102600000909154D6B5C0568DD4045600F4D6D682F
:1026100005F4E061090A104D6B5C4568DD4085609A
:102620000A4D6D6805F46051C90A0B4D6B5C456835
:10263000DD40C560054D6D6805F44041890B074DCF
:102640006B5CC568B5FBF3F5056130BD0010024059
:1026500000127A0000093D00140000202400002030
:1026600010B501460022002300204A11012A02D1A0
:10267000094C236806E0022A02D1074C236A01E0D4
:10268000054C636A01F01F02012494401C400CB108
:10269000012000E0002010BD0010024000210B4A84
:1026A00011700A4A203A82F82010012802D004282A
:1026B00008D103E00121054A117004E00521034A15
:1026C000117000E000BF00BF704700002010024002
:1026D00001490860704700003C0442420249096A0F
:1026E0000143014A1162704700100240F8B50446E8
:1026F00000202060002700260BE069465220FFF7EB
:10270000BCF90546262D00D104E0761C022E00DD22
:1027100000E0F2E700BF262D13D16846FFF7DBF893
:1027200026280ED1FFF7C4F80127002007E01DF886
:102730000010226841EA02212160411CC8B204282D
:10274000F5DB3846F8BD0000024909888143014A9B
:1027500011807047042800400348008840F01000B2
:1027600001490880704700000428004003480088A1
:102770004FF6EF7108400149088070470428004077
:1027800070B500260024002500F07AF80646384887
:10279000B6FBF0F437480088A0423CD035490C80A5
:1027A00040F2B27510E02846FEF75AFE40B1B4F58B
:1027B000B77F02D3A4F5B77404E0681C85B206E0C5
:1027C000A4F26D14681C85B2B4F5B67FEBD800BFD7
:1027D00029488580002516E027498888FEF740FEB5
:1027E00030B1012D04D11D2C01D31D3C09E00CE0BA
:1027F0002248405DA04203D82048405D241A00E0F2
:1028000003E0681C85B21C2CE6D200BF681C1A4984
:102810008871601CC8711648B6FBF0F100FB1164AA
:102820004FF46160B4FBF0F0134908704FF461603D
:10283000B4FBF0F100FB11403C21B0FBF1F00E497C
:1028400048704FF46160B4FBF0F100FB11403C2193
:10285000B0FBF1F201FB1200074988700B46DA79F0
:102860009979988800F028F803490872002070BD13
:10287000805101003A000020940000200845000823
:10288000002103480188001F008841EA004070478A
:102890001C28004001460020064A12880A40D0B297
:1028A000044A121F12880A4012B108B1012000E048
:1028B0000020704704280040F0B503460C4615463A
:1028C000642093FBF0F0C6B2642093FBF0F700FBAA
:1028D0001730C1B2132E02DD01F16400C1B2084607
:1028E000CF1701EB977701EBA707BAB2072092FB4E
:1028F000F0F700FB172082B25719601EDFF82CC0DA
:102900001CF80000384482B2CF1701EB9777BF1054
:10291000A1EB87071FB9032C01DA501E82B20720F2
:1029200092FBF0F700FB1720C0B2F0BDFC4400089A
:102930000EB50120FFF7AEFF20B1FFF721FF012008
:10294000104908700220FFF7A5FFA0B10220FFF791
:10295000FBFEFFF715FF0C4880780B4949780A4ABF
:102960001278CDE9002102900748C37982798188E5
:1029700006A001F02FFA0520FFF7E6FE00F018F997
:102980000EBD00003800002094000020416C6172F0
:102990006D2054696D653A25642D25642D256420CC
:1029A00025643A25643A25640A00000029B1064AE4
:1029B00012880243044B1A8004E0034A12888243BF
:1029C000014B1A8070470000002800401CB500240D
:1029D00001214FF0C050FFF793FD0120FEF762FF89
:1029E0000420FDF745FE45F2500188423FD0FDF737
:1029F00037FE0120FFF752FE04E0601CC4B20A203B
:102A000001F05AFB4120FFF72BFE08B9FA2CF4DB4A
:102A1000FA2C01DB01201CBD4FF48070FFF75EFE35
:102A20000120FFF755FE00F0C3F800F0CBF80121BC
:102A30000846FFF7BBFF00F0BBF8FFF78DFE47F637
:102A4000FF7000F0A5F800F0B3F8002000900346F6
:102A500001221146019040F2DF7000F027F8FFF7E5
:102A600085FE45F250010420FDF710FE07E000F05E
:102A7000A9F801210846FFF799FF00F099F800F046
:102A800004F8FFF77DFE0020C5E708B503208DF8A8
:102A9000000000208DF801008DF8020001208DF863
:102AA00003006846FEF78CFD08BD00002DE9F05FCD
:102AB00006460F4690469946DDE90AAB002440F2EF
:102AC000B270864203DB40F63300864202DD01200D
:102AD000BDE8F09F40F2B2750AE02846FEF7C0FC60
:102AE00010B12048044401E01F480444681C85B22A
:102AF000B542F2DB781EC7B2002510E01B48405DEE
:102B000040F2A321484304EBC0143046FEF7A8FC72
:102B100018B1012D01D116480444681C85B2BD428C
:102B2000ECDBA8F1010040F2A321484304EBC01400
:102B3000C9EB4910C0EB092004EB0014CAEB0A10E2
:102B400004EB80045C4401214FF0C050FFF7D8FC37
:102B50000120FEF7A7FE204600F00CF800F028F850
:102B60000020B5E70085E2018033E1010845000857
:102B70008051010000B50246FFF7EEFD100C03493D
:102B80000880091D0A80FFF7F1FD00BD18280040EC
:102B900000B50246FFF7E0FDC2F303400349088099
:102BA000091D0A80FFF7E2FD00BD00000828004073
:102BB00000BF0348008800F020000028F9D07047CB
:102BC00004280040074800884FF6F771084005497F
:102BD000088000BF0348008800F008000028F9D0F2
:102BE000704700000428004070B5044604F03F0020
:102BF00040F08005284600F0F5FD034800F032FE65
:102C0000C6B2304670BD00000048004004498879D3
:102C10004FF6FF7101EA00200149C9790843704766
:102C2000480000202DE9F0430146122037E0DFF88C
:102C300078C01CF80020E04600F1010C18F80C5098
:102C400000F1020C18F80C3000F1030C18F80C40DD
:102C5000A2F1300C4FF47A780CFB08FCA5F1300897
:102C600008EBC80909EB08180CEB8808A3F1300C35
:102C70000CEB8C0C08EB4C08A4F1300CC4441FFA8C
:102C80008CF7A0F1120C4FEAEC780CEB9878C8F3B3
:102C9000870621F8167000F1040C0CF0FF002A28BA
:102CA000C5DBBDE8F08300004800002018B50948E6
:102CB000007B8DF800000748407B8DF80100054837
:102CC000807B8DF802006846FDF7B6FC044620467E
:102CD00018BD00004800002010B50B46002105E09B
:102CE000048823F81140801C4C1CA1B29142F7DBF0
:102CF00010BD00002DE9F05F80468A461746B8F106
:102D0000006F02D33348804501D3BDE8F09FFEF742
:102D100017F8A8F1006B4FEA9B25CBF34809C9F5DA
:102D20000074A74200DC3C464DE04FF0006101EB2F
:102D300085208A142849FFF7CFFF00260BE009EB16
:102D40000600254931F810004FF6FF71884200D087
:102D500003E0701C86B2A642F1DB00BFA6421BDA7C
:102D60004FF0006101EB8520FDF77CFF002608E0B5
:102D70003AF8160006EB0901174A22F81100701CF8
:102D800086B2A642F4DB4FF0006101EB85208A1485
:102D9000114900F023F804E022465146404600F075
:102DA0001DF8A74200D10FE06D1C4FF000090AEB9F
:102DB000440AA044381B87B2B7F5007F02DD4FF408
:102DC000007400E03C46B0E700BFFDF78DFF00BF98
:102DD0009BE70000000001089E0000202DE9F04163
:102DE00005460E461746002407E036F8141028461C
:102DF000FDF784FFAD1C601C84B2BC42F5DBBDE86E
:102E0000F081704770B505460C462846FFF7ECFE8A
:102E1000064646EA0401284600F0CAFF70BD10B518
:102E200000F002F810BD00000CB5002001900090E9
:102E30003348006840F480303149086000BF3048B2
:102E4000006800F4003000900198401C0190009848
:102E500018B90198B0F5A06FF1D12948006800F4C5
:102E6000003010B10120009001E000200090009897
:102E7000012843D12348006840F010002149086030
:102E80000846006820F0030008600846006840F02B
:102E9000020008601A4840681949486008464068BE
:102EA00048600846406840F48060486008464068D2
:102EB00020F47C1048600846406840F4E810486000
:102EC0000846006840F08070086000BF0C48006849
:102ED00000F000700028F9D00948406820F0030095
:102EE000074948600846406840F00200486000BF5B
:102EF0000348406800F00C000828F9D10CBD000020
:102F00000010024000200240042808D14FF0E021C8
:102F1000096941F004014FF0E022116107E04FF030
:102F2000E021096921F004014FF0E02211617047AE
:102F30007047000010B51348006840F001001149C7
:102F4000086008464068104908400E494860084635
:102F500000680E4908400B4908600846006820F4E4
:102F6000802008600846406820F4FE0048604FF466
:102F70001F008860FFF753FF4FF0006004490860AE
:102F800010BD0000001002400000FFF8FFFFF6FE39
:102F900008ED00E010B50121064800F04EF818B128
:102FA0000121044800F03AF803480068401C024937
:102FB000086010BD00040040400000207FB50546B9
:102FC0000C4601210220FFF79BFAADF80850ADF83E
:102FD00004400020ADF80A00ADF8060001A90E4833
:102FE00000F046F8012211460B4800F037F81D208A
:102FF0008DF8000000208DF8010003208DF80200FC
:1030000001208DF803006846FEF7DAFA0121024834
:1030100000F007F87FBD000000040040CA430282B0
:10302000704721B1028842F00102028004E0028868
:103030004FF6FE731A400280704730B502460020FA
:1030400000230024158A05EA0103958905EA010495
:1030500013B10CB1012000E0002030BD1AB183890A
:103060000B43838102E083898B4383817047000097
:10307000002202881D4B98420ED01D4B98420BD067
:10308000B0F1804F08D01B4B984205D01A4B9842A4
:1030900002D01A4B984204D14FF68F731A404B88D6
:1030A0001A43174B984207D0164B984204D04FF65C
:1030B000FF431A40CB881A4302808B8883850B8894
:1030C00003850A4B98420BD0094B984208D00E4B0F
:1030D000984205D00D4B984202D00D4B984201D139
:1030E0000B7A03860123838270470000002C014085
:1030F000003401400004004000080040000C004083
:103100000010004000140040004001400044014015
:10311000004801402DE9F04703250024102000F06D
:10312000FBF80646112000F0F7F80746122000F0E1
:10313000F3F88046300440EA072040EA080900BF5F
:1031400007E0A94502D12046BDE8F087AD00601C2C
:10315000C4B20C2CF5DBFF20F6E7000010B500F040
:1031600053F8642000F0A8FF4FF400412548FDF714
:10317000FDFE642000F0A0FF4FF400412148FDF760
:10318000F3FE642000F098FF0B21092000F0ECF81A
:103190000721092000F0E8F88821022000F0E4F877
:1031A0008821032000F0E0F88821042000F0DCF8FA
:1031B0008821052000F0D8F88821062000F0D4F8F6
:1031C0008821072000F0D0F88021082000F0CCF8FA
:1031D00000210A2000F0C8F800210B2000F0C4F8FC
:1031E000FF210E2000F0C0F80F21084600F0BCF8C7
:1031F00000210C2000F0B8F800210D2000F0B4F8F8
:1032000010BD0000000C01401FB501210C20FFF78C
:1032100097F910208DF80F0003208DF80E004FF461
:103220008050ADF80C0003A93048FDF7C9FD4FF4FC
:1032300080512E48FDF79AFE4FF40050ADF80C0077
:1032400003A92A48FDF7BCFD4FF400512748FDF7BC
:103250008DFE4FF40040ADF80C0003A92348FDF7A4
:10326000AFFD4FF400412148FDF77EFE4FF4807022
:10327000ADF80C0003A91E48FDF7A2FD4FF48071C4
:103280001B48FDF771FE48208DF80F004FF4804079
:10329000ADF80C0003A91548FDF792FD0121084681
:1032A000FFF74EF90E210120FDF76AFD4FF4804033
:1032B000019000208DF8080008208DF809000120F9
:1032C0008DF80A0001A8FDF783FC28208DF8000086
:1032D00002208DF8010004208DF8020001208DF8F5
:1032E00003006846FEF76CF91FBD0000000C0140AA
:1032F0000008014010B54FF480710648FDF734FE18
:103300000321092000F030F88021082000F02CF87B
:1033100010BD00000008014070B50446FDF782FFB3
:10332000D020FDF709FFFEF715F808B1002070BDA9
:103330002046FDF701FFFEF70DF808B10020F6E783
:10334000FDF7BCFFFDF76EFFD120FDF7F5FEFEF7A0
:1033500001F808B10020EAE70020FDF7B5FE0546B8
:10336000FDF7ACFF2846E2E770B505460C46FDF7D1
:1033700059FFD020FDF7E0FEFDF7ECFF08B101207A
:1033800070BD2846FDF7D8FEFDF7E4FF08B1012027
:10339000F6E72046FDF7D0FEFDF7DCFF08B101207F
:1033A000EEE7FDF78BFF0020EAE7000010B500BF55
:1033B00040F22551104800F0D8F860B10E48001DC9
:1033C0000088C1B20D4802780078401C0B4B187081
:1033D0000B4881540FE040F22441074800F0C5F843
:1033E00048B10548001D0088C4B203480088C4B233
:1033F00001200449087010BD003801403000002051
:10340000480000203100002010B515480078401C0D
:103410001349087040F22551124800F0A6F8F0B1A7
:10342000104800F05DF9C4B20F48407870B9AA2C7A
:1034300015D101200C49487008468178C01C4454BD
:10344000C01E8078401C0849887008E006488178D2
:10345000C01C4454C01E8078401C0349887010BDB5
:103460002A000020004400407200002010B540F205
:103470002551074800F079F840B1054800F030F9CF
:10348000C4B2FF20034908700348047010BD000057
:10349000004800403C0000203D00002021B182890E
:1034A00042F40052828104E082894DF6FF731A4093
:1034B0008281704710B504462048844209D1012119
:1034C0008803FFF74DF800214FF48040FFF748F8DC
:1034D00032E01B48844209D101214804FFF720F85B
:1034E00000214FF40030FFF71BF825E01548844217
:1034F00009D101218804FFF713F800214FF480203F
:10350000FFF70EF818E01048844209D10121C804E1
:10351000FFF706F800214FF40020FFF701F80BE059
:103520000A48844208D101210805FEF7F9FF00216D
:103530004FF48010FEF7F4FF10BD0000003801408A
:103540000044004000480040004C00400050004053
:1035500002460020B1F5007F00D100BF13880B4068
:103560000BB1012000E00020704770B50246002436
:1035700000230025002040F66A16B14200D100BFAA
:10358000C1F3421501F01F03012606FA03F3012DD2
:1035900002D19689334006E0022D02D1168A3340CB
:1035A00001E0968A33400C12012606FA04F41688CC
:1035B000344013B10CB1012000E0002070BDF0B523
:1035C0000346002400260025002040F66A17B94271
:1035D00000D100BF1846C1F3421401F01F060127B5
:1035E00007FA06F5012C01D10C3004E0022C01D1C0
:1035F000103000E014301AB107682F43076002E072
:103600000768AF430760F0BD2DE9F04786B0054677
:103610000E460024A24600BFA1460027B08900B193
:1036200000BF2F462C8A4CF6FF700440F0880443FC
:103630002C82AC894EF6F3100440B08831890843DF
:10364000718908430443AC81AC8A4FF6FF400440C3
:10365000B0890443AC8201A8FEF798FF1F48874257
:1036600002D1DDF810A001E0DDF80CA0A88900F47B
:10367000004040B10AEBCA0000EB0A103168490073
:10368000B0FBF1F807E00AEBCA0000EB0A10316862
:103690008900B0FBF1F86420B8FBF0F004012009C8
:1036A000642101FB1089A88900F4004040B1322058
:1036B00000EBC900B0FBF1F000F00700044308E0A4
:1036C000322000EB09106421B0FBF1F000F00F0094
:1036D00004432C8106B0BDE8F087000000380140AB
:1036E00001468888C0F308007047C1F30802828051
:1036F0007047000008B501210820FEF721FF0121D5
:103700000846FEF71DFF01211548FDF7E5FB2020C7
:10371000ADF8000010208DF8030003208DF80200A2
:1037200069461048FDF74CFB1020ADF800006946D3
:103730000C48FDF745FB00200B4908600B49C1F818
:1037400090014FF400710748FDF70EFC642000F073
:10375000B3FC4FF400710348FDF708FC08BD0000FE
:1037600000023000000C014094812142008021427F
:1037700070B504460020194908601949C1F8940140
:10378000642000F0BFFC012014490860642000F0B0
:10379000B9FC00201249C1F89001642000F0B2FC8D
:1037A00001200E490860642000F0ACFC00200C49A8
:1037B000C1F8900101250EE001200849091D0860AB
:1037C000642000F09FFC00200549C1F894016420AA
:1037D00000F098FC6D1CA542EEDD70BD9081214289
:1037E0000080214210B504462146024800F06CF8E2
:1037F00010BD00000048004070B506460C46154656
:1038000000F0BCFA28702878FF2801D1022070BD92
:1038100028780A280CD1207808B90320F7E7207807
:10382000401E207020212078401E31540420EEE7F5
:1038300028780B2806D12078062801DB0020E6E74F
:103840000120E4E72078102801D10420DFE7287860
:10385000217870542078401C20700420D7E700BFE6
:10386000FEE7000010B504460B480C49086008E06C
:103870000A490868411E094A116010B94FF6FF70E5
:1038800010BD20212046FFF763FE0028F0D020461F
:10389000FFF726FFC0B2F3E7FFFF0F002C00002068
:1038A000014607480078012807D10020044A10701B
:1038B000044A107046F26660704743F23330FBE70B
:1038C000310000203000002070B504460D460C4841
:1038D0000C49086029462046FFF707FF08E0094920
:1038E0000868411E074A116010B94FF6FF7070BD9D
:1038F00080212046FFF72CFE0028F0D00020F6E7BC
:10390000FFFF0F002C000020FEB507460D461646AF
:103910004FF6CF60ADF800000120ADF802000C209A
:10392000ADF8040040F20130ADF80600ADF80850E3
:10393000ADF80A60002407E0684600EB4401384611
:1039400000F05BFD601CC4B2062CF5DBFEBDFEB5CD
:1039500007460C4616464FF6CF60ADF80000012032
:10396000ADF80200032C03DA0C20ADF8040002E0ED
:103970000F20ADF8040040F20130ADF80600ADF8BC
:1039800008400020ADF80A00002507E0684600EB7B
:103990004501384600F031FD681CC5B2062DF5DB47
:1039A000032C03D13146384600F067F9FEBD3EB521
:1039B00005464FF6CF60ADF800000120ADF80200DB
:1039C0000C20ADF8040040F60200ADF8060000201F
:1039D000ADF808004FF40060ADF80A00002407E0DD
:1039E000684600EB4401284600F007FD601CC4B2A5
:1039F000062CF5DB3EBD3EB505464FF6CF60ADF873
:103A000000000120ADF802000C20ADF8040040F6E3
:103A10000200ADF806000020ADF80800ADF80A007D
:103A2000002407E0684600EB4401284600F0E5FC6E
:103A3000601CC4B2062CF5DB3EBDFEB506460D4645
:103A40004FF6CF60ADF800000120ADF802000C2069
:103A5000ADF804004FF48270ADF806000020ADF818
:103A60000800ADF80A50002407E0684600EB440166
:103A7000304600F0C2FC601CC4B2062CF5DBFEBD73
:103A8000FEB505460E464FF6CF60ADF800000120AA
:103A9000ADF802000F20ADF804004FF48270ADF8CD
:103AA00006000020ADF80800ADF80A00002407E089
:103AB000684600EB4401284600F09FFC601CC4B23D
:103AC000062CF5DB3146284600F0D7F8FEBD3EB5A2
:103AD00005464FF6CF60ADF800000120ADF80200BA
:103AE0000C20ADF8040040F60400ADF806000020FC
:103AF000ADF808004FF40060ADF80A00002407E0BC
:103B0000684600EB4401284600F077FC601CC4B214
:103B1000062CF5DB3EBD3EB505464FF6CF60ADF851
:103B200000000120ADF802000C20ADF8040040F6C2
:103B30000400ADF806000020ADF80800ADF80A005A
:103B4000002407E0684600EB4401284600F055FCDD
:103B5000601CC4B2062CF5DB3EBDFEB506460D4624
:103B60004FF6CF60ADF800000120ADF802000C2048
:103B7000ADF8040040F20230ADF806000020ADF8C8
:103B80000800ADF80A50002407E0684600EB440145
:103B9000304600F032FC601CC4B2062CF5DBFEBDE2
:103BA000FEB505460E464FF6CF60ADF80000012089
:103BB000ADF802000F20ADF8040040F20230ADF87D
:103BC00006000020ADF80800ADF80A00002407E068
:103BD000684600EB4401284600F00FFC601CC4B2AC
:103BE000062CF5DB3146284600F047F8FEBD3EB511
:103BF00005464FF6CF60ADF800000120ADF8020099
:103C00000C20ADF8040040F60300ADF806000020DB
:103C1000ADF808004FF40060ADF80A00002407E09A
:103C2000684600EB4401284600F0E7FB601CC4B284
:103C3000062CF5DB3EBD3EB505464FF6CF60ADF830
:103C400000000120ADF802000C20ADF8040040F6A1
:103C50000300ADF806000020ADF80800ADF80A003A
:103C6000002407E0684600EB4401284600F0C5FB4D
:103C7000601CC4B2062CF5DB3EBDF8B506460D4609
:103C80006946284600F00CF8002406E00DEB04011C
:103C9000304600F0A3FB601CC4B2032CF6DBF8BD79
:103CA000F0B5642590FBF5F5ECB20A2590FBF5F52F
:103CB0000A2695FBF6F706FB1755EAB20A2590FB94
:103CC000F5F605FB1605EBB204F130050D7002F1B7
:103CD00030054D7003F130058D70F0BD00B587B033
:103CE00001210420FEF72CFC0120ADF81800002073
:103CF0008DF81B0003208DF81A0006A91D48FDF75A
:103D00005FF801214802FEF71BFC4FF44040FEF72C
:103D1000EBFB1948FCF73AFA002001908DF80800F7
:103D20008DF809004FF460200390002004900120DA
:103D30008DF8140001A91048FCF76AFA0120FCF77D
:103D400099FA01210C48FCF715FA0B48FCF788FAA0
:103D500000BF0948FCF752FA0028FAD10648FCF7E0
:103D600084FA00BF0448FCF73FFA0028FAD107B0F4
:103D700000BD0000000801400024014010B50024EF
:103D800000BFFDF78AFB641CFF2802D1B4F57A6FEF
:103D9000F7DB10BD10B5044621460020FDF706F9FB
:103DA00010BD10B5044621464020FDF7FFF810BDB8
:103DB00070B504460D4604F03F063046FFF712FD8D
:103DC0000348FFF74FFD2846FFF70CFD70BD0000CC
:103DD000004800400FB4054B10B503A9044A0298EF
:103DE00000F018F810BC5DF814FB00005141000809
:103DF0004400002002E008C8121F08C1002AFAD1BE
:103E000070477047002001E001C1121F002AFBD15A
:103E1000704700002DE9FF4F8BB09A460F460546CC
:103E2000002606E025280BD052460D9990476D1CC0
:103E3000761C28780028F5D10FB03046BDE8F08F09
:103E40000024A0460122604900E0044315F8013F28
:103E5000203B02FA03F00842F7D128782E2817D128
:103E600015F8010F44F004042A280ED06FF02F0239
:103E70002878A0F1300109290AD808EB880102EB63
:103E8000410100EB01086D1CF2E757F8048B6D1C33
:103E9000287869283ED006DC0028CDD063280BD0D6
:103EA000642804D136E0732810D075284BD05246D0
:103EB0000D999047761C85E017F8040B8DF80000EB
:103EC00000208DF80100E946012003E057F8049B2B
:103ED0004FF0FF3061074FF0000401D40AE0641C8A
:103EE00044450DDA8442FADB19F804100029F6D1B2
:103EF00006E0641C8442FCDB19F804100029F8D1A8
:103F0000264404E019F8010B52460D999047641EAF
:103F1000F8D257E001CF4FF00A0B002802DA4042F6
:103F20002D2102E0210504D52B218DF8241001213B
:103F300003E0E10705D02021F7E70DF12009089102
:103F40000CE00021F9E701CF4FF00A0BF9E75946E1
:103F5000FCF7E8F801F1300209F8012D0028F6D14C
:103F6000ADEB090000F1200B600701D44FF0010810
:103F7000D84502DDA8EB0B0000E0002080460024BD
:103F800006E009A85246005D0D999047641C761C16
:103F900008988442F5DB04E0302052460D999047A2
:103FA000761CB8F10001A8F10108F5DC05E019F86C
:103FB000010B52460D999047761CBBF10001ABF105
:103FC000010BF4DC6D1C34E70928010000B585B055
:103FD00001210420FEF7B4FA2448FFF76BFA4FF4EE
:103FE0008060ADF8100004208DF8130003208DF8D8
:103FF000120004A91E48FCF7E3FE4FF40070ADF870
:10400000100018208DF8130003208DF8120004A969
:104010001748FCF7D5FE01218803FEF791FA4FF40B
:10402000E13000900020ADF80400ADF80600ADF8D6
:104030000800ADF80C000C20ADF80A0069460B48EA
:10404000FFF7E2FAFDF794FA012240F22551074802
:10405000FFF7B5FA012240F224410448FFF7AFFA16
:1040600001210248FFF71AFA05B000BD00380140EF
:104070000008014010B56FF00400FEF745FF0A4844
:1040800000680A49B0FBF1F0094908700846007859
:1040900000EB4001C1EBC0104FF6FF7101EAC00018
:1040A0000449088010BD00000000002000127A00C2
:1040B00032000020340000200146114A12884A4391
:1040C0004FF0E0235A6100229A611A46126942F0C9
:1040D00001021A6100BF4FF0E022106900F00102F6
:1040E0001AB100F48032002AF5D04FF0E0221269B4
:1040F00022F001024FF0E0231A6100229A6170471A
:10410000340000200146114A12784A434FF0E02360
:104110005A6100229A611A46126942F001021A613C
:1041200000BF4FF0E022106900F001021AB100F464
:104130008032002AF5D04FF0E022126922F001020D
:104140004FF0E0231A6100229A617047320000208C
:1041500070B504460D46E1B20548FFF7C6FA00BF48
:1041600080210348FFF7F4F90028F9D0204670BDFC
:104170000038014088B0FFF77DFFFEF727FCFEF70F
:10418000EDFFFCF791FAFFF721FF00F055F94FF42E
:1041900000718D48FCF7EAFEFEF71CF941F61F415D
:1041A0006320FEF70BFFFDF793FFFCF7E1FEFDF741
:1041B0009FFAFFF79FFAFDF7CDFC03E18348FFF775
:1041C0006FFB46F26661884273D1FEF71FFD06461B
:1041D00040F60201701A8E4220D008DCB6F5827FCC
:1041E00059D0A6F2013038B101287CD129E001284C
:1041F0003ED0022877D162E00520FFF7B9FA07A880
:10420000FCF74AF828B9BDF81C2003216F48FFF7D6
:104210009EFB4FF47A70FFF74FFF65E00520FFF734
:10422000A7FAFEF743FD0790BDF81C00FCF7A0FBC2
:1042300018B96648FFF7DFFB02E06448FFF7B7FBF9
:1042400052E00520FFF794FA07A8FCF793F905461A
:104250002DB9BDF81C105D48FFF7A2FC03E029460C
:104260005A48FFF77AFC4FF47A70FFF725FF3BE0DE
:104270000520FFF77DFAFEF719FD0790BDF81C0039
:10428000FCF7B6FB18B95148FFF7D5FC02E04F48E0
:10429000FFF7ADFC28E00520FFF76AFA07A8FCF756
:1042A000C1F8054635B9BDF81C104848FFF7E8FBD2
:1042B00004E01AE029464548FFF7BFFB14E005205B
:1042C000FFF756FAFEF7F2FC0790BDF81C00FCF76A
:1042D00077FB20B93D48FFF71EFC03E003E03B48B5
:1042E000FFF7F5FB00E000BF6CE0FDF7D3FCF5281D
:1042F0000ED1FCF753FA05461DB90120FFF738FA35
:1043000002E00520FFF734FA4FF47A70FFF7D4FE8D
:1043100006A8FEF7EBF901280FD10698FCF7F6FA8C
:1043200005461DB90120FFF723FA02E00520FFF73B
:104330001FFA4FF47A70FFF7BFFEFEF7EBFEFF287F
:1043400040D0002001900520FFF712FA012320A29F
:1043500000211820FCF762FB02A8FCF7FDFA2EE012
:104360006A4601A902A8FFF747FA0446042C07D1C0
:104370000520FFF7FDF99DF80400FDF751F81EE058
:10438000022C01D0032C05D10520FFF7F1F9FDF730
:1043900059F915E084B90520FFF7EAF99DF80410F2
:1043A00002A8FCF723FA10B900F088F801E000F049
:1043B00065F8FDF747F903E0FDF744F900E0CFE7C2
:1043C00000BF00BFFAE60000000C014000380140C9
:1043D000C7EBCAE4C8EBC3DCC2EB000070B505460E
:1043E0000C4621782846FFF780F900BF8021284637
:1043F000FFF7AEF80028F9D070BD2DE9F041054671
:104400000C462088060A277831462846FFF76DF9C2
:1044100000BF80212846FFF79BF80028F9D03946D5
:104420002846FFF762F900BF80212846FFF790F881
:104430000028F9D0BDE8F08138B501210820FEF749
:104440007FF84FF40070ADF8000010208DF80300E5
:1044500003208DF8020069460748FCF7B1FC4FF4D1
:1044600000710548FCF780FD002400E0641C40F268
:10447000E7308442FADB38BD000C014070B50024FF
:1044800017E021460020FDF796F9E60100250CE033
:10449000062C05DA7119084A505CFFF782FC02E02D
:1044A0000020FFF77EFC681CC5B2802DF0DB601C8D
:1044B000C4B2082CE5DB70BD505C000870B5002468
:1044C00017E021460020FDF776F9E60100250CE013
:1044D000062C05DA7119084A505CFFF762FC02E00D
:1044E0000020FFF75EFC681CC5B2802DF0DB601C6D
:1044F000C4B2082CE5DB70BD505F00080003030662
:1045000001040602050003051F1C1F1E1F1E1F1F9E
:104510001E1F1E1F7E42FF818181818181818181D9
:1045200081C1E1F1FF000000000000007E42FF8138
:10453000818181818181818181BDBD81FF000000F8
:10454000000000007E42FF81818181818181BDBDAB
:1045500081BDBD81FF000000000000007E42FF81A0
:10456000818181BDBD81BDBD81BDBD81FF000000D8
:10457000000000007E42FF81BDBD81BDBD81BDBD8B
:1045800081BDBD81FF00000000000000C7EB40427C
:10459000CC0000445454547F545454444000000010
:1045A0007F201000FF15151555957F000000CAE407
:1045B00088681FC80810C85452D1129408D010003F
:1045C000091909FF0500FF1292FF005F807F0000BC
:1045D000C8EB000000000001E21CE0000000000049
:1045E0000000804020100C03000000030C304080CD
:1045F0008000C3DC108C4404E40495A64424148495
:1046000044940C0002027A414143427E42424243BA
:10461000F8000000C2EB0484E45C44C40002F282AF
:104620008282FE80800002017F10103F000808088F
:10463000084888403F00D0C7000000BE2A2A2AEA66
:104640002A2A2A3E00000000004442494949497F85
:104650004949494941400000C6DA0004FF242424A6
:10466000FF0400FE222222FE000088482F090919BB
:10467000AF48300F0242827F0000D2BB8080808032
:1046800080808080808080808080800000000000AA
:10469000000000000000000000000000B6FE000066
:1046A0000808080808080808080808000000101092
:1046B0001010101010101010101010101000C8FD65
:1046C0000004848484848484848484848404000036
:1046D00020202020202020202020202020202000FA
:1046E000CBC400FC040404FC040404FC040404FC27
:1046F0000000007F28242320202020212222227F46
:104700000000CEE50002424242C27E42424242C224
:104710000202000040404040784740404040407F17
:1047200040404000C1F920202020202021222C20C0
:10473000202020202000004020100C030000000159
:10474000020418600000C8D5000000FE8282828248
:10475000828282FE00000000000000FF40404040D6
:10476000404040FF00000000C2BC808082929292D4
:104770009292929292FE80808000404022241048C3
:10478000807F0408182422404000C8EB000000008D
:104790000001E21CE000000000000000804020104A
:1047A0000C03000000030C3040808000B9DC8864FA
:1047B00023A2A6AAA2BAA4A3A2262AA2620000004B
:1047C00000FF4A4A4A4A4A4A4BF800000000C0ED3E
:1047D000048484FC848400FE9292FE9292FE000087
:1047E0002060201F1010404444447F444444400053
:1047F000D4B10000C05E525252525252525EC000BA
:10480000000080808F404020100E101020204F802C
:104810000000D6B8101010FF1090003F48484444E4
:10482000444270000444827F010000FF4949494925
:1048300049FF0000CEC62030AC63100808F8090E0E
:1048400008F808080000226722129280402116080A
:10485000162140808000BBF20808C8484848C808B4
:1048600008FF080809CA080000206724241497904C
:10487000402116182641F800D6CA0000FE121292F6
:10488000929292FF91919191100080601F80805FC1
:104890004020100E1010205F8000C1BF202020BEDD
:1048A000AAAAAAAAAAAAAABE20202000008080AF95
:1048B000AAAAAAFFAAAAAAAF80800000B2EE0004AA
:1048C00024242526E43C2426252424040000412118
:1048D0001189858B8989F989898989810100D6D8CF
:1048E000101014D4545454FC525252D312101000CD
:1048F000404050575555557F5555555750404000ED
:10490000D0C240445465C664544400FC4444C4428C
:10491000400020124A827F020A92601F0000FF00BE
:104920000000D2D10000E28282828282828282FEF4
:104930000000000000003F404040404040404040F8
:1049400040780000B4E6040484E41C0724242424F2
:10495000A46424040400020100FF00020242827FDA
:10496000020202020200D4DA080888C8380C0B08D8
:1049700008E8080808080800020100FF404141411A
:10498000417F414141414000B3C90000F888888817
:10499000880808FF08090AC8080080601F00102066
:1049A0001F80402116182641F800B9A6080808F80B
:1049B0000808081010FF101010F000001030101F31
:1049C000088848300E014080403F0000B3AC4048AA
:1049D0004848FF484842A29E82A2C2BE00008060B2
:1049E0001F207F4444404F484848484F4000CAB1C8
:1049F00000FC848484FC001010101010FF101000C4
:104A0000003F1010103F0000010640807F000000B2
:104A1000CCAB20202020202020FF20202020202080
:104A2000200080804020100C1360030C1020408078
:104A30008000B3A480808080FF8080A090888482E2
:104A40008080800000000000FF4021120408102038
:104A500020404000B0B4101010FF9020988888E9E2
:104A60008E8888A898000242817F000080844B28AD
:104A7000102847800000D6B8101010FF1090003F9B
:104A800048484444444270000444827F010000FFCF
:104A90004949494949FF0000B2C9000004146404AF
:104AA0000CB402024233020000004041211109050A
:104AB00003FF0305091121414000BCAF201008FC91
:104AC00057545455FE54545454040000444424276D
:104AD000150D05FF050D152525454400CAD6000016
:104AE0002424242424FC2222222322000000020267
:104AF00002020242827F0202020202020200CAA7EE
:104B00000040301E101010FF101010101000000098
:104B100081814121110D0301030D1121418181008A
:104B2000B0DC00FE02FA02FE4020D8171010F01090
:104B300010008047300F1067804021160816214072
:104B40008000D1E902FA8282FE804020504C434C22
:104B50005020400008184884443F404458414E606B
:104B600058474000D6A4404042CC000004C404048E
:104B7000FC04040404000000003F1048407F404053
:104B80007F4141414000C9E8404042CC0040A09EE6
:104B90008282829EA02020000000003F9088404337
:104BA0002C10284641808000D6C3001715D55557D4
:104BB000557D555755D5151700004040407F555538
:104BC00055555555557F40404000C6D54044546426
:104BD000457E4444447E456454444000000000FF48
:104BE00049494949494949FF00000000CDA84042D0
:104BF000CC0000E2222A2AF22A2622E0000080408D
:104C00003F4080FF898989BF89A9C9BF8000D3C37C
:104C10000000FE22222222FE22222222FE0000008A
:104C200080601F020202027F020242827F000000B7
:104C3000BBA7000000F80808090E08080808F800DB
:104C400000000080601F010101010101010103005A
:104C50000000CFB5000022322AA6A26221110981EC
:104C600001000000004222130B42827E02020A125F
:104C700023460000CDB32030AC63300088C8A8992B
:104C80008E88A8C8880022672212128040300F0048
:104C9000003F40407100B8BD00FE0222DA4620F815
:104CA00007901010FF10100000FF0810080700FF09
:104CB000000043807F000000BCD3101010FF1010D4
:104CC000F00000F8080808F800008040300F40802D
:104CD0007F00007F2020207F0000D0DE4020F807EA
:104CE000F0A0904C5724A4544C8080000000FF009A
:104CF0001F8092524929241208000000B8C404847D
:104D0000848484FC4030CC0B0808F8080800007F3D
:104D10002010100880402116081621408000C9BECE
:104D200080FE8282FE80FE8282FE8000F800FF000C
:104D3000403F0020BF403F40807F00004F807F0009
:104D4000B3FD00FE225A8620102824E324281020D8
:104D5000200000FF040827110D41817F0105093162
:104D60000000B1E02030AC633000FC242526242470
:104D7000243C000022672212523807FF097F093FB6
:104D800089FF0000BAC5808080BEA2A2A2A2A2A212
:104D9000A2BE808080000000000605040404448454
:104DA000443C00000000B8B4201008F75454545498
:104DB000545454F404040000809090494D57252524
:104DC00025554D4580808000BCCC2030AC63100060
:104DD000FE485040FF405048000022672212120057
:104DE0007F4442417F4142444000D0F82030AC63D0
:104DF00020182024A4243FA424A4600022672212A7
:104E00001212888A4C29180F1828C800B7B54040DC
:104E100042CC0000FC24A4242222A3620000004013
:104E2000201F205847504845424548504000BBD8B5
:104E30000000FE0202F2121212F20202FE00000054
:104E400000007F2020272424242720207F0000002A
:104E5000B8F680804020100804C304081020408069
:104E6000800000000000000000FF000000000000C3
:104E70000000B2BB00020202028242F20E42820233
:104E80000202000010080402010000FF00000001FF
:104E9000020C0000B4E6040484E41C072424242447
:104EA000A46424040400020100FF00020242827F85
:104EB000020202020200D4DA080888C8380C0B0883
:104EC00008E8080808080800020100FF40414141C5
:104ED000417F414141414000C8AB80804020504863
:104EE00044C3444850204080800000404044444433
:104EF000447F4444444440400000B2BF40445465B1
:104F0000464464544440FE0222DA060000007E2239
:104F10002222227E0000FF0810080700C8B7048480
:104F2000E45C44C42010E82724E4342CE0000201AF
:104F30007F10103F80601F09093F49897F00C8CF5B
:104F4000404042CC0000000000FF000000000000D4
:104F50000000003F904820180700071820408000FC
:104F6000C0E000101092543010FF10305492101016
:104F700000008485454424140C060C142444458404
:104F80008400D0CD2022A27E2222FE2222007C009C
:104F900000FF0000444249484848497E4848484983
:104FA0004A414000BCD2102C2424A4A465A6242489
:104FB0002424A4340C0040494929241452897F0434
:104FC0000A1110202000C8CB000000000000C03FE4
:104FD000C000000000000000804020100C03000012
:104FE00000030C1020408000B1A3008060F807008F
:104FF0003E2222E222223E000000010000FF20119A
:10500000090503FF030509112000C4B71010F01FA4
:1050100010F08080FE828A9282FE80004022150875
:105020001661001F10125490503F1000D1A1404053
:1050300042CC00504EC8487FC8484840000000405D
:10504000201F20504C4340404F50505C4000D4F152
:105050001010FF100082864A52A2524A86808000B9
:1050600042827F010010121212FF12121210000071
:10507000B4ED4030EF246448487F4848487F4848B2
:10508000400001017F211100FF4949494949FF00C2
:105090000000CEF34042CC0000809E929292929209
:1050A0009E80000000007F2094844424140F142468
:1050B00044848400BCE400F8010600F0121212F2ED
:1050C000020202FE000000FF0000001F1111111F6C
:1050D0000040807F0000D3EF4042CC0000829292DB
:1050E000F29E9292F282800000007F201000FC4429
:1050F00044444444FC000000D2F44040444454641E
:1051000045464464544444404000000000FF49497F
:105110004949494949FF00000000D3D004040484F0
:10512000E43C2724242424E40404040004020100B1
:10513000FF0909090949897F00000000C4EA00202D
:1051400018C744444444FC44444444040000040458
:10515000040704040404FF04040404040400D4C287
:10516000000000FE2222222222222222FE00000033
:105170008040300F02020202020242827F000000E1
:10518000C8D5000000FE82828282828282FE0000F8
:105190000000000000FF40404040404040FF000051
:1051A0000000CAB100FC848484FC001010101010B0
:1051B000FF101000003F1010103F0000010640805B
:1051C0007F000000B7D68040209088868080808352
:1051D0008C10204080000080402018070040804054
:1051E0003F0000000000BFAA80828282FE8282828D
:1051F0008282FE8282828000008040300F000000A8
:105200000000FF0000000000C3C500F80106000018
:1052100002020202020202FE000000FF0000000083
:10522000000000000040807F0000B6CE0000FE229B
:10523000222101403E0202021E2020001010FF1118
:10524000090980814729112945838000C6F400009F
:1052500000FC4444444546444444447C000040200F
:10526000180700FC44444444444444FC0000BFA8E4
:10527000404040404040FF44444444444440400097
:10528000000000000000FF00000204081000000001
:10529000BBD600E000FF10200888780F08E8080857
:1052A0008800010000FF00100C83442318071862D7
:1052B0008100B3F600007C40404040FF4040404049
:1052C000FC000000007C40404040407F40404040A7
:1052D00040FC0000B3A70000FE020202020202022C
:1052E00002020202020080601F00000000000000B5
:1052F000000000000000D4DD829A9693FA5252809A
:105300007E121212F1111000000100FE939293928E
:10531000929292FE03000000C3BB106002CC80405A
:10532000201E0202023E4040400004047E018080B4
:10533000834D5121514987808000C4DC08CC4A4903
:10534000484ACC18007F88888482E00000FF12124F
:1053500052927F00007E88888482E000CEAA0020DE
:10536000222C2020E03F20202020E0000000804070
:10537000201008060100014680403F000000BFD514
:10538000100C4424140405060404142444140C00D2
:10539000004040414141417F414141414040000086
:1053A000CBA20000FE121212F212121E00F0000038
:1053B000FF00100E013F0101FF11211F000F40806F
:1053C0007F00B4F2101010FF109004040404FC04D9
:1053D000040404000444827F0100000040807F0038
:1053E00000000000B9D800001011161010F01010C5
:1053F0001413100000008181414121110D030D1192
:10540000214141818100B1D500F80122202222A250
:10541000FA22222202FE000000FF000804021120EE
:105420001F000040807F0000D0DD008060F8071082
:105430001010D0FFD01010101000010000FF100855
:10544000040300FF000304081000C3DF00FC242451
:1054500024FC00FE2222E222223E0000003F111125
:10546000113F00FF412107192141F100B1D800008F
:10547000C000E002041800C0300C40800000088624
:1054800041203F4844424140407800010E00D0EBAB
:1054900020100884630000F2121AD61212F20200E1
:1054A000844221100806804F20180710204F8000EA
:1054B000CEBB008060F80710901011161010D010AD
:1054C0000000010000FF4040415E4040704E4140FE
:1054D0004000D4DA080888C8380C0B0808E8080827
:1054E00008080800020100FF40414141417F41415D
:1054F00041414000D5FD000202C2020202FE82824A
:105500008282820200004040407F4040407F404015
:10551000404040404000CAFD90523410FF103452C9
:1055200080708F0808F80800829A566322528E0015
:105530008040330C33408000BEDD1010FF1090001F
:10554000FE929292F292929E800042827F0180604F
:105550001F00FC44474444FC0000BCC6404042CC11
:105560000040404040FF4040404040000000007F7D
:105570002010000000FF000000000000BCB0000090
:105580000202FE42820242724E40C0000000804091
:10559000300C838041462810284641808000BCC7DB
:1055A000404042CC0000008484848484FC000000DD
:1055B0000000007F2010003F40404040414070000C
:1055C00000000000000000000000000000000000DB
:1055D000000000F800000000000000333000000070
:1055E00000100C06100C0600000000000000000077
:1055F00040C07840C0784000043F04043F040400E9
:10560000007088FC08300000001820FF211E0000F8
:10561000F008F000E018000000211C031E211E000D
:1056200000F00888700000001E2123241927211093
:1056300010160E0000000000000000000000000036
:10564000000000E0180402000000000718204000DD
:1056500000020418E00000000040201807000000CD
:10566000404080F0804040000202010F0102020031
:10567000000000F0000000000101011F0101010015
:10568000000000000000000080B07000000000007A
:105690000000000000000000000101010101010103
:1056A000000000000000000000303000000000009A
:1056B000000000008060180400601806010000006F
:1056C00000E010080810E000000F102020100F006C
:1056D000001010F8000000000020203F20200000F3
:1056E000007008080888700000302824222130004B
:1056F00000300888884830000018202020110E0053
:105700000000C02010F8000000070424243F2400FB
:1057100000F80888880808000019212020110E00D0
:1057200000E0108888180000000F112020110E00E2
:1057300000380808C83808000000003F00000000DA
:105740000070880808887000001C222121221C009B
:1057500000E010080810E0000000312222110F00C4
:10576000000000C0C0000000000000303000000059
:1057700000000080000000000000806000000000C9
:1057800000008040201008000001020408102000E2
:10579000404040404040400004040404040404002D
:1057A00000081020408000000020100804020100C2
:1057B000007048080808F0000000003036010000C2
:1057C000C030C828E810E0000718272423140B0075
:1057D0000000C038E0000000203C230202273820EF
:1057E00008F8888888700000203F202020110E00D3
:1057F000C0300808080838000718202020100800CA
:1058000008F808080810E000203F202020100F00B2
:1058100008F88888E8081000203F2020232018007E
:1058200008F88888E8081000203F200003000000E6
:10583000C03008080838000007182020221E020087
:1058400008F808000008F808203F210101213F2046
:10585000000808F8080800000020203F2020000071
:1058600000000808F8080800C08080807F00000061
:1058700008F888C028180800203F2001263820009A
:1058800008F8080000000000203F20202020300001
:1058900008F8F800F8F80800203F003F003F20001B
:1058A00008F830C00008F808203F200007183F0023
:1058B000E01008080810E0000F10202020100F0052
:1058C00008F808080808F000203F21010101000045
:1058D000E01008080810E0000F18242438504F008A
:1058E00008F8888888887000203F2000030C30204A
:1058F00000708808080838000038202121221C0088
:10590000180808F8080818000000203F20000000D0
:1059100008F808000008F808001F202020201F00B9
:105920000878880000C83808000007380E01000019
:10593000F80800F80008F800033C0700073C0300E3
:10594000081868808068180820302C03032C302049
:105950000838C800C83808000000203F20000000B8
:1059600010080808C8380800203826212020180010
:10597000000000FE020202000000007F40404000E4
:10598000000C30C000000000000000010638C0001C
:1059900000020202FE000000004040407F000000C4
:1059A00000000402020204000000000000000000E9
:1059B00000000000000000008080808080808080E7
:1059C00000020204000000000000000000000000CF
:1059D00000008080808000000019242222223F20C5
:1059E00008F8008080000000003F112020110E0008
:1059F0000000008080800000000E11202020110097
:105A0000000000808088F800000E112020103F2048
:105A10000000808080800000001F222222221300CC
:105A2000008080F0888888180020203F2020000017
:105A30000000808080808000006B949494936000CC
:105A400008F8008080800000203F210000203F20D7
:105A500000809898000000000020203F20200000D7
:105A6000000000809898000000C08080807F0000C7
:105A700008F8000080808000203F24022D302000A4
:105A8000000808F8000000000020203F202000004F
:105A90008080808080808000203F20003F20003F69
:105AA0008080008080800000203F210000203F2077
:105AB0000000808080800000001F202020201F0028
:105AC000808000808000000080FFA12020110E0057
:105AD0000000008080808000000E112020A0FF8048
