:020000040800F2
:10000000A808002001010008B31E0008DD16000842
:10001000AF1E0008B50D0008E74200080000000010
:100020000000000000000000000000006738000829
:10003000A50F000800000000C12500089539000840
:100040001B0100081B0100081B0100089533000874
:100050001B0100081B010008591100081B010008C2
:100060001B0100081B0100081B0100081B01000800
:100070001B0100081B0100081B0100081B010008F0
:100080001B0100081B0100081B0100081B010008E0
:100090001B0100081B0100081B01000801120008D9
:1000A0001B0100081B0100081B0100081B010008C0
:1000B0001B010008F93900081B0100081B0100089A
:1000C0001B0100081B0100081B0100081B010008A0
:1000D0001B010008353E0008913E0008F53E00086F
:1000E000A91100081B0100081B010008DFF80CD053
:1000F00000F082FA00480047814C0008A808002060
:100100000648804706480047FEE7FEE7FEE7FEE7B1
:10011000FEE7FEE7FEE7FEE7FEE7FEE799390008A7
:10012000ED000008F0B480EA0102D40F4200B2EB07
:10013000410F02D20246084611464A0042D0C30D82
:10014000DDB2C1F3C752AD1A202D35DAC1F3160165
:1001500041F4000204B15242C5F1200602FA06F150
:100160002A411044B3EBD05F23D0C4B1012DA0EBE2
:10017000C35009DCF0BC4FF0004202EAC352DBB2CC
:1001800000F5000000F0ADB9400000F1807000EB18
:10019000C350A0F1807040EAD170490009E04908DD
:1001A00041EAC071A0EBC35000F50000400800EB2D
:1001B000C350F0BC00F08CB96142012202EB410156
:1001C000001BF6E7F0BC704781F00041AAE780F021
:1001D0000040A7E780EA010210B502F000434000AA
:1001E00022D04A001FD0010E01EB1261C0F356006D
:1001F000C2F3560240F4000042F40002A0FB0220C9
:1002000000047F39140400D0401C50EA124001D48D
:100210004000491EC2B20C0604EBD010401C40083E
:10022000802A02D003E0002010BD20F00100002948
:1002300000DA0020184310BD2DE9FE4F81EA0304C7
:1002400004F0004421F0004100944FF0000B23F033
:10025000004350EA01045ED052EA03045BD0C3F3CA
:100260000A54C1F30A552C44A4F2F3340194A0FBC0
:100270000254C1F3130141F48011C3F3130343F497
:10028000801301FB024400FB034E840A970A44EAF0
:10029000815447EA8357A4FB076802958D0A05FB42
:1002A00007854FEA932C04FB0C542705029D4FEA67
:1002B000065847EA1637B5EB08056EEB070C870EB4
:1002C000920E47EA811742EA8312A7FB0201B6EBBE
:1002D0000B0164EB00042B0D43EA0C335E1844EB76
:1002E0001C50DA465146E7FB0201C5F313044FEAFE
:1002F0000B3343EA14534FEA0432019C43EA0603EA
:10030000A4F10C040294009CCDE900B400F026F99D
:1003100003B0BDE8F08F00200146F9E72DE9F04D6C
:1003200081EA030404F0004B21F0004514464FF02D
:10033000000A23F0004150EA050220D054EA0102ED
:100340001DD0C5F30A570246C5F31303C1F31300CA
:10035000C1F30A5640F4801543F48013A7EB060856
:10036000101BD64608F2FD3873EB050002D308F1E6
:10037000010801E092185B41B8F1000F03DA002098
:100380000146BDE8F08D00204FF4801106468446FA
:100390000EE0171B73EB050705D3121B63EB050378
:1003A00006434CEA010C49084FEA300092185B41C1
:1003B00050EA0107EDD152EA030012D082EA0400AC
:1003C00083EA0501084305D0101BAB4106D2012288
:1003D000002306E000224FF0004302E06FF001022C
:1003E00053101AEB06004CEB085110EB0A0041EBDE
:1003F0000B01BDE8F04D00F0A2B80EB540F233415C
:1004000002910021CDE900110A460B4600F0A6F842
:1004100003B000BD00F0004230F000400AD0C10D32
:1004200001F56071C0F3160042EA0151C2084007AD
:1004300011437047002001467047000030B5041E8C
:1004400071F1000404DB4FF00044404264EB010111
:10045000141E73F1000405DB1C464FF000435242AA
:1004600063EB04038B4208BF824230BD01F00043BE
:1004700030B421F0004150EA010206D00A0DA2F585
:100480006072C1F31301002A02DC30BC0020704707
:10049000440F44EAC104C100E01830BC00EBC25074
:1004A00000F016B830B50B4601460020202201248A
:1004B00009E021FA02F59D4205D303FA02F5491B32
:1004C00004FA02F52844151EA2F10102F1DC30BD48
:1004D0000029A8BF7047401C490008BF20F0010058
:1004E000704710B4B0FA80FC00FA0CF050EA010436
:1004F00004BF10BC704749B1CCF1200421FA04F4C8
:1005000011FA0CF118BF012121430843A3EB0C01A0
:10051000CB1D4FEA00614FEA102042BF002010BC03
:10052000704700EBC35010440029A4BF10BC7047B3
:10053000401C490008BF20F0010010BC704710B5F6
:10054000141E73F1000408DA401C41F100019218F6
:100550005B411A4301D120F0010010BD2DE9F04D9F
:1005600092469B4611B1B1FA81F202E0B0FA80F2F4
:100570002032904600F052F804460F4640EA0A0046
:1005800041EA0B0153465A46084313D0114653EA39
:10059000010019D0C8F14002504600F04EF805465F
:1005A0000E4650465946424600F038F8084305D0FA
:1005B000012004E020463946BDE8F08D00200543C7
:1005C00046EAE0762C4337430A986305E40AA0EB39
:1005D00008000022FD0A44EA47540A3002D50020F0
:1005E0000146E9E7010510196941DDE908450019EF
:1005F0006941BDE8F04DA2E7064C074D06E0E06812
:1006000040F0010394E8070098471034AC42F6D359
:10061000FFF770FD4876000868760008202A04DBA2
:10062000203A00FA02F1002070479140C2F1200305
:1006300020FA03F3194390407047202A04DB203A44
:1006400021FA02F00021704721FA02F3D040C2F1F2
:100650002002914008431946704721B1826842F058
:100660000102826003E0826822F00102826070472A
:1006700010B504461248844208D10121401502F009
:10068000A1FC0021601502F09DFC17E00D4884429A
:1006900008D10121001502F095FC0021201502F07F
:1006A00091FC0BE00848844208D10121C80302F004
:1006B00089FC00214FF4004002F084FC10BD0000D2
:1006C0000024014000280140003C01400146002078
:1006D0008A6802F004020AB1012000E0002070479D
:1006E0000146C86C80B270470246002013680B4078
:1006F0000BB1012000E000207047014600208A680D
:1007000002F008020AB1012000E00020704700005A
:1007100030B502460020002350680F4C20400D7970
:100720000C6844EA05242043506090680B4C20403C
:10073000D1E902542C434D7944EA450420439060AA
:10074000D06A20F470000C7C641EE4B2234340EABB
:100750000350D06230BD0000FFFEF0FFFDF7F1FF57
:10076000F0B504460D4600200021092D11DDE0689A
:10077000A5F10A0606EB4607072606FA07F18843A5
:10078000A5F10A0606EB460603FA06F10843E06007
:100790000CE0206905EB4507072606FA07F18843B8
:1007A00005EB450603FA06F108432061072A0FDA34
:1007B000606B561E06EB86071F2606FA07F1884374
:1007C000561E06EB860605FA06F10843606322E032
:1007D0000D2A0FDA206BD61F06EB86071F2606FAB6
:1007E00007F18843D61F06EB860605FA06F1084393
:1007F000206310E0E06AA2F10D0606EB86071F26D3
:1008000006FA07F18843A2F10D0606EB860605FA03
:1008100006F10843E062F0BD816841F008018160A3
:10082000704721B1826842F4A002826003E08268CE
:1008300022F4A00282607047816841F00401816067
:100840007047000030B10749096841F40001054ACA
:10085000116005E00349096821F40001014A1160B3
:1008600070470000082401402DE9FF4106460022A0
:1008700011465E4803F0AFFD00253BE042F21070E8
:1008800002F098FAF2280AD14FF4A062691C574886
:1008900003F07EFD4FF4A06004B0BDE8F0812802B3
:1008A00001F024FF0446F02C03D0F12C01D0262CBB
:1008B00008D14FF4A062691C4C4803F069FD4FF465
:1008C000A060E9E7192C08D14FF44072691C474831
:1008D00003F05EFD4FF44070DEE7022D04DA0022E3
:1008E000691C424803F077FD4FF47A7004F06AF90E
:1008F000681CC5B2032DC1DB01F094FF0446F02C47
:1009000007D0F12C05D0262C03D0252C01D01A2C91
:1009100008D14FF440720321344803F039FD4FF4FD
:100920004070B9E703A801F02DFF0446F02C03D076
:10093000F12C01D0222C08D14FF4A06203212B48C6
:1009400003F026FD4FF4A060A6E79DF80C10080206
:1009500002F014F80446F02C05D0F12C03D01D2C25
:1009600001D0262C08D14FF4A06203211F4803F0C8
:100970000FFD4FF4A0608FE7182C08D14FF4806270
:1009800003211A4803F004FD4FF4806084E700253A
:100990001FE0174800EBC507012202A9384602F004
:1009A000CDFEBDF808004FF6FF7188420FD1ADF8BB
:1009B00000500120ADF802009DF80C0001900422C7
:1009C0006946384602F0C8FE3580002064E7681C9E
:1009D00085B2B5F57A7FDCDB4FF4A06203210348D2
:1009E00003F0D6FC4FF4A06056E700000038014049
:1009F000BEE000082DE9F04389B007464F4890F863
:100A000005900024007B303840F63541484304EB24
:100A100040144A48407B303840F27121484304EB8F
:100A200000144648807B303800EB4001C1EBC01019
:100A300004EBC0044148C07B303800EBC00101EB3F
:100A4000001004EB80043D48007C303800EB80004F
:100A500004EB40043948407C30380444B9F1120FAB
:100A600001D1012505E0B9F12A0F01D1022500E0ED
:100A7000032500265CE006EB8600314901EB800887
:100A80000A2208A9404602F059FEBDF820004FF6A0
:100A9000FF7188424AD13E80ADF80060ADF8025047
:100AA0000194012D04D0022D08D0032D38D126E069
:100AB00004226946404602F04FFE32E005A802F0EB
:100AC000E3FDBDF81400ADF80800BDF81600ADF860
:100AD0000A00BDF81800ADF80C00BDF81A00ADF81A
:100AE0000E00BDF81C00ADF81000BDF81E00ADF8FA
:100AF00012000A226946404602F02EFE11E005A8C7
:100B000002F0C2FDBDF81400ADF80800BDF81600F3
:100B1000ADF80A0006226946404602F01DFE00E0DC
:100B200000BF00BF002009B0BDE8F083701C86B292
:100B3000B6F57A7F9FDB4FF40060F4E74C000020AD
:100B4000BE9200082DE9FF41054603A800F0D9FD3B
:100B50000746012F53D100241CE02A4800EBC406AD
:100B600004226946304602F0E9FDBDF800004FF668
:100B7000FF7188420CD0BDF80200022808D1039909
:100B80000198884204D14FF4806004B0BDE8F08140
:100B9000601C84B2B4F57A7FDFDB002429E01948B9
:100BA00000EBC406012202A9304602F0C7FDBDF8E1
:100BB00008004FF6FF7188420ED1ADF800400220C8
:100BC000ADF802000398019004226946304602F015
:100BD000C3FD2C800020D8E7BDF80200022806D112
:100BE00003990198884202D14FF4A060CDE7601CC0
:100BF00084B2B4F57A7FD2DB4FF4A060C5E74FF43E
:100C0000A060C2E7BEE0000830B501460878303881
:100C1000C4B248783038C2B288783038C3B2642061
:100C2000604302EB820500EB4500184480B230BD02
:100C300010B5012002F0D6F9002002F0D3F910BD62
:100C400008B5014600200090034800900098084431
:100C500000900098008808BD006C004008B5002294
:100C60000092044A0092009A02440092009A116095
:100C700008BD0000006C004010B505A003F030FE78
:100C80004FF4FA6003F09EFF04A003F029FE10BDAC
:100C900041542B444953430D0A00000041542B5347
:100CA0004C454550320D0A0010B54FF480510B48A9
:100CB00000F080FC4FF48051084800F079FC64207B
:100CC00003F080FF4FF48051044800F073FC4FF4B0
:100CD0000061024800F06EFC10BD000000080140F9
:100CE0001FB501210C2002F05DF910208DF80F00D6
:100CF00003208DF80E004FF40060ADF80C001020BA
:100D00008DF80F0003208DF80E0003A9274800F08E
:100D10007BFB4FF48050ADF80C0010208DF80F00D5
:100D200003208DF80E0003A9204800F06DFB4FF45E
:100D30008070ADF80C0004208DF80F0003208DF8B2
:100D40000E0003A91A4800F05FFB0121084602F0DB
:100D500029F90821012000F037FB4FF48070019041
:100D600000208DF8080008208DF8090001208DF87A
:100D70000A0001A800F050FA17208DF800000220A8
:100D80008DF8010005208DF8020001208DF8030088
:100D9000684601F0B7F84FF40061044800F00AFC1F
:100DA0004FF48051014800F005FC1FBD00080140D0
:100DB000000C014000BFFEE770B505460C46284612
:100DC00002F044FC064626EA0401284603F076FDBC
:100DD00070BD00003EB502A801F0D6FEE8B90024BF
:100DE00014E00F4800EBC40504226946284602F0CF
:100DF000A5FC9DF808100198884205D1BDF80200B5
:100E0000012801D100203EBD601C84B240F2E730D1
:100E10008442E6DB4FF40060F5E74FF40060F2E750
:100E2000BEE000082DE9F04104460E460027062EDC
:100E300022D120782B494843617840F271225143F6
:100E400000EB0110A17801EB4102C2EBC11100EBF4
:100E5000C100E17801EBC10202EB011100EB81005E
:100E6000217901EB810100EB410061794718384697
:100E700000F03AF8BDE8F08100252DE0605D1949E9
:100E80004843691C615C40F27122514300EB01113F
:100E9000A81C205C00EB4002C2EBC01001EBC001BB
:100EA000E81C205C00EBC00202EB001001EB8001AB
:100EB000281D205C00EB800001EB4001681D205CD8
:100EC0000F18384600F010F88046B8F1000F01D135
:100ED0004046CFE7681CC5B2B01FA842CEDA4FF437
:100EE0000060C7E7A086010070B586B00546002403
:100EF0001FE004EB8400124901EB80060A2201A9DD
:100F0000304602F01BFCBDF804004FF6FF7188422A
:100F100001D0012000E000200299A94201D1012165
:100F200000E00021084010B1002006B070BD601C38
:100F300084B2B4F57A7FDCDB4FF40060F5E70000A3
:100F4000BE9200087CB50546002418E00F4800EB6F
:100F5000C40604226946304602F0F0FBBDF80000EA
:100F60004FF6FF71884208D0BDF80200022804D174
:100F70000198A84201D100207CBD601C84B2B4F568
:100F80007A7FE3DB4FF40060F6E70000BEE0000884
:100F90000146002003E020220A54421CD0B210284F
:100FA000F9DB7047704700003EB504464FF6FF700E
:100FB0000290104800EBC40504226946284602F05E
:100FC000BDFBB4F57A7F12DABDF80000A0420ED165
:100FD000012202A9284602F0BFFB0199C8B201F024
:100FE000F1FA08B900203EBD4FF40060FBE74FF472
:100FF0000060F8E7BEE0000838B504464FF6FF7021
:101000000090B4F57A7F0ADA04EB8401054A02EB1A
:1010100081000122694602F09FFB002038BD4FF499
:101020000060FBE7BE92000838B504464FF6FF703B
:101030000090B4F57A7F08DA054901EBC40001227B
:10104000694602F089FB002038BD4FF40060FBE7E1
:10105000BEE000082DE9F84F06460F469046994637
:1010600044463546BA46B9F1000F01D000F08CFF76
:101070001BE0207880280CDA012000906378227829
:101080005146284601F064F805F10800C5B2641C19
:101090000BE000200090637822785146284601F04A
:1010A00057F805F11000C5B2A41C20780028E0D143
:1010B000BDE8F88F2DE9F84F06460F469046994651
:1010C00044463546BA46B9F1000F23D051460020B8
:1010D00001F02BF84FF0000B06E0002003F0E6FBD8
:1010E0000BF1010000F0FF0BBBF1800FF5DB0AF103
:1010F0000100C1B2002001F018F84FF0000B06E02B
:10110000002003F0D3FB0BF1010000F0FF0BBBF15B
:10111000800FF5DB1BE0207880280CDA012000909E
:10112000637822785146284601F012F805F108004C
:10113000C5B2641C0BE00020009063782278514611
:10114000284601F005F805F11000C5B2A41C20786E
:101150000028E0D1BDE8F88F10B510480078C0B184
:1011600002F01AFC00200D4908700D49087003F0C8
:10117000F9FA00F0CFFF4FF400710A4800F01AFAB4
:10118000552003F073F801F04BFE02F0F7FDFFF776
:101190008BFD012000F03AF810BD00003A0000205D
:1011A0002D000020000C014010B512480078D8B185
:1011B00002F0F2FB00200F49087001200E49087070
:1011C00003F0D0FA01F0C0FC00F0A4FF4FF400716E
:1011D0000A4800F0EFF9552003F048F801F020FE2E
:1011E00002F0CCFDFFF760FD4FF4804000F00EF8F8
:1011F00010BD00003A0000202D000020000C01402E
:1012000010B54FF4807000F001F810BD014908607E
:101210007047000014040140002123498279002A0C
:101220003AD00A46126803689A430B461A600A1DB0
:10123000126803689A430B1D1A60027911440A6808
:1012400003681A430A60184A0832126803689A430E
:10125000154B08331A601A1D126803689A43124B23
:101260000C331A604279102A0ED11A1F12680368D3
:101270001A430D4B08331A601A1D126803681A438B
:10128000094B0C331A600DE00749427911440A6892
:1012900003681A430A6005E0027911440A6803688A
:1012A0009A430A60704700000004014030B50546CB
:1012B00004244FF4302000F073F80446042C19D1B4
:1012C0000D48006940F002000B490861084645617D
:1012D000006940F0400008614FF4302000F060F8F1
:1012E0000446052C06D00448006941F6FD7108400B
:1012F00001490861204630BD0020024004200B490E
:10130000C96801F0010109B101200EE00749C9686F
:1013100001F0040109B1022007E00449C96801F0A5
:10132000100109B1032000E00420704700200240B2
:101330000348006940F080000149086170470000DF
:101340000020024070B505460E460424E00200F07D
:1013500027F80446042C13D10A48006940F0010024
:10136000084908612E80E00200F01AF80446052CB6
:1013700006D00448006941F6FE7108400149086141
:10138000204670BD002002400248034948600348DF
:10139000486070472301674500200240AB89EFCDCC
:1013A00000B502460423FFF7A9FF034603E0FFF759
:1013B000A5FF0346521E012B01D1002AF7D102B925
:1013C0000523184600BD000030B500228B071C0F16
:1013D0000F2303FA04F20B4B8C1053F82430934381
:1013E000084C8D1044F8253023468C1053F82430D7
:1013F0008C07240F00FA04F42343024C8D1044F8A8
:10140000253030BD080001402DE9F041024600259D
:101410000026002000230024002791F803C00CF0D0
:101420000F0591F803C00CF0100CBCF1000F03D0B5
:1014300091F802C04CEA050591F800C0BCF1000F1C
:1014400031D0146800202BE04FF0010C0CFA00F3AF
:10145000B1F800C00CEA03069E4220D183004FF091
:101460000F0C0CFA03F7BC4305FA03FC4CEA040426
:1014700091F803C0BCF1280F06D14FF0010C0CFA13
:1014800000FCC2F814C00AE091F803C0BCF1480F98
:1014900005D14FF0010C0CFA00FCC2F810C0401C42
:1014A0000828D1D31460B1F800C0BCF1FF0F34DDBF
:1014B000546800202EE000F1080C4FF0010808FAF3
:1014C0000CF3B1F800C00CEA03069E4221D1830060
:1014D0004FF00F0C0CFA03F7BC4305FA03FC4CEA7F
:1014E000040491F803C0BCF1280F05D100F1080CE9
:1014F00008FA0CF8C2F8148091F803C0BCF1480F48
:1015000007D100F1080C4FF0010808FA0CF8C2F8F6
:101510001080401C0828CED35460BDE8F081000044
:10152000F0B50A46002300240021002500F0004603
:10153000B6F1004F02D11D4EF16901E01B4E7168FA
:10154000C0F3034583B200F44016B6F5401F08D13E
:1015500021F07061154E766826F07066134F7E603C
:1015600012E000F48016B6F5801F06D1032606FAB5
:1015700005F4A14341F0706106E0460D360103FA1F
:1015800006F6B14341F0706122B1460D360103FA0F
:1015900006F6314300F00046B6F1004F02D1034E8B
:1015A000F16101E0014E7160F0BD000000000140FA
:1015B000416170470161704708B50121082001F0C1
:1015C000F1FC4020ADF8000010208DF8030003204E
:1015D0008DF8020069460548FFF716FF8020ADF838
:1015E000000069460148FFF70FFF08BD000C0140ED
:1015F00010B580211748FFF7DDFF40211548FFF7A0
:10160000D7FF4FF4FA7003F0DDFA40211148FFF7DD
:10161000CFFF80210F48FFF7CBFF4FF47A7003F024
:10162000D1FA4FF47A7003F0CDFA40210948FFF760
:10163000C1FF80210748FFF7BBFF4FF4FA7003F0AA
:10164000C1FA40210348FFF7B3FF80210148FFF7AB
:10165000AFFF10BD000C01402DE9F04F85B0142103
:10166000112003F0F9F883461421002003F0F4F868
:1016700004900498FEF7C1FE804689465846FEF75E
:10168000BCFE02460B46CDE900014FF03330104955
:10169000FEF744FE42464B46CDE90201FEF7CCFD83
:1016A000064600224FF08043FEF7C6FD0446FEF7D3
:1016B000DDFE824651460748FEF78CFD044606498A
:1016C000FEF782FD8246504605B0BDE8F08F00006F
:1016D0003333F33F2A3ACA3F41F1EB3F00BFFEE705
:1016E00070B505460C4600F05DF9782000F0F8F87A
:1016F000284600F0F5F8204600F0F2F800F09EF9D8
:1017000070BDF8B5044600202060002700260BE0DD
:101710006946522000F0E9FE0546262D00D104E07E
:10172000761C962E00DD00E0F2E700BF262D13D1D7
:10173000684600F008FE26280ED100F0F1FD0127D2
:10174000002007E01DF80010226841EA0221216014
:10175000411CC8B20428F5DB3846F8BD10B500209E
:101760000F4908600F48006820F470200D49086098
:101770000846006840F44030086000200A49C1F87B
:10178000B001052003F044FA012005490860052056
:1017900003F03EFA00200449C1F8B40110BD000076
:1017A000B4812142040C01400080214210B5002088
:1017B0000F4908600F48006820F470200D49086048
:1017C0000846006840F44030086001200A49C1F82A
:1017D000B001052003F01CFA01200549086005202E
:1017E00003F016FA00200449C1F8B40110BD00004E
:1017F000B4812142040C01400080214270B50546AD
:1018000000241748006820F4702015490860084635
:10181000006840F400200860002616E0002011490E
:101820000860052003F0F4F901200F49C1F8B40164
:101830006006040E0B488438006808B1601CC4B20E
:10184000012003F0E5F9701CC6B2082EE6DB15B9DD
:10185000FFF7ACFF01E0FFF781FF204670BD0000FD
:10186000040C0140B48121420080214270B504463D
:101870001848006820F4702016490860084600687F
:1018800040F44030086000201349086000251EE045
:10189000E00920B101201049091F086003E0002081
:1018A0000D49091F08606006040E052003F0B0F919
:1018B000012009490860052003F0AAF90020074922
:1018C000C1F8B401052003F0A3F9681CC5B2082DC6
:1018D000DEDB70BD040C0140B48121420080214256
:1018E00070B504461848006820F07040164908603A
:1018F0000846006840F04050086000201349086026
:1019000000251CE0E00918B101201149086002E03F
:1019100000200F4908606006040E022003F078F9E9
:1019200001200A490860022003F072F900200949E9
:10193000C1F88C01022003F06BF9681CC5B2082DB8
:10194000E0DB00F0D5F870BD040801408C81214235
:10195000BC0121420080214210B50F48006820F4EC
:1019600070200D4908600846006840F44030086067
:1019700001200A4908600A49C1F8B401052003F0B2
:1019800047F9002005490860052003F041F90020CF
:101990000349C1F8B40110BD040C0140B0812142DB
:1019A0000080214210B50F48006820F070400D49BA
:1019B00008600846006840F04050086001200A496D
:1019C00008600A49C1F88C01042003F021F90020C5
:1019D00005490860042003F01BF900200349C1F801
:1019E0008C0110BD04080140BC012142008021424D
:1019F00010B50F48006820F470200D4908600846B3
:101A0000006840F44030086000200A4908600A4934
:101A1000C1F8B001052003F0FBF80120054908607A
:101A20000549C1F8B001052003F0F2F810BD00002F
:101A3000040C0140B48121420080214210B50F48BE
:101A4000006820F070400D4908600846006840F0CA
:101A50004050086000200A4908600A49C1F8BC01EA
:101A6000042003F0D5F80120054908600549C1F8B4
:101A7000BC01042003F0CCF810BD000004080140B4
:101A80008C8121420000214210B5002415480068D5
:101A900020F47020134908600846006840F40020D4
:101AA0000860012010490860052003F0B1F801200A
:101AB0000E49C1F8B401052003F0AAF807E0601C44
:101AC000C4B2FA2C03DDFFF793FF012010BD0648D6
:101AD000803800680028F2D10349091D086000BF62
:101AE000F4E70000040C0140B08121420080214253
:101AF00010B500241348006820F0704011490860B8
:101B00000846006840F00040086001200E49086067
:101B100003F07EF801200D49C1F88C0103F078F83C
:101B200007E0601CC4B2FA2C03DDFFF787FF012039
:101B300010BD0548803800680028F2D104490860CB
:101B400000BFF5E704080140BC01214200802142AA
:101B50008C8121423EB500F017FAFFF77DFD7349F5
:101B6000086008460068FEF755FC0446704A714B51
:101B7000FEF764FC03D2002000F04EFB2CE06B4823
:101B80000068FEF747FC04466B4A6C4BFEF756FCB8
:101B900003D2012000F040FB1EE064480068FEF71D
:101BA00039FC0446644A664BFEF748FC03D2022027
:101BB00000F032FB10E05D480068FEF72BFC0446A5
:101BC0005D4A604BFEF73AFC03D2032000F024FB91
:101BD00002E0042000F020FB54480068FEF71AFCE5
:101BE0000446554A554BFEF729FC06D8002356A259
:101BF00002211720FFF72EFA97E0002355A20221B9
:101C00002020FFF727FA564880884FF47A7190FB1E
:101C1000F1F03030C0B28DF8000051488088642166
:101C200090FBF1F00A2190FBF1F201FB1200303041
:101C3000C0B28DF801004A48808890FBF1F090FB1B
:101C4000F1F201FB12003030C0B28DF802004448BE
:101C5000808890FBF1F201FB12003030C0B28DF8A9
:101C600003002D208DF804003D48807990FBF1F0B1
:101C70003030C0B28DF805003948807990FBF1F220
:101C800001FB12003030C0B28DF806002D208DF817
:101C900007003348C07990FBF1F03030C0B28DF8C6
:101CA00008002F48C07990FBF1F201FB12003030A0
:101CB000C0B28DF8090000208DF80A0000236A46A2
:101CC00004211720FFF7F6F9254800780A2190FB38
:101CD000F1F03030C0B28DF800002148007890FB60
:101CE000F1F201FB12003030C0B28DF801003A2051
:101CF0008DF802001A48407890FBF1F03030C0B205
:101D00008DF803001648407890FBF1F201FB1200B9
:101D10003030C0B28DF8040000208DF8050000239B
:101D20006A4606212B20FFF7C5F93EBD280000209A
:101D30009A99999999990D40CDCCCCCCCCCC1040A6
:101D4000CCCC1240CCCC1440C7EBB8FCBBBBB5E745
:101D5000B3D80000BBB6D3ADCAB9D3C300000000EE
:101D60009800002010B586B00446102C00DD102429
:101D700000200AE0A04203DA2A2101AA115402E05D
:101D8000202101AA1154411CC8B21028F2DB002006
:101D90008DF81400002301AA04211846FFF78AF9E0
:101DA00006B010BD0146CA1701EB92729210A1EB6A
:101DB000820292B9642091FBF0F200FB121050B93C
:101DC0004FF4C87091FBF0F200FB121008B901202B
:101DD00070470020FCE70120FAE70020F8E770B523
:101DE00001F0CAFE0446FF2C00D170BD002503E0BF
:101DF0006D1C642D00D103E001F0BEFEFF28F7D179
:101E000000BF0C2C1FD2DFE804F01A140E080A10D1
:101E10001606120C181C0020E7E70120E5E7022057
:101E2000E3E70320E1E70420DFE70520DDE7062004
:101E3000DBE70720D9E70820D7E70920D5E70A2004
:101E4000D3E70B20D1E76420CFE710B50446412C3F
:101E50002CD108210846FEF7AFFF3D21112002F0EA
:101E60002DFD8621172002F029FD7F21262002F07A
:101E700025FDF821272002F021FD3F21282002F036
:101E80001DFD1E212D2002F019FD00212C2002F045
:101E900015FD8D212A2002F011FD3E212B2002F09C
:101EA0000DFD022002F0B4FE00F040FA10BD00BFAC
:101EB000FEE7704708B54FF4A06000F05BF82520FE
:101EC0008DF8000001208DF8010002208DF802003D
:101ED00001208DF80300684600F014F808BD08B52D
:101EE0004FF4A06000F046F826208DF80000012095
:101EF0008DF801008DF802008DF80300684600F0AF
:101F000001F808BD70B5002100230F22C47804B386
:101F1000154C246804F4E064C4F5E064210AC1F1BE
:101F20000403CA40447804FA03F18478144021433E
:101F300009010E4C0678A155047804F01F05012410
:101F4000AC4005786D11AD0005F1E025C5F8004104
:101F500009E0047804F01F050124AC40044D067824
:101F6000761145F8264070BD0CED00E000E400E07D
:101F700080E100E002490143024A1160704700001D
:101F80000000FA050CED00E010B5002000F001F8AB
:101F900010BD70B50646002415E004F1B001C8B2CA
:101FA00002F07DFC002002F07AFC102002F077FCA9
:101FB000002504E0304602F079FC681CC5B2802D93
:101FC000F8DB601CC4B2082CE7DB70BD08B501214A
:101FD0000C2000F0E7FF0121084600F0E3FF01219B
:101FE0000F48FFF79DFA0820ADF8000010208DF88B
:101FF000030003208DF8020069460A48FFF704FA3F
:102000004FF40040ADF8000069460748FFF7FCF9BF
:102010000120064908600649C1F88C0108BD00008E
:1020200000023000000C014000080140BC012142C8
:102030000080214210B5FFF7C9FF002400E0641CB6
:10204000B4F57A7FFBDDAE2002F029FC202002F0FF
:1020500026FC102002F023FCB02002F020FCC82057
:1020600002F01DFC002002F01AFC102002F017FC08
:10207000402002F014FC812002F011FCFF2002F04D
:102080000EFCA12002F00BFCA62002F008FCA82008
:1020900002F005FC3F2002F002FCA42002F0FFFB4E
:1020A000D32002F0FCFB002002F0F9FBD52002F067
:1020B000F6FBF02002F0F3FBD92002F0F0FB222027
:1020C00002F0EDFBDA2002F0EAFB122002F0E7FB5F
:1020D000DB2002F0E4FB202002F0E1FB8D2002F087
:1020E000DEFB142002F0DBFBAF2002F0D8FBFFF791
:1020F0004BFF642002F066FD10BD10B5FFF744FFF2
:102100008D2002F0CCFB102002F0C9FBAE2002F0C3
:10211000C6FB10BD10B58D2002F0C1FB142002F0EB
:10212000BEFBAF2002F0BBFB10BD70B504460D46F0
:1021300005F1B001C8B202F0B2FB102141EA14105F
:1021400002F0ADFB04F00F0002F0A9FB70BD00002F
:102150002DE9F05F82460F4690469946DDF828B09B
:10216000002439465046FFF7E0FF00250026BBF16A
:10217000000F1ED0A8F12000050100BF06E0244991
:10218000485D02F093FB6D1C601CC4B2082CF6DBAA
:10219000781CC1B25046FFF7C8FF002406E01C4976
:1021A000485D02F083FB6D1C601CC4B2082CF6DB9A
:1021B0002CE00BE01748805D404506D11549701CA6
:1021C000085C484501D1B51C04E0223641F22210DA
:1021D0008642EFD300BF002406E00E49485D02F0BE
:1021E00065FB6D1C601CC4B2102CF6DB781CC1B200
:1021F0005046FFF79AFF002406E00649485D02F0CA
:1022000055FB6D1C601CC4B2102CF6DBBDE8F09FC2
:10221000666300084452000870B505460021084670
:10222000FFF783FF002404E0002002F03FFB601C66
:10223000C4B26F2CF8DB00216F20FFF776FF00247B
:1022400009E005EB4501054A02EBC101085D02F01A
:102250002DFB601CC4B2112CF3DB70BDCC51000807
:10226000014908627047000000000E4210B50246A6
:1022700000200C4B186820F00300104318600A4B34
:102280001B6843F00403084C2360012901D130BFCF
:1022900000E020BF044B1B6823F00403024C2360C2
:1022A00010BD00000070004010ED00E038B50024C3
:1022B000F020ADF8000000208DF8030069461548B5
:1022C000FFF7A2F84FF47A7002F07CFCFEF7D4FC22
:1022D00002F098FA00F0C4FD01F03EFD4FF40071E9
:1022E0000D48FFF765F9FFF708FF06E000F024FC52
:1022F0000A2002F067FC601CC4B200F075FC08B153
:10230000052CF3DB01200549087001210846FFF781
:10231000ADFF38BD00080140000C01403A0000202C
:1023200010B503211420FEF747FD10BD10B5142091
:1023300001F08CF9044604F0030018B903211420BD
:1023400001F092FA10BDF0B587B0054600270821CC
:102350000846FEF731FD00210D2002F0AFFA802182
:102360000E20FEF729FD93208DF8080020208DF81F
:10237000090001A802AB022202A900900C2000F083
:102380001BF80646262E10D1002407E002A8005DA7
:10239000285502A8005D4740601CC4B2042CF5DB40
:1023A00002A8005DB84200D0BB2680210E2001F0BB
:1023B0005BFA304607B0F0BD2DE9FE4F0646884671
:1023C00091469A46DDF830B0BB2002900020019083
:1023D00000900C2E06D00E2E09D112200190102054
:1023E000009005E0772001903020009000E000BFD1
:1023F00000BF019840F08001022002F05FFA8021C6
:102400000420FEF7D9FC0021012002F057FA8021B8
:102410000A2001F029FA002505E018F80510092026
:1024200002F04CFA6D1C4D45F7D33146012002F005
:1024300045FA0C2E03D180210D2001F015FA4FF43E
:102440007A7500BF042001F001F904466D1E35B114
:1024500004F0010018B9009820400028F2D0802133
:102460000D20FEF7A9FC95B3062001F0EFF800F06F
:102470001B0068BB262002900198204000F001005C
:1024800008B1CC2002900C2E24D10A2001F0DEF8F5
:1024900004460C2001F0DAF800F007072FB1601EA7
:1024A00007EBC000CBF8000002E0E000CBF8000032
:1024B00004B90124122C00DD1224002505E00920B6
:1024C00001F0C4F80AF805006D1CA542F7D301E03D
:1024D000BB20029080210C2001F0C6F900210120D0
:1024E00002F0ECF90298BDE8FE8F70B588B00546A1
:1024F0000C4608210846FEF75FFC07210D2002F07C
:10250000DDF90321142001F0AFF98DF80C5002A879
:1025100003AB012203A900900C20FFF74DFF0646F4
:10252000262E09D10298102806D19DF80C002070A3
:102530009DF80D00607000E0BB26304608B070BD0D
:1025400010B502211D48FFF735F80A2002F03AFBCA
:1025500002211A48FFF72CF80A2002F033FB02216F
:102560001648FFF727F80A2002F02CFB0F21012064
:1025700002F0A4F900BF012001F068F800F010009B
:102580000028F8D10A2002F01DFB3D21112002F0A5
:1025900095F91E212D2002F091F900212C2002F046
:1025A0008DF98D212A2002F089F93E212B2002F09D
:1025B00085F94021152002F081F910BD000C014081
:1025C0007047000070B588B0044600F0B5FA04F218
:1025D0004710051945F2AA5000F00CFC002000F04D
:1025E000FFFB002000F0FCFB4FF4884000F002FCF1
:1025F0004FF4806000F0FEFB200200F0FBFB2002A5
:1026000000F0F8FB002603E0002000F0E9FB761C58
:102610000C2EF9DBE8B200F0E3FB281200F0E0FB3F
:1026200001201049087001A800F066FBFF2802D1C4
:10263000F02008B070BDBDF80800FF2801D1F020DF
:10264000F7E7BDF80C00222800D1F2E7BDF80C0036
:10265000122800D1EDE7BDF80C0008B90020E8E72A
:10266000F120E6E77600002010B588B000F064FAAB
:1026700045F2AA5000F0BEFB002000F0B1FB0020A4
:1026800000F0AEFB4FF4045000F0B4FB002000F06B
:10269000B1FB002403E0002000F0A2FB641C102C1E
:1026A000F9DB42F2010000F0A5FB01200E490870A1
:1026B00001A800F021FBFF2802D1F02008B010BDD6
:1026C000BDF80800FF2801D1F020F7E79DF80E00C3
:1026D00008B9F420F2E79DF80E00012801D1F52099
:1026E000ECE7F120EAE700007600002030B587B083
:1026F000044600F021FA45F2AA5000F07BFB0020CE
:1027000000F06EFB002000F06BFB4FF4C04000F0C7
:1027100071FB4FF4007000F06DFB204600F06AFB87
:10272000002503E0002000F05BFB6D1C0E2DF9DBA3
:1027300046F20111214488B200F05CFB01201049EF
:102740000870684600F0D8FAFF2802D1F02007B0E0
:1027500030BDBDF80400FF2801D1F020F7E7BDF837
:102760000800262800D1F2E7BDF80800192800D19A
:10277000EDE7BDF8080008B90020E8E7F120E6E73A
:102780007600002030B587B0044600F0D5F900206F
:10279000207045F2AA5000F02DFB002000F020FB35
:1027A000002000F01DFB4FF48A4000F023FB4FF4A3
:1027B000806000F01FFB4FF4807000F01BFB4FF4B3
:1027C000484000F017FB002503E0002000F008FB64
:1027D0006D1C0C2DF9DB41F2021000F00BFB012007
:1027E0000F490870684600F087FAFF2802D1F020F0
:1027F00007B030BDBDF80400FF2801D1F020F7E795
:10280000BDF80800222800D1F2E7BDF8080020B981
:102810009DF80A0020700020EAE7F120E8E70000B8
:102820007600002010B588B000F086F945F2AA5075
:1028300000F0E0FA002000F0D3FA002000F0D0FA17
:102840004FF4C24000F0D6FA4FF4407000F0D2FAD4
:10285000002000F0CFFA032000F0C2FA002403E0C9
:10286000002000F0BDFA641C0D2CF9DB46F201607B
:1028700000F0C0FA01201349087001A800F03CFAEA
:10288000FF2802D1F02008B010BDBDF80800FF28D5
:1028900001D1F020F7E7BDF80C00262800D1F2E7BF
:1028A000BDF80C00252800D1EDE7BDF80C001A2872
:1028B00000D1E8E7BDF80C0008B90020E3E7F120FB
:1028C000E1E700007600002030B587B0044600F054
:1028D00033F945F2AA5000F08DFA002000F080FA9A
:1028E000002000F07DFA4FF4C64000F083FA4FF468
:1028F000C06000F07FFA002000F07CFA4FF4807096
:1029000000F078FA4FF4484000F074FA002503E034
:10291000002000F065FA6D1C0A2DF9DB43F202106D
:1029200000F068FA012014490870684600F0E4F9E4
:10293000FF2802D1F02007B030BDBDF80400FF2809
:1029400001D1F020F7E7BDF80800262800D1F2E712
:10295000BDF80800142800D1EDE7BDF808001128E3
:1029600000D1E8E7BDF8080020B99DF80A00207002
:102970000020E0E7F120DEE77600002030B587B0E8
:10298000044600F0D9F845F2AA5000F033FA0020CE
:1029900000F026FA002000F023FA4FF4804000F007
:1029A00029FA4FF4806000F025FA204600F022FA60
:1029B000002000F01FFA002503E0002000F010FACC
:1029C0006D1C0C2DF9DB44F20131214488B200F07A
:1029D00011FA012012490870684600F08DF9FF28AD
:1029E00002D1F02007B030BDBDF80400FF2801D1AE
:1029F000F020F7E7BDF808001D2800D1F2E7BDF888
:102A00000800262800D1EDE7BDF80800182800D1FD
:102A1000E8E7BDF8080008B90020E3E7F120E1E7A6
:102A20007600002010B588B000F086F845F2AA5074
:102A300000F0E0F9002000F0D3F9002000F0D0F918
:102A40004FF4005000F0D6F9002000F0D3F9002434
:102A500003E0002000F0C4F9641C102CF9DB41F6FF
:102A6000017000F0C7F901200D49087001A800F0BD
:102A700043F9FF2802D1F02008B010BDBDF80800CE
:102A8000FF2801D1F020F7E7BDF80C00282800D17D
:102A9000F2E7BDF80C0008B90020EDE7F120EBE704
:102AA000760000201FB500F0DBF80121042000F0C3
:102AB00079FA0220ADF80C0010208DF80F000320E9
:102AC0008DF80E0003A91A48FEF79EFC0120ADF810
:102AD0000C0028208DF80F0003A91648FEF794FC7F
:102AE0000121084600F05EFA00210120FEF76CFC8F
:102AF0000120019000208DF808000C208DF80900BD
:102B000001208DF80A0001A8FEF786FB06208DF84B
:102B1000000002208DF8010003208DF80200012042
:102B20008DF803006846FFF7EDF900F00DF81FBDC2
:102B300000080140000C01400020024948708870E4
:102B4000087070477600002010B502210D48FEF78E
:102B500031FD002400E0641CB4F57A7FFBDB022128
:102B60000848FEF725FD002400E0641CB4F57A7FD8
:102B7000FBDB02210348FEF71DFD642002F022F872
:102B800010BD00000008014070B505464FF47A7092
:102B900000F010F90446F22C00D170BD0020FFF7C0
:102BA000A5FD0446F02C03D0F12C01D0262C01D138
:102BB000F020F2E7192C01D11920EEE72846FFF7A3
:102BC00083FE0446F02C03D0F12C01D0262C01D139
:102BD000F020E2E7142C01D11420DEE7112C01D102
:102BE0001120DAE70020D8E710B588B0FFF7A4FF7E
:102BF00045F2AA5000F0FEF8002000F0F1F80020A5
:102C000000F0EEF84FF4406000F0F4F8002000F01F
:102C1000F1F8002403E0002000F0E2F8641C102C1E
:102C2000F9DB40F6013000F0E5F801200B490870AF
:102C300001A800F061F8FF2802D1F02008B010BD13
:102C4000BDF80800FF2801D1F020F7E7BDF80C001F
:102C500008B90020F2E7F120F0E70000760000203C
:102C600000B585B00121042000F09CF9204801F056
:102C700065F90820ADF8100004208DF8130003203A
:102C80008DF8120004A91B48FEF7BEFB0420ADF826
:102C9000100018208DF8130003208DF8120004A9ED
:102CA0001448FEF7B1FB0121480400F05BF94FF432
:102CB000E13000900020ADF80400ADF80600ADF85A
:102CC0000800ADF80C000C20ADF80A006946084871
:102CD00001F0DEF9FFF703F9012240F22551044823
:102CE00001F0B1F90121024801F01CF905B000BD65
:102CF00000440040000801402DE9F0410446002551
:102D00000026A8464FF4A00707E07F1E002F04DC32
:102D1000FFF712FFFF20BDE8F08125484078012829
:102D2000F3D1032001F04EFFFFF706FF002505E079
:102D30001F48C01C405D304486B26D1C182DF7DB67
:102D40001B48C17E007F41EA0028464501D0FF2094
:102D5000E1E71748C178007941EA00202080144853
:102D60004079A07012488079E0701148C179007AEA
:102D700041EA0020A0800E48417A807A41EA002092
:102D8000E0800B48C17A007B41EA002020810025C9
:102D900008E00748C01C05F10A01415C04F10A0083
:102DA00041556D1C0E2DF4DB26830020B3E7000097
:102DB0007600002070B50546B420B5FBF0F60BE0B8
:102DC000FFF730FE0446282C01D1761E04E00CB932
:102DD000002070BDF020FCE7002EF1D1F220F8E7D2
:102DE00010B504462146024801F0B2FA10BD0000B9
:102DF0000044004010B504462112084801F0A8FA2A
:102E000010B14FF6FF7010BDE1B2044801F0A0FA16
:102E100010B14FF6FF70F6E70020F4E700440040E1
:102E200010B500F029F802210C48FEF7C3FB0A2078
:102E300001F0C8FEFFF784FBFFF772FA4120FFF7AD
:102E400004F87A211F2001F039FD012001F0BAFEBB
:102E50004FF4E13000F038F810BD0000000C0140E4
:102E600010B5012000F0F2FB044644F010010120EF
:102E700001F024FD10BD000008B50121082000F07C
:102E800091F80220ADF8000003208DF80200102018
:102E90008DF8030069460B48FEF7B6FA022109488F
:102EA000FEF788FB0220ADF8000028208DF8030013
:102EB00069460448FEF7A8FA4FF4165000F004F8EB
:102EC00008BD0000000C014010B586B004461D4846
:102ED00001F034F84FF40060ADF8040004208DF8E0
:102EE000070003208DF8060001A91748FEF78CFAA9
:102EF0004FF48060ADF8040018208DF8070003201F
:102F00008DF8060001A91048FEF77EFA0121880419
:102F100000F028F802940020ADF80C00ADF80E0087
:102F2000ADF81000ADF814000C20ADF8120002A9A5
:102F3000044801F0ADF80121024800F0F3FF06B0AB
:102F400010BD000000480040000C01400146002078
:102F5000034A506820F44040084350607047000026
:102F60000010024029B1064AD2690243044BDA61DB
:102F700004E0034AD2698243014BDA6170470000E2
:102F80000010024029B1064A12690243044B1A613B
:102F900004E0034A12698243014B1A617047000042
:102FA0000010024029B1064A92690243044B9A611B
:102FB00004E0034A92698243014B9A617047000022
:102FC0000010024029B1064AD2680243044BDA607D
:102FD00004E0034AD2688243014BDA607047000084
:102FE000001002400149086070470000400442425E
:102FF00030B500210022002400232D4D6D6805F01E
:103000000C0121B1042905D0082923D105E0294D5F
:10301000056022E0274D05601FE0254D6D6805F431
:103020007012234D6D6805F48034022505EB924241
:103030001CB9214D554305600BE01D4D6D6805F42D
:1030400000351DB11C4D5543056002E0194D554337
:10305000056002E0174D056000BF00BF144D6D68AC
:1030600005F0F0010909154D6B5C0568DD40456010
:103070000F4D6D6805F4E061090A104D6B5C456801
:10308000DD4085600A4D6D6805F46051C90A0B4D3D
:103090006B5C4568DD40C560054D6D6805F44041D9
:1030A000890B074D6B5CC568B5FBF3F5056130BD59
:1030B0000010024000127A0000093D0014000020B8
:1030C0002400002010B501460022002300204A11F0
:1030D000012A02D1094C236806E0022A02D1074CDA
:1030E000236A01E0054C636A01F01F020124944049
:1030F0001C400CB1012000E0002010BD0010024077
:1031000000210B4A11700A4A203A82F82010012847
:1031100002D0042808D103E00121054A117004E01F
:103120000521034A117000E000BF00BF7047000096
:103130002010024001490860704700003C044242F0
:103140000249096A0143014A1162704700100240B6
:10315000F8B5044600202060002700260BE06946F1
:103160005220FFF7C2F90546262D00D104E0761C57
:10317000022E00DD00E0F2E700BF262D13D16846E5
:10318000FFF7E1F826280ED1FFF7CAF80127002043
:1031900007E01DF80010226841EA02212160411C6D
:1031A000C8B20428F5DB3846F8BD0000024909889A
:1031B0008143014A11807047042800400348008879
:1031C00040F01000014908807047000004280040CA
:1031D000034800884FF6EF710840014908807047A6
:1031E0000428004070B500250026002400F07AF87D
:1031F00006463848B6FBF0F437480088A0423CD079
:1032000035490C8040F2B27510E02846FEF7CAFD41
:1032100040B1B4F5B77F02D3A4F5B77404E0681CDD
:1032200085B206E0A4F26D14681C85B2B4F5B67FD1
:10323000EBD800BF29488580002516E027498888FB
:10324000FEF7B0FD30B1012D04D11D2C01D31D3C82
:1032500009E00CE02248405DA04203D82048405DD0
:10326000241A00E003E0681C85B21C2CE6D200BFE3
:10327000681C1A498871601CC8711648B6FBF0F1C9
:1032800000FB11644FF46160B4FBF0F01349087067
:103290004FF46160B4FBF0F100FB11403C21B0FB46
:1032A000F1F00E4948704FF46160B4FBF0F100FB9F
:1032B00011403C21B0FBF1F201FB1200074988707C
:1032C0000B46DA799979988800F028F80349087252
:1032D000002070BD805101003E00002098000020B9
:1032E000C0510008002103480188001F008841EAFE
:1032F000004070471C28004001460020064A128802
:103300000A40D0B2044A121F12880A4012B108B112
:10331000012000E00020704704280040F0B503467B
:103320000C461546642093FBF0F0C6B2642093FB74
:10333000F0F700FB1730C1B2132E02DD01F164007B
:10334000C1B20846CF1701EB977701EBA707BAB2D6
:10335000072092FBF0F700FB172082B25719601E7E
:10336000DFF82CC01CF80000384482B2CF1701EB04
:103370009777BF10A1EB87071FB9032C01DA501E06
:1033800082B2072092FBF0F700FB1720C0B2F0BD1D
:10339000B45100080EB50120FFF7AEFF20B1FFF7D2
:1033A00021FF0120104908700220FFF7A5FFA0B1FE
:1033B0000220FFF7FBFEFFF715FF0C4880780B4952
:1033C00049780A4A1278CDE9002102900748C3796A
:1033D0008279818806A001F083FA0520FFF7E6FED6
:1033E00000F018F90EBD00003C00002098000020FD
:1033F000416C61726D2054696D653A25642D2564B8
:103400002D25642025643A25643A25640A000000CD
:1034100029B1064A12880243044B1A8004E0034A89
:1034200012888243014B1A80704700000028004038
:103430001CB5002401214FF0C050FFF793FD01207F
:10344000FEF70EFF0420FDF7FBFB45F2500188421A
:103450003FD0FDF7EDFB0120FFF752FE04E0601CBA
:10346000C4B20A2001F0AEFB4120FFF72BFE08B9E1
:10347000FA2CF4DBFA2C01DB01201CBD4FF4807028
:10348000FFF75EFE0120FFF755FE00F0C3F800F0E5
:10349000CBF801210846FFF7BBFF00F0BBF8FFF7B0
:1034A0008DFE47F6FF7000F0A5F800F0B3F800209D
:1034B0000090034601221146019040F2DF7000F0B7
:1034C00027F8FFF785FE45F250010420FDF7C6FB03
:1034D00007E000F0A9F801210846FFF799FF00F086
:1034E00099F800F004F8FFF77DFE0020C5E708B565
:1034F00003208DF8000000208DF801008DF80200F7
:1035000001208DF803006846FEF7FCFC08BD0000B2
:103510002DE9F05F06460F4690469946DDE90AAB75
:10352000002440F2B270864203DB40F6330086424C
:1035300002DD0120BDE8F09F40F2B2750AE02846A6
:10354000FEF730FC10B12048044401E01F48044459
:10355000681C85B2B542F2DB781EC7B2002510E0C8
:103560001B48405D40F2A321484304EBC0143046A1
:10357000FEF718FC18B1012D01D116480444681C4F
:1035800085B2BD42ECDBA8F1010040F2A321484323
:1035900004EBC014C9EB4910C0EB092004EB001484
:1035A000CAEB0A1004EB80045C4401214FF0C050C8
:1035B000FFF7D8FC0120FEF753FE204600F00CF880
:1035C00000F028F80020B5E70085E2018033E10132
:1035D000C05100088051010000B50246FFF7EEFD22
:1035E000100C03490880091D0A80FFF7F1FD00BD9A
:1035F0001828004000B50246FFF7E0FDC2F3034083
:1036000003490880091D0A80FFF7E2FD00BD0000A4
:103610000828004000BF0348008800F02000002870
:10362000F9D0704704280040074800884FF6F7712A
:1036300008400549088000BF0348008800F00800E2
:103640000028F9D0704700000428004070B50446F7
:1036500004F03F0040F08005284600F007FE0348D4
:1036600000F044FEC6B2304670BD00000048004085
:10367000044988794FF6FF7101EA00200149C979B0
:10368000084370474C0000202DE9F043014612200A
:1036900037E0DFF878C01CF80020E04600F1010CAC
:1036A00018F80C5000F1020C18F80C3000F1030C63
:1036B00018F80C40A2F1300C4FF47A780CFB08FC9F
:1036C000A5F1300808EBC80909EB08180CEB8808CD
:1036D000A3F1300C0CEB8C0C08EB4C08A4F1300C73
:1036E000C4441FFA8CF7A0F1120C4FEAEC780CEBF3
:1036F0009878C8F3870621F8167000F1040C0CF0D6
:10370000FF002A28C5DBBDE8F08300004C00002044
:1037100018B50948007B8DF800000748407B8DF8FC
:1037200001000548807B8DF802006846FDF76CFAC1
:103730000446204618BD00004C00002010B50B4682
:10374000002105E0048823F81140801C4C1CA1B224
:103750009142F7DB10BD00002DE9F05F80468A46FC
:103760001746B8F1006F02D33348804501D3BDE856
:10377000F09FFDF709FEA8F1006B4FEA9B25CBF304
:103780004809C9F50074A74200DC3C464DE04FF003
:10379000006101EB85208A142849FFF7CFFF00263E
:1037A0000BE009EB0600254931F810004FF6FF71D8
:1037B000884200D003E0701C86B2A642F1DB00BF55
:1037C000A6421BDA4FF0006101EB8520FDF76EFD8C
:1037D000002608E03AF8160006EB0901174A22F81D
:1037E0001100701C86B2A642F4DB4FF0006101EBC1
:1037F00085208A14114900F023F804E0224651463E
:10380000404600F01DF8A74200D10FE06D1C4FF0BC
:1038100000090AEB440AA044381B87B2B7F5007FC1
:1038200002DD4FF4007400E03C46B0E700BFFDF756
:103830007FFD00BF9BE7000000000108A200002000
:103840002DE9F04105460E461746002407E036F8FC
:1038500014102846FDF776FDAD1C601C84B2BC42F6
:10386000F5DBBDE8F081704770B505460C4628468B
:10387000FFF7ECFE064646EA0401284601F01EF872
:1038800070BD10B500F002F810BD00000CB50020AE
:10389000019000903348006840F48030314908605E
:1038A00000BF3048006800F4003000900198401CD0
:1038B0000190009818B90198B0F5A06FF1D129488E
:1038C000006800F4003010B10120009001E00020F9
:1038D00000900098012843D12348006840F0100070
:1038E000214908600846006820F003000860084687
:1038F000006840F0020008601A48406819494860B2
:103900000846406848600846406840F48060486067
:103910000846406820F47C1048600846406840F43F
:10392000E81048600846006840F08070086000BFFA
:103930000C48006800F000700028F9D00948406881
:1039400020F00300074948600846406840F0020044
:10395000486000BF0348406800F00C000828F9D117
:103960000CBD00000010024000200240042808D1D5
:103970004FF0E021096941F004014FF0E0221161AC
:1039800007E04FF0E021096921F004014FF0E02247
:10399000116170477047000010B51348006840F08F
:1039A00001001149086008464068104908400E4966
:1039B0004860084600680E4908400B490860084600
:1039C000006820F4802008600846406820F4FE006B
:1039D00048604FF41F008860FFF753FF4FF000600E
:1039E0000449086010BD0000001002400000FFF80C
:1039F000FFFFF6FE08ED00E010B50121064800F0DB
:103A00004EF818B10121044800F03AF80348006864
:103A1000401C0249086010BD000400404400002022
:103A20007FB505460C4601210220FFF79BFAADF851
:103A30000850ADF804400020ADF80A00ADF80600CB
:103A400001A90E4800F046F8012211460B4800F08B
:103A500037F81D208DF8000000208DF801000320AC
:103A60008DF8020001208DF803006846FEF74AFA3F
:103A70000121024800F007F87FBD0000000400406B
:103A8000CA430282704721B1028842F001020280DB
:103A900004E002884FF6FE731A400280704730B58A
:103AA0000246002000230024158A05EA01039589B7
:103AB00005EA010413B10CB1012000E0002030BD83
:103AC0001AB183890B43838102E083898B4383810D
:103AD00070470000002202881D4B98420ED01D4BFB
:103AE00098420BD0B0F1804F08D01B4B984205D0C4
:103AF0001A4B984202D01A4B984204D14FF68F735A
:103B00001A404B881A43174B984207D0164B9842DD
:103B100004D04FF6FF431A40CB881A4302808B88AB
:103B200083850B8803850A4B98420BD0094B98423A
:103B300008D00E4B984205D00D4B984202D00D4B49
:103B4000984201D10B7A03860123838270470000DB
:103B5000002C0140003401400004004000080040F7
:103B6000000C0040001000400014004000400140E4
:103B700000440140004801402DE9F047032500249E
:103B8000102000F00DF90646112000F009F9074653
:103B9000122000F005F98046300440EA072040EA90
:103BA000080900BF07E0A94502D12046BDE8F0871B
:103BB000AD00601CC4B20C2CF5DBFF20F6E7000062
:103BC00010B500F053F8642000F0FCFF4FF4004102
:103BD0002548FDF7EFFC642000F0F4FF4FF40041AE
:103BE0002148FDF7E5FC642000F0ECFF0B210920E3
:103BF00000F0FEF80721092000F0FAF888210220E1
:103C000000F0F6F88821032000F0F2F88821042063
:103C100000F0EEF88821052000F0EAF8882106205F
:103C200000F0E6F88821072000F0E2F88021082063
:103C300000F0DEF800210A2000F0DAF800210B2065
:103C400000F0D6F8FF210E2000F0D2F80F21084630
:103C500000F0CEF800210C2000F0CAF800210D2061
:103C600000F0C6F810BD0000000C01401FB5012196
:103C70000C20FFF797F910208DF80F0003208DF826
:103C80000E004FF48050ADF80C0003A93048FDF74A
:103C9000BBFB4FF480512E48FDF78CFC4FF40050D5
:103CA000ADF80C0003A92A48FDF7AEFB4FF4005114
:103CB0002748FDF77FFC4FF40040ADF80C0003A946
:103CC0002348FDF7A1FB4FF400412148FDF770FCAC
:103CD0004FF48070ADF80C0003A91E48FDF794FB6B
:103CE0004FF480711B48FDF763FC48208DF80F00EE
:103CF0004FF48040ADF80C0003A91548FDF784FB94
:103D000001210846FFF74EF90E210120FDF75CFB6B
:103D10004FF48040019000208DF8080008208DF8B5
:103D2000090001208DF80A0001A8FDF775FA282086
:103D30008DF8000002208DF8010004208DF80200AB
:103D400001208DF803006846FEF7DCF81FBD000077
:103D5000000C01400008014010B52321082000F0AC
:103D600047F80721092000F043F84FF4807102481A
:103D7000FDF720FC10BD00000008014010B54FF415
:103D800080710648FDF714FC0321092000F030F88B
:103D90008021082000F02CF810BD00000008014030
:103DA00070B50446FDF7D8FDD020FDF75FFDFDF7A7
:103DB0006BFE08B1002070BD2046FDF757FDFDF7F2
:103DC00063FE08B10020F6E7FDF712FEFDF7C4FD23
:103DD000D120FDF74BFDFDF757FE08B10020EAE7C3
:103DE0000020FDF70BFD0546FDF702FE2846E2E741
:103DF00070B505460C46FDF7AFFDD020FDF736FD4A
:103E0000FDF742FE08B1012070BD2846FDF72EFDEA
:103E1000FDF73AFE08B10120F6E72046FDF726FD42
:103E2000FDF732FE08B10120EEE7FDF7E1FD0020CD
:103E3000EAE7000010B500BF40F22551104800F03D
:103E4000D8F860B10E48001D0088C1B20D48027854
:103E50000078401C0B4B18700B4881540FE040F267
:103E60002441074800F0C5F848B10548001D008806
:103E7000C4B203480088C4B201200449087010BDD0
:103E800000380140340000204C00002035000020A4
:103E900010B515480078401C1349087040F22551B0
:103EA000124800F0A6F8F0B1104800F05DF9C4B275
:103EB0000F48407870B9AA2C15D101200C494870E0
:103EC00008468178C01C4454C01E8078401C0849B4
:103ED000887008E006488178C01C4454C01E807871
:103EE000401C0349887010BD2F0000200044004092
:103EF0007600002010B540F22551074800F079F80F
:103F000040B1054800F030F9C4B2FF200349087001
:103F10000348047010BD000000480040400000202D
:103F20004100002021B1828942F40052828104E0E4
:103F300082894DF6FF731A408281704710B504469E
:103F40002048844209D101218803FFF73BF8002172
:103F50004FF48040FFF736F832E01B48844209D125
:103F600001214804FFF70EF800214FF40030FFF75D
:103F700009F825E01548844209D101218804FFF79A
:103F800001F800214FF48020FEF7FCFF18E01048F4
:103F9000844209D10121C804FEF7F4FF00214FF447
:103FA0000020FEF7EFFF0BE00A48844208D1012110
:103FB0000805FEF7E7FF00214FF48010FEF7E2FF4F
:103FC00010BD00000038014000440040004800409F
:103FD000004C00400050004002460020B1F5007F38
:103FE00000D100BF13880B400BB1012000E000207E
:103FF000704770B50246002400230025002040F6DB
:104000006A16B14200D100BFC1F3421501F01F038F
:10401000012606FA03F3012D02D19689334006E00A
:10402000022D02D1168A334001E0968A33400C12E9
:10403000012606FA04F41688344013B10CB10120AD
:1040400000E0002070BDF0B50346002400260025E6
:10405000002040F66A17B94200D100BF1846C1F3EC
:10406000421401F01F06012707FA06F5012C01D1C1
:104070000C3004E0022C01D1103000E014301AB1F1
:1040800007682F43076002E00768AF430760F0BD91
:104090002DE9F04786B005460E460024A24600BF33
:1040A000A1460027B08900B100BF2F462C8A4CF6EC
:1040B000FF700440F08804432C82AC894EF6F31064
:1040C0000440B08831890843718908430443AC81B6
:1040D000AC8A4FF6FF400440B0890443AC8201A88B
:1040E000FEF786FF1F48874202D1DDF810A001E0ED
:1040F000DDF80CA0A88900F4004040B10AEBCA002A
:1041000000EB0A1031684900B0FBF1F807E00AEB58
:10411000CA0000EB0A1031688900B0FBF1F8642096
:10412000B8FBF0F004012009642101FB1089A88983
:1041300000F4004040B1322000EBC900B0FBF1F0C8
:1041400000F00700044308E0322000EB091064216E
:10415000B0FBF1F000F00F0004432C8106B0BDE885
:10416000F08700000038014001468888C0F308004D
:104170007047C1F3080282807047000008B5012132
:104180000820FEF70FFF01210846FEF70BFF012173
:104190001548FDF7C5F92020ADF8000010208DF876
:1041A000030003208DF8020069461048FDF72CF942
:1041B0001020ADF8000069460C48FDF725F90020F5
:1041C0000B4908600B49C1F890014FF40071074892
:1041D000FDF7EEF9642000F0F5FC4FF400710348A0
:1041E000FDF7E8F908BD000000023000000C0140B6
:1041F000948121420080214270B504460020194973
:1042000008601949C1F89401642000F001FD012003
:1042100014490860642000F0FBFC00201249C1F83A
:104220009001642000F0F4FC01200E490860642035
:1042300000F0EEFC00200C49C1F8900101250EE0D1
:1042400001200849091D0860642000F0E1FC0020FD
:104250000549C1F89401642000F0DAFC6D1CA54208
:10426000EEDD70BD908121420080214210B50446F0
:104270002146024800F06CF810BD000000480040E4
:1042800070B506460C46154600F0FDFA28702878F1
:10429000FF2801D1022070BD28780A280CD120788F
:1042A00008B90320F7E72078401E207020212078ED
:1042B000401E31540420EEE728780B2806D12078E0
:1042C000062801DB0020E6E70120E4E7207810283B
:1042D00001D10420DFE72878217870542078401C31
:1042E00020700420D7E700BFFEE7000010B50446A9
:1042F0000B480C49086008E00A490868411E094A51
:10430000116010B94FF6FF7010BD20212046FFF755
:1043100063FE0028F0D02046FFF726FFC0B2F3E787
:10432000FFFF0F00300000200146074800780128F9
:1043300007D10020044A1070044A107046F26660EB
:10434000704743F23330FBE7350000203400002093
:1043500070B504460D460C480C49086029462046B5
:10436000FFF707FF08E009490868411E074A116086
:1043700010B94FF6FF7070BD80212046FFF72CFE6C
:104380000028F0D00020F6E7FFFF0F0030000020EB
:10439000FEB507460D4616464FF6CF60ADF8000055
:1043A0000120ADF802000C20ADF8040040F201300D
:1043B000ADF80600ADF80850ADF80A60002407E03B
:1043C000684600EB4401384600F093FE601CC4B21E
:1043D000062CF5DBFEBDFEB507460C4616464FF62D
:1043E000CF60ADF800000120ADF80200032C03DA25
:1043F0000C20ADF8040002E00F20ADF8040040F2FC
:104400000130ADF80600ADF808400020ADF80A0014
:10441000002507E0684600EB4501384600F069FEDC
:10442000681CC5B2062DF5DB032C03D13146384696
:1044300000F067F9FEBD3EB505464FF6CF60ADF81A
:1044400000000120ADF802000C20ADF8040040F699
:104450000200ADF806000020ADF808004FF400603F
:10446000ADF80A00002407E0684600EB4401284646
:1044700000F03FFE601CC4B2062CF5DB3EBD3EB52D
:1044800005464FF6CF60ADF800000120ADF8020000
:104490000C20ADF8040040F60200ADF80600002044
:1044A000ADF80800ADF80A00002407E0684600EB0C
:1044B0004401284600F01DFE601CC4B2062CF5DB4A
:1044C0003EBDFEB506460D464FF6CF60ADF8000086
:1044D0000120ADF802000C20ADF804004FF482700A
:1044E000ADF806000020ADF80800ADF80A50002431
:1044F00007E0684600EB4401304600F0FAFD601C1E
:10450000C4B2062CF5DBFEBDFEB505460E464FF6E1
:10451000CF60ADF800000120ADF802000F20ADF82B
:1045200004004FF48270ADF806000020ADF80800DA
:10453000ADF80A00002407E0684600EB4401284675
:1045400000F0D7FD601CC4B2062CF5DB31462846CE
:1045500000F0D7F8FEBD3EB505464FF6CF60ADF88A
:1045600000000120ADF802000C20ADF8040040F678
:104570000400ADF806000020ADF808004FF400601C
:10458000ADF80A00002407E0684600EB4401284625
:1045900000F0AFFD601CC4B2062CF5DB3EBD3EB59D
:1045A00005464FF6CF60ADF800000120ADF80200DF
:1045B0000C20ADF8040040F60400ADF80600002021
:1045C000ADF80800ADF80A00002407E0684600EBEB
:1045D0004401284600F08DFD601CC4B2062CF5DBBA
:1045E0003EBDFEB506460D464FF6CF60ADF8000065
:1045F0000120ADF802000C20ADF8040040F20230BA
:10460000ADF806000020ADF80800ADF80A5000240F
:1046100007E0684600EB4401304600F06AFD601C8C
:10462000C4B2062CF5DBFEBDFEB505460E464FF6C0
:10463000CF60ADF800000120ADF802000F20ADF80A
:10464000040040F20230ADF806000020ADF808008A
:10465000ADF80A00002407E0684600EB4401284654
:1046600000F047FD601CC4B2062CF5DB314628463D
:1046700000F047F8FEBD3EB505464FF6CF60ADF8F9
:1046800000000120ADF802000C20ADF8040040F657
:104690000300ADF806000020ADF808004FF40060FC
:1046A000ADF80A00002407E0684600EB4401284604
:1046B00000F01FFD601CC4B2062CF5DB3EBD3EB50C
:1046C00005464FF6CF60ADF800000120ADF80200BE
:1046D0000C20ADF8040040F60300ADF80600002001
:1046E000ADF80800ADF80A00002407E0684600EBCA
:1046F0004401284600F0FDFC601CC4B2062CF5DB2A
:104700003EBDF8B506460D466946284600F00CF851
:10471000002406E00DEB0401304600F0DBFC601CD9
:10472000C4B2032CF6DBF8BDF0B5642590FBF5F5BB
:10473000ECB20A2590FBF5F50A2695FBF6F706FB89
:104740001755EAB20A2590FBF5F605FB1605EBB204
:1047500004F130050D7002F130054D7003F13005A4
:104760008D70F0BD00B587B001210420FEF71AFC62
:104770000120ADF8180000208DF81B0003208DF8F3
:104780001A0006A91D48FCF73FFE01214802FEF76A
:1047900009FC4FF44040FEF7D9FB1948FBF768FFCE
:1047A000002001908DF808008DF809004FF460207A
:1047B00003900020049001208DF8140001A91048F6
:1047C000FBF7A6FF0120FCF73DF801210C48FBF7A1
:1047D00044FF0B48FCF720F800BF0948FBF78DFFAA
:1047E0000028FAD10648FCF727F800BF0448FBF779
:1047F0006DFF0028FAD107B000BD0000000801409D
:104800000024014010B500210548FBF726FF0020D9
:10481000FCF718F800214FF40070FEF7C3FB10BD41
:104820000024014010B5044607230122214609480F
:10483000FBF796FF01210748FBF7F3FF00BF0221BA
:104840000448FBF751FF0028F9D00248FBF748FF66
:1048500010BD0000002401402DE9F04107460C4640
:104860000025002608E03846FFF7DCFF0544052058
:1048700000F0A8F9701CC6B2A642F4DBB5FBF4F058
:1048800080B2BDE8F08110B5002400BFFDF7A7FAA3
:10489000641CFF2802D1B4F57A6FF7DB10BD10B5A8
:1048A000044621460020FCF71BFF10BD10B504464E
:1048B00021464020FCF714FF10BD000070B50446EF
:1048C0000D4604F03F063046FFF7D0FC0348FFF7E3
:1048D0000DFD2846FFF7CAFC70BD000000480040EF
:1048E0000FB4054B10B503A9044A029800F018F85C
:1048F00010BC5DF814FB00005D4C0008480000206F
:1049000002E008C8121F08C1002AFAD17047704798
:10491000002001E001C1121F002AFBD170470000F6
:104920002DE9FF4F8BB09A460F460546002606E05C
:1049300025280BD052460D9990476D1C761C28787F
:104940000028F5D10FB03046BDE8F08F0024A04616
:104950000122604900E0044315F8013F203B02FAC0
:1049600003F00842F7D128782E2817D115F8010F47
:1049700044F004042A280ED06FF02F022878A0F10A
:10498000300109290AD808EB880102EB410100EB4C
:1049900001086D1CF2E757F8048B6D1C2878692814
:1049A0003ED006DC0028CDD063280BD0642804D18B
:1049B00036E0732810D075284BD052460D99904799
:1049C000761C85E017F8040B8DF8000000208DF8A8
:1049D0000100E946012003E057F8049B4FF0FF3047
:1049E00061074FF0000401D40AE0641C44450DDA6D
:1049F0008442FADB19F804100029F6D106E0641CA1
:104A00008442FCDB19F804100029F8D1264404E0A4
:104A100019F8010B52460D999047641EF8D257E0E1
:104A200001CF4FF00A0B002802DA40422D2102E0AC
:104A3000210504D52B218DF82410012103E0E10785
:104A400005D02021F7E70DF1200908910CE00021A5
:104A5000F9E701CF4FF00A0BF9E75946FBF722FDC2
:104A600001F1300209F8012D0028F6D1ADEB090063
:104A700000F1200B600701D44FF00108D84502DD9A
:104A8000A8EB0B0000E000208046002406E009A807
:104A90005246005D0D999047641C761C089884422C
:104AA000F5DB04E0302052460D999047761CB8F1B2
:104AB0000001A8F10108F5DC05E019F8010B5246E8
:104AC0000D999047761CBBF10001ABF1010BF4DCB2
:104AD0006D1C34E70928010000B585B001210420D0
:104AE000FEF760FA2448FFF729FA4FF48060ADF82A
:104AF000100004208DF8130003208DF8120004A983
:104B00001E48FCF781FC4FF40070ADF8100018202F
:104B10008DF8130003208DF8120004A91748FCF744
:104B200073FC01218803FEF73DFA4FF4E130009059
:104B30000020ADF80400ADF80600ADF80800ADF8AF
:104B40000C000C20ADF80A0069460B48FFF7A0FAEC
:104B5000FDF7B0F9012240F225510748FFF773FA3B
:104B6000012240F224410448FFF76DFA0121024876
:104B7000FFF7D8F905B000BD00380140000801403A
:104B800010B56FF00400FEF7F1FE0A4800680A490C
:104B9000B0FBF1F0094908700846007800EB4001CD
:104BA000C1EBC0104FF6FF7101EAC0000449088054
:104BB00010BD00000000002000127A003600002026
:104BC000380000200146114A12884A434FF0E02382
:104BD0005A6100229A611A46126942F001021A6172
:104BE00000BF4FF0E022106900F001021AB100F49A
:104BF0008032002AF5D04FF0E022126922F0010243
:104C00004FF0E0231A6100229A61704738000020BB
:104C10000146114A12784A434FF0E0235A610022BC
:104C20009A611A46126942F001021A6100BF4FF000
:104C3000E022106900F001021AB100F48032002A6B
:104C4000F5D04FF0E022126922F001024FF0E0238C
:104C50001A6100229A6170473600002070B5044640
:104C60000D46E1B20548FFF784FA00BF80210348F2
:104C7000FFF7B2F90028F9D0204670BD0038014096
:104C800088B0FFF77DFFFEF7D3FBFEF799FFFCF737
:104C900027F8FFF721FF00F04BFA4FF40071F748B7
:104CA000FCF788FCFEF7BCF841F61F416320FEF7D5
:104CB000B7FEFDF7F7FEFCF77FFCFDF7BBF96420BC
:104CC000FFF780FFFFF74EFDFFF758FA4FF000099E
:104CD000FCF740FFFDE109F101001FFA80F9BAF18C
:104CE000010F03D14FF0000AFCF734FFE4480078CD
:104CF000814537DBE3480078002833D18146FDF752
:104D00001BFF0123E0A202213020FCF7A3F94FF49E
:104D1000FA70FFF757FFFDF7C9FAFCF71BFFDC48F5
:104D20000078F8B9FDF7A0FCF5281BD1D44890F81D
:104D30000090FCF74FF805463DB900F01BFA012042
:104D4000FFF75AFAFCF754FC0CE00123D1A2022130
:104D50001C20FCF77FF90220FFF74EFA4FF47A701F
:104D6000FFF730FFCE48FFF7DFFA46F26661884270
:104D70007DD1FEF77DFC064640F60201701A8E4298
:104D800022D008DCB6F5827F61D0A6F2013038B1BE
:104D900001286DD12DE0012844D00228F9D16DE021
:104DA0004FF000090520FFF727FA07A8FBF75CFD85
:104DB00028B9BDF81C200321B948FFF70CFB4FF4BC
:104DC0007A70FFF7FFFE6FE04FF000090520FFF754
:104DD00013FAFEF79DFC0790BDF81C00FCF7E4F801
:104DE00018B9AF48FFF74BFB02E0AD48FFF723FBD4
:104DF0005AE04FF000090520FFF7FEF907A8FBF77E
:104E0000A1FE05462DB9BDF81C10A548FFF70CFC06
:104E100003E02946A248FFF7E4FB4FF47A70FFF75E
:104E2000D1FE41E04FF000090520FFF7E5F9FEF75C
:104E30006FFC0790BDF81C00FCF7F6F818B998480D
:104E4000FFF73DFC02E09648FFF715FC2CE04FF021
:104E500000090520FFF7D0F907A8FBF7CBFD0546B1
:104E60003DB9BDF81C108E48FFF74EFB05E01CE075
:104E700019E029468A48FFF724FB15E04FF00009A6
:104E80000520FFF7B9F9FEF743FC0790BDF81C00B9
:104E9000FCF7B2F818B98248FFF781FB02E08048BE
:104EA000FFF759FB00E000BF13E1FDF7DDFBF5283C
:104EB0001CD14FF000094FF0010AFBF78BFF0546AC
:104EC0003DB900F057F90120FFF796F9FCF790FB88
:104ED00008E001236FA202211C20FCF7BBF802208E
:104EE000FFF78AF94FF47A70FFF76CFE06A8FEF719
:104EF0002FF901281CD14FF0000982460698FCF7D3
:104F000021F805463DB900F035F90120FFF774F9A5
:104F1000FCF76EFB08E001235EA202211C20FCF7D7
:104F200099F80220FFF768F94FF47A70FFF74AFE0C
:104F3000FEF722FEFF28B7D04FF000094FF0010A1C
:104F4000002001900520FFF757F9FDF71DF8FCF749
:104F500083FB5449086008460068FBF75BFA074684
:104F6000514A524BFBF76AFA03D20020FDF754F97D
:104F70002CE04C480068FBF74DFA07464C4A4D4B75
:104F8000FBF75CFA03D20120FDF746F91EE0454825
:104F90000068FBF73FFA0746454A474BFBF74EFAD6
:104FA00003D20220FDF738F910E03E480068FBF715
:104FB00031FA07463E4A414BFBF740FA03D2032041
:104FC000FDF72AF902E00420FDF726F900233CA2B0
:104FD00002211820FCF73EF802A8FBF7D9FF75E084
:104FE0006A4601A902A8FFF74BF90446042C07D131
:104FF0000520FFF701F99DF80400FCF7B3FE65E01A
:10500000022C01D0032C05D10520FFF7F5F8FCF7A1
:10501000BBFF5CE0F4B90520FFF7EEF89DF8041043
:1050200002A8FBF7FFFE38B900F0A4F80120FFF753
:10503000E3F8FCF7DDFA08E0012316A202211C20A8
:10504000FCF708F80220FFF7D7F84FF47A70FFF763
:10505000B9FD3CE0012C39D10520FFF7CDF8012343
:105060000CA202211C20FBF7F5FF0220FFF7C4F879
:105070004FF47A70FFF7A6FD29E00000000C014014
:105080002C00002076000020D0DDC3DF00000000EF
:105090002D000020D1E9D6A4CAA7B0DC0000000092
:1050A00000380140280000209A99999999990D405B
:1050B000CDCCCCCCCCCC1040CCCC1240CCCC144001
:1050C000C7EBCAE4C8EBC3DCC2EB000088E700BF53
:1050D00000BF00E670B505460C4621782846FFF76C
:1050E00048F800BF80212846FEF776FF0028F9D057
:1050F00070BD2DE9F04105460C462088060A277848
:1051000031462846FFF735F800BF80212846FEF7D4
:1051100063FF0028F9D039462846FFF72AF800BF78
:1051200080212846FEF758FF0028F9D0BDE8F0811D
:1051300038B501210820FDF735FF4FF40070ADF8B8
:10514000000010208DF8030003208DF8020069464E
:105150000748FCF759F94FF400710548FCF728FAA5
:10516000002400E0641C40F2E7308442FADB38BDE2
:10517000000C014070B5002417E021460020FCF728
:10518000D4FFE60100250CE0062C05DA7119084A67
:10519000505CFFF78BFB02E00020FFF787FB681CE9
:1051A000C5B2802DF0DB601CC4B2082CE5DB70BDFD
:1051B000F66C00080003030601040602050003055F
:1051C0001F1C1F1E1F1E1F1F1E1F1E1F7E42FF8132
:1051D000818181818181818181C1E1F1FF000000B4
:1051E000000000007E42FF81818181818181818177
:1051F00081BDBD81FF000000000000007E42FF81F4
:10520000818181818181BDBD81BDBD81FF000000A3
:10521000000000007E42FF81818181BDBD81BDBD56
:1052200081BDBD81FF000000000000007E42FF81C3
:10523000BDBD81BDBD81BDBD81BDBD81FF00000083
:1052400000000000C7EB4042CC0000445454547F9F
:1052500054545444400000007F201000FF151515E1
:1052600055957F000000CAE488681FC80810C8541C
:1052700052D1129408D01000091909FF0500FF123D
:1052800092FF005F807F0000C8EB0000000000017B
:10529000E21CE000000000000000804020100C0331
:1052A000000000030C3040808000C3DC108C4404FC
:1052B000E40495A64424148444940C0002027A4128
:1052C0004143427E42424243F8000000C2EB048464
:1052D000E45C44C40002F2828282FE80800002010B
:1052E0007F10103F00080808084888403F00D0C7DA
:1052F000000000BE2A2A2AEA2A2A2A3E00000000CC
:10530000004442494949497F4949494941400000CF
:10531000C6DA0004FF242424FF0400FE222222FE19
:10532000000088482F090919AF48300F0242827FD8
:105330000000D2BB808080808080808080808080E0
:1053400080808000000000000000000000000000DD
:1053500000000000B6FE0000080808080808080859
:105360000808080000001010101010101010101085
:10537000101010101000C8FD0004848484848484FC
:105380008484848484040000202020202020202085
:105390002020202020202000CBC400FC040404FC9A
:1053A000040404FC040404FC0000007F28242320DF
:1053B000202020212222227F0000CEE5000242424E
:1053C00042C27E42424242C202020000404040408D
:1053D000784740404040407F40404000C1F9202095
:1053E0002020202021222C202020202020000040CE
:1053F00020100C0300000001020418600000C8D552
:10540000000000FE82828282828282FE0000000012
:10541000000000FF40404040404040FF00000000CE
:10542000C2BC8080829292929292929292FE8080EE
:105430008000404022241048807F04081824224025
:105440004000C8EB000000000001E21CE00000008A
:1054500000000000804020100C03000000030C300E
:1054600040808000B9DC886423A2A6AAA2BAA4A3C3
:10547000A2262AA26200000000FF4A4A4A4A4A4A7B
:105480004BF800000000C0ED048484FC848400FE1E
:105490009292FE9292FE00002060201F1010404465
:1054A00044447F4444444000D4B10000C05E5252A2
:1054B00052525252525EC000000080808F40402005
:1054C000100E101020204F800000D6B8101010FFD2
:1054D0001090003F48484444444270000444827F96
:1054E000010000FF4949494949FF0000CEC620306C
:1054F000AC63100808F8090E08F8080800002267D5
:105500002212928040211608162140808000BBF2B2
:105510000808C8484848C80808FF080809CA080019
:105520000020672424149790402116182641F80083
:10553000D6CA0000FE121292929292FF919191911E
:10554000100080601F80805F4020100E1010205FD0
:105550008000C1BF202020BEAAAAAAAAAAAAAABEC9
:1055600020202000008080AFAAAAAAFFAAAAAAAF82
:1055700080800000B2EE000424242526E43C24268A
:1055800025242404000041211189858B8989F9890A
:10559000898989810100D6D8101014D4545454FC40
:1055A000525252D312101000404050575555557F5B
:1055B0005555555750404000D0C240445465C664CC
:1055C000544400FC4444C442400020124A827F02FA
:1055D0000A92601F0000FF000000D2D10000E282AA
:1055E00082828282828282FE0000000000003F40B0
:1055F000404040404040404040780000B4E6040451
:1056000084E41C0724242424A46424040400020148
:1056100000FF00020242827F020202020200D4DA8C
:10562000080888C8380C0B0808E8080808080800AB
:10563000020100FF40414141417F41414141400061
:10564000B3C90000F8888888880808FF08090AC8D4
:10565000080080601F0010201F804021161826417E
:10566000F800B9A6080808F80808081010FF10107C
:1056700010F000001030101F088848300E014080E4
:10568000403F0000B3AC40484848FF484842A29E13
:1056900082A2C2BE000080601F207F4444404F4869
:1056A0004848484F4000CAB100FC848484FC001084
:1056B00010101010FF101000003F1010103F0000DD
:1056C000010640807F000000CCAB2020202020205D
:1056D00020FF202020202020200080804020100C4F
:1056E0001360030C102040808000B3A48080808071
:1056F000FF8080A09088848280808000000000006D
:10570000FF4021120408102020404000B0B41010C7
:1057100010FF9020988888E98E8888A89800024217
:10572000817F000080844B28102847800000D6B875
:10573000101010FF1090003F48484444444270004D
:105740000444827F010000FF4949494949FF0000A4
:10575000B2C90000041464040CB402024233020013
:10576000000040412111090503FF030509112141F2
:105770004000BCAF201008FC57545455FE545454FC
:105780005404000044442427150D05FF050D15257C
:1057900025454400CAD600002424242424FC2222C7
:1057A000222322000000020202020242827F020241
:1057B000020202020200CAA70040301E101010FFB1
:1057C000101010101000000081814121110D030103
:1057D000030D112141818100B0DC00FE02FA02FEBE
:1057E0004020D8171010F01010008047300F1067BD
:1057F00080402116081621408000D1E902FA8282F9
:10580000FE804020504C434C5020400008184884F3
:10581000443F404458414E6058474000D6A4404061
:1058200042CC000004C40404FC040404040000008E
:10583000003F1048407F40407F4141414000C9E85F
:10584000404042CC0040A09E8282829EA020200048
:105850000000003F908840432C1028464180800083
:10586000D6C3001715D55557557D555755D515171E
:1058700000004040407F555555555555557F404097
:105880004000C6D540445464457E4444447E45644B
:1058900054444000000000FF49494949494949FF33
:1058A00000000000CDA84042CC0000E2222A2AF2EB
:1058B0002A2622E0000080403F4080FF898989BF7E
:1058C00089A9C9BF8000D3C30000FE22222222FE84
:1058D00022222222FE00000080601F020202027FBC
:1058E000020242827F000000BBA7000000F8080807
:1058F000090E08080808F80000000080601F010178
:1059000001010101010103000000CFB500002232B6
:105910002AA6A2622111098101000000004222137F
:105920000B42827E02020A1223460000CDB32030D1
:10593000AC63300088C8A8998E88A8C88800226700
:105940002212128040300F00003F40407100B8BD6D
:1059500000FE0222DA4620F807901010FF10100017
:1059600000FF0810080700FF000043807F000000D0
:10597000BCD3101010FF1010F00000F8080808F851
:1059800000008040300F40807F00007F2020207F7B
:105990000000D0DE4020F807F0A0904C5724A4541B
:1059A0004C8080000000FF001F8092524929241281
:1059B00008000000B8C40484848484FC4030CC0B0C
:1059C0000808F8080800007F201010088040211601
:1059D000081621408000C9BE80FE8282FE80FE82C1
:1059E00082FE8000F800FF00403F0020BF403F40A3
:1059F000807F00004F807F00B3FD00FE225A86208A
:105A0000102824E324281020200000FF0408271178
:105A10000D41817F010509310000B1E02030AC6308
:105A20003000FC2425262424243C00002267221276
:105A3000523807FF097F093F89FF0000BAC58080FF
:105A400080BEA2A2A2A2A2A2A2BE8080800000006C
:105A50000006050404044484443C00000000B8B47B
:105A6000201008F754545454545454F404040000BF
:105A7000809090494D57252525554D4580808000C3
:105A8000BCCC2030AC631000FE485040FF40504872
:105A900000002267221212007F4442417F414244AB
:105AA0004000D0F82030AC6320182024A4243FA468
:105AB00024A46000226722121212888A4C29180F2F
:105AC0001828C800B7B5404042CC0000FC24A424EC
:105AD0002222A36200000040201F20584750484562
