:020000040800F2
:10000000B808002001010008D523000835180008B1
:10001000D1230008B50D0008634D00080000000062
:10002000000000000000000000000000E3420008A3
:10003000F1100008000000002D30000811440008F5
:100040001B0100081B0100081B010008113E0008ED
:100050001B0100081B010008A51200081B01000875
:100060001B0100081B0100081B0100081B01000800
:100070001B0100081B0100081B0100081B010008F0
:100080001B0100081B0100081B0100081B010008E0
:100090001B0100081B0100081B0100085513000884
:1000A0001B0100081B0100081B0100081B010008C0
:1000B0001B010008754400081B0100081B01000813
:1000C0001B0100081B0100081B0100081B010008A0
:1000D0001B010008B14800080D49000871490008DB
:1000E000F91200081B0100081B010008DFF80CD002
:1000F00000F082FA0048004791580008B808002034
:100100000648804706480047FEE7FEE7FEE7FEE7B1
:10011000FEE7FEE7FEE7FEE7FEE7FEE71544000820
:10012000ED000008F0B480EA0102D40F4200B2EB07
:10013000410F02D20246084611464A0042D0C30D82
:10014000DDB2C1F3C752AD1A202D35DAC1F3160165
:1001500041F4000204B15242C5F1200602FA06F150
:100160002A411044B3EBD05F23D0C4B1012DA0EBE2
:10017000C35009DCF0BC4FF0004202EAC352DBB2CC
:1001800000F5000000F0ADB9400000F1807000EB18
:10019000C350A0F1807040EAD170490009E04908DD
:1001A00041EAC071A0EBC35000F50000400800EB2D
:1001B000C350F0BC00F08CB96142012202EB410156
:1001C000001BF6E7F0BC704781F00041AAE780F021
:1001D0000040A7E780EA010210B502F000434000AA
:1001E00022D04A001FD0010E01EB1261C0F356006D
:1001F000C2F3560240F4000042F40002A0FB0220C9
:1002000000047F39140400D0401C50EA124001D48D
:100210004000491EC2B20C0604EBD010401C40083E
:10022000802A02D003E0002010BD20F00100002948
:1002300000DA0020184310BD2DE9FE4F81EA0304C7
:1002400004F0004421F0004100944FF0000B23F033
:10025000004350EA01045ED052EA03045BD0C3F3CA
:100260000A54C1F30A552C44A4F2F3340194A0FBC0
:100270000254C1F3130141F48011C3F3130343F497
:10028000801301FB024400FB034E840A970A44EAF0
:10029000815447EA8357A4FB076802958D0A05FB42
:1002A00007854FEA932C04FB0C542705029D4FEA67
:1002B000065847EA1637B5EB08056EEB070C870EB4
:1002C000920E47EA811742EA8312A7FB0201B6EBBE
:1002D0000B0164EB00042B0D43EA0C335E1844EB76
:1002E0001C50DA465146E7FB0201C5F313044FEAFE
:1002F0000B3343EA14534FEA0432019C43EA0603EA
:10030000A4F10C040294009CCDE900B400F026F99D
:1003100003B0BDE8F08F00200146F9E72DE9F04D6C
:1003200081EA030404F0004B21F0004514464FF02D
:10033000000A23F0004150EA050220D054EA0102ED
:100340001DD0C5F30A570246C5F31303C1F31300CA
:10035000C1F30A5640F4801543F48013A7EB060856
:10036000101BD64608F2FD3873EB050002D308F1E6
:10037000010801E092185B41B8F1000F03DA002098
:100380000146BDE8F08D00204FF4801106468446FA
:100390000EE0171B73EB050705D3121B63EB050378
:1003A00006434CEA010C49084FEA300092185B41C1
:1003B00050EA0107EDD152EA030012D082EA0400AC
:1003C00083EA0501084305D0101BAB4106D2012288
:1003D000002306E000224FF0004302E06FF001022C
:1003E00053101AEB06004CEB085110EB0A0041EBDE
:1003F0000B01BDE8F04D00F0A2B80EB540F233415C
:1004000002910021CDE900110A460B4600F0A6F842
:1004100003B000BD00F0004230F000400AD0C10D32
:1004200001F56071C0F3160042EA0151C2084007AD
:1004300011437047002001467047000030B5041E8C
:1004400071F1000404DB4FF00044404264EB010111
:10045000141E73F1000405DB1C464FF000435242AA
:1004600063EB04038B4208BF824230BD01F00043BE
:1004700030B421F0004150EA010206D00A0DA2F585
:100480006072C1F31301002A02DC30BC0020704707
:10049000440F44EAC104C100E01830BC00EBC25074
:1004A00000F016B830B50B4601460020202201248A
:1004B00009E021FA02F59D4205D303FA02F5491B32
:1004C00004FA02F52844151EA2F10102F1DC30BD48
:1004D0000029A8BF7047401C490008BF20F0010058
:1004E000704710B4B0FA80FC00FA0CF050EA010436
:1004F00004BF10BC704749B1CCF1200421FA04F4C8
:1005000011FA0CF118BF012121430843A3EB0C01A0
:10051000CB1D4FEA00614FEA102042BF002010BC03
:10052000704700EBC35010440029A4BF10BC7047B3
:10053000401C490008BF20F0010010BC704710B5F6
:10054000141E73F1000408DA401C41F100019218F6
:100550005B411A4301D120F0010010BD2DE9F04D9F
:1005600092469B4611B1B1FA81F202E0B0FA80F2F4
:100570002032904600F052F804460F4640EA0A0046
:1005800041EA0B0153465A46084313D0114653EA39
:10059000010019D0C8F14002504600F04EF805465F
:1005A0000E4650465946424600F038F8084305D0FA
:1005B000012004E020463946BDE8F08D00200543C7
:1005C00046EAE0762C4337430A986305E40AA0EB39
:1005D00008000022FD0A44EA47540A3002D50020F0
:1005E0000146E9E7010510196941DDE908450019EF
:1005F0006941BDE8F04DA2E7064C074D06E0E06812
:1006000040F0010394E8070098471034AC42F6D359
:10061000FFF770FD3C8500085C850008202A04DB9C
:10062000203A00FA02F1002070479140C2F1200305
:1006300020FA03F3194390407047202A04DB203A44
:1006400021FA02F00021704721FA02F3D040C2F1F2
:100650002002914008431946704721B1826842F058
:100660000102826003E0826822F00102826070472A
:1006700010B504461248844208D10121401503F008
:10068000D7F90021601503F0D3F917E00D48844233
:1006900008D10121001503F0CBF90021201503F04A
:1006A000C7F90BE00848844208D10121C80303F0D0
:1006B000BFF900214FF4004003F0BAF910BD00006B
:1006C0000024014000280140003C01400146002078
:1006D0008A6802F004020AB1012000E0002070479D
:1006E0000146C86C80B270470246002013680B4078
:1006F0000BB1012000E000207047014600208A680D
:1007000002F008020AB1012000E00020704700005A
:1007100030B502460020002350680F4C20400D7970
:100720000C6844EA05242043506090680B4C20403C
:10073000D1E902542C434D7944EA450420439060AA
:10074000D06A20F470000C7C641EE4B2234340EABB
:100750000350D06230BD0000FFFEF0FFFDF7F1FF57
:10076000F0B504460D4600200021092D11DDE0689A
:10077000A5F10A0606EB4607072606FA07F18843A5
:10078000A5F10A0606EB460603FA06F10843E06007
:100790000CE0206905EB4507072606FA07F18843B8
:1007A00005EB450603FA06F108432061072A0FDA34
:1007B000606B561E06EB86071F2606FA07F1884374
:1007C000561E06EB860605FA06F10843606322E032
:1007D0000D2A0FDA206BD61F06EB86071F2606FAB6
:1007E00007F18843D61F06EB860605FA06F1084393
:1007F000206310E0E06AA2F10D0606EB86071F26D3
:1008000006FA07F18843A2F10D0606EB860605FA03
:1008100006F10843E062F0BD816841F008018160A3
:10082000704721B1826842F4A002826003E08268CE
:1008300022F4A00282607047816841F00401816067
:100840007047000030B10749096841F40001054ACA
:10085000116005E00349096821F40001014A1160B3
:1008600070470000082401402DE9FF4106460022A0
:1008700011465E4804F0EDFA00253BE042F21070AC
:1008800002F0CEFFF2280AD14FF4A062691C57484B
:1008900004F0BCFA4FF4A06004B0BDE8F081280277
:1008A00002F05AFC0446F02C03D0F12C01D0262C87
:1008B00008D14FF4A062691C4C4804F0A7FA4FF429
:1008C000A060E9E7192C08D14FF44072691C474831
:1008D00004F09CFA4FF44070DEE7022D04DA0022A7
:1008E000691C424804F0B5FA4FF47A7004F0CAFE6D
:1008F000681CC5B2032DC1DB02F0CAFC0446F02C13
:1009000007D0F12C05D0262C03D0252C01D01A2C91
:1009100008D14FF440720321344804F077FA4FF4C1
:100920004070B9E703A802F063FC0446F02C03D042
:10093000F12C01D0222C08D14FF4A06203212B48C6
:1009400004F064FA4FF4A060A6E79DF80C100802CA
:1009500002F04AFD0446F02C05D0F12C03D01D2CEA
:1009600001D0262C08D14FF4A06203211F4804F0C7
:100970004DFA4FF4A0608FE7182C08D14FF4806235
:1009800003211A4804F042FA4FF4806084E70025FE
:100990001FE0174800EBC507012202A9384603F003
:1009A0000BFCBDF808004FF6FF7188420FD1ADF87F
:1009B00000500120ADF802009DF80C0001900422C7
:1009C0006946384603F006FC3580002064E7681C61
:1009D00085B2B5F57A7FDCDB4FF4A06203210348D2
:1009E00004F014FA4FF4A06056E70000003801400C
:1009F0005EF000082DE9F04389B007464F4890F8B3
:100A000005900024007B303840F63541484304EB24
:100A100040144A48407B303840F27121484304EB8F
:100A200000144648807B303800EB4001C1EBC01019
:100A300004EBC0044148C07B303800EBC00101EB3F
:100A4000001004EB80043D48007C303800EB80004F
:100A500004EB40043948407C30380444B9F1120FAB
:100A600001D1012505E0B9F12A0F01D1022500E0ED
:100A7000032500265CE006EB8600314901EB800887
:100A80000A2208A9404603F097FBBDF820004FF664
:100A9000FF7188424AD13E80ADF80060ADF8025047
:100AA0000194012D04D0022D08D0032D38D126E069
:100AB00004226946404603F08DFB32E005A803F0AE
:100AC00021FBBDF81400ADF80800BDF81600ADF824
:100AD0000A00BDF81800ADF80C00BDF81A00ADF81A
:100AE0000E00BDF81C00ADF81000BDF81E00ADF8FA
:100AF00012000A226946404603F06CFB11E005A88B
:100B000003F000FBBDF81400ADF80800BDF81600B6
:100B1000ADF80A0006226946404603F05BFB00E0A0
:100B200000BF00BF002009B0BDE8F083701C86B292
:100B3000B6F5FA7F9FDB4FF40060F4E75000002029
:100B40004CC900082DE9FF41054603A800F085FEC9
:100B50000746012F53D100241CE02A4800EBC406AD
:100B600004226946304603F027FBBDF800004FF62B
:100B7000FF7188420CD0BDF80200022808D1039909
:100B80000198884204D14FF4806004B0BDE8F08140
:100B9000601C84B2B4F57A7FDFDB002429E01948B9
:100BA00000EBC406012202A9304603F005FBBDF8A4
:100BB00008004FF6FF7188420ED1ADF800400220C8
:100BC000ADF802000398019004226946304603F014
:100BD00001FB2C800020D8E7BDF80200022806D1D6
:100BE00003990198884202D14FF4A060CDE7601CC0
:100BF00084B2B4F57A7FD2DB4FF4A060C5E74FF43E
:100C0000A060C2E75EF0000830B5014608783038D1
:100C1000C4B248783038C2B288783038C3B2642061
:100C2000604302EB820500EB4500184480B230BD02
:100C300010B5012002F00CFF002002F009FF10BDEA
:100C400008B5014600200090034800900098084431
:100C500000900098008808BD006C004008B5002294
:100C60000092044A0092009A02440092009A116095
:100C700008BD0000006C004010B505A004F090FB1A
:100C80004FF4FA6004F0FEFC04A004F089FB10BDF0
:100C900041542B444953430D0A00000041542B5347
:100CA0004C454550320D0A0010B54FF480510B48A9
:100CB00000F02AFD4FF48051084800F023FD642025
:100CC00004F0E0FC4FF48051044800F01DFD4FF4A7
:100CD0000061024800F018FD10BD0000000801404E
:100CE0001FB501210C2002F093FE10208DF80F009B
:100CF00003208DF80E004FF40060ADF80C001020BA
:100D00008DF80F0003208DF80E0003A9274800F08E
:100D100025FC4FF48050ADF80C0010208DF80F002A
:100D200003208DF80E0003A9204800F017FC4FF4B3
:100D30008070ADF80C0004208DF80F0003208DF8B2
:100D40000E0003A91A4800F009FC0121084602F030
:100D50005FFE0821012000F0E1FB4FF4807001905C
:100D600000208DF8080008208DF8090001208DF87A
:100D70000A0001A800F0FAFA17208DF800000220FE
:100D80008DF8010005208DF8020001208DF8030088
:100D9000684601F049FB4FF40061044800F0B4FCE0
:100DA0004FF48051014800F0AFFC1FBD0008014026
:100DB000000C014000BFFEE770B505460C46284612
:100DC00003F082F9064626EA0401284604F0D6FA22
:100DD00070BD00002DE9FC47002500260027A8462D
:100DE000A94600243248007B303800EB4001C1EBBB
:100DF000C01004EBC0042E48407B303800EBC0012B
:100E000001EB001004EB80042948807B303800EBB4
:100E1000800004EB40042648C07B3038204484B274
:100E20002348007C303800EB800005EB400520486B
:100E3000407C30382844C5B21D48807C303800EBF7
:100E4000800006EB40061A48C07C30383044C6B2F9
:100E50001748007D303800EB800007EB400714484E
:100E6000407D30383844C7B21148807D303800EBBF
:100E7000800008EB40080E48C07D3038404400F048
:100E8000FF080B48007E303800EB800009EB40097A
:100E90000748407E3038484400F0FF093B46324660
:100EA00029462046CDE9008903F070F8BDE8FC87AB
:100EB0005000002070B503460024002007E01D5CB0
:100EC0000E5CB54201D1651CECB2451CE8B2904203
:100ED000F5DB944201D1002070BD4FF40060FBE7C8
:100EE0003EB502A802F086FBE8B9002414E00F48E2
:100EF00000EBC40504226946284603F05DF99DF81D
:100F000008100198884205D1BDF80200012801D1DE
:100F100000203EBD601C84B240F2E7308442E6DB34
:100F20004FF40060F5E74FF40060F2E75EF0000870
:100F30002DE9F04104460E460027062E22D12078E6
:100F40002B494843617840F27122514300EB011074
:100F5000A17801EB4102C2EBC11100EBC100E178C5
:100F600001EBC10202EB011100EB8100217901EBE1
:100F7000810100EB410061794718384600F03AF8EA
:100F8000BDE8F08100252DE0605D19494843691CEA
:100F9000615C40F27122514300EB0111A81C205CFE
:100FA00000EB4002C2EBC01001EBC001E81C205C6A
:100FB00000EBC00202EB001001EB8001281D205C59
:100FC00000EB800001EB4001681D205C0F183846E3
:100FD00000F010F88046B8F1000F01D14046CFE78D
:100FE000681CC5B2B01FA842CEDA4FF40060C7E754
:100FF000A086010070B586B0054600241FE004EB12
:101000008400124901EB80060A2201A9304603F050
:10101000D3F8BDF804004FF6FF71884201D00120DB
:1010200000E000200299A94201D1012100E0002145
:10103000084010B1002006B070BD601C84B2B4F549
:10104000FA7FDCDB4FF40060F5E700004CC90008D4
:1010500010B586B004466A4602A904A801F02EFC29
:101060000822214604A8FFF725FF58B1082221468F
:1010700002A8FFF71FFF28B1082221466846FFF7A4
:1010800019FF10B9002006B010BD4FF40060FAE758
:101090007CB50546002418E00F4800EBC406042286
:1010A0006946304603F088F8BDF800004FF6FF713E
:1010B000884208D0BDF80200022804D10198A84255
:1010C00001D100207CBD601C84B2B4F57A7FE3DBE3
:1010D0004FF40060F6E700005EF0000801460020D3
:1010E00003E020220A54421CD0B21028F9DB7047DA
:1010F000704700003EB504464FF6FF70029010485E
:1011000000EBC40504226946284603F055F8B4F5FF
:101110007A7F12DABDF80000A0420ED1012202A9A6
:10112000284603F057F80199C8B201F081FF08B9C9
:1011300000203EBD4FF40060FBE74FF40060F8E78D
:101140005EF0000838B504464FF6FF700090B4F525
:10115000FA7F0ADA04EB8401054A02EB81000122DE
:10116000694603F037F8002038BD4FF40060FBE714
:101170004CC9000838B504464FF6FF700090B4F52E
:101180007A7F08DA054901EBC4000122694603F0C1
:1011900021F8002038BD4FF40060FBE75EF0000846
:1011A0002DE9F84F06460F46904699464446354687
:1011B000BA46B9F1000F01D001F0B4F91BE0207874
:1011C00080280CDA01200090637822785146284666
:1011D00001F08CFA05F10800C5B2641C0BE0002098
:1011E0000090637822785146284601F07FFA05F195
:1011F0001000C5B2A41C20780028E0D1BDE8F88F0B
:101200002DE9F84F06460F46904699464446354626
:10121000BA46B9F1000F23D05146002001F053FA2D
:101220004FF0000B06E0002004F0A0F80BF10100E5
:1012300000F0FF0BBBF1800FF5DB0AF10100C1B23A
:10124000002001F040FA4FF0000B06E0002004F00F
:101250008DF80BF1010000F0FF0BBBF1800FF5DB07
:101260001BE0207880280CDA012000906378227837
:101270005146284601F03AFA05F10800C5B2641C4F
:101280000BE000200090637822785146284601F058
:101290002DFA05F11000C5B2A41C20780028E0D179
:1012A000BDE8F88F10B511480078D0B103F0B2F85E
:1012B00004F076FA00200D4908700D49087003F01B
:1012C000B1FF01F0F5F94FF400710A4800F01CFA83
:1012D000552003F009FD02F0D9FA03F08DFAFFF76B
:1012E000E3FC012000F03CF810BD00003A000020B3
:1012F0002D000020000C014010B513480078E8B123
:1013000003F088F804F04CFA00200F49087001201F
:101310000E49087003F086FF02F04CF901F0C8F99D
:101320004FF400710A4800F0EFF9552003F0DCFC9F
:1013300002F0ACFA03F060FAFFF7B6FC4FF480401D
:1013400000F00EF810BD00003A0000202D00002033
:10135000000C014010B54FF4807000F001F810BD92
:10136000014908607047000014040140002123492E
:101370008279002A3AD00A46126803689A430B46DB
:101380001A600A1D126803689A430B1D1A600279DD
:1013900011440A6803681A430A60184A083212683E
:1013A00003689A43154B08331A601A1D12680368C4
:1013B0009A43124B0C331A604279102A0ED11A1F2D
:1013C000126803681A430D4B08331A601A1D12681D
:1013D00003681A43094B0C331A600DE00749427940
:1013E00011440A6803681A430A6005E0027911444F
:1013F0000A6803689A430A607047000000040140CD
:1014000030B5054604244FF4302000F073F804464C
:10141000042C19D10D48006940F002000B49086105
:1014200008464561006940F0400008614FF43020F3
:1014300000F060F80446052C06D00448006941F627
:10144000FD71084001490861204630BD002002407E
:1014500004200B49C96801F0010109B101200EE027
:101460000749C96801F0040109B1022007E00449F5
:10147000C96801F0100109B1032000E004207047A1
:10148000002002400348006940F0800001490861E3
:10149000704700000020024070B505460E46042447
:1014A000E00200F027F80446042C13D10A48006932
:1014B00040F00100084908612E80E00200F01AF8AF
:1014C0000446052C06D00448006941F6FE71084028
:1014D00001490861204670BD0020024002480349CE
:1014E0004860034848607047230167450020024078
:1014F000AB89EFCD00B502460423FFF7A9FF0346F1
:1015000003E0FFF7A5FF0346521E012B01D1002A7D
:10151000F7D102B90523184600BD000030B50022FE
:101520008B071C0F0F2303FA04F20B4B8C1053F89C
:1015300024309343084C8D1044F8253023468C10FA
:1015400053F824308C07240F00FA04F42343024C90
:101550008D1044F8253030BD080001402DE9F041E0
:10156000024600250026002000230024002791F8D1
:1015700003C00CF00F0591F803C00CF0100CBCF187
:10158000000F03D091F802C04CEA050591F800C0A5
:10159000BCF1000F31D0146800202BE04FF0010C9B
:1015A0000CFA00F3B1F800C00CEA03069E4220D109
:1015B00083004FF00F0C0CFA03F7BC4305FA03FC51
:1015C0004CEA040491F803C0BCF1280F06D14FF097
:1015D000010C0CFA00FCC2F814C00AE091F803C038
:1015E000BCF1480F05D14FF0010C0CFA00FCC2F819
:1015F00010C0401C0828D1D31460B1F800C0BCF161
:10160000FF0F34DD546800202EE000F1080C4FF08D
:10161000010808FA0CF3B1F800C00CEA03069E4278
:1016200021D183004FF00F0C0CFA03F7BC4305FAED
:1016300003FC4CEA040491F803C0BCF1280F05D167
:1016400000F1080C08FA0CF8C2F8148091F803C0F5
:10165000BCF1480F07D100F1080C4FF0010808FA5F
:101660000CF8C2F81080401C0828CED35460BDE8A6
:10167000F0810000F0B50A46002300240021002577
:1016800000F00046B6F1004F02D11D4EF16901E0B5
:101690001B4E7168C0F3034583B200F44016B6F5E3
:1016A000401F08D121F07061154E766826F07066F3
:1016B000134F7E6012E000F48016B6F5801F06D14D
:1016C000032606FA05F4A14341F0706106E0460DD9
:1016D000360103FA06F6B14341F0706122B1460DBE
:1016E000360103FA06F6314300F00046B6F1004F2A
:1016F00002D1034EF16101E0014E7160F0BD0000C6
:1017000000000140416170470161704708B5012147
:10171000082002F07DF94020ADF8000010208DF87F
:10172000030003208DF8020069460548FFF716FF05
:101730008020ADF8000069460148FFF70FFF08BDA3
:10174000000C014010B580211848FFF7DDFF402153
:101750001648FFF7D7FF00F0C5FC4FF4C27003F046
:1017600091FF40211148FFF7CDFF80210F48FFF77F
:10177000C9FF4FF47A7003F085FF4FF47A7003F0DD
:1017800081FF40210948FFF7BFFF80210748FFF78D
:10179000B9FF4FF4FA7003F075FF40210348FFF7DB
:1017A000B1FF80210148FFF7ADFF10BD000C0140E3
:1017B0002DE9F04F85B01421112003F0ADFD8346D3
:1017C0001421002003F0A8FD04900498FEF715FEF4
:1017D000804689465846FEF710FE02460B46CDE984
:1017E00000014FF033301049FEF798FD42464B465A
:1017F000CDE90201FEF720FD064600224FF08043AE
:10180000FEF71AFD0446FEF731FE824651460748B0
:10181000FEF7E0FC04460649FEF7D6FC8246504639
:1018200005B0BDE8F08F00003333F33F2A3ACA3FDA
:1018300041F1EB3F00BFFEE770B505460C4600F0F6
:101840005DF9782000F0F8F8284600F0F5F8204619
:1018500000F0F2F800F09EF970BDF8B504460020E3
:101860002060002700260BE06946522001F072FB41
:101870000546262D00D104E0761C962E00DD00E002
:10188000F2E700BF262D13D1684601F091FA262811
:101890000ED101F07AFA0127002007E01DF80010B0
:1018A000226841EA02212160411CC8B20428F5DB0C
:1018B0003846F8BD10B500200F4908600F48006891
:1018C00020F470200D4908600846006840F440305C
:1018D000086000200A49C1F8B001052003F0F8FEB5
:1018E000012005490860052003F0F2FE00200449AC
:1018F000C1F8B40110BD0000B4812142040C0140C4
:101900000080214210B500200F4908600F48006890
:1019100020F470200D4908600846006840F440300B
:10192000086001200A49C1F8B001052003F0D0FE8B
:10193000012005490860052003F0CAFE0020044983
:10194000C1F8B40110BD0000B4812142040C014073
:101950000080214270B5054600241748006820F435
:101960007020154908600846006840F400200860AF
:10197000002616E0002011490860052003F0A8FEAB
:1019800001200F49C1F8B4016006040E0B488438E9
:10199000006808B1601CC4B2012003F099FE701CFD
:1019A000C6B2082EE6DB15B9FFF7ACFF01E0FFF782
:1019B00081FF204670BD0000040C0140B48121422B
:1019C0000080214270B504461848006820F4702059
:1019D000164908600846006840F44030086000205E
:1019E0001349086000251EE0E00920B101201049DC
:1019F000091F086003E000200D49091F0860600608
:101A0000040E052003F064FE01200949086005204A
:101A100003F05EFE00200749C1F8B401052003F081
:101A200057FE681CC5B2082DDEDB70BD040C0140FA
:101A3000B48121420080214270B5044618480068F4
:101A400020F07040164908600846006840F0405099
:101A5000086000201349086000251CE0E00918B167
:101A600001201149086002E000200F49086060066B
:101A7000040E022003F02CFE01200A490860022017
:101A800003F026FE00200949C1F88C01022003F072
:101A90001FFE681CC5B2082DE0DB00F0D5F870BD54
:101AA000040801408C812142BC0121420080214276
:101AB00010B50F48006820F470200D4908600846F2
:101AC000006840F44030086001200A4908600A4973
:101AD000C1F8B401052003F0FBFD002005490860B2
:101AE000052003F0F5FD00200349C1F8B40110BD45
:101AF000040C0140B08121420080214210B50F4802
:101B0000006820F070400D4908600846006840F009
:101B10004050086001200A4908600A49C1F88C0158
:101B2000042003F0D5FD002005490860042003F0DF
:101B3000CFFD00200349C1F88C0110BD040801400D
:101B4000BC0121420080214210B50F48006820F4FA
:101B500070200D4908600846006840F44030086075
:101B600000200A4908600A49C1F8B001052003F0C5
:101B7000AFFD0120054908600549C1F8B001052005
:101B800003F0A6FD10BD0000040C0140B481214209
:101B90000080214210B50F48006820F070400D49C8
:101BA00008600846006840F04050086000200A497C
:101BB00008600A49C1F8BC01042003F089FD012036
:101BC000054908600549C1F8BC01042003F080FD07
:101BD00010BD0000040801408C8121420000214218
:101BE00010B500241548006820F4702013490860DF
:101BF0000846006840F40020086001201049086091
:101C0000052003F065FD01200E49C1F8B40105204F
:101C100003F05EFD07E0601CC4B2FA2C03DDFFF7A1
:101C200093FF012010BD0648803800680028F2D1DB
:101C30000349091D086000BFF4E70000040C0140DF
:101C4000B08121420080214210B500241348006871
:101C500020F07040114908600846006840F00040DC
:101C6000086001200E49086003F032FD01200D4993
:101C7000C1F88C0103F02CFD07E0601CC4B2FA2C03
:101C800003DDFFF787FF012010BD0548803800689D
:101C90000028F2D10449086000BFF5E704080140BC
:101CA000BC012142008021428C81214210B515A047
:101CB00003F076FB0A2003F0E5FC154800780128C4
:101CC00004D1002012490870124908700524002030
:101CD00015E0022807D0052805D0082803D00B28D6
:101CE00001D00E2803D13A210B4A115405E00B49CB
:101CF000095D094A1154611CCCB2411CC8B21128BB
:101D0000E7DB10BD41542B4D41430D0A000000009C
:101D100035000020340000207A0000205000002010
:101D200010B51F4A90FBF2F20A701E4A90FBF2F2C5
:101D30000A2392FBF3F403FB14224A701A4A90FB25
:101D4000F2F292FBF3F403FB14228A7042F2107257
:101D500090FBF2F292FBF3F403FB1422CA704FF4EF
:101D60007A7290FBF2F292FBF3F403FB14220A71F5
:101D7000642290FBF2F292FBF3F403FB14224A710B
:101D80000A2290FBF2F292FBF3F403FB14228A7115
:101D90000A2290FBF2F302FB1302CA7110BD00008D
:101DA0008096980040420F00A08601003EB500F0EA
:101DB000B9FBFFF7FDFC7349086008460068FEF7B1
:101DC00029FB0446704A714BFEF738FB03D2002012
:101DD00000F0F0FC2CE06B480068FEF71BFB0446AB
:101DE0006B4A6C4BFEF72AFB03D2012000F0E2FCA9
:101DF0001EE064480068FEF70DFB0446644A664B2B
:101E0000FEF71CFB03D2022000F0D4FC10E05D487A
:101E10000068FEF7FFFA04465D4A604BFEF70EFBD2
:101E200003D2032000F0C6FC02E0042000F0C2FC54
:101E300054480068FEF7EEFA0446554A554BFEF743
:101E4000FDFA06D8002356A202211720FFF7A8F9B1
:101E500097E0002355A202212020FFF7A1F9564860
:101E600080884FF47A7190FBF1F03030C0B28DF879
:101E7000000051488088642190FBF1F00A2190FB1A
:101E8000F1F201FB12003030C0B28DF801004A4877
:101E9000808890FBF1F090FBF1F201FB12003030F2
:101EA000C0B28DF802004448808890FBF1F201FB3B
:101EB00012003030C0B28DF803002D208DF80400E0
:101EC0003D48807990FBF1F03030C0B28DF80500CC
:101ED0003948807990FBF1F201FB12003030C0B23A
:101EE0008DF806002D208DF807003348C07990FB4F
:101EF000F1F03030C0B28DF808002F48C07990FB67
:101F0000F1F201FB12003030C0B28DF80900002060
:101F10008DF80A0000236A4604211720FFF770F9A4
:101F2000254800780A2190FBF1F03030C0B28DF8DE
:101F300000002148007890FBF1F201FB12003030E4
:101F4000C0B28DF801003A208DF802001A4840789E
:101F500090FBF1F03030C0B28DF8030016484078A5
:101F600090FBF1F201FB12003030C0B28DF804009A
:101F700000208DF8050000236A4606212B20FFF77C
:101F80003FF93EBD280000209A99999999990D40F2
:101F9000CDCCCCCCCCCC1040CCCC1240CCCC144052
:101FA000C7EBB8FCBBBBB5E7B3D80000BBB6D3AD3D
:101FB000CAB9D3C300000000AC00002010B586B041
:101FC0000446102C00DD102400200AE0A04203DAB1
:101FD0002A2101AA115402E0202101AA1154411C16
:101FE000C8B21028F2DB00208DF81400002301AAEB
:101FF00004211846FFF704F906B010BD0146CA17C0
:1020000001EB92729210A1EB820292B9642091FBD3
:10201000F0F200FB121050B94FF4C87091FBF0F2CF
:1020200000FB121008B9012070470020FCE70120D6
:10203000FAE70020F8E770B502F0DCFA0446FF2C5E
:1020400000D170BD002503E06D1CC82D00D103E058
:1020500002F0D0FAFF28F7D100BF0C2C1FD2DFE826
:1020600004F01A140E080A101606120C181C002090
:10207000E7E70120E5E70220E3E70320E1E70420AA
:10208000DFE70520DDE70620DBE70720D9E70820AA
:10209000D7E70920D5E70A20D3E70B20D1E7642052
:1020A000CFE770B5012417E0002511E06D1C03F0A7
:1020B000B3FB204603F00CFB03F072FBC4F13200CB
:1020C00003F006FB6000C0F16400A84200DC00E001
:1020D000ECE700BF601CC4B2322CE5DB03F09CFBD4
:1020E00070BD000010B54FF480516748FFF70CFB3E
:1020F0001E2003F0C7FA01216348FFF705FB1E20ED
:1021000003F0C0FA10216148FFF7FEFA1E2003F029
:10211000B9FA20215C48FFF7F7FA1E2003F0B2FA63
:1021200080215948FFF7F0FA1E2003F0ABFA4FF474
:1021300080515548FFF7E6FA4FF480715248FFF797
:10214000E3FA1E2003F09EFA01214F48FFF7DAFA66
:102150004FF400714C48FFF7D7FA1E2003F092FAB3
:1021600010214A48FFF7CEFA04214948FFF7CCFA7C
:102170001E2003F087FA20214348FFF7C3FA4FF4EB
:1021800000514148FFF7C0FA1E2003F07BFA80217E
:102190003D48FFF7B7FA02213B48FFF7B5FA1E208A
:1021A00003F070FA4FF480713748FFF7ABFA04215F
:1021B0003548FFF7A9FA1E2003F064FA4FF40071C6
:1021C0003148FFF79FFA08212F48FFF79DFA1E209C
:1021D00003F058FA04212E48FFF794FA10212B48F7
:1021E000FFF792FA1E2003F04DFA4FF400512648F3
:1021F000FFF788FA20212448FFF786FA1E2003F013
:1022000041FA02212048FFF77DFA80211E48FFF79E
:102210007BFA1E2003F036FA04211B48FFF772FAFE
:102220004FF480711848FFF76FFA1E2003F02AFA66
:1022300008211548FFF766FA4FF480511248FFF75E
:1022400063FA1E2003F01EFA10211048FFF75AFA15
:1022500020210D48FFF756FA1E2003F013FA8021C3
:102260000948FFF74FFA1E2003F00CFA4FF4807173
:102270000548FFF747FA1E2003F004FA4FF4805197
:102280000148FFF73FFA10BD00100140000801406F
:102290000014014010B580213248FFF735FA4FF4A1
:1022A00000713048FFF730FA4FF480512D48FFF7A6
:1022B0002BFA10212C48FFF727FA4FF40051294838
:1022C000FFF722FA642003F0DDF980212548FFF7AB
:1022D00019FA4FF400712348FFF714FA4FF48051B4
:1022E0002048FFF70FFA10211F48FFF70BFA4FF4B1
:1022F00000511C48FFF706FA642003F0C3F980215F
:102300001848FFF701FA4FF400711648FFF7FCF97F
:102310004FF480511348FFF7F7F910211248FFF7E7
:10232000F3F94FF400510F48FFF7EEF9642003F082
:10233000A9F980210B48FFF7E5F94FF4007109482E
:10234000FFF7E0F94FF480510648FFF7DBF9102161
:102350000548FFF7D7F94FF400510248FFF7D2F9CB
:1023600010BD0000001001400008014010B50446F7
:10237000412C2CD108210846FEF71EFD3D211120DD
:1023800002F0FCFF8621172002F0F8FF7F212620B3
:1023900002F0F4FFF821272002F0F0FF3F2128206F
:1023A00002F0ECFF1E212D2002F0E8FF00212C207E
:1023B00002F0E4FF8D212A2002F0E0FF3E212B20D5
:1023C00002F0DCFF022003F083F900F0E4FC10BD12
:1023D00000BFFEE7704708B54FF4A06000F05CF85E
:1023E00025208DF8000001208DF8010002208DF8D5
:1023F000020001208DF80300684600F015F808BDC2
:1024000008B54FF4A06000F047F826208DF80000D2
:1024100001208DF801008DF802008DF80300684658
:1024200000F002F808BD000070B5002100230F2263
:10243000C47804B3154C246804F4E064C4F5E06483
:10244000210AC1F10403CA40447804FA03F18478F4
:102450001440214309010E4C0678A155047804F07C
:102460001F050124AC4005786D11AD0005F1E02594
:10247000C5F8004109E0047804F01F050124AC40D0
:10248000044D0678761145F8264070BD0CED00E04D
:1024900000E400E080E100E002490143024A1160EB
:1024A000704700000000FA050CED00E008B50121BE
:1024B000042001F0ADFA1020ADF800008DF8030003
:1024C00003208DF8020069461348FFF747F8012101
:1024D000202001F09DFA0420ADF8000010208DF8B6
:1024E000030003208DF8020069460C48FFF736F818
:1024F0000121102001F08CFA43F2AF30ADF800005A
:1025000010208DF8030003208DF80200694604486E
:10251000FFF724F808BD0000000801400014014046
:102520000010014010B5002000F001F810BD70B59A
:102530000646002415E004F1B001C8B202F00FFF16
:10254000002002F00CFF102002F009FF002504E03B
:10255000304602F00BFF681CC5B2802DF8DB601C12
:10256000C4B2082CE7DB70BD08B501210C2001F0D6
:102570004FFA0121084601F04BFA01210F48FFF7FD
:1025800079F80820ADF8000010208DF80300032032
:102590008DF8020069460A48FEF7E0FF4FF400405C
:1025A000ADF8000069460748FEF7D8FF012006494C
:1025B00008600649C1F88C0108BD00000002300027
:1025C000000C014000080140BC0121420080214272
:1025D00010B5FFF7C9FF002400E0641CB4F57A7F52
:1025E000FBDDAE2002F0BBFE202002F0B8FE102082
:1025F00002F0B5FEB02002F0B2FEC82002F0AFFE3D
:10260000002002F0ACFE102002F0A9FE402002F0F3
:10261000A6FE812002F0A3FEFF2002F0A0FEA12072
:1026200002F09DFEA62002F09AFEA82002F097FE7E
:102630003F2002F094FEA42002F091FED32002F08D
:102640008EFE002002F08BFED52002F088FEF020E6
:1026500002F085FED92002F082FE222002F07FFEE9
:10266000DA2002F07CFE122002F079FEDB2002F07C
:1026700076FE202002F073FE8D2002F070FE142002
:1026800002F06DFEAF2002F06AFEFFF74BFF642000
:1026900002F0F8FF10BD10B5FFF744FF8D2002F0E7
:1026A0005EFE102002F05BFEAE2002F058FE10BD70
:1026B00010B58D2002F053FE142002F050FEAF2022
:1026C00002F04DFE10BD70B504460D4605F1B00197
:1026D000C8B202F044FE102141EA141002F03FFE9D
:1026E00004F00F0002F03BFE70BD00002DE9F05F2A
:1026F00082460F4690469946DDF828B000243946B8
:102700005046FFF7E0FF00250026BBF1000F1ED06A
:10271000A8F12000050100BF06E02449485D02F051
:1027200025FE6D1C601CC4B2082CF6DB781CC1B2FF
:102730005046FFF7C8FF002406E01C49485D02F040
:1027400015FE6D1C601CC4B2082CF6DB2CE00BE0FF
:102750001748805D404506D11549701C085C484506
:1027600001D1B51C04E0223641F222108642EFD39B
:1027700000BF002406E00E49485D02F0F7FD6D1C25
:10278000601CC4B2102CF6DB781CC1B25046FFF7B7
:102790009AFF002406E00649485D02F0E7FD6D1C43
:1027A000601CC4B2102CF6DBBDE8F09F5A72000822
:1027B0003861000870B5054600210846FFF783FF21
:1027C000002404E0002002F0D1FD601CC4B26F2C94
:1027D000F8DB00216F20FFF776FF002409E005EB0E
:1027E0004501054A02EBC101085D02F0BFFD601C16
:1027F000C4B2112CF3DB70BDC0600008014908624F
:102800007047000000000E4210B5024600200C4B3D
:10281000186820F00300104318600A4B1B6843F04F
:102820000403084C2360012901D130BF00E020BF20
:10283000044B1B6823F00403024C236010BD00000E
:102840000070004010ED00E038B50024E020ADF845
:10285000000000208DF8030069461548FEF77EFE53
:102860004FF47A7002F00EFFFEF706FA02F02AFD2E
:1028700001F02CF801F0AEFF4FF400710D48FEF7A7
:1028800041FFFFF708FF06E000F08CFE0A2002F08F
:10289000F9FE601CC4B200F0DDFE08B1052CF3DBCC
:1028A00001200549087001210846FFF7ADFF38BD3A
:1028B00000080140000C01403A0000202DE9F74FCC
:1028C00088B0002500270024002005E0FE49095CAF
:1028D00001AA1154411CC8B21128F7DB01F040FADB
:1028E0000746FA48B7FBF0F4F9480088A0423BD00D
:1028F000F7490C8040F2B27510E02846FFF77EFBE6
:1029000040B1B4F5B77F02D3A4F5B77404E0681CF6
:1029100085B206E0A4F26D14681C85B2B4F5B67FEA
:10292000EBD800BF2E46002515E03046FFF766FBCA
:1029300030B1012D04D11D2C01D31D3C09E00CE068
:10294000E448405DA04203D8E248405D241A00E01C
:1029500003E0681C85B21C2CE7D200BF681C00F0A5
:10296000FF09601C00F0FF0AD848B7FBF0F100FB3C
:1029700011744FF46160B4FBF0F000F0FF084FF405
:102980006160B4FBF0F100FB11403C21B0FBF1F0C1
:1029900000F0FF0B4FF47A7096FBF0F03030C0B2CD
:1029A0008DF81500642096FBF0F00A2190FBF1F2FF
:1029B00001FB12003030C0B28DF816000A2096FBE1
:1029C000F0F090FBF1F201FB12003030C0B28DF854
:1029D00017000A2096FBF0F100FB11603030C0B206
:1029E0008DF818000A2099FBF0F03030C0B28DF855
:1029F00019000A2099FBF0F100FB11903030C0B2B1
:102A00008DF81A000A209AFBF0F03030C0B28DF831
:102A10001B000A209AFBF0F100FB11A03030C0B27D
:102A20008DF81C000A2098FBF0F03030C0B28DF811
:102A30001D000A2098FBF0F100FB11803030C0B27D
:102A40008DF81E000A209BFBF0F03030C0B28DF8EC
:102A50001F001C2101A803F0CBF9009009990098F0
:102A6000FFF75EF9A7F516779848B7FBF0F498489A
:102A70000088A0423BD096490C8040F2B27510E02D
:102A80002846FFF7BBFA40B1B4F5B77F02D3A4F5EF
:102A9000B77404E0681C85B206E0A4F26D14681CEB
:102AA00085B2B4F5B67FEBD800BF2E46002515E001
:102AB0003046FFF7A3FA30B1012D04D11D2C01D30C
:102AC0001D3C09E00CE08348405DA04203D88148EA
:102AD000405D241A00E003E0681C85B21C2CE7D29C
:102AE00000BF681C00F0FF09601C00F0FF0A774877
:102AF000B7FBF0F100FB11744FF46160B4FBF0F030
:102B000000F0FF084FF46160B4FBF0F100FB1140EE
:102B10003C21B0FBF1F000F0FF0B4FF47A7096FB14
:102B2000F0F03030C0B28DF81500642096FBF0F064
:102B30000A2190FBF1F201FB12003030C0B28DF897
:102B400016000A2096FBF0F090FBF1F201FB120058
:102B50003030C0B28DF817000A2096FBF0F100FB70
:102B600011603030C0B28DF818000A2099FBF0F0E7
:102B70003030C0B28DF819000A2099FBF0F100FB4B
:102B800011903030C0B28DF81A000A209AFBF0F094
:102B90003030C0B28DF81B000A209AFBF0F100FB28
:102BA00011A03030C0B28DF81C000A2098FBF0F064
:102BB0003030C0B28DF81D000A2098FBF0F100FB08
:102BC00011803030C0B28DF81E000A209BFBF0F05F
:102BD0003030C0B28DF81F00112101A803F008F9B0
:102BE000009008990098FFF79BF807F5966737481B
:102BF000B7FBF0F436480088A0423BD034490C8043
:102C000040F2B27510E02846FFF7F8F940B1B4F58C
:102C1000B77F02D3A4F5B77404E0681C85B206E060
:102C2000A4F26D14681C85B2B4F5B67FEBD800BF72
:102C30002E46002515E03046FFF7E0F930B1012DB2
:102C400004D11D2C01D31D3C09E00CE02148405D5E
:102C5000A04203D81F48405D241A00E003E0681C2E
:102C600085B21C2CE7D200BF681C00F0FF09601C75
:102C700000F0FF0A1548B7FBF0F100FB11744FF4A8
:102C80006160B4FBF0F000F0FF084FF46160B4FB4A
:102C9000F0F100FB11403C21B0FBF1F000F0FF0B24
:102CA0004FF47A7096FBF0F03030C0B28DF815001A
:102CB000642096FBF0F00A2190FBF1F201FB120078
:102CC0003030C0B208E000007A00002080510100DE
:102CD0003E000020B46000088DF816000A2096FB24
:102CE000F0F090FBF1F201FB12003030C0B28DF831
:102CF00017000A2096FBF0F100FB11603030C0B2E3
:102D00008DF818000A2099FBF0F03030C0B28DF831
:102D100019000A2099FBF0F100FB11903030C0B28D
:102D20008DF81A000A209AFBF0F03030C0B28DF80E
:102D30001B000A209AFBF0F100FB11A03030C0B25A
:102D40008DF81C000A2098FBF0F03030C0B28DF8EE
:102D50001D000A2098FBF0F100FB11803030C0B25A
:102D60008DF81E000A209BFBF0F03030C0B28DF8C9
:102D70001F00112101A803F03BF800900A99009868
:102D8000FEF7CEFF0BB0BDE8F08F10B50321142085
:102D9000FEF712F810BD10B5142001F095F90446A5
:102DA00004F0030018B90321142001F09BFA10BDB0
:102DB000F0B587B00546002708210846FDF7FCFF5F
:102DC00000210D2002F0DAFA80210E20FDF7F4FF39
:102DD00093208DF8080020208DF8090001A802AB8F
:102DE000022202A900900C2000F01BF80646262EB5
:102DF00010D1002407E002A8005D285502A8005D5C
:102E00004740601CC4B2042CF5DB02A8005DB84248
:102E100000D0BB2680210E2001F064FA304607B0B6
:102E2000F0BD2DE9FE4F0646884691469A46DDF8EC
:102E300030B0BB2002900020019000900C2E06D0F4
:102E40000E2E09D1122001901020009005E077206D
:102E500001903020009000E000BF00BF019840F0DA
:102E60008001022002F08AFA80210420FDF7A4FFED
:102E70000021012002F082FA80210A2001F032FABA
:102E8000002505E018F80510092002F077FA6D1CFE
:102E90004D45F7D33146012002F070FA0C2E03D1D4
:102EA00080210D2001F01EFA4FF47A7500BF042036
:102EB00001F00AF904466D1E35B104F0010018B99D
:102EC000009820400028F2D080210D20FDF774FFEB
:102ED00095B3062001F0F8F800F01B0068BB26202F
:102EE00002900198204000F0010008B1CC2002902F
:102EF0000C2E24D10A2001F0E7F804460C2001F042
:102F0000E3F800F007072FB1601E07EBC000CBF815
:102F1000000002E0E000CBF8000004B90124122C0C
:102F200000DD1224002505E0092001F0CDF80AF8A3
:102F300005006D1CA542F7D301E0BB200290802163
:102F40000C2001F0CFF90021012002F017FA0298BD
:102F5000BDE8FE8F70B588B005460C4608210846CE
:102F6000FDF72AFF07210D2002F008FA03211420A3
:102F700001F0B8F98DF80C5002A803AB012203A9A7
:102F800000900C20FFF74DFF0646262E09D102982F
:102F9000102806D19DF80C0020709DF80D0060707F
:102FA00000E0BB26304608B070BD000010B502211D
:102FB0001D48FEF7A9FB0A2002F064FB02211A4813
:102FC000FEF7A0FB0A2002F05DFB02211648FEF787
:102FD0009BFB0A2002F056FB0F21012002F0CEF9E4
:102FE00000BF012001F070F800F010000028F8D1B7
:102FF0000A2002F047FB3D21112002F0BFF91E21FB
:103000002D2002F0BBF900212C2002F0B7F98D2110
:103010002A2002F0B3F93E212B2002F0AFF9402123
:10302000152002F0ABF910BD000C01407047000004
:1030300070B588B0044600F0B5FA04F247100519DF
:1030400045F2AA5000F00CFC002000F0FFFB00202D
:1030500000F0FCFB4FF4884000F002FC4FF480606D
:1030600000F0FEFB200200F0FBFB200200F0F8FB6A
:10307000002603E0002000F0E9FB761C0C2EF9DBB3
:10308000E8B200F0E3FB281200F0E0FB0120104959
:10309000087001A800F066FBFF2802D1F02008B0FC
:1030A00070BDBDF80800FF2801D1F020F7E7BDF89A
:1030B0000C00222800D1F2E7BDF80C00122800D144
:1030C000EDE7BDF80C0008B90020E8E7F120E6E7DD
:1030D0008B00002010B588B000F064FA45F2AA50C9
:1030E00000F0BEFB002000F0B1FB002000F0AEFBC2
:1030F0004FF4045000F0B4FB002000F0B1FB0024BA
:1031000003E0002000F0A2FB641C102CF9DB42F26B
:10311000010000F0A5FB01200E49087001A800F095
:1031200021FBFF2802D1F02008B010BDBDF8080037
:10313000FF2801D1F020F7E79DF80E0008B9F42030
:10314000F2E79DF80E00012801D1F520ECE7F1200F
:10315000EAE700008B00002030B587B0044600F09D
:1031600021FA45F2AA5000F07BFB002000F06EFB34
:10317000002000F06BFB4FF4C04000F071FB4FF4F7
:10318000007000F06DFB204600F06AFB002503E0B4
:10319000002000F05BFB6D1C0E2DF9DB46F20111E7
:1031A000214488B200F05CFB012010490870684699
:1031B00000F0D8FAFF2802D1F02007B030BDBDF8EA
:1031C0000400FF2801D1F020F7E7BDF80800262809
:1031D00000D1F2E7BDF80800192800D1EDE7BDF8ED
:1031E000080008B90020E8E7F120E6E78B0000209E
:1031F00030B587B0044600F0D5F90020207045F2C4
:10320000AA5000F02DFB002000F020FB002000F071
:103210001DFB4FF48A4000F023FB4FF4806000F068
:103220001FFB4FF4807000F01BFB4FF4484000F090
:1032300017FB002503E0002000F008FB6D1C0C2D9F
:10324000F9DB41F2021000F00BFB01200F4908707E
:10325000684600F087FAFF2802D1F02007B030BDA1
:10326000BDF80400FF2801D1F020F7E7BDF8080001
:10327000222800D1F2E7BDF8080020B99DF80A0025
:1032800020700020EAE7F120E8E700008B00002032
:1032900010B588B000F086F945F2AA5000F0E0FAC7
:1032A000002000F0D3FA002000F0D0FA4FF4C24022
:1032B00000F0D6FA4FF4407000F0D2FA002000F08F
:1032C000CFFA032000F0C2FA002403E0002000F04F
:1032D000BDFA641C0D2CF9DB46F2016000F0C0FA67
:1032E00001201349087001A800F03CFAFF2802D120
:1032F000F02008B010BDBDF80800FF2801D1F02073
:10330000F7E7BDF80C00262800D1F2E7BDF80C0065
:10331000252800D1EDE7BDF80C001A2800D1E8E718
:10332000BDF80C0008B90020E3E7F120E1E7000058
:103330008B00002030B587B0044600F033F945F229
:10334000AA5000F08DFA002000F080FA002000F072
:103350007DFA4FF4C64000F083FA4FF4C06000F0ED
:103360007FFA002000F07CFA4FF4807000F078FAC9
:103370004FF4484000F074FA002503E0002000F00C
:1033800065FA6D1C0A2DF9DB43F2021000F068FAB1
:10339000012014490870684600F0E4F9FF2802D1C2
:1033A000F02007B030BDBDF80400FF2801D1F020A7
:1033B000F7E7BDF80800262800D1F2E7BDF80800BD
:1033C000142800D1EDE7BDF80800112800D1E8E786
:1033D000BDF8080020B99DF80A0020700020E0E741
:1033E000F120DEE78B00002030B587B0044600F006
:1033F000D9F845F2AA5000F033FA002000F026FA7E
:10340000002000F023FA4FF4804000F029FA4FF436
:10341000806000F025FA204600F022FA002000F03B
:103420001FFA002503E0002000F010FA6D1C0C2D9F
:10343000F9DB44F20131214488B200F011FA012095
:1034400012490870684600F08DF9FF2802D1F0207B
:1034500007B030BDBDF80400FF2801D1F020F7E728
:10346000BDF808001D2800D1F2E7BDF808002628A5
:1034700000D1EDE7BDF80800182800D1E8E7BDF855
:10348000080008B90020E3E7F120E1E78B00002005
:1034900010B588B000F086F845F2AA5000F0E0F9C7
:1034A000002000F0D3F9002000F0D0F94FF40050D4
:1034B00000F0D6F9002000F0D3F9002403E000204A
:1034C00000F0C4F9641C102CF9DB41F6017000F027
:1034D000C7F901200D49087001A800F043F9FF2841
:1034E00002D1F02008B010BDBDF80800FF2801D1BE
:1034F000F020F7E7BDF80C00282800D1F2E7BDF86E
:103500000C0008B90020EDE7F120EBE78B0000206C
:103510001FB500F0DBF80121042000F079FA022049
:10352000ADF80C0010208DF80F0003208DF80E0070
:1035300003A91A48FEF712F80120ADF80C00282064
:103540008DF80F0003A91648FEF708F80121084678
:1035500000F05EFA00210120FDF7E0FF012001905C
:1035600000208DF808000C208DF8090001208DF84E
:103570000A0001A8FDF7FAFE06208DF800000220DF
:103580008DF8010003208DF8020001208DF8030062
:103590006846FEF749FF00F00DF81FBD0008014026
:1035A000000C014000200249487088700870704784
:1035B0008B00002010B502210D48FEF7A5F800246D
:1035C00000E0641CB4F57A7FFBDB02210848FEF7BB
:1035D00099F8002400E0641CB4F57A7FFBDB02213B
:1035E0000348FEF791F8642002F04CF810BD00008B
:1035F0000008014070B505464FF47A7000F010F9EC
:103600000446F22C00D170BD0020FFF7A5FD044652
:10361000F02C03D0F12C01D0262C01D1F020F2E7C0
:10362000192C01D11920EEE72846FFF783FE044646
:10363000F02C03D0F12C01D0262C01D1F020E2E7B0
:10364000142C01D11420DEE7112C01D11120DAE76E
:103650000020D8E710B588B0FFF7A4FF45F2AA50C4
:1036600000F0FEF8002000F0F1F8002000F0EEF885
:103670004FF4406000F0F4F8002000F0F1F800246E
:1036800003E0002000F0E2F8641C102CF9DB40F6A7
:10369000013000F0E5F801200B49087001A800F0A6
:1036A00061F8FF2802D1F02008B010BDBDF8080075
:1036B000FF2801D1F020F7E7BDF80C0008B9002081
:1036C000F2E7F120F0E700008B00002000B585B0A4
:1036D0000121042000F09CF9204801F06DF9082038
:1036E000ADF8100004208DF8130003208DF81200AF
:1036F00004A91B48FDF732FF0420ADF81000182084
:103700008DF8130003208DF8120004A91448FDF76A
:1037100025FF0121480400F05BF94FF4E1300090EF
:103720000020ADF80400ADF80600ADF80800ADF8D3
:103730000C000C20ADF80A006946084801F0E6F9D3
:10374000FEF75EFE012240F22551044801F0B9F96E
:103750000121024801F024F905B000BD00440040F9
:10376000000801402DE9F041044600250026A84646
:103770004FF4A00707E07F1E002F04DCFFF712FFC5
:10378000FF20BDE8F081254840780128F3D10320CF
:1037900001F078FFFFF706FF002505E01F48C01C79
:1037A000405D304486B26D1C182DF7DB1B48C17E8E
:1037B000007F41EA0028464501D0FF20E1E7174895
:1037C000C178007941EA0020208014484079A07037
:1037D00012488079E0701148C179007A41EA0020EE
:1037E000A0800E48417A807A41EA0020E0800B48B0
:1037F000C17A007B41EA00202081002508E00748CB
:10380000C01C05F10A01415C04F10A0041556D1C20
:103810000E2DF4DB26830020B3E700008B00002090
:1038200070B50546B420B5FBF0F60BE0FFF730FEAF
:103830000446282C01D1761E04E00CB9002070BD8E
:10384000F020FCE7002EF1D1F220F8E710B5044695
:103850002146024801F0BAFA10BD000000440040C1
:1038600010B504462112084801F0B0FA10B14FF625
:10387000FF7010BDE1B2044801F0A8FA10B14FF694
:10388000FF70F6E70020F4E70044004010B500F0B8
:1038900029F802210C48FDF737FF0A2001F0F2FE5B
:1038A000FFF784FBFFF771FA4120FEF75FFD7A21F5
:1038B0001F2001F063FD012001F0E4FE4FF4E13030
:1038C00000F038F810BD0000000C014010B50120D8
:1038D00000F0FAFB044644F01001012001F04EFD17
:1038E00010BD000008B50121082000F091F8022069
:1038F000ADF8000003208DF8020010208DF80300C1
:1039000069460B48FDF72AFE02210948FDF7FCFE37
:103910000220ADF8000028208DF803006946044815
:10392000FDF71CFE4FF4165000F004F808BD00002F
:10393000000C014010B586B004461D4801F03CF86B
:103940004FF40060ADF8040004208DF80700032058
:103950008DF8060001A91748FDF700FE4FF48060BE
:10396000ADF8040018208DF8070003208DF806003C
:1039700001A91048FDF7F2FD0121880400F028F8A4
:1039800002940020ADF80C00ADF80E00ADF8100068
:10399000ADF814000C20ADF8120002A9044801F0A3
:1039A000B5F80121024800F0FBFF06B010BD000091
:1039B00000480040000C014001460020034A5068C6
:1039C00020F440400843506070470000001002405F
:1039D00029B1064AD2690243044BDA6104E0034A82
:1039E000D2698243014BDA61704700000010024047
:1039F00029B1064A12690243044B1A6104E0034AE2
:103A000012698243014B1A617047000000100240A6
:103A100029B1064A92690243044B9A6104E0034AC1
:103A200092698243014B9A61704700000010024086
:103A300029B1064AD2680243044BDA6004E0034A23
:103A4000D2688243014BDA607047000000100240E8
:103A500001490860704700004004424230B500212F
:103A60000022002400232D4D6D6805F00C0121B1CA
:103A7000042905D0082923D105E0294D056022E05D
:103A8000274D05601FE0254D6D6805F47012234D2C
:103A90006D6805F48034022505EB92421CB9214D76
:103AA000554305600BE01D4D6D6805F400351DB1F3
:103AB0001C4D5543056002E0194D5543056002E079
:103AC000174D056000BF00BF144D6D6805F0F00193
:103AD0000909154D6B5C0568DD4045600F4D6D684B
:103AE00005F4E061090A104D6B5C4568DD408560B6
:103AF0000A4D6D6805F46051C90A0B4D6B5C456851
:103B0000DD40C560054D6D6805F44041890B074DEA
:103B10006B5CC568B5FBF3F5056130BD0010024074
:103B200000127A0000093D0014000020240000204B
:103B300010B501460022002300204A11012A02D1BB
:103B4000094C236806E0022A02D1074C236A01E0EF
:103B5000054C636A01F01F02012494401C400CB123
:103B6000012000E0002010BD0010024000210B4A9F
:103B700011700A4A203A82F82010012802D0042845
:103B800008D103E00121054A117004E00521034A30
:103B9000117000E000BF00BF70470000201002401D
:103BA00001490860704700003C0442420249096A2A
:103BB0000143014A1162704700100240F8B5044603
:103BC00000202060002700260BE069465220FFF706
:103BD000C1F90546262D00D104E0761C022E00DD39
:103BE00000E0F2E700BF262D13D16846FFF7E0F8AA
:103BF00026280ED1FFF7C9F80127002007E01DF89D
:103C00000010226841EA02212160411CC8B2042848
:103C1000F5DB3846F8BD0246C1F1200022FA00F378
:103C200002FA01F018437047024909888143014AAA
:103C300011807047042800400348008840F01000BD
:103C400001490880704700000428004003480088AC
:103C50004FF6EF7108400149088070470428004082
:103C600070B500250026002400F07AF80646384892
:103C7000B6FBF0F437480088A0423CD035490C80B0
:103C800040F2B27510E02846FEF7B8F940B1B4F53D
:103C9000B77F02D3A4F5B77404E0681C85B206E0D0
:103CA000A4F26D14681C85B2B4F5B67FEBD800BFE2
:103CB00029488580002516E027498888FEF79EF967
:103CC00030B1012D04D11D2C01D31D3C09E00CE0C5
:103CD0002248405DA04203D82048405D241A00E0FD
:103CE00003E0681C85B21C2CE6D200BF681C1A4990
:103CF0008871601CC8711648B6FBF0F100FB1164B6
:103D00004FF46160B4FBF0F0134908704FF4616048
:103D1000B4FBF0F100FB11403C21B0FBF1F00E4987
:103D200048704FF46160B4FBF0F100FB11403C219E
:103D3000B0FBF1F201FB1200074988700B46DA79FB
:103D40009979988800F028F803490872002070BD1E
:103D50008051010042000020AC000020B460000847
:103D6000002103480188001F008841EA0040704795
:103D70001C28004001460020064A12880A40D0B2A2
:103D8000044A121F12880A4012B108B1012000E053
:103D90000020704704280040F0B503460C46154645
:103DA000642093FBF0F0C6B2642093FBF0F700FBB5
:103DB0001730C1B2132E02DD01F16400C1B2084612
:103DC000CF1701EB977701EBA707BAB2072092FB59
:103DD000F0F700FB172082B25719601EDFF82CC0E5
:103DE0001CF80000384482B2CF1701EB9777BF1060
:103DF000A1EB87071FB9032C01DA501E82B20720FE
:103E000092FBF0F700FB1720C0B2F0BDA8600008DD
:103E10000EB50120FFF7AEFF20B1FFF721FF012013
:103E2000104908700220FFF7A5FFA0B10220FFF79C
:103E3000FBFEFFF715FF0C4880780B4949780A4ACA
:103E40001278CDE9002102900748C37982798188F0
:103E500006A001F0A5FA0520FFF7E6FE00F018F92C
:103E60000EBD000040000020AC000020416C6172DB
:103E70006D2054696D653A25642D25642D256420D7
:103E800025643A25643A25640A00000029B1064AEF
:103E900012880243044B1A8004E0034A12888243CA
:103EA000014B1A8070470000002800401CB5002418
:103EB00001214FF0C050FFF78BFD0120FEF79EFC63
:103EC0000420FCF7BDFE45F2500188423FD0FCF7CC
:103ED000AFFE0120FFF74AFE04E0601CC4B20A20D6
:103EE00001F0D0FB4120FFF723FE08B9FA2CF4DBE8
:103EF000FA2C01DB01201CBD4FF48070FFF756FE49
:103F00000120FFF74DFE00F0C3F800F0CBF80121CF
:103F10000846FFF7BBFF00F0BBF8FFF78DFE47F642
:103F2000FF7000F0A5F800F0B3F800200090034601
:103F300001221146019040F2DF7000F027F8FFF7F0
:103F400085FE45F250010420FCF788FE07E000F0F2
:103F5000A9F801210846FFF799FF00F099F800F051
:103F600004F8FFF77DFE0020C5E708B503208DF8B3
:103F7000000000208DF801008DF8020001208DF86E
:103F800003006846FEF750FA08BD00002DE9F05F17
:103F900006460F4690469946DDE90AAB002440F2FA
:103FA000B270864203DB40F63300864202DD012018
:103FB000BDE8F09F40F2B2750AE02846FEF71EF811
:103FC00010B12048044401E01F480444681C85B235
:103FD000B542F2DB781EC7B2002510E01B48405DF9
:103FE00040F2A321484304EBC0143046FEF706F824
:103FF00018B1012D01D116480444681C85B2BD4298
:10400000ECDBA8F1010040F2A321484304EBC0140B
:10401000C9EB4910C0EB092004EB0014CAEB0A10ED
:1040200004EB80045C4401214FF0C050FFF7D0FC4A
:104030000120FEF7E3FB204600F00CF800F028F822
:104040000020B5E70085E2018033E101B46000089B
:104050008051010000B50246FFF7EEFD100C034948
:104060000880091D0A80FFF7F1FD00BD18280040F7
:1040700000B50246FFF7E0FDC2F3034003490880A4
:10408000091D0A80FFF7E2FD00BD0000082800407E
:1040900000BF0348008800F020000028F9D07047D6
:1040A00004280040074800884FF6F771084005498A
:1040B000088000BF0348008800F008000028F9D0FD
:1040C000704700000428004070B5044604F03F002B
:1040D00040F08005284600F007FE034800F044FE4B
:1040E000C6B2304670BD00000048004004498879DF
:1040F0004FF6FF7101EA00200149C9790843704772
:10410000500000202DE9F0430146122037E0DFF88F
:1041100078C01CF80020E04600F1010C18F80C50A3
:1041200000F1020C18F80C3000F1030C18F80C40E8
:10413000A2F1300C4FF47A780CFB08FCA5F13008A2
:1041400008EBC80909EB08180CEB8808A3F1300C40
:104150000CEB8C0C08EB4C08A4F1300CC4441FFA97
:104160008CF7A0F1120C4FEAEC780CEB9878C8F3BE
:10417000870621F8167000F1040C0CF0FF002A28C5
:10418000C5DBBDE8F08300005000002018B50948E9
:10419000007B8DF800000748407B8DF80100054842
:1041A000807B8DF802006846FCF72EFD0446204611
:1041B00018BD00005000002010B50B46002105E09E
:1041C000048823F81140801C4C1CA1B29142F7DBFB
:1041D00010BD00002DE9F05F80468A461746B8F111
:1041E000006F02D33348804501D3BDE8F09FFDF74F
:1041F00075F9A8F1006B4FEA9B25CBF34809C9F587
:104200000074A74200DC3C464DE04FF0006101EB3A
:1042100085208A142849FFF7CFFF00260BE009EB21
:104220000600254931F810004FF6FF71884200D092
:1042300003E0701C86B2A642F1DB00BFA6421BDA87
:104240004FF0006101EB8520FDF7DAF8002608E069
:104250003AF8160006EB0901174A22F81100701C03
:1042600086B2A642F4DB4FF0006101EB85208A1490
:10427000114900F023F804E022465146404600F080
:104280001DF8A74200D10FE06D1C4FF000090AEBAA
:10429000440AA044381B87B2B7F5007F02DD4FF413
:1042A000007400E03C46B0E700BFFDF7EBF800BF4C
:1042B0009BE7000000000108B60000202DE9F04156
:1042C00005460E461746002407E036F81410284627
:1042D000FDF7E2F8AD1C601C84B2BC42F5DBBDE822
:1042E000F081704770B505460C462846FFF7ECFE96
:1042F000064646EA0401284601F040F870BD10B5B4
:1043000000F002F810BD00000CB5002001900090F4
:104310003348006840F480303149086000BF3048BD
:10432000006800F4003000900198401C0190009853
:1043300018B90198B0F5A06FF1D12948006800F4D0
:10434000003010B10120009001E0002000900098A2
:10435000012843D12348006840F01000214908603B
:104360000846006820F0030008600846006840F036
:10437000020008601A4840681949486008464068C9
:1043800048600846406840F48060486008464068DD
:1043900020F47C1048600846406840F4E81048600B
:1043A0000846006840F08070086000BF0C48006854
:1043B00000F000700028F9D00948406820F00300A0
:1043C000074948600846406840F00200486000BF66
:1043D0000348406800F00C000828F9D10CBD00002B
:1043E0000010024000200240042808D14FF0E021D4
:1043F000096941F004014FF0E022116107E04FF03C
:10440000E021096921F004014FF0E02211617047B9
:104410007047000010B51348006840F001001149D2
:10442000086008464068104908400E494860084640
:1044300000680E4908400B4908600846006820F4EF
:10444000802008600846406820F4FE0048604FF471
:104450001F008860FFF753FF4FF0006004490860B9
:1044600010BD0000001002400000FFF8FFFFF6FE44
:1044700008ED00E010B50121064800F04EF818B133
:104480000121044800F03AF803480068401C024942
:10449000086010BD00040040480000207FB50546BC
:1044A0000C4601210220FFF793FAADF80850ADF851
:1044B00004400020ADF80A00ADF8060001A90E483E
:1044C00000F046F8012211460B4800F037F81D2095
:1044D0008DF8000000208DF8010003208DF8020007
:1044E00001208DF803006846FDF79EFF0121024878
:1044F00000F007F87FBD000000040040CA430282BC
:10450000704721B1028842F00102028004E0028873
:104510004FF6FE731A400280704730B50246002005
:1045200000230024158A05EA0103958905EA0104A0
:1045300013B10CB1012000E0002030BD1AB1838915
:104540000B43838102E083898B43838170470000A2
:10455000002202881D4B98420ED01D4B98420BD072
:10456000B0F1804F08D01B4B984205D01A4B9842AF
:1045700002D01A4B984204D14FF68F731A404B88E1
:104580001A43174B984207D0164B984204D04FF667
:10459000FF431A40CB881A4302808B8883850B889F
:1045A00003850A4B98420BD0094B984208D00E4B1A
:1045B000984205D00D4B984202D00D4B984201D144
:1045C0000B7A03860123838270470000002C014090
:1045D000003401400004004000080040000C00408E
:1045E0000010004000140040004001400044014021
:1045F000004801402DE9F04703250024102000F079
:104600000DF90646112000F009F90746122000F0C6
:1046100005F98046300440EA072040EA080900BF57
:1046200007E0A94502D12046BDE8F087AD00601C37
:10463000C4B20C2CF5DBFF20F6E7000010B500F04B
:1046400053F8642001F01EF84FF400412548FDF7AF
:104650005BF8642001F016F84FF400412148FDF7A3
:1046600051F8642001F00EF80B21092000F0FEF84B
:104670000721092000F0FAF88821022000F0F6F85E
:104680008821032000F0F2F88821042000F0EEF8E1
:104690008821052000F0EAF88821062000F0E6F8DD
:1046A0008821072000F0E2F88021082000F0DEF8E1
:1046B00000210A2000F0DAF800210B2000F0D6F8E3
:1046C000FF210E2000F0D2F80F21084600F0CEF8AE
:1046D00000210C2000F0CAF800210D2000F0C6F8DF
:1046E00010BD0000000C01401FB501210C20FFF798
:1046F0008FF910208DF80F0003208DF80E004FF475
:104700008050ADF80C0003A93048FCF727FF4FF4A8
:1047100080512E48FCF7F8FF4FF40050ADF80C0024
:1047200003A92A48FCF71AFF4FF400512748FCF769
:10473000EBFF4FF40040ADF80C0003A92348FCF751
:104740000DFF4FF400412148FCF7DCFF4FF480706F
:10475000ADF80C0003A91E48FCF700FF4FF4807170
:104760001B48FCF7CFFF48208DF80F004FF4804026
:10477000ADF80C0003A91548FCF7F0FE012108462E
:10478000FFF746F90E210120FCF7C8FE4FF48040E8
:10479000019000208DF8080008208DF80900012004
:1047A0008DF80A0001A8FCF7E1FD28208DF8000033
:1047B00002208DF8010004208DF8020001208DF800
:1047C00003006846FDF730FE1FBD0000000C0140ED
:1047D0000008014010B52321082000F047F8072108
:1047E000092000F043F84FF480710248FCF78CFF79
:1047F00010BD00000008014010B54FF4807106485C
:10480000FCF780FF0321092000F030F88021082008
:1048100000F02CF810BD00000008014070B50446FF
:10482000FDF746F9D020FDF7CDF8FDF7D9F908B12D
:10483000002070BD2046FDF7C5F8FDF7D1F908B19D
:104840000020F6E7FDF780F9FDF732F9D120FDF7FA
:10485000B9F8FDF7C5F908B10020EAE70020FDF737
:1048600079F80546FDF770F92846E2E770B5054688
:104870000C46FDF71DF9D020FDF7A4F8FDF7B0F9BF
:1048800008B1012070BD2846FDF79CF8FDF7A8F996
:1048900008B10120F6E72046FDF794F8FDF7A0F9EE
:1048A00008B10120EEE7FDF74FF90020EAE700002C
:1048B00010B500BF40F22551104800F0D8F860B1A3
:1048C0000E48001D0088C1B20D4802780078401CD7
:1048D0000B4B18700B4881540FE040F224410748FD
:1048E00000F0C5F848B10548001D0088C4B203486F
:1048F0000088C4B201200449087010BD003801408E
:1049000034000020500000203500002010B515486C
:104910000078401C1349087040F22551124800F0FD
:10492000A6F8F0B1104800F05DF9C4B20F48407825
:1049300070B9AA2C15D101200C494870084681781D
:10494000C01C4454C01E8078401C0849887008E090
:1049500006488178C01C4454C01E8078401C03491E
:10496000887010BD2F000020004400408B00002004
:1049700010B540F22551074800F079F840B10548DC
:1049800000F030F9C4B2FF200349087003480470F6
:1049900010BD0000004800404400002045000020F9
:1049A00021B1828942F40052828104E082894DF66D
:1049B000FF731A408281704710B504462048844234
:1049C00009D101218803FFF733F800214FF480401B
:1049D000FFF72EF832E01B48844209D10121480438
:1049E000FFF706F800214FF40030FFF701F825E04B
:1049F0001548844209D101218804FEF7F9FF0021FE
:104A00004FF48020FEF7F4FF18E01048844209D1EB
:104A10000121C804FEF7ECFF00214FF40020FEF74F
:104A2000E7FF0BE00A48844208D101210805FEF7A0
:104A3000DFFF00214FF48010FEF7DAFF10BD000009
:104A4000003801400044004000480040004C004055
:104A50000050004002460020B1F5007F00D100BFA9
:104A600013880B400BB1012000E00020704770B5A7
:104A70000246002400230025002040F66A16B142B9
:104A800000D100BFC1F3421501F01F03012606FA51
:104A900003F3012D02D19689334006E0022D02D1A5
:104AA000168A334001E0968A33400C12012606FA3A
:104AB00004F41688344013B10CB1012000E000204A
:104AC00070BDF0B50346002400260025002040F606
:104AD0006A17B94200D100BF1846C1F3421401F071
:104AE0001F06012707FA06F5012C01D10C3004E05E
:104AF000022C01D1103000E014301AB107682F43A6
:104B0000076002E00768AF430760F0BD2DE9F0479A
:104B100086B005460E460024A24600BFA1460027E7
:104B2000B08900B100BF2F462C8A4CF6FF700440BC
:104B3000F08804432C82AC894EF6F3100440B08810
:104B400031890843718908430443AC81AC8A4FF62C
:104B5000FF400440B0890443AC8201A8FEF77EFF09
:104B60001F48874202D1DDF810A001E0DDF80CA05B
:104B7000A88900F4004040B10AEBCA0000EB0A101B
:104B800031684900B0FBF1F807E00AEBCA0000EB1E
:104B90000A1031688900B0FBF1F86420B8FBF0F02E
:104BA00004012009642101FB1089A88900F4004058
:104BB00040B1322000EBC900B0FBF1F000F007007B
:104BC000044308E0322000EB09106421B0FBF1F04F
:104BD00000F00F0004432C8106B0BDE8F087000010
:104BE0000038014001468888C0F308007047C1F3CF
:104BF000080282807047000008B501210820FEF7F6
:104C000007FF01210846FEF703FF01211548FCF7C5
:104C100031FD2020ADF8000010208DF803000320A6
:104C20008DF8020069461048FCF798FC1020ADF89A
:104C3000000069460C48FCF791FC00200B49086015
:104C40000B49C1F890014FF400710748FCF75AFD79
:104C5000642000F017FD4FF400710348FCF754FD89
:104C600008BD000000023000000C01409481214288
:104C70000080214270B50446002019490860194996
:104C8000C1F89401642000F023FD0120144908605C
:104C9000642000F01DFD00201249C1F8900164203D
:104CA00000F016FD01200E490860642000F010FDA0
:104CB00000200C49C1F8900101250EE001200849AF
:104CC000091D0860642000F003FD00200549C1F8BB
:104CD0009401642000F0FCFC6D1CA542EEDD70BD6B
:104CE000908121420080214210B5044621460248AD
:104CF00000F06CF810BD00000048004070B506469A
:104D00000C46154600F01FFB28702878FF2801D1BB
:104D1000022070BD28780A280CD1207808B9032019
:104D2000F7E72078401E207020212078401E315463
:104D30000420EEE728780B2806D12078062801DB2E
:104D40000020E6E70120E4E72078102801D10420C4
:104D5000DFE72878217870542078401C20700420E8
:104D6000D7E700BFFEE7000010B504460B480C492A
:104D7000086008E00A490868411E094A116010B934
:104D80004FF6FF7010BD20212046FFF763FE00287C
:104D9000F0D02046FFF726FFC0B2F3E7FFFF0F0079
:104DA00030000020014607480078012807D1002084
:104DB000044A1070044A107046F26660704743F26D
:104DC0003330FBE7350000203400002070B5044686
:104DD0000D460C480C49086029462046FFF707FF9E
:104DE00008E009490868411E074A116010B94FF6EA
:104DF000FF7070BD80212046FFF72CFE0028F0D008
:104E00000020F6E7FFFF0F0030000020FEB5074648
:104E10000D4616464FF6CF60ADF800000120ADF804
:104E200002000C20ADF8040040F20130ADF806009D
:104E3000ADF80850ADF80A60002407E0684600EBC2
:104E40004401384600F092FF601CC4B2062CF5DB2A
:104E5000FEBDFEB507460C4616464FF6CF60ADF8D0
:104E600000000120ADF80200032C03DA0C20ADF89D
:104E7000040002E00F20ADF8040040F20130ADF86C
:104E80000600ADF808400020ADF80A00002507E054
:104E9000684600EB4501384600F068FF681CC5B263
:104EA000062DF5DB032C03D13146384600F089F995
:104EB000FEBD3EB505464FF6CF60ADF800000120BF
:104EC000ADF802000C20ADF8040040F60200ADF889
:104ED00006000020ADF808004FF40060ADF80A00AD
:104EE000002407E0684600EB4401284600F03EFF3E
:104EF000601CC4B2062CF5DB3EBD3EB505464FF640
:104F0000CF60ADF800000120ADF802000C20ADF834
:104F1000040040F60200ADF806000020ADF80800DD
:104F2000ADF80A00002407E0684600EB440128467B
:104F300000F01CFF601CC4B2062CF5DB3EBD3EB584
:104F400005464FF6CF60ADF800000120ADF8020035
:104F50000C20ADF804004FF48370ADF8060000207B
:104F6000ADF80800ADF80A00002407E0684600EB41
:104F70004401284600F0FAFE601CC4B2062CF5DBA2
:104F80003EBDFEB506460D464FF6CF60ADF80000BB
:104F90000120ADF802000C20ADF804004FF482703F
:104FA000ADF806000020ADF80800ADF80A50002466
:104FB00007E0684600EB4401304600F0D7FE601C75
:104FC000C4B2062CF5DBFEBDFEB505460E464FF617
:104FD000CF60ADF800000120ADF802000F20ADF861
:104FE00004004FF48270ADF806000020ADF8080010
:104FF000ADF80A00002407E0684600EB44012846AB
:1050000000F0B4FE601CC4B2062CF5DB3146284625
:1050100000F0D7F8FEBD3EB505464FF6CF60ADF8BF
:1050200000000120ADF802000C20ADF8040040F6AD
:105030000400ADF806000020ADF808004FF4006051
:10504000ADF80A00002407E0684600EB440128465A
:1050500000F08CFE601CC4B2062CF5DB3EBD3EB5F4
:1050600005464FF6CF60ADF800000120ADF8020014
:105070000C20ADF8040040F60400ADF80600002056
:10508000ADF80800ADF80A00002407E0684600EB20
:105090004401284600F06AFE601CC4B2062CF5DB11
:1050A0003EBDFEB506460D464FF6CF60ADF800009A
:1050B0000120ADF802000C20ADF8040040F20230EF
:1050C000ADF806000020ADF80800ADF80A50002445
:1050D00007E0684600EB4401304600F047FE601CE4
:1050E000C4B2062CF5DBFEBDFEB505460E464FF6F6
:1050F000CF60ADF800000120ADF802000F20ADF840
:10510000040040F20230ADF806000020ADF80800BF
:10511000ADF80A00002407E0684600EB4401284689
:1051200000F024FE601CC4B2062CF5DB3146284694
:1051300000F047F8FEBD3EB505464FF6CF60ADF82E
:1051400000000120ADF802000C20ADF8040040F68C
:105150000300ADF806000020ADF808004FF4006031
:10516000ADF80A00002407E0684600EB4401284639
:1051700000F0FCFD601CC4B2062CF5DB3EBD3EB564
:1051800005464FF6CF60ADF800000120ADF80200F3
:105190000C20ADF8040040F60300ADF80600002036
:1051A000ADF80800ADF80A00002407E0684600EBFF
:1051B0004401284600F0DAFD601CC4B2062CF5DB81
:1051C0003EBDF8B506460D466946284600F00CF887
:1051D000002406E00DEB0401304600F0B8FD601C31
:1051E000C4B2032CF6DBF8BDF0B5642590FBF5F5F1
:1051F000ECB20A2590FBF5F50A2695FBF6F706FBBF
:105200001755EAB20A2590FBF5F605FB1605EBB239
:1052100004F130050D7002F130054D7003F13005D9
:105220008D70F0BD00B587B001210420FEF7F0FBC2
:105230000120ADF8180000208DF81B0003208DF828
:105240001A0006A91D48FCF789F901214802FEF75A
:10525000DFFB4FF44040FEF7AFFB1948FBF708FABD
:10526000002001908DF808008DF809004FF46020AF
:1052700003900020049001208DF8140001A910482B
:10528000FBF746FA0120FBF7DDFA01210C48FBF79A
:10529000E4F90B48FBF7C0FA00BF0948FBF72DFA09
:1052A0000028FAD10648FBF7C7FA00BF0448FBF70D
:1052B0000DFA0028FAD107B000BD00000008014037
:1052C0000024014010B500210548FBF7C6F9002075
:1052D000FBF7B8FA00214FF40070FEF799FB10BD00
:1052E0000024014010B50446072301222146094845
:1052F000FBF736FA01210748FBF793FA00BF0221BA
:105300000448FBF7F1F90028F9D00248FBF7E8F967
:1053100010BD0000002401402DE9F04107460C4675
:105320000025002608E03846FFF7DCFF054405208D
:1053300000F0A8F9701CC6B2A642F4DBB5FBF4F08D
:1053400080B2BDE8F08110B5002400BFFCF773FE09
:10535000641CFF2802D1B4F57A6FF7DB10BD10B5DD
:10536000044621460020FCF767FA10BD10B504463C
:1053700021464020FCF760FA10BD000070B50446DD
:105380000D4604F03F063046FFF7AEFC0348FFF73A
:10539000EBFC2846FFF7A8FC70BD00000048004069
:1053A0000FB4054B10B503A9044A029800F018F891
:1053B00010BC5DF814FB00001D5700084C000020D5
:1053C00002E008C8121F08C1002AFAD170477047CE
:1053D000002001E001C1121F002AFBD1704700002C
:1053E0002DE9FF4F8BB09A460F460546002606E092
:1053F00025280BD052460D9990476D1C761C2878B5
:105400000028F5D10FB03046BDE8F08F0024A0464B
:105410000122604900E0044315F8013F203B02FAF5
:1054200003F00842F7D128782E2817D115F8010F7C
:1054300044F004042A280ED06FF02F022878A0F13F
:10544000300109290AD808EB880102EB410100EB81
:1054500001086D1CF2E757F8048B6D1C2878692849
:105460003ED006DC0028CDD063280BD0642804D1C0
:1054700036E0732810D075284BD052460D999047CE
:10548000761C85E017F8040B8DF8000000208DF8DD
:105490000100E946012003E057F8049B4FF0FF307C
:1054A00061074FF0000401D40AE0641C44450DDAA2
:1054B0008442FADB19F804100029F6D106E0641CD6
:1054C0008442FCDB19F804100029F8D1264404E0DA
:1054D00019F8010B52460D999047641EF8D257E017
:1054E00001CF4FF00A0B002802DA40422D2102E0E2
:1054F000210504D52B218DF82410012103E0E107BB
:1055000005D02021F7E70DF1200908910CE00021DA
:10551000F9E701CF4FF00A0BF9E75946FAF7C2FF56
:1055200001F1300209F8012D0028F6D1ADEB090098
:1055300000F1200B600701D44FF00108D84502DDCF
:10554000A8EB0B0000E000208046002406E009A83C
:105550005246005D0D999047641C761C0898844261
:10556000F5DB04E0302052460D999047761CB8F1E7
:105570000001A8F10108F5DC05E019F8010B52461D
:105580000D999047761CBBF10001ABF1010BF4DCE7
:105590006D1C34E70928010000B585B00121042005
:1055A000FEF736FA2448FFF707FA4FF48060ADF8AB
:1055B000100004208DF8130003208DF8120004A9B8
:1055C0001E48FBF7CBFF4FF40070ADF81000182019
:1055D0008DF8130003208DF8120004A91748FBF77B
:1055E000BDFF01218803FEF713FA4FF4E13000906C
:1055F0000020ADF80400ADF80600ADF80800ADF8E5
:105600000C000C20ADF80A0069460B48FFF77EFA43
:10561000FCF7E1FE012240F225510748FFF751FA5D
:10562000012240F224410448FFF74BFA01210248CD
:10563000FFF7B6F905B000BD003801400008014091
:1056400010B56FF00400FEF7CFFE0A4800680A4963
:10565000B0FBF1F0094908700846007800EB400102
:10566000C1EBC0104FF6FF7101EAC0000449088089
:1056700010BD00000000002000127A00360000205B
:10568000380000200146114A12884A434FF0E023B7
:105690005A6100229A611A46126942F001021A61A7
:1056A00000BF4FF0E022106900F001021AB100F4CF
:1056B0008032002AF5D04FF0E022126922F0010278
:1056C0004FF0E0231A6100229A61704738000020F1
:1056D0000146114A12784A434FF0E0235A610022F2
:1056E0009A611A46126942F001021A6100BF4FF036
:1056F000E022106900F001021AB100F48032002AA1
:10570000F5D04FF0E022126922F001024FF0E023C1
:105710001A6100229A6170473600002070B5044675
:105720000D46E1B20548FFF762FA00BF8021034849
:10573000FFF790F90028F9D0204670BD00380140ED
:1057400070B50446049D132B07DC1148286004EA59
:10575000010022EA0406304370BD272B05DC0D480A
:10576000286084EA01005040F6E73B2B0ADC0A4837
:10577000286004EA010004EA0206304301EA020656
:105780003043E9E70548286084EA01005040E3E738
:105790009979825AA1EBD96EDCBC1B8FD6C162CA43
:1057A00010B580211948FBF7AFFF4FF480711748FF
:1057B000FBF7AAFF4FF400711448FBF7A5FF202167
:1057C0001248FBF7A1FF4FF480511048FBF79CFFF4
:1057D00004210F48FBF798FF10210E48FBF794FFB8
:1057E00001210A48FBF790FF4FF400510748FBF7EF
:1057F0008BFF08210548FBF787FF04210348FBF7CF
:1058000083FF02210148FBF77FFF10BD001001401C
:10581000001401400008014010B580211948FBF731
:1058200071FF4FF480711748FBF76CFF4FF4007164
:105830001448FBF767FF20211248FBF763FF4FF482
:1058400080511048FBF75EFF04210F48FBF75AFF19
:1058500010210E48FBF756FF01210A48FBF752FFC3
:105860004FF400510748FBF74DFF08210548FBF7AF
:1058700049FF04210348FBF745FF02210148FBF7DC
:1058800041FF10BD0010014000140140000801401C
:105890008AB0FFF7D5FEFEF709FBFEF7CFFEFBF758
:1058A0001FFAFFF779FE00F081FA4FF40071FD480E
:1058B000FBF72AFFFDF7EAFF41F61F416320FEF7E1
:1058C000EDFDFDF725FEFBF721FFFCF781FE6420CF
:1058D000FFF7D8FEFFF7A6FCFFF78EF9FCF7E6FD11
:1058E000FCF7E4F94FF0000AFCF760FAFCF7D9FB8B
:1058F00007A8FBF7ADFB29E2B9F1010F03D14FF087
:105900000009FCF753FAE848007882453CDBE74899
:105910000078002838D18246FDF744FE0123E4A236
:1059200002213020FBF73CFC4FF4FA70FFF7AAFE8F
:10593000FCF78AFFFCF7B5FBDF48007810BBFDF7EA
:10594000C9FBF52820D1D84890F800A0FBF7C8FA89
:1059500005463DB900F088FB0120FFF78BF9FBF706
:10596000F1FE11E00123D5A202211C20FBF718FC57
:105970000220FFF77FF9FCF78DFC4FF44870FFF72A
:1059800081FE01E0FCF712FACF48FFF70BFA46F26E
:10599000666188427AD1FEF7A9FB064640F20231E1
:1059A000701A8E4248D00CDCB6F5827F76D0B6F500
:1059B000837F6DD0A6F2012068B1B0F5807F68D1F9
:1059C00011E0B0F5A06F22D0A0F2015000284CD019
:1059D0000128F4D177E04FF0000A0520FFF74AF9DB
:1059E000FBF7F8F992E04FF0000A0520FFF742F9C3
:1059F00009A8FAF739FF28B9BDF824200321B248D5
:105A0000FFF727FA4FF47A70FFF73CFE7EE04FF085
:105A1000000A0520FFF72EF9FEF7B8FB0990BDF844
:105A20002400FBF767FB18B9A748FFF766FA02E006
:105A3000A548FFF73EFA69E04FF0000A0520FFF79E
:105A400019F909A8FBF77EF805462DB9BDF8241011
:105A50009D48FFF749FB03E029469B48FFF721FBE0
:105A60004FF47A70FFF70EFE50E04FF0000A052069
:105A7000FFF700F9FEF78AFB0990BDF82400FBF759
:105A800079FB38B99048FFF77AFB06E03FE005E084
:105A90002EE03AE08C48FFF74EFB37E04FF0000A6B
:105AA0000520FFF7E7F809A8FAF7A4FF05462DB986
:105AB000BDF824108448FFF787FA03E0294682489E
:105AC000FFF75FFA22E04FF0000A0520FFF7D2F857
:105AD000FEF75CFB0990BDF82400FBF733FB18B917
