:020000040800F2
:10000000A008002001010008BF0E0008490C0008EC
:10001000BB0E00087D070008C52A0008000000008C
:10002000000000000000000000000000FF220008A7
:100030009B07000800000000411200082D24000862
:100040001B0100081B0100081B0100082D1E0008F1
:100050001B0100081B010008490800081B010008DB
:100060001B0100081B0100081B0100081B01000800
:100070001B0100081B0100081B0100081B010008F0
:100080001B0100081B0100081B0100081B010008E0
:100090001B0100081B0100081B0100089108000853
:1000A0001B0100081B0100081B0100081B010008C0
:1000B0001B010008912400081B0100081B01000817
:1000C0001B0100081B0100081B0100081B010008A0
:1000D0001B01000879260008D526000839270008EA
:1000E0001B0100081B0100081B010008DFF80CD0F1
:1000F00000F02EF800480047A5330008A0080020B3
:100100000648804706480047FEE7FEE7FEE7FEE7B1
:10011000FEE7FEE7FEE7FEE7FEE7FEE73124000824
:10012000ED00000830B50B460146002020220124D6
:1001300009E021FA02F59D4205D303FA02F5491BB5
:1001400004FA02F52844151EA2F10102F1DC30BDCB
:10015000064C074D06E0E06840F0010394E8070014
:1001600098471034AC42F6D3FFF7C4FFC0350008FF
:10017000E035000821B1826842F00102826003E0AC
:10018000826822F0010282607047000010B50446C8
:100190001248844208D10121401501F08DFC002154
:1001A000601501F089FC17E00D48844208D1012157
:1001B000001501F081FC0021201501F07DFC0BE011
:1001C0000848844208D10121C80301F075FC0021D0
:1001D0004FF4004001F070FC10BD0000002401400D
:1001E00000280140003C0140014600208A6802F0DE
:1001F00004020AB1012000E00020704701460020FF
:100200008A6802F008020AB1012000E0002070476D
:1002100030B502460020002350680F4C20400D7975
:100220000C6844EA05242043506090680B4C204041
:10023000D1E902542C434D7944EA450420439060AF
:10024000D06A20F470000C7C641EE4B2234340EAC0
:100250000350D06230BD0000FFFEF0FFFDF7F1FF5C
:10026000816841F0080181607047816841F00401B4
:100270008160704730B10749096841F40001054ABF
:10028000116005E00349096821F40001014A116089
:1002900070470000082401402DE9FF410646002276
:1002A00011465E4802F085FC00253BE042F21070EA
:1002B00001F006FBF2280AD14FF4A062691C5748EE
:1002C00002F054FC4FF4A06004B0BDE8F0812802B5
:1002D00001F058F80446F02C03D0F12C01D0262C64
:1002E00008D14FF4A062691C4C4802F03FFC4FF467
:1002F000A060E9E7192C08D14FF44072691C474807
:1003000002F034FC4FF44070DEE7022D04DA0022E4
:10031000691C424802F04DFC4FF47A7002F0E4FF91
:10032000681CC5B2032DC1DB01F0C8F80446F02CEF
:1003300007D0F12C05D0262C03D0252C01D01A2C67
:1003400008D14FF440720321344802F00FFC4FF4FF
:100350004070B9E703A801F061F80446F02C03D01F
:10036000F12C01D0222C08D14FF4A06203212B489C
:1003700002F0FCFB4FF4A060A6E79DF80C10080209
:1003800001F0EEF80446F02C05D0F12C03D01D2C22
:1003900001D0262C08D14FF4A06203211F4802F09F
:1003A000E5FB4FF4A0608FE7182C08D14FF4806272
:1003B00003211A4802F0DAFB4FF4806084E700253D
:1003C0001FE0174800EBC507012202A9384601F0DB
:1003D00001FFBDF808004FF6FF7188420FD1ADF85C
:1003E00000500120ADF802009DF80C00019004229D
:1003F0006946384601F0FCFE3580002064E7681C41
:1004000085B2B5F57A7FDCDB4FF4A06203210348A7
:1004100002F0ACFB4FF4A06056E70000003801404A
:10042000BEE000082DE9F04389B007464F4890F838
:1004300005900024007B303840F63541484304EBFA
:1004400040144A48407B303840F27121484304EB65
:1004500000144648807B303800EB4001C1EBC010EF
:1004600004EBC0044148C07B303800EBC00101EB15
:10047000001004EB80043D48007C303800EB800025
:1004800004EB40043948407C30380444B9F1120F81
:1004900001D1012505E0B9F12A0F01D1022500E0C3
:1004A000032500265CE006EB8600314901EB80085D
:1004B0000A2208A9404601F08DFEBDF820004FF643
:1004C000FF7188424AD13E80ADF80060ADF802501D
:1004D0000194012D04D0022D08D0032D38D126E03F
:1004E00004226946404601F083FE32E005A801F08F
:1004F00017FEBDF81400ADF80800BDF81600ADF801
:100500000A00BDF81800ADF80C00BDF81A00ADF8EF
:100510000E00BDF81C00ADF81000BDF81E00ADF8CF
:1005200012000A226946404601F062FE11E005A869
:1005300001F0F6FDBDF81400ADF80800BDF8160096
:10054000ADF80A0006226946404601F051FE00E07F
:1005500000BF00BF002009B0BDE8F083701C86B268
:10056000B6F57A7F9FDB4FF40060F4E74800002087
:10057000BE9200082DE9FF41054603A800F066FB86
:100580000746012F53D100241CE02A4800EBC40683
:1005900004226946304601F01DFEBDF800004FF60A
:1005A000FF7188420CD0BDF80200022808D10399DF
:1005B0000198884204D14FF4806004B0BDE8F08116
:1005C000601C84B2B4F57A7FDFDB002429E019488F
:1005D00000EBC406012202A9304601F0FBFDBDF884
:1005E00008004FF6FF7188420ED1ADF8004002209E
:1005F000ADF802000398019004226946304601F0EC
:10060000F7FD2C800020D8E7BDF80200022806D1B3
:1006100003990198884202D14FF4A060CDE7601C95
:1006200084B2B4F57A7FD2DB4FF4A060C5E74FF413
:10063000A060C2E7BEE0000830B501460878303857
:10064000C4B248783038C2B288783038C3B2642037
:10065000604302EB820500EB4500184480B230BDD8
:1006600010B5012001F038FA002001F035FA10BD74
:1006700008B5014600200090034800900098084407
:1006800000900098008808BD006C004008B500226A
:100690000092044A0092009A02440092009A11606B
:1006A00008BD0000006C00401FB501210C2001F0C6
:1006B000F3F910208DF80F0003208DF80E004FF491
:1006C0000060ADF80C0010208DF80F0003208DF8AD
:1006D0000E0003A9274800F0DFF94FF48050ADF871
:1006E0000C0010208DF80F0003208DF80E0003A9D8
:1006F000204800F0D1F94FF48070ADF80C000420D0
:100700008DF80F0003208DF80E0003A91A4800F0A1
:10071000C3F90121084601F0BFF90821012000F0CA
:100720009BF94FF48070019000208DF8080008209C
:100730008DF8090001208DF80A0001A800F0B4F836
:1007400017208DF8000002208DF8010005208DF89B
:10075000020001208DF80300684600F0D9FB4FF439
:100760000061044800F06EFA4FF48051014800F037
:1007700069FA1FBD00080140000C014000BFFEE700
:1007800070B505460C46284601F0ACFC064626EA44
:100790000401284602F024FC70BD70473EB50446B3
:1007A0004FF6FF700290104800EBC4050422694622
:1007B000284601F00FFDB4F57A7F12DABDF800008B
:1007C000A0420ED1012202A9284601F011FD019993
:1007D000C8B200F085FD08B900203EBD4FF40060AE
:1007E000FBE74FF40060F8E7BEE0000838B50446C8
:1007F0004FF6FF700090B4F57A7F0ADA04EB8401BB
:10080000054A02EB81000122694601F0F1FC00205B
:1008100038BD4FF40060FBE7BE92000838B50446CF
:100820004FF6FF700090B4F57A7F08DA054901EBC6
:10083000C4000122694601F0DBFC002038BD4FF402
:100840000060FBE7BEE0000810B50E480078A0B1DC
:1008500001F0EEFD00200B4908700B49087002F012
:100860006FFB4FF40071094800F0ECF9552002F0DD
:100870001FF901F05BF801F0CBFE012000F00EF84B
:1008800010BD00003600002028000020000C0140B0
:1008900010B54FF4807000F001F810BD01490860F8
:1008A0007047000014040140002123498279002A86
:1008B0003AD00A46126803689A430B461A600A1D2A
:1008C000126803689A430B1D1A60027911440A6882
:1008D00003681A430A60184A0832126803689A4388
:1008E000154B08331A601A1D126803689A43124B9D
:1008F0000C331A604279102A0ED11A1F126803684D
:100900001A430D4B08331A601A1D126803681A4304
:10091000094B0C331A600DE00749427911440A680B
:1009200003681A430A6005E0027911440A68036803
:100930009A430A60704700000004014030B5054644
:1009400004244FF4302000F073F80446042C19D12D
:100950000D48006940F002000B49086108464561F6
:10096000006940F0400008614FF4302000F060F86A
:100970000446052C06D00448006941F6FD71084084
:1009800001490861204630BD0020024004200B4987
:10099000C96801F0010109B101200EE00749C968E9
:1009A00001F0040109B1022007E00449C96801F01F
:1009B000100109B1032000E004207047002002402C
:1009C0000348006940F08000014908617047000059
:1009D0000020024070B505460E460424E00200F0F7
:1009E00027F80446042C13D10A48006940F001009E
:1009F000084908612E80E00200F01AF80446052C30
:100A000006D00448006941F6FE71084001490861BA
:100A1000204670BD00200240024803494860034858
:100A2000486070472301674500200240AB89EFCD45
:100A300000B502460423FFF7A9FF034603E0FFF7D2
:100A4000A5FF0346521E012B01D1002AF7D102B99E
:100A50000523184600BD000030B500228B071C0F8F
:100A60000F2303FA04F20B4B8C1053F824309343FA
:100A7000084C8D1044F8253023468C1053F8243050
:100A80008C07240F00FA04F42343024C8D1044F821
:100A9000253030BD080001402DE9F0410246002517
:100AA0000026002000230024002791F803C00CF04A
:100AB0000F0591F803C00CF0100CBCF1000F03D02F
:100AC00091F802C04CEA050591F800C0BCF1000F96
:100AD00031D0146800202BE04FF0010C0CFA00F329
:100AE000B1F800C00CEA03069E4220D183004FF00B
:100AF0000F0C0CFA03F7BC4305FA03FC4CEA0404A0
:100B000091F803C0BCF1280F06D14FF0010C0CFA8C
:100B100000FCC2F814C00AE091F803C0BCF1480F11
:100B200005D14FF0010C0CFA00FCC2F810C0401CBB
:100B30000828D1D31460B1F800C0BCF1FF0F34DD38
:100B4000546800202EE000F1080C4FF0010808FA6C
:100B50000CF3B1F800C00CEA03069E4221D18300D9
:100B60004FF00F0C0CFA03F7BC4305FA03FC4CEAF8
:100B7000040491F803C0BCF1280F05D100F1080C62
:100B800008FA0CF8C2F8148091F803C0BCF1480FC1
:100B900007D100F1080C4FF0010808FA0CF8C2F870
:100BA0001080401C0828CED35460BDE8F0810000BE
:100BB000F0B50A46002300240021002500F000467D
:100BC000B6F1004F02D11D4EF16901E01B4E716874
:100BD000C0F3034583B200F44016B6F5401F08D1B8
:100BE00021F07061154E766826F07066134F7E60B6
:100BF00012E000F48016B6F5801F06D1032606FA2F
:100C000005F4A14341F0706106E0460D360103FA98
:100C100006F6B14341F0706122B1460D360103FA88
:100C200006F6314300F00046B6F1004F02D1034E04
:100C3000F16101E0014E7160F0BD00000000014073
:100C4000416170470161704700BFFEE7F8B5044697
:100C500000202060002700260BE06946522000F0AB
:100C600084FA0546262D00D104E0761C962E00DD80
:100C700000E0F2E700BF262D13D1684600F0A3F98B
:100C800026280ED100F08CF90127002007E01DF87E
:100C90000010226841EA02212160411CC8B20428E8
:100CA000F5DB3846F8BD000070B50446184800680A
:100CB00020F47020164908600846006840F440306F
:100CC000086000201349086000251EE0E00920B1FB
:100CD00001201049091F086003E000200D49091F89
:100CE00008606006040E052002F024FB012009497B
:100CF0000860052002F01EFB00200749C1F8B4017E
:100D0000052002F017FB681CC5B2082DDEDB70BDA4
:100D1000040C0140B48121420080214210B50F48EB
:100D2000006820F470200D4908600846006840F40F
:100D30004030086001200A4908600A49C1F8B4013E
:100D4000052002F0F7FA002005490860052002F0AE
:100D5000F1FA00200349C1F8B40110BD040C0140B0
:100D6000B08121420080214210B50F48006820F474
:100D700070200D4908600846006840F44030086063
:100D800000200A4908600A49C1F8B001052002F0B4
:100D9000D1FA0120054908600549C1F8B0010520D4
:100DA00002F0C8FA10BD0000040C0140B4812142D9
:100DB0000080214210B500241548006820F47020FE
:100DC000134908600846006840F4002008600120CC
:100DD00010490860052002F0ADFA01200E49C1F863
:100DE000B401052002F0A6FA07E0601CC4B2FA2C98
:100DF00003DDFFF7B9FF012010BD06488038006809
:100E00000028F2D10349091D086000BFF4E7000083
:100E1000040C0140B0812142008021420146CA17E2
:100E200001EB92729210A1EB820292B9642091FBC5
:100E3000F0F200FB121050B94FF4C87091FBF0F2C1
:100E400000FB121008B9012070470020FCE70120C8
:100E5000FAE70020F8E710B50446412C2CD1082110
:100E60000846FFF78DFC3D21112002F0B9F88621DC
:100E7000172002F0B5F87F21262002F0B1F8F82102
:100E8000272002F0ADF83F21282002F0A9F81E210A
:100E90002D2002F0A5F800212C2002F0A1F88D21D0
:100EA0002A2002F09DF83E212B2002F099F8022022
:100EB00002F040FA00F07AF810BD00BFFEE770477C
:100EC00008B54FF4A06000F05BF825208DF8000015
:100ED00001208DF8010002208DF8020001208DF81C
:100EE0000300684600F014F808BD08B54FF4A06090
:100EF00000F046F826208DF8000001208DF8010052
:100F00008DF802008DF80300684600F001F808BD76
:100F100070B5002100230F22C47804B3154C246857
:100F200004F4E064C4F5E064210AC1F10403CA409A
:100F3000447804FA03F184781440214309010E4CEB
:100F40000678A155047804F01F050124AC4005780B
:100F50006D11AD0005F1E025C5F8004109E0047808
:100F600004F01F050124AC40044D0678761145F8C5
:100F7000264070BD0CED00E000E400E080E100E000
:100F800002490143024A1160704700000000FA055F
:100F90000CED00E0014908627047000000000E42BD
:100FA00010B503211420FFF7EBFB10BD10B5142082
:100FB00001F098F8044604F0030018B90321142046
:100FC00001F09EF910BDF0B587B005460027082155
:100FD0000846FFF7D5FB00210D2002F001F8802123
:100FE0000E20FFF7CDFB93208DF8080020208DF810
:100FF000090001A802AB022202A900900C2000F017
:101000001BF80646262E10D1002407E002A8005D3A
:10101000285502A8005D4740601CC4B2042CF5DBD3
:1010200002A8005DB84200D0BB2680210E2001F04E
:1010300067F9304607B0F0BD2DE9FE4F06468846F9
:1010400091469A46DDF830B0BB2002900020019016
:1010500000900C2E06D00E2E09D1122001901020E7
:10106000009005E0772001903020009000E000BF64
:1010700000BF019840F08001022001F0B1FF802103
:101080000420FFF77DFB0021012001F0A9FF802152
:101090000A2001F035F9002505E018F805100920AF
:1010A00001F09EFF6D1C4D45F7D33146012001F044
:1010B00097FF0C2E03D180210D2001F021F94FF470
:1010C0007A7500BF042001F00DF804466D1E35B19D
:1010D00004F0010018B9009820400028F2D08021C7
:1010E0000D20FFF74DFB95B3062000F0FBFF00F04D
:1010F0001B0068BB262002900198204000F00100F0
:1011000008B1CC2002900C2E24D10A2000F0EAFF76
:1011100004460C2000F0E6FF00F007072FB1601E28
:1011200007EBC000CBF8000002E0E000CBF80000C5
:1011300004B90124122C00DD1224002505E0092049
:1011400000F0D0FF0AF805006D1CA542F7D301E0BE
:10115000BB20029080210C2001F0D2F80021012058
:1011600001F03EFF0298BDE8FE8F70B588B00546DD
:101170000C4608210846FFF703FB07210D2001F06C
:101180002FFF0321142001F0BBF88DF80C5002A8AA
:1011900003AB012203A900900C20FFF74DFF064688
:1011A000262E09D10298102806D19DF80C00207037
:1011B0009DF80D00607000E0BB26304608B070BDA1
:1011C00010B502211D48FFF73DFD0A2002F08CF802
:1011D00002211A48FFF734FD0A2002F085F80221A7
:1011E0001648FFF72FFD0A2002F07EF80F2101209C
:1011F00001F0F6FE00BF012000F074FF00F01000C7
:101200000028F8D10A2002F06FF83D21112001F0EA
:10121000E7FE1E212D2001F0E3FE00212C2001F02D
:10122000DFFE8D212A2001F0DBFE3E212B2001F084
:10123000D7FE4021152001F0D3FE10BD000C014067
:101240007047000010B588B000F068FA45F2AA5067
:1012500000F056FB002000F049FB002000F046FBA8
:101260004FF4884000F04CFB4FF4806000F048FBE6
:101270004FF4807000F044FB4FF4484000F040FB16
:10128000002403E0002000F031FB641C0C2CF9DB8F
:1012900041F2020000F034FB01201049087001A85F
:1012A00000F0B0FAFF2802D1F02008B010BDBDF860
:1012B0000800FF2801D1F020F7E7BDF80C00222834
:1012C00000D1F2E7BDF80C00122800D1EDE7BDF81F
:1012D0000C0008B90020E8E7F120E6E772000020E2
:1012E00070B588B0044600F019FA04F247100519E9
:1012F00045F2AA5000F004FB002000F0F7FA0020AD
:1013000000F0F4FA4FF4884000F0FAFA4FF48060ED
:1013100000F0F6FA200200F0F3FA200200F0F0FAF2
:10132000002603E0002000F0E1FA761C0C2EF9DB29
:10133000E8B200F0DBFA281200F0D8FA01201049D8
:10134000087001A800F05EFAFF2802D1F02008B072
:1013500070BDBDF80800FF2801D1F020F7E7BDF807
:101360000C00222800D1F2E7BDF80C00122800D1B1
:10137000EDE7BDF80C0008B90020E8E7F120E6E74A
:101380007200002030B587B0044600F0C7F945F27E
:10139000AA5000F0B5FA002000F0A8FA002000F0F2
:1013A000A5FA4FF4C04000F0ABFA4FF4007000F023
:1013B000A7FA204600F0A4FA002503E0002000F080
:1013C00095FA6D1C0E2DF9DB46F20111214488B20D
:1013D00000F096FA012010490870684600F012FAF1
:1013E000FF2802D1F02007B030BDBDF80400FF286F
:1013F00001D1F020F7E7BDF80800262800D1F2E778
:10140000BDF80800192800D1EDE7BDF8080008B9BB
:101410000020E8E7F120E6E77200002030B587B051
:10142000044600F07BF90020207045F2AA5000F03D
:1014300067FA002000F05AFA002000F057FA4FF443
:101440008A4000F05DFA4FF4806000F059FA4FF4E2
:10145000807000F055FA4FF4484000F051FA002532
:1014600003E0002000F042FA6D1C0C2DF9DB41F284
:10147000021000F045FA01200F490870684600F09C
:10148000C1F9FF2802D1F02007B030BDBDF804003B
:10149000FF2801D1F020F7E7BDF80800222800D18D
:1014A000F2E7BDF8080020B99DF80A00207000207E
:1014B000EAE7F120E8E700007200002010B588B0EC
:1014C00000F02CF945F2AA5000F01AFA002000F0C2
:1014D0000DFA002000F00AFA4FF4C24000F010FAB2
:1014E0004FF4407000F00CFA002000F009FA0320DD
:1014F00000F0FCF9002403E0002000F0F7F9641C80
:101500000D2CF9DB46F2016000F0FAF901201349D5
:10151000087001A800F076F9FF2802D1F02008B089
:1015200010BDBDF80800FF2801D1F020F7E7BDF895
:101530000C00262800D1F2E7BDF80C00252800D1C8
:10154000EDE7BDF80C001A2800D1E8E7BDF80C0063
:1015500008B90020E3E7F120E1E700007200002075
:1015600030B587B0044600F0D9F845F2AA5000F033
:10157000C7F9002000F0BAF9002000F0B7F94FF4E5
:10158000804000F0BDF94FF4806000F0B9F92046CA
:1015900000F0B6F9002000F0B3F9002503E00020C8
:1015A00000F0A4F96D1C0C2DF9DB44F2013121444B
:1015B00088B200F0A5F9012012490870684600F0D1
:1015C00021F9FF2802D1F02007B030BDBDF804009A
:1015D000FF2801D1F020F7E7BDF808001D2800D151
:1015E000F2E7BDF80800262800D1EDE7BDF80800B5
:1015F000182800D1E8E7BDF8080008B90020E3E7A3
:10160000F120E1E77200002010B588B000F086F804
:1016100045F2AA5000F074F9002000F067F90020AC
:1016200000F064F94FF4005000F06AF9002000F077
:1016300067F9002403E0002000F058F9641C102C26
:10164000F9DB41F6017000F05BF901200D490870EB
:1016500001A800F0D7F8FF2802D1F02008B010BD93
:10166000BDF80800FF2801D1F020F7E7BDF80C0015
:10167000282800D1F2E7BDF80C0008B90020EDE7FA
:10168000F120EBE7720000201FB500F06FF8012198
:10169000042000F001FA0220ADF80C0010208DF8B3
:1016A0000F0003208DF80E0003A91A48FFF7F4F984
:1016B0000120ADF80C0028208DF80F0003A9164872
:1016C000FFF7EAF90121084600F0E6F900210120C0
:1016D000FFF7C2F90120019000208DF808000C20CE
:1016E0008DF8090001208DF80A0001A8FFF7DCF849
:1016F00006208DF8000002208DF8010003208DF8EF
:10170000020001208DF803006846FFF701FC00F09D
:101710000DF81FBD00080140000C014000200249E7
:1017200048708870087070477200002010B5022160
:101730000D48FFF787FA002400E0641CB4F57A7FB7
:10174000FBDB02210848FFF77BFA002400E0641C61
:10175000B4F57A7FFBDB02210348FFF773FA6420BC
:1017600001F0C2FD10BD00000008014000B585B0C9
:101770000121042000F090F9204801F001F8082030
:10178000ADF8100004208DF8130003208DF812002E
:1017900004A91B48FFF780F90420ADF810001820B9
:1017A0008DF8130003208DF8120004A91448FFF7E8
:1017B00073F90121480400F04FF94FF4E130009033
:1017C0000020ADF80400ADF80600ADF80800ADF853
:1017D0000C000C20ADF80A006946084801F07AF8C0
:1017E000FFF783FB012240F22551044801F04DF838
:1017F0000121024800F0B8FF05B000BD00440040E0
:10180000000801402DE9F041044600250026A846C5
:101810004FF4A00707E07F1E002F04DCFFF77EFFD8
:10182000FF20BDE8F081254840780128F3D103204E
:1018300001F05AFDFFF772FF002505E01F48C01CAC
:10184000405D304486B26D1C182DF7DB1B48C17E0D
:10185000007F41EA0028464501D0FF20E1E7174814
:10186000C178007941EA0020208014484079A070B6
:1018700012488079E0701148C179007A41EA00206D
:10188000A0800E48417A807A41EA0020E0800B482F
:10189000C17A007B41EA00202081002508E007484A
:1018A000C01C05F10A01415C04F10A0041556D1CA0
:1018B0000E2DF4DB26830020B3E700007200002029
:1018C00070B50546B420B5FBF0F60BE0FFF79CFEC3
:1018D0000446282C01D1761E04E00CB9002070BD0E
:1018E000F020FCE7002EF1D1F220F8E710B5044615
:1018F0002146024801F01AF910BD000000440040E2
:1019000010B504462112084801F010F910B14FF645
:10191000FF7010BDE1B2044801F008F910B14FF6B4
:10192000FF70F6E70020F4E70044004010B500F037
:101930001DF802210C48FFF785F90A2001F0D4FCBC
:10194000FFF73EFCFFF72CFB4120FFF784FA7A21DA
:101950001F2001F045FB012001F0C6FC4FF4E130EF
:1019600000F02CF810BD0000000C014008B501216A
:10197000082000F091F80220ADF8000003208DF857
:10198000020010208DF8030069460B48FFF784F829
:1019900002210948FFF756F90220ADF8000028207F
:1019A0008DF8030069460448FFF776F84FF41650A7
:1019B00000F004F808BD0000000C014010B586B02E
:1019C00004461D4800F0DCFE4FF40060ADF8040052
:1019D00004208DF8070003208DF8060001A91748A0
:1019E000FFF75AF84FF48060ADF8040018208DF826
:1019F000070003208DF8060001A91048FFF74CF8F6
:101A00000121880400F028F802940020ADF80C00B1
:101A1000ADF80E00ADF81000ADF814000C20ADF8D4
:101A2000120002A9044800F055FF0121024800F00D
:101A30009BFE06B010BD000000480040000C0140B5
:101A400001460020034A506820F44040084350609B
:101A5000704700000010024029B1064AD2690243D3
:101A6000044BDA6104E0034AD2698243014BDA6134
:101A7000704700000010024029B1064A1269024373
:101A8000044B1A6104E0034A12698243014B1A6154
:101A9000704700000010024029B1064A92690243D3
:101AA000044B9A6104E0034A92698243014B9A61B4
:101AB000704700000010024029B1064AD268024374
:101AC000044BDA6004E0034AD2688243014BDA60D7
:101AD0007047000000100240014908607047000094
:101AE0004004424230B500210022002400232D4D45
:101AF0006D6805F00C0121B1042905D0082923D116
:101B000005E0294D056022E0274D05601FE0254DC9
:101B10006D6805F47012234D6D6805F4803402255C
:101B200005EB92421CB9214D554305600BE01D4D5C
:101B30006D6805F400351DB11C4D5543056002E08C
:101B4000194D5543056002E0174D056000BF00BF09
:101B5000144D6D6805F0F0010909154D6B5C0568C1
:101B6000DD4045600F4D6D6805F4E061090A104DD8
:101B70006B5C4568DD4085600A4D6D6805F4605119
:101B8000C90A0B4D6B5C4568DD40C560054D6D684D
:101B900005F44041890B074D6B5CC568B5FBF3F557
:101BA000056130BD0010024000127A0000093D00BE
:101BB000140000202400002010B50146002200235C
:101BC00000204A11012A02D1094C236806E0022AAA
:101BD00002D1074C236A01E0054C636A01F01F0241
:101BE000012494401C400CB1012000E0002010BDF5
:101BF0000010024000210B4A11700A4A203A82F874
:101C00002010012802D0042808D103E00121054A50
:101C1000117004E00521034A117000E000BF00BF0D
:101C20007047000020100240014908607047000022
:101C30003C0442420249096A0143014A1162704769
:101C400000100240024909888143014A118070470F
:101C5000042800400348008840F010000149088033
:101C60007047000004280040034800884FF6EF71D9
:101C700008400149088070470428004070B50026DC
:101C80000024002500F07AF806463848B6FBF0F448
:101C900037480088A0423CD035490C8040F2B275EC
:101CA00010E02846FFF7BAF840B1B4F5B77F02D389
:101CB000A4F5B77404E0681C85B206E0A4F26D14C4
:101CC000681C85B2B4F5B67FEBD800BF2948858083
:101CD000002516E027498888FFF7A0F830B1012DCC
:101CE00004D11D2C01D31D3C09E00CE02248405DCD
:101CF000A04203D82048405D241A00E003E0681C9D
:101D000085B21C2CE6D200BF681C1A498871601C81
:101D1000C8711648B6FBF0F100FB11644FF4616026
:101D2000B4FBF0F0134908704FF46160B4FBF0F1BC
:101D300000FB11403C21B0FBF1F00E4948704FF41C
:101D40006160B4FBF0F100FB11403C21B0FBF1F20B
:101D500001FB1200074988700B46DA799979988857
:101D600000F028F803490872002070BD805101007E
:101D70003A00002094000020B435000800210348F8
:101D80000188001F008841EA004070471C2800407D
:101D900001460020064A12880A40D0B2044A121FA7
:101DA00012880A4012B108B1012000E000207047FB
:101DB00004280040F0B503460C461546642093FB0A
:101DC000F0F0C6B2642093FBF0F700FB1730C1B20D
:101DD000132E02DD01F16400C1B20846CF1701EBFA
:101DE000977701EBA707BAB2072092FBF0F700FB49
:101DF000172082B25719601EDFF82CC01CF80000B3
:101E0000384482B2CF1701EB9777BF10A1EB870759
:101E10001FB9032C01DA501E82B2072092FBF0F7A3
:101E200000FB1720C0B2F0BDA83500080EB5012098
:101E3000FFF7AEFF20B1FFF721FF01201049087026
:101E40000220FFF7A5FFA0B10220FFF7FBFEFFF77E
:101E500015FF0C4880780B4949780A4A1278CDE979
:101E6000002102900748C3798279818806A001F099
:101E7000C9F80520FFF7E6FE00F018F90EBD0000D6
:101E80003800002094000020416C61726D2054697C
:101E90006D653A25642D25642D25642025643A2539
:101EA000643A25640A00000029B1064A12880243F8
:101EB000044B1A8004E0034A12888243014B1A80C3
:101EC00070470000002800401CB5002401214FF09D
:101ED000C050FFF7C1FD0120FFF75CF80420FEF7BA
:101EE000C7FB45F2500188423FD0FEF7B9FB012005
:101EF000FFF780FE04E0601CC4B20A2001F0F4F990
:101F00004120FFF759FE08B9FA2CF4DBFA2C01DB6B
:101F100001201CBD4FF48070FFF78CFE0120FFF7FD
:101F200083FE00F0C3F800F0CBF801210846FFF76C
:101F3000BBFF00F0BBF8FFF78DFE47F6FF7000F027
:101F4000A5F800F0B3F800200090034601221146E6
:101F5000019040F2DF7000F027F8FFF785FE45F2B0
:101F600050010420FEF792FB07E000F0A9F80121E0
:101F70000846FFF799FF00F099F800F004F8FFF722
:101F80007DFE0020C5E708B503208DF80000002085
:101F90008DF801008DF8020001208DF803006846DD
:101FA000FEF7B6FF08BD00002DE9F05F06460F46BC
:101FB00090469946DDE90AAB002440F2B2708642B1
:101FC00003DB40F63300864202DD0120BDE8F09FCE
:101FD00040F2B2750AE02846FEF720FF10B1204813
:101FE000044401E01F480444681C85B2B542F2DB9A
:101FF000781EC7B2002510E01B48405D40F2A321C7
:10200000484304EBC0143046FEF708FF18B1012D19
:1020100001D116480444681C85B2BD42ECDBA8F12E
:10202000010040F2A321484304EBC014C9EB49105E
:10203000C0EB092004EB0014CAEB0A1004EB800487
:102040005C4401214FF0C050FFF706FD0120FEF770
:10205000A1FF204600F00CF800F028F80020B5E7BA
:102060000085E2018033E101B435000880510100B0
:1020700000B50246FFF7EEFD100C03490880091D6C
:102080000A80FFF7F1FD00BD1828004000B50246A8
:10209000FFF7E0FDC2F3034003490880091D0A80F1
:1020A000FFF7E2FD00BD00000828004000BF034824
:1020B000008800F020000028F9D070470428004074
:1020C000074800884FF6F77108400549088000BFAF
:1020D0000348008800F008000028F9D0704700008D
:1020E0000428004070B5044604F03F0040F080052D
:1020F000284600F0DDFC034800F0E6FCC6B230469E
:1021000070BD000000480040044988794FF6FF7117
:1021100001EA00200149C9790843704748000020BE
:102120002DE9F0430146122037E0DFF878C01CF8B3
:102130000020E04600F1010C18F80C5000F1020CF0
:1021400018F80C3000F1030C18F80C40A2F1300C18
:102150004FF47A780CFB08FCA5F1300808EBC809AD
:1021600009EB08180CEB8808A3F1300C0CEB8C0C75
:1021700008EB4C08A4F1300CC4441FFA8CF7A0F112
:10218000120C4FEAEC780CEB9878C8F3870621F82C
:10219000167000F1040C0CF0FF002A28C5DBBDE826
:1021A000F08300004800002018B50948007B8DF836
:1021B00000000748407B8DF801000548807B8DF8C2
:1021C00002006846FEF738FA0446204618BD0000B3
:1021D0004800002010B50B46002105E0048823F8D4
:1021E0001140801C4C1CA1B29142F7DB10BD0000D5
:1021F0002DE9F05F80468A461746B8F1006F02D39A
:102200003348804501D3BDE8F09FFEF705FCA8F1F7
:10221000006B4FEA9B25CBF34809C9F50074A74230
:1022200000DC3C464DE04FF0006101EB85208A1454
:102230002849FFF7CFFF00260BE009EB06002549F0
:1022400031F810004FF6FF71884200D003E0701C97
:1022500086B2A642F1DB00BFA6421BDA4FF0006156
:1022600001EB8520FEF76AFB002608E03AF816002D
:1022700006EB0901174A22F81100701C86B2A6422B
:10228000F4DB4FF0006101EB85208A14114900F066
:1022900023F804E022465146404600F01DF8A742CC
:1022A00000D10FE06D1C4FF000090AEB440AA04476
:1022B000381B87B2B7F5007F02DD4FF4007400E0F1
:1022C0003C46B0E700BFFEF77BFB00BF9BE700008A
:1022D000000001089E0000202DE9F04105460E4651
:1022E0001746002407E036F814102846FEF772FB64
:1022F000AD1C601C84B2BC42F5DBBDE8F0817047C8
:1023000070B505460C462846FFF7ECFE064646EA41
:102310000401284600F064FE70BD10B500F002F81C
:1023200010BD00000CB500200190009033480068FB
:1023300040F480303149086000BF3048006800F444
:10234000003000900198401C0190009818B9019845
:10235000B0F5A06FF1D12948006800F4003010B149
:102360000120009001E0002000900098012843D156
:102370002348006840F010002149086008460068C2
:1023800020F0030008600846006840F00200086082
:102390001A4840681949486008464068486008463D
:1023A000406840F4806048600846406820F47C1033
:1023B00048600846406840F4E810486008460068F5
:1023C00040F08070086000BF0C48006800F00070AA
:1023D0000028F9D00948406820F003000749486008
:1023E0000846406840F00200486000BF034840686B
:1023F00000F00C000828F9D10CBD000000100240CC
:1024000000200240042808D14FF0E021096941F082
:1024100004014FF0E022116107E04FF0E02109696B
:1024200021F004014FF0E022116170477047000075
:1024300010B51348006840F00100114908600846D3
:102440004068104908400E494860084600680E4937
:1024500008400B4908600846006820F480200860A6
:102460000846406820F4FE0048604FF41F00886072
:10247000FFF753FF4FF000600449086010BD0000F3
:10248000001002400000FFF8FFFFF6FE08ED00E03C
:1024900010B50121064800F04EF818B1012104489A
:1024A00000F03AF803480068401C0249086010BD7B
:1024B00000040040400000207FB505460C46012185
:1024C0000220FFF7C9FAADF80850ADF8044000202B
:1024D000ADF80A00ADF8060001A90E4800F046F874
:1024E000012211460B4800F037F81D208DF800003E
:1024F00000208DF8010003208DF8020001208DF8E6
:1025000003006846FEF704FD0121024800F007F8C9
:102510007FBD000000040040CA430282704721B121
:10252000028842F00102028004E002884FF6FE7346
:102530001A400280704730B5024600200023002474
:10254000158A05EA0103958905EA010413B10CB166
:10255000012000E0002030BD1AB183890B43838144
:1025600002E083898B438381704700000022028848
:102570001D4B98420ED01D4B98420BD0B0F1804FAE
:1025800008D01B4B984205D01A4B984202D01A4BE8
:10259000984204D14FF68F731A404B881A43174B59
:1025A000984207D0164B984204D04FF6FF431A408A
:1025B000CB881A4302808B8883850B8803850A4B5E
:1025C00098420BD0094B984208D00E4B984205D048
:1025D0000D4B984202D00D4B984201D10B7A0386E5
:1025E0000123838270470000002C01400034014029
:1025F0000004004000080040000C004000100040B3
:1026000000140040004001400044014000480140E7
:1026100010B54FF480710648FEF712FB0321092024
:1026200000F008F88021082000F004F810BD000038
:102630000008014070B505460C46FEF76FFBD02040
:10264000FEF732FBFEF7B6FB08B1012070BD28464D
:10265000FEF72AFBFEF7AEFB08B10120F6E72046A5
:10266000FEF722FBFEF7A6FB08B10120EEE7FEF71E
:102670007BFB0020EAE7000010B500BF40F22551C7
:10268000104800F0D8F860B10E48001D0088C1B2B3
:102690000D4802780078401C0B4B18700B48815491
:1026A0000FE040F22441074800F0C5F848B1054862
:1026B000001D0088C4B203480088C4B20120044948
:1026C000087010BD00380140300000204800002094
:1026D0003100002010B515480078401C13490870DF
:1026E00040F22551124800F0A6F8F0B1104800F071
:1026F0005DF9C4B20F48407870B9AA2C15D10120F9
:102700000C49487008468178C01C4454C01E80782B
:10271000401C0849887008E006488178C01C445471
:10272000C01E8078401C0349887010BD2A0000201C
:10273000004400407200002010B540F225510748C7
:1027400000F079F840B1054800F030F9C4B2FF203C
:10275000034908700348047010BD000000480040A1
:102760003C0000203D00002021B1828942F400524B
:10277000828104E082894DF6FF731A40828170479E
:1027800010B504462048844209D101218803FFF78F
:1027900093F900214FF48040FFF78EF932E01B4897
:1027A000844209D101214804FFF766F900214FF462
:1027B0000030FFF761F925E01548844209D1012175
:1027C0008804FFF759F900214FF48020FFF754F9EE
:1027D00018E01048844209D10121C804FFF74CF9E0
:1027E00000214FF40020FFF747F90BE00A4884422C
:1027F00008D101210805FFF73FF900214FF48010AF
:10280000FFF73AF910BD00000038014000440040D5
:1028100000480040004C00400050004002460020AC
:10282000B1F5007F00D100BF13880B400BB1012030
:1028300000E00020704770B5024600240023002508
:10284000002040F66A16B14200D100BFC1F3421524
:1028500001F01F03012606FA03F3012D02D1968928
:10286000334006E0022D02D1168A334001E0968AF9
:1028700033400C12012606FA04F41688344013B1D2
:102880000CB1012000E0002070BDF0B5034600242B
:1028900000260025002040F66A17B94200D100BF8B
:1028A0001846C1F3421401F01F06012707FA06F586
:1028B000012C01D10C3004E0022C01D1103000E0D9
:1028C00014301AB107682F43076002E00768AF436E
:1028D0000760F0BD2DE9F04786B005460E4600249E
:1028E000A24600BFA1460027B08900B100BF2F4615
:1028F0002C8A4CF6FF700440F08804432C82AC898B
:102900004EF6F3100440B0883189084371890843BA
:102910000443AC81AC8A4FF6FF400440B0890443C5
:10292000AC8201A8FFF7DEF81F48874202D1DDF82C
:1029300010A001E0DDF80CA0A88900F4004040B12F
:102940000AEBCA0000EB0A1031684900B0FBF1F84D
:1029500007E00AEBCA0000EB0A1031688900B0FBFF
:10296000F1F86420B8FBF0F004012009642101FBB8
:102970001089A88900F4004040B1322000EBC90062
:10298000B0FBF1F000F00700044308E0322000EB58
:1029900009106421B0FBF1F000F00F0004432C811A
:1029A00006B0BDE8F0870000003801400146888885
:1029B000C0F308007047C1F308028280704700002E
:1029C00008B501210820FFF767F801210846FFF745
:1029D00063F801211548FEF7EBF82020ADF8000060
:1029E00010208DF8030003208DF80200694610487E
:1029F000FEF752F81020ADF8000069460C48FEF7CB
:102A00004BF800200B4908600B49C1F890014FF4C6
:102A100000710748FEF714F9642000F065FC4FF4DC
:102A200000710348FEF70EF908BD000000023000F7
:102A3000000C0140948121420080214270B504467F
:102A40000020194908601949C1F89401642000F078
:102A500071FC012014490860642000F06BFC002028
:102A60001249C1F89001642000F064FC01200E4975
:102A70000860642000F05EFC00200C49C1F8900161
:102A800001250EE001200849091D0860642000F0BE
:102A900051FC00200549C1F89401642000F04AFC73
:102AA0006D1CA542EEDD70BD908121420080214267
:102AB00010B504462146024800F038F810BD000069
:102AC0000048004000BFFEE710B504460B480C4923
:102AD000086008E00A490868411E094A116010B9F7
:102AE0004FF6FF7010BD20212046FFF797FE00280B
:102AF000F0D02046FFF75AFFC0B2F3E7FFFF0F0008
:102B00002C000020014607480078012807D100204A
:102B1000044A1070044A107046F26660704743F22F
:102B20003330FBE7310000203000002070B5044650
:102B30000D460C480C49086029462046FFF73BFF2C
:102B400008E009490868411E074A116010B94FF6AC
:102B5000FF7070BD80212046FFF760FE0028F0D096
:102B60000020F6E7FFFF0F002C000020FEB507460F
:102B70000D4616464FF6CF60ADF800000120ADF8C7
:102B800002000C20ADF8040040F20130ADF8060060
:102B9000ADF80850ADF80A60002407E0684600EB85
:102BA0004401384600F0BFFC601CC4B2062CF5DBC3
:102BB000FEBDFEB507460C4616464FF6CF60ADF893
:102BC00000000120ADF80200032C03DA0C20ADF860
:102BD000040002E00F20ADF8040040F20130ADF82F
:102BE0000600ADF808400020ADF80A00002507E017
:102BF000684600EB4501384600F095FC681CC5B2FC
:102C0000062DF5DB032C03D13146384600F067F979
:102C1000FEBD3EB505464FF6CF60ADF80000012081
:102C2000ADF802000C20ADF8040040F60200ADF84B
:102C300006000020ADF808004FF40060ADF80A006F
:102C4000002407E0684600EB4401284600F06BFCD6
:102C5000601CC4B2062CF5DB3EBD3EB505464FF602
:102C6000CF60ADF800000120ADF802000C20ADF8F7
:102C7000040040F60200ADF806000020ADF80800A0
:102C8000ADF80A00002407E0684600EB440128463E
:102C900000F049FC601CC4B2062CF5DB3EBDFEB55D
:102CA00006460D464FF6CF60ADF800000120ADF8A6
:102CB00002000C20ADF804004FF48270ADF806005D
:102CC0000020ADF80800ADF80A50002407E068467F
:102CD00000EB4401304600F026FC601CC4B2062C18
:102CE000F5DBFEBDFEB505460E464FF6CF60ADF8EE
:102CF00000000120ADF802000F20ADF804004FF4F1
:102D00008270ADF806000020ADF80800ADF80A00AA
:102D1000002407E0684600EB4401284600F003FC6D
:102D2000601CC4B2062CF5DB3146284600F0D7F80B
:102D3000FEBD3EB505464FF6CF60ADF80000012060
:102D4000ADF802000C20ADF8040040F60400ADF828
:102D500006000020ADF808004FF40060ADF80A004E
:102D6000002407E0684600EB4401284600F0DBFB46
:102D7000601CC4B2062CF5DB3EBD3EB505464FF6E1
:102D8000CF60ADF800000120ADF802000C20ADF8D6
:102D9000040040F60400ADF806000020ADF808007D
:102DA000ADF80A00002407E0684600EB440128461D
:102DB00000F0B9FB601CC4B2062CF5DB3EBDFEB5CD
:102DC00006460D464FF6CF60ADF800000120ADF885
:102DD00002000C20ADF8040040F20230ADF806000D
:102DE0000020ADF80800ADF80A50002407E068465E
:102DF00000EB4401304600F096FB601CC4B2062C88
:102E0000F5DBFEBDFEB505460E464FF6CF60ADF8CC
:102E100000000120ADF802000F20ADF8040040F2E0
:102E20000230ADF806000020ADF80800ADF80A0049
:102E3000002407E0684600EB4401284600F073FBDD
:102E4000601CC4B2062CF5DB3146284600F047F87A
:102E5000FEBD3EB505464FF6CF60ADF8000001203F
:102E6000ADF802000C20ADF8040040F60300ADF808
:102E700006000020ADF808004FF40060ADF80A002D
:102E8000002407E0684600EB4401284600F04BFBB5
:102E9000601CC4B2062CF5DB3EBD3EB505464FF6C0
:102EA000CF60ADF800000120ADF802000C20ADF8B5
:102EB000040040F60300ADF806000020ADF808005D
:102EC000ADF80A00002407E0684600EB44012846FC
:102ED00000F029FB601CC4B2062CF5DB3EBDF8B542
:102EE00006460D466946284600F00CF8002406E028
:102EF0000DEB0401304600F007FB601CC4B2032C4C
:102F0000F6DBF8BDF0B5642590FBF5F5ECB20A25CB
:102F100090FBF5F50A2695FBF6F706FB1755EAB286
:102F20000A2590FBF5F605FB1605EBB204F130051A
:102F30000D7002F130054D7003F130058D70F0BD5C
:102F400000B587B001210420FEF7A6FD0120ADF8F1
:102F5000180000208DF81B0003208DF81A0006A928
:102F60001D48FDF799FD01214802FEF795FD4FF43C
:102F70004040FEF765FD1948FDF708F90020019073
:102F80008DF808008DF809004FF4602003900020B0
:102F9000049001208DF8140001A91048FDF738F9BC
:102FA0000120FDF767F901210C48FDF7E3F80B4814
:102FB000FDF756F900BF0948FDF720F90028FAD1BE
:102FC0000648FDF752F900BF0448FDF70DF9002847
:102FD000FAD107B000BD0000000801400024014004
:102FE00070B504460D4604F03F063046FFF760FD1D
:102FF0000348FFF769FD2846FFF75AFD70BD000042
:10300000004800400FB4054B10B503A9044A0298CC
:1030100000F018F810BC5DF814FB000081330008C4
:103020004400002002E008C8121F08C1002AFAD19B
:1030300070477047002001E001C1121F002AFBD138
:10304000704700002DE9FF4F8BB09A460F460546AA
:10305000002606E025280BD052460D9990476D1C9E
:10306000761C28780028F5D10FB03046BDE8F08FE7
:103070000024A0460122604900E0044315F8013F06
:10308000203B02FA03F00842F7D128782E2817D106
:1030900015F8010F44F004042A280ED06FF02F0217
:1030A0002878A0F1300109290AD808EB880102EB41
:1030B000410100EB01086D1CF2E757F8048B6D1C11
:1030C000287869283ED006DC0028CDD063280BD0B4
:1030D000642804D136E0732810D075284BD05246AE
:1030E0000D999047761C85E017F8040B8DF80000C9
:1030F00000208DF80100E946012003E057F8049B09
:103100004FF0FF3061074FF0000401D40AE0641C67
:1031100044450DDA8442FADB19F804100029F6D18F
:1031200006E0641C8442FCDB19F804100029F8D185
:10313000264404E019F8010B52460D999047641E8D
:10314000F8D257E001CF4FF00A0B002802DA4042D4
:103150002D2102E0210504D52B218DF82410012119
:1031600003E0E10705D02021F7E70DF120090891E0
:103170000CE00021F9E701CF4FF00A0BF9E75946BF
:10318000FCF7D0FF01F1300209F8012D0028F6D13B
:10319000ADEB090000F1200B600701D44FF00108EE
:1031A000D84502DDA8EB0B0000E00020804600249B
:1031B00006E009A85246005D0D999047641C761CF4
:1031C00008988442F5DB04E0302052460D99904780
:1031D000761CB8F10001A8F10108F5DC05E019F84A
:1031E000010B52460D999047761CBBF10001ABF1E3
:1031F000010BF4DC6D1C34E70928010000B585B033
:1032000001210420FEF748FC2448FFF7B9FA4FF4E7
:103210008060ADF8100004208DF8130003208DF8B5
:10322000120004A91E48FDF737FC4FF40070ADF8FA
:10323000100018208DF8130003208DF8120004A947
:103240001748FDF729FC01218803FEF725FC4FF400
:10325000E13000900020ADF80400ADF80600ADF8B4
:103260000800ADF80C000C20ADF80A0069460B48C8
:10327000FFF730FBFDF724FE012240F225510748FD
:10328000FFF703FB012240F224410448FFF7FDFA57
:1032900001210248FFF768FA05B000BD003801407F
:1032A0000008014010B56FF00400FFF7ABF80A48C2
:1032B00000680A49B0FBF1F0094908700846007837
:1032C00000EB4001C1EBC0104FF6FF7101EAC000F6
:1032D0000449088010BD00000000002000127A00A0
:1032E00032000020340000200146114A12884A436F
:1032F0004FF0E0235A6100229A611A46126942F0A7
:1033000001021A6100BF4FF0E022106900F00102D3
:103310001AB100F48032002AF5D04FF0E022126991
:1033200022F001024FF0E0231A6100229A617047F7
:10333000340000200146114A12784A434FF0E0233E
:103340005A6100229A611A46126942F001021A611A
:1033500000BF4FF0E022106900F001021AB100F442
:103360008032002AF5D04FF0E022126922F00102EB
:103370004FF0E0231A6100229A617047320000206A
:1033800070B504460D46E1B20548FFF714FB00BFD7
:1033900080210348FFF742FA0028F9D0204670BD8B
:1033A0000038014008B5FFF77DFFFEF78DFDFDF702
:1033B0007BF9FFF723FF00F0D5F84FF40071504878
:1033C000FDF740FCFEF7B2FA41F61F416320FFF71C
:1033D00073F8FEF759F9FFF7F3FAFDF733FF8DE0C5
:1033E0004848FFF78FFB46F266618842F7D1FEF747
:1033F0008BFE054640F60201681A8D421CD008DC9F
:10340000B5F5827F51D0A5F2013038B1012873D1D2
:1034100025E0012836D002286ED159E00520FFF7BB
:103420000DFB6846FCF738FF28B9BDF800200321E2
:103430003448FFF7BEFB60E00520FFF7FFFAFEF718
:10344000B3FE0090BDF80000FDF7A8F918B92D48AB
:10345000FFF703FC02E02B48FFF7DBFB4DE0052004
:10346000FFF7ECFA6846FDF785F804462CB9BDF87D
:1034700000102448FFF7C6FC03E021462148FFF76F
:103480009EFC3AE00520FFF7D9FAFEF78DFE00908A
:10349000BDF80000FDF7C2F918B91A48FFF7FDFCA6
:1034A00002E01848FFF7D5FC27E00520FFF7C6FA31
:1034B0006846FCF7B7FF04462CB9BDF80010114868
:1034C000FFF710FC03E021460E48FFF7E8FB14E08D
:1034D0000520FFF7B3FAFEF767FE0090BDF8000085
:1034E000FDF784F920B90748FFF747FC03E003E044
:1034F0000448FFF71EFC00E000BF00BF70E70000BB
:10350000000C01400038014070B505460C4621789A
:103510002846FFF750FA00BF80212846FFF77EF9C2
:103520000028F9D070BD2DE9F04105460C462088F1
:10353000060A277831462846FFF73DFA00BF80216A
:103540002846FFF76BF90028F9D039462846FFF7DF
:1035500032FA00BF80212846FFF760F90028F9D031
:10356000BDE8F08138B501210820FEF795FA4FF447
:103570000070ADF8000010208DF8030003208DF8D6
:10358000020069460748FDF787FA4FF400710548C5
:10359000FDF756FB002400E0641C40F2E730844253
:1035A000FADB38BD000C01400003030601040602EB
:1035B000050003051F1C1F1E1F1E1F1F1E1F1E1F91
:1035C000E03500080000002048000000243000081A
:1035D0002836000848000020580800003430000851
:1035E00000A24A04000000000000000001020304E1
:1035F0000607080900000000010203040102030499
:10360000060708090204060800000000FFFF0F007B
:1036100000000000000000000000000000000000AA
:083620000000000000000000A2
:04000005080000ED02
:00000001FF
