:020000040800F2
:10000000A00A002001010008991800082911000821
:1000100095180008E9080008B13D0008000000003C
:1000200000000000000000000000000097330008FE
:100030000709000800000000E91F0008C534000897
:100040001B0100081B0100081B010008912F00087C
:100050001B0100081B0100089D0B00081B01000884
:100060001B0100081B0100081B0100081B01000800
:100070001B0100081B0100081B0100081B010008F0
:100080001B0100081B0100081B0100081B010008E0
:100090001B0100081B0100081B0100083D0C0008A3
:1000A0001B0100081B0100081B0100081B010008C0
:1000B0001B010008293500081B0100081B0100086E
:1000C0001B0100081B0100081B0100081B010008A0
:1000D0001B0100086539000899390008FD3900083E
:1000E000E90B00081B0100081B010008DFF80CD019
:1000F00000F09EFA004800470D540008A00A0020B6
:100100000648804706480047FEE7FEE7FEE7FEE7B1
:10011000FEE7FEE7FEE7FEE7FEE7FEE7C93400087C
:10012000ED000008F0B480EA0102D40F4200B2EB07
:10013000410F02D20246084611464A0042D0C30D82
:10014000DDB2C1F3C752AD1A202D35DAC1F3160165
:1001500041F4000204B15242C5F1200602FA06F150
:100160002A411044B3EBD05F23D0C4B1012DA0EBE2
:10017000C35009DCF0BC4FF0004202EAC352DBB2CC
:1001800000F5000000F0C8B9400000F1807000EBFD
:10019000C350A0F1807040EAD170490009E04908DD
:1001A00041EAC071A0EBC35000F50000400800EB2D
:1001B000C350F0BC00F0A7B96142012202EB41013B
:1001C000001BF6E7F0BC704781F00041AAE780F021
:1001D0000040A7E780EA010210B502F000434000AA
:1001E00022D04A001FD0010E01EB1261C0F356006D
:1001F000C2F3560240F4000042F40002A0FB0220C9
:1002000000047F39140400D0401C50EA124001D48D
:100210004000491EC2B20C0604EBD010401C40083E
:10022000802A02D003E0002010BD20F00100002948
:1002300000DA0020184310BD2DE9FE4F81EA0304C7
:1002400004F0004421F0004100944FF0000B23F033
:10025000004350EA01045ED052EA03045BD0C3F3CA
:100260000A54C1F30A552C44A4F2F3340194A0FBC0
:100270000254C1F3130141F48011C3F3130343F497
:10028000801301FB024400FB034E840A970A44EAF0
:10029000815447EA8357A4FB076802958D0A05FB42
:1002A00007854FEA932C04FB0C542705029D4FEA67
:1002B000065847EA1637B5EB08056EEB070C870EB4
:1002C000920E47EA811742EA8312A7FB0201B6EBBE
:1002D0000B0164EB00042B0D43EA0C335E1844EB76
:1002E0001C50DA465146E7FB0201C5F313044FEAFE
:1002F0000B3343EA14534FEA0432019C43EA0603EA
:10030000A4F10C040294009CCDE900B400F041F982
:1003100003B0BDE8F08F00200146F9E72DE9F04D6C
:1003200081EA030404F0004B21F0004514464FF02D
:10033000000A23F0004150EA050220D054EA0102ED
:100340001DD0C5F30A570246C5F31303C1F31300CA
:10035000C1F30A5640F4801543F48013A7EB060856
:10036000101BD64608F2FD3873EB050002D308F1E6
:10037000010801E092185B41B8F1000F03DA002098
:100380000146BDE8F08D00204FF4801106468446FA
:100390000EE0171B73EB050705D3121B63EB050378
:1003A00006434CEA010C49084FEA300092185B41C1
:1003B00050EA0107EDD152EA030012D082EA0400AC
:1003C00083EA0501084305D0101BAB4106D2012288
:1003D000002306E000224FF0004302E06FF001022C
:1003E00053101AEB06004CEB085110EB0A0041EBDE
:1003F0000B01BDE8F04D00F0BDB80EB540F2334141
:1004000002910021CDE900110A460B4600F0C1F827
:1004100003B000BD00F0004230F000400AD0C10D32
:1004200001F56071C0F3160042EA0151C2084007AD
:1004300011437047002001467047000030B5041E8C
:1004400071F1000404DB4FF00044404264EB010111
:10045000141E73F1000405DB1C464FF000435242AA
:1004600063EB04038B4208BF824230BD01F00043BE
:1004700030B421F0004150EA010206D00A0DA2F585
:100480006072C1F31301002A02DC30BC0020704707
:10049000440F44EAC104C100E01830BC00EBC25074
:1004A00000F031B82DE9F05F0546002092469B46EA
:1004B00088460646814640241BE02846414647467A
:1004C000224600F0D6F853465A46C01A914110D33E
:1004D00011461846224600F0BDF82D1A67EB0108B8
:1004E0004F4622460120002100F0B4F817EB000926
:1004F0004E41201EA4F10104DFDC484631462A4665
:100500004346BDE8F09F0029A8BF7047401C490042
:1005100008BF20F00100704710B4B0FA80FC00FA68
:100520000CF050EA010404BF10BC704749B1CCF193
:10053000200421FA04F411FA0CF118BF012121431F
:100540000843A3EB0C01CB1D4FEA00614FEA1020DA
:1005500042BF002010BC704700EBC350104400297C
:10056000A4BF10BC7047401C490008BF20F0010028
:1005700010BC704710B5141E73F1000408DA401C5B
:1005800041F1000192185B411A4301D120F00100B2
:1005900010BD2DE9F04D92469B4611B1B1FA81F2A2
:1005A00002E0B0FA80F22032904600F053F80446A0
:1005B0000F4640EA0A0041EA0B0153465A460843F7
:1005C00013D0114653EA010019D0C8F14002504639
:1005D00000F04FF805460E4650465946424600F098
:1005E00039F8084305D0012004E020463946BDE82B
:1005F000F08D0020054346EAE0762C4337430A9805
:100600006305E40AA0EB08000022FD0A44EA47540F
:100610000A3002D500200146E9E7010510196941B9
:10062000DDE9084500196941BDE8F04DA2E7000089
:10063000064C074D06E0E06840F0010394E807002F
:1006400098471034AC42F6D3FFF754FD48A5000894
:1006500068A50008202A04DB203A00FA02F10020F5
:1006600070479140C2F1200320FA03F319439040F0
:100670007047202A04DB203A21FA02F0002170475B
:1006800021FA02F3D040C2F12002914008431946FA
:10069000704721B1826842F00102826003E0826803
:1006A00022F001028260704710B50446124884426D
:1006B00008D10121401502F0B1FA0021601502F0C5
:1006C000ADFA17E00D48844208D10121001502F06F
:1006D000A5FA0021201502F0A1FA0BE00848844297
:1006E00008D10121C80302F099FA00214FF400401B
:1006F00002F094FA10BD00000024014000280140DF
:10070000003C0140014600208A6802F004020AB160
:10071000012000E0002070470146C86C80B270479D
:100720000246002013680B400BB1012000E00020BE
:100730007047014600208A6802F008020AB10120D1
:1007400000E000207047000030B502460020002382
:1007500050680F4C20400D790C6844EA0524204372
:10076000506090680B4C2040D1E902542C434D79E5
:1007700044EA450420439060D06A20F470000C7C69
:10078000641EE4B2234340EA0350D06230BD00004F
:10079000FFFEF0FFFDF7F1FFF0B504460D46002027
:1007A0000021092D11DDE068A5F10A0606EB4607D8
:1007B000072606FA07F18843A5F10A0606EB460666
:1007C00003FA06F10843E0600CE0206905EB4507F9
:1007D000072606FA07F1884305EB450603FA06F1FA
:1007E00008432061072A0FDA606B561E06EB860766
:1007F0001F2606FA07F18843561E06EB860605FA01
:1008000006F10843606322E00D2A0FDA206BD61F41
:1008100006EB86071F2606FA07F18843D61F06EB6C
:10082000860605FA06F10843206310E0E06AA2F1AB
:100830000D0606EB86071F2606FA07F18843A2F18C
:100840000D0606EB860605FA06F10843E062F0BDE8
:10085000816841F008018160704721B1826842F4EB
:10086000A002826003E0826822F4A00282607047E6
:10087000816841F0040181607047000030B1074990
:10088000096841F40001054A116005E0034909685F
:1008900021F40001014A1160704700000824014062
:1008A00010B5012002F0CAF9002002F0C7F910BD0E
:1008B00008B50146002000900348009000980844C5
:1008C00000900098008808BD006C004008B5002228
:1008D0000092044A0092009A02440092009A116029
:1008E00008BD0000006C004000BFFEE770B5054683
:1008F0000C46284602F0A8FC064626EA04012846D3
:1009000003F046FB70BD70472DE9FE4F81460C4653
:1009100016469B460020029000270190BBF1000F75
:1009200007D0701E20443F280ADDC4F14000C6B243
:1009300006E0701E48447F2802DDC9F18000C6B27F
:10094000BBF1000F52D02046E11704EB5171C910E2
:10095000491CC4EBC10101F0FF0AA6EB0A00C11754
:1009600000EB5171C1F3C705A6EB0A00A0EBC5006F
:1009700000F0FF08E01704EB5070C0F3C7014846D1
:10098000009401F0AEF8504604F049FA009005F0EA
:10099000DDFB0290029803F0F3FA00270EE0E01767
:1009A00004EB5070C010401C3844C1B2484600945B
:1009B00001F097F8FF2003F0E3FA7F1CAF42EEDB73
:1009C000B8F1000F65DDE01704EB5070C010401C5B
:1009D0002844C1B24846009401F083F8404604F030
:1009E0001EFA0290029803F0CBFA52E03046F1175B
:1009F00006EB5171C1F3C705A6EBC50000F0FF0877
:100A0000E01704EB5070C0F3C7014846009401F0B2
:100A100068F82046E11704EB5171C910491CC4EB7A
:100A2000C101C9B202910298401E80210141029188
:100A3000E01704EB5070C0F3C7014846009401F082
:100A400050F8002001900AE0002703E0029803F02C
:100A500097FA7F1C082FF9DB0198401C0190019840
:100A6000A842F1DBE21704EB5272C2F3C70109EBB3
:100A7000C502D0B2009401F034F8002707E04745E2
:100A800001DB00200290029803F07AFA7F1C082F05
:100A9000F5DBBDE8FE8F2DE9F84F06460F46904680
:100AA000994644463546BA46B9F1000F01D000F0E8
:100AB00049FF1BE0207880280CDA01200090637841
:100AC00022785146284601F01FF805F10800C5B20A
:100AD000641C0BE000200090637822785146284681
:100AE00001F012F805F11000C5B2A41C207800280E
:100AF000E0D1BDE8F88F2DE9F84F06460F46904645
:100B0000994644463546BA46B9F1000F23D05146BE
:100B1000002000F0E6FF4FF0000B06E0002003F09D
:100B20002FFA0BF1010000F0FF0BBBF1800FF5DB9A
:100B30000AF10100C1B2002000F0D3FF4FF0000B1A
:100B400006E0002003F01CFA0BF1010000F0FF0B9F
:100B5000BBF1800FF5DB1BE0207880280CDA012048
:100B60000090637822785146284600F0CDFF05F1C9
:100B70000800C5B2641C0BE0002000906378227866
:100B80005146284600F0C0FF05F11000C5B2A41C74
:100B900020780028E0D1BDE8F88F000010B50F489C
:100BA0000078B0B102F090FC00200C4908700C49AC
:100BB000087003F03DF900F089FF4FF40071094817
:100BC00000F016FA552003F0E9F801F055FF02F0A5
:100BD0006DFE012000F038F810BD00003800002044
:100BE0002C000020000C014010B511480078C8B15D
:100BF00002F06AFC00200E49087001200D490870BF
:100C000003F016F901F0CCFD00F060FF4FF4007125
:100C1000094800F0EDF9552003F0C0F801F02CFF71
:100C200002F044FE4FF4804000F00EF810BD0000CA
:100C3000380000202C000020000C014010B54FF4BB
:100C4000807000F001F810BD014908607047000095
:100C500014040140002123498279002A3AD00A462F
:100C6000126803689A430B461A600A1D12680368EB
:100C70009A430B1D1A60027911440A6803681A43EB
:100C80000A60184A0832126803689A43154B083301
:100C90001A601A1D126803689A43124B0C331A60CB
:100CA0004279102A0ED11A1F126803681A430D4B9D
:100CB00008331A601A1D126803681A43094B0C3373
:100CC0001A600DE00749427911440A6803681A4323
:100CD0000A6005E0027911440A6803689A430A60D1
:100CE000704700000004014030B5054604244FF46D
:100CF000302000F073F80446042C19D10D48006927
:100D000040F002000B49086108464561006940F067
:100D1000400008614FF4302000F060F80446052CD4
:100D200006D00448006941F6FD7108400149086198
:100D3000204630BD0020024004200B49C96801F064
:100D4000010109B101200EE00749C96801F0040161
:100D500009B1022007E00449C96801F0100109B196
:100D6000032000E00420704700200240034800698F
:100D700040F08000014908617047000000200240F7
:100D800070B505460E460424E00200F027F804463C
:100D9000042C13D10A48006940F001000849086199
:100DA0002E80E00200F01AF80446052C06D0044814
:100DB000006941F6FE71084001490861204670BD96
:100DC00000200240024803494860034848607047D9
:100DD0002301674500200240AB89EFCD00B50246F4
:100DE0000423FFF7A9FF034603E0FFF7A5FF03462F
:100DF000521E012B01D1002AF7D102B90523184652
:100E000000BD000030B500228B071C0F0F2303FA32
:100E100004F20B4B8C1053F824309343084C8D1084
:100E200044F8253023468C1053F824308C07240FC7
:100E300000FA04F42343024C8D1044F8253030BDF1
:100E4000080001402DE9F04102460025002600205F
:100E500000230024002791F803C00CF00F0591F83F
:100E600003C00CF0100CBCF1000F03D091F802C0CD
:100E70004CEA050591F800C0BCF1000F31D01468B0
:100E800000202BE04FF0010C0CFA00F3B1F800C089
:100E90000CEA03069E4220D183004FF00F0C0CFA9F
:100EA00003F7BC4305FA03FC4CEA040491F803C0C1
:100EB000BCF1280F06D14FF0010C0CFA00FCC2F86F
:100EC00014C00AE091F803C0BCF1480F05D14FF0FF
:100ED000010C0CFA00FCC2F810C0401C0828D1D349
:100EE0001460B1F800C0BCF1FF0F34DD546800207D
:100EF0002EE000F1080C4FF0010808FA0CF3B1F8ED
:100F000000C00CEA03069E4221D183004FF00F0C73
:100F10000CFA03F7BC4305FA03FC4CEA040491F80D
:100F200003C0BCF1280F05D100F1080C08FA0CF839
:100F3000C2F8148091F803C0BCF1480F07D100F14A
:100F4000080C4FF0010808FA0CF8C2F81080401C99
:100F50000828CED35460BDE8F0810000F0B50A4601
:100F6000002300240021002500F00046B6F1004FC8
:100F700002D11D4EF16901E01B4E7168C0F30345BB
:100F800083B200F44016B6F5401F08D121F070611D
:100F9000154E766826F07066134F7E6012E000F4FE
:100FA0008016B6F5801F06D1032606FA05F4A14384
:100FB00041F0706106E0460D360103FA06F6B143D2
:100FC00041F0706122B1460D360103FA06F6314355
:100FD00000F00046B6F1004F02D1034EF16101E08E
:100FE000014E7160F0BD000000000140416170479A
:100FF0000161704708B50121082001F0FFFD402084
:10100000ADF8000010208DF8030003208DF80200D9
:1010100069460548FFF716FF8020ADF800006946D5
:101020000148FFF70FFF08BD000C014010B58021FB
:101030001A48FFF7DDFF40211848FFF7D7FF4FF4AC
:10104000FA7003F049FF40211448FFF7CFFF8021D9
:101050001248FFF7CBFF1248008810B9042002F0B5
:1010600063FE4FF47A7003F037FF4FF47A7003F0A9
:1010700033FF40210948FFF7BBFF80210748FFF7F6
:10108000B5FF4FF4FA7003F027FF40210348FFF744
:10109000ADFF80210148FFF7A9FF10BD000C014002
:1010A0003E0000202DE9F04F85B01421112002F000
:1010B00039FF83461421002002F034FF0490049885
:1010C000FFF79BF9804689465846FFF796F9024696
:1010D0000B46CDE900014FF033301049FFF71EF900
:1010E00042464B46CDE90201FFF7A6F8064600222C
:1010F0004FF08043FFF7A0F80446FFF7B7F98246A8
:1011000051460748FFF766F804460649FFF75CF8C2
:101110008246504605B0BDE8F08F00003333F33F00
:101120002A3ACA3F41F1EB3F00BFFEE770B50546E2
:101130000C4600F033F9782000F0BAF8284600F0A9
:10114000B7F8204600F0B4F800F074F970BDF8B5B7
:1011500004460020206000276946522000F0D9FE96
:101160000646262804D06946522000F0D2FE0646E4
:10117000262E12D1684600F0FAFD26280DD100F087
:10118000E3FD0127002506E01DF80500216840EA7F
:10119000012020606D1C042DF6DB3846F8BD0000F0
:1011A00010B500200F4908600F48006820F4702037
:1011B0000D4908600846006840F44030086000208F
:1011C0000A49C1F8B001052003F0ACFE0120054931
:1011D0000860052003F0A6FE00200449C1F8B40110
:1011E00010BD0000B4812142040C01400080214266
:1011F00010B500200F4908600F48006820F47020E7
:101200000D4908600846006840F44030086001203D
:101210000A49C1F8B001052003F084FE0120054908
:101220000860052003F07EFE00200449C1F8B401E7
:1012300010BD0000B4812142040C01400080214215
:1012400070B5054600241748006820F47020154941
:1012500008600846006840F400200860002616E098
:10126000002011490860052003F05CFE01200F49B1
:10127000C1F8B4016006040E0B488438006808B158
:10128000601CC4B2012003F04DFE701CC6B2082ED3
:10129000E6DB15B9FFF7ACFF01E0FFF781FF204661
:1012A00070BD0000040C0140B48121420080214245
:1012B00070B504461848006820F070401649086070
:1012C0000846006840F0405008600020134908605C
:1012D00000251CE0E00918B101201149086002E076
:1012E00000200F4908606006040E022003F01AFE79
:1012F00001200A490860022003F014FE0020094979
:10130000C1F88C01022003F00DFE681CC5B2082D47
:10131000E0DB00F0DBF870BD040801408C81214265
:10132000BC0121420080214270B504461848006883
:1013300020F47020164908600846006840F44030E8
:10134000086000201349086000251EE0E00920B174
:1013500001201049091F086003E000200D49091F02
:1013600008606006040E052003F0DCFD0120094939
:101370000860052003F0D6FD00200749C1F8B4013C
:10138000052003F0CFFD681CC5B2082DDEDB70BD63
:10139000040C0140B48121420080214210B50F4865
:1013A000006820F070400D4908600846006840F071
:1013B0004050086001200A4908600A49C1F88C01C0
:1013C000042003F0AFFD002005490860042003F06D
:1013D000A9FD00200349C1F88C0110BD040801409B
:1013E000BC0121420080214210B50F48006820F462
:1013F00070200D4908600846006840F440300860DD
:1014000001200A4908600A49C1F8B401052003F027
:1014100089FD002005490860052003F083FD0020B8
:101420000349C1F8B40110BD040C0140B081214250
:101430000080214210B50F48006820F070400D492F
:1014400008600846006840F04050086000200A49E3
:1014500008600A49C1F8BC01042003F063FD0120C3
:10146000054908600549C1F8BC01042003F05AFD94
:1014700010BD0000040801408C812142000021427F
:1014800010B50F48006820F470200D490860084628
:10149000006840F44030086000200A4908600A49AA
:1014A000C1F8B001052003F03DFD012005490860A9
:1014B0000549C1F8B001052003F034FD10BD00005E
:1014C000040C0140B48121420080214210B5002467
:1014D0001348006820F07040114908600846006811
:1014E00040F00040086001200E49086003F01AFD3A
:1014F00001200D49C1F88C0103F014FD07E0601CC8
:10150000C4B2FA2C03DDFFF795FF012010BD05489A
:10151000803800680028F2D10449086000BFF5E770
:1015200004080140BC012142008021428C812142FB
:1015300010B500241548006820F470201349086095
:101540000846006840F40020086001201049086047
:10155000052003F0E7FC01200E49C1F8B401052085
:1015600003F0E0FC07E0601CC4B2FA2C03DDFFF7D7
:1015700087FF012010BD0648803800680028F2D19E
:101580000349091D086000BFF4E70000040C014096
:10159000B08121420080214270B5002502F084F81C
:1015A0000446FF2C00D170BD022002F0BDFB0EE00E
:1015B0006D1CB5F5A04F0AD1012319A200210846E0
:1015C000FFF769FA4FF47A7003F086FC03E002F04B
:1015D0006BF8FF28ECD100BF0C2C1FD2DFE804F021
:1015E0001A140E080A101606120C181C0020DAE74E
:1015F0000120D8E70220D6E70320D4E70420D2E771
:101600000520D0E70620CEE70720CCE70820CAE770
:101610000920C8E70A20C6E70B20C4E76420C2E718
:101620006B6579626F617264206572726F7200001F
:101630000146CA1701EB92729210A1EB820292B995
:10164000642091FBF0F200FB121050B94FF4C87007
:1016500091FBF0F200FB121008B901207047002046
:10166000FCE70120FAE70020F8E700002DE9FC473D
:1016700081468A46904600208AF8000064A103C98A
:10168000CDE9000109F13000C0B28DF80000B8F1D9
:10169000000F06D0012360A203210020FFF7FBF911
:1016A00005E001236A4603210020FFF7F4F9002436
:1016B00003E0FF2059490855641C1E2CF9DB002368
:1016C0007F2216210120FFF71FF900237F22292105
:1016D0000120FFF719F9514880F80090012492E0A9
:1016E00002F037FC0746FF2F10D1002408E04B48DA
:1016F000005DFF2800D105E0FF2048490855641C23
:10170000062CF4DB00BF0120BDE8FC870A2F2AD19C
:101710000CB90220F8E7641EFF2040490855641EFA
:10172000651F00261CE0002D19DBB8F1000F09D061
:101730003A48405DFF2801D1202000E02A200DF822
:1017400006000BE03548405DFF2801D1202002E073
:101750003248405D3030C0B20DF80600761C6D1C7A
:10176000062EE0DB48E00B2F1FD18AF80040062C44
:1017700019DA01232AA202210846FFF78CF94FF457
:101780007A7003F0A9FB00F0DDF800237F22162118
:101790000120FFF7B9F800237F2229210120FFF75C
:1017A000B3F8641E28E00320AEE7062C00D1052420
:1017B0001A480755651F00261CE0002D19DBB8F1FB
:1017C000000F09D01548405DFF2801D1202000E01E
:1017D0002A200DF806000BE01048405DFF2801D1DB
:1017E000202002E00D48405D3030C0B20DF8060008
:1017F000761C6D1C062EE0DB00236A4603210120C7
:10180000FFF749F9641C072CFFF66AAF04207BE759
:1018100020202020202000002A000000800400203A
:10182000C3DCC2EBB1D8D0EBCEAA36CEBB000000F1
:1018300010B50446412C2CD108210846FFF756F874
:101840003D21112002F0A4FB8621172002F0A0FB0D
:101850007F21262002F09CFBF821272002F098FB34
:101860003F21282002F094FB1E212D2002F090FB46
:1018700000212C2002F08CFB8D212A2002F088FB15
:101880003E212B2002F084FB022003F04BFB00F0F2
:1018900061FA10BD00BFFEE7704708B54FF4A060C5
:1018A00000F046F826208DF8000001208DF8010098
:1018B0008DF802008DF80300684600F001F808BDBD
:1018C00070B5002100230F22C47804B3154C24689E
:1018D00004F4E064C4F5E064210AC1F10403CA40E1
:1018E000447804FA03F184781440214309010E4C32
:1018F0000678A155047804F01F050124AC40057852
:101900006D11AD0005F1E025C5F8004109E004784E
:1019100004F01F050124AC40044D0678761145F80B
:10192000264070BD0CED00E000E400E080E100E046
:1019300002490143024A1160704700000000FA05A5
:101940000CED00E010B5002000F001F810BD70B5FE
:101950000646002415E004F1B001C8B202F009FB0C
:10196000002002F006FB102002F003FB002504E03B
:10197000304602F005FB681CC5B2802DF8DB601C08
:10198000C4B2082CE7DB70BD08B501210C2001F0C2
:1019900035F90121084601F031F901210F48FFF71F
:1019A000DDFA0820ADF8000010208DF803000320B8
:1019B0008DF8020069460A48FFF744FA4FF40040E8
:1019C000ADF8000069460748FFF73CFA01200649D8
:1019D00008600649C1F88C0108BD00000002300013
:1019E000000C014000080140BC012142008021425E
:1019F00010B5FFF7C9FF002400E0641CB4F57A7F3E
:101A0000FBDDAE2002F0B5FA202002F0B2FA102081
:101A100002F0AFFAB02002F0ACFAC82002F0A9FA46
:101A2000002002F0A6FA102002F0A3FA402002F0F3
:101A3000A0FA812002F09DFAFF2002F09AFAA1207C
:101A400002F097FAA62002F094FAA82002F091FA88
:101A50003F2002F08EFAA42002F08BFAD32002F08D
:101A600088FA002002F085FAD52002F082FAF020F0
:101A700002F07FFAD92002F07CFA222002F079FAF3
:101A8000DA2002F076FA122002F073FADB2002F07C
:101A900070FA202002F06DFA8D2002F06AFA14200C
:101AA00002F067FAAF2002F064FAFFF74BFF642000
:101AB00003F012FA10BD10B58D2002F05AFA102072
:101AC00002F057FAAE2002F054FA10BD10B58D2086
:101AD00002F04FFA142002F04CFAAF2002F049FA5B
:101AE00010BD70B504460D4605F1B001C8B202F054
:101AF00040FA102141EA141002F03BFA04F00F0002
:101B000002F037FA70BD00002DE9F05F82460F4603
:101B100090469946DDF828B0002439465046FFF734
:101B2000E0FF00250026BBF1000F1ED0A8F1200029
:101B3000050100BF06E02449485D02F021FA6D1C52
:101B4000601CC4B2082CF6DB781CC1B25046FFF70B
:101B5000C8FF002406E01C49485D02F011FA6D1C24
:101B6000601CC4B2082CF6DB2CE00BE01748805D4B
:101B7000404506D11549701C085C484501D1B51C8B
:101B800004E0223641F234008642EFD300BF002445
:101B900006E00E49485D02F0F3F96D1C601CC4B20A
:101BA000102CF6DB781CC1B25046FFF79AFF0024D8
:101BB00006E00649485D02F0E3F96D1C601CC4B202
:101BC000102CF6DBBDE8F09F689200083482000814
:101BD00070B5054600210846FFF783FF002404E0A6
:101BE000002002F0CDF9601CC4B26F2CF8DB00219C
:101BF0006F20FFF776FF002409E005EB4501054A59
:101C000002EBC101085D02F0BBF9601CC4B2112CEB
:101C1000F3DB70BDBC8100082DE9F04180460E4623
:101C20001746002431464046FFF75BFF0025A7F129
:101C30003000050100BF06E00D49485D02F0A0F943
:101C40006D1C601CC4B2082CF6DB701CC1B240468F
:101C5000FFF747FF002406E00549485D02F090F9D0
:101C60006D1C601CC4B2082CF6DBBDE8F0810000DE
:101C700058980008014908627047000000000E42B1
:101C800010B5024600200C4B186820F003001043EA
:101C900018600A4B1B6843F00403084C23600129B9
:101CA00001D130BF00E020BF044B1B6823F00403C8
:101CB000024C236010BD00000070004010ED00E0F9
:101CC00038B5F020ADF8000000208DF8030069461B
:101CD0001848FFF7B7F80024012317A2022130208B
:101CE000FEF7D9FE4FF47A7003F0F6F802F0F0F840
:101CF00000F0E2FE01F0C8FD4FF400711048FFF75C
:101D000075F9FFF71FFEFFF7D6FE06E000F040FD75
:101D10000A2003F0E1F8601CC4B200F091FD08B1A4
:101D2000052CF3DB01200749087001210846FFF765
:101D3000A7FF38BD00080140D0DDC3DF0000000070
:101D4000000C01403800002010B503211420FEF7DC
:101D5000CDFD10BD10B5142001F076FA044604F054
:101D6000030018B90321142001F016FB10BDF0B5D3
:101D700087B00546002708210846FEF7B7FD002179
:101D80000D2002F005F980210E20FEF7AFFD932013
:101D90008DF8080020208DF8090001A802AB02226E
:101DA00002A900900C2000F01BF80646262E10D148
:101DB000002407E002A8005D285502A8005D474006
:101DC000601CC4B2042CF5DB02A8005DB84200D050
:101DD000BB2680210E2001F0DFFA304607B0F0BDAF
:101DE0002DE9FE4F0646884691469A46DDF830B00A
:101DF000BB2002900020019000900C2E06D00E2EE9
:101E000009D1122001901020009005E07720019068
:101E10003020009000E000BF00BF019840F080013A
:101E2000022002F0B5F880210420FEF75FFD0021BA
:101E3000012002F0ADF880210A2001F0ADFA002562
:101E400005E018F80510092002F0A2F86D1C4D45B8
:101E5000F7D33146012002F09BF80C2E03D18021EC
:101E60000D2001F099FA4FF47A7500BF042001F0BB
:101E7000EBF904466D1E35B104F0010018B9009865
:101E800020400028F2D080210D20FEF72FFD95B3D1
:101E9000062001F0D9F900F01B0068BB2620029053
:101EA0000198204000F0010008B1CC2002900C2ED7
:101EB00024D10A2001F0C8F904460C2001F0C4F92D
:101EC00000F007072FB1601E07EBC000CBF8000041
:101ED00002E0E000CBF8000004B90124122C00DD80
:101EE0001224002505E0092001F0AEF90AF80500EA
:101EF0006D1CA542F7D301E0BB20029080210C208D
:101F000001F04AFA0021012002F042F80298BDE8EF
:101F1000FE8F70B588B005460C4608210846FEF7CE
:101F2000E5FC07210D2002F033F80321142001F015
:101F300033FA8DF80C5002A803AB012203A90090DC
:101F40000C20FFF74DFF0646262E09D102981028D7
:101F500006D19DF80C0020709DF80D00607000E027
:101F6000BB26304608B070BD10B502211D48FFF7F2
:101F70003FF80A2002F0B0FF02211A48FFF736F8B6
:101F80000A2002F0A9FF02211648FFF731F80A20C3
:101F900002F0A2FF0F21012001F0FAFF00BF012093
:101FA00001F052F900F010000028F8D10A2002F0E8
:101FB00093FF3D21112001F0EBFF1E212D2001F0A8
:101FC000E7FF00212C2001F0E3FF8D212A2001F002
:101FD000DFFF3E212B2001F0DBFF4021152001F027
:101FE000D7FF10BD000C01407047000010B588B04D
:101FF00000F0CEFB45F2AA5000F028FD002000F0D2
:102000001BFD002000F018FD4FF4884000F01EFD7D
:102010004FF4806000F01AFD4FF4807000F016FD60
:102020004FF4484000F012FD002403E0002000F0CF
:1020300003FD641C0C2CF9DB41F2020000F006FDEC
:1020400001201049087001A800F082FCFF2802D18D
:10205000F02008B010BDBDF80800FF2801D1F02025
:10206000F7E7BDF80C00222800D1F2E7BDF80C001C
:10207000122800D1EDE7BDF80C0008B90020E8E710
:10208000F120E6E75400002070B588B0044600F067
:102090007FFB04F24710051945F2AA5000F0D6FC68
:1020A000002000F0C9FC002000F0C6FC4FF488407E
:1020B00000F0CCFC4FF4806000F0C8FC200200F07F
:1020C000C5FC200200F0C2FC002603E0002000F066
:1020D000B3FC761C0C2EF9DBE8B200F0ADFC281244
:1020E00000F0AAFC01201049087001A800F030FCA3
:1020F000FF2802D1F02008B070BDBDF80800FF280D
:1021000001D1F020F7E7BDF80C00222800D1F2E75A
:10211000BDF80C00122800D1EDE7BDF80C0008B99D
:102120000020E8E7F120E6E75400002030B587B052
:10213000044600F02DFB45F2AA5000F087FC002079
:1021400000F07AFC002000F077FC4FF4C04000F073
:102150007DFC4FF4007000F079FC204600F076FC26
:10216000002503E0002000F067FC6D1C0E2DF9DB5C
:1021700046F20111214488B200F068FC01201049A8
:102180000870684600F0E4FBFF2802D1F02007B099
:1021900030BDBDF80400FF2801D1F020F7E7BDF8FD
:1021A0000800262800D1F2E7BDF80800192800D160
:1021B000EDE7BDF8080008B90020E8E7F120E6E700
:1021C0005400002030B587B0044600F0E1FA00204A
:1021D000207045F2AA5000F039FC002000F02CFCE1
:1021E000002000F029FC4FF48A4000F02FFC4FF44F
:1021F000806000F02BFC4FF4807000F027FC4FF45F
:10220000484000F023FC002503E0002000F014FC0F
:102210006D1C0C2DF9DB41F2021000F017FC0120BF
:102220000F490870684600F093FBFF2802D1F020A8
:1022300007B030BDBDF80400FF2801D1F020F7E75A
:10224000BDF80800222800D1F2E7BDF8080020B947
:102250009DF80A0020700020EAE7F120E8E700007E
:102260005400002010B588B000F092FA45F2AA5050
:1022700000F0ECFB002000F0DFFB002000F0DCFBB6
:102280004FF4904000F0E2FB4FF4806000F0DEFB82
:102290004FF4807000F0DAFB4FF2014000F0D6FB03
:1022A000002403E0002000F0C7FB641C0C2CF9DBC9
:1022B00044F2021000F0CAFB01200B49087001A88B
:1022C00000F046FBFF2802D1F02008B010BDBDF899
:1022D0000800FF2801D1F020F7E79DF80E109DF8C7
:1022E0000F0041EA0020F0E75400002010B588B04C
:1022F00000F04EFA45F2AA5000F0A8FB002000F0D2
:102300009BFB002000F098FB4FF4C24000F09EFBC6
:102310004FF4407000F09AFB002000F097FB032080
:1023200000F08AFB002403E0002000F085FB641C21
:102330000D2CF9DB46F2016000F088FB0120134907
:10234000087001A800F004FBFF2802D1F02008B0BB
:1023500010BDBDF80800FF2801D1F020F7E7BDF857
:102360000C00262800D1F2E7BDF80C00252800D18A
:10237000EDE7BDF80C001A2800D1E8E7BDF80C0025
:1023800008B90020E3E7F120E1E700005400002055
:1023900030B587B0044600F0FBF945F2AA5000F0D2
:1023A00055FB002000F048FB002000F045FB4FF4F7
:1023B000C64000F04BFB4FF4C06000F047FB00202C
:1023C00000F044FB4FF4807000F040FB4FF44840B5
:1023D00000F03CFB002503E0002000F02DFB6D1C0D
:1023E0000A2DF9DB43F2021000F030FB0120144902
:1023F0000870684600F0ACFAFF2802D1F02007B060
:1024000030BDBDF80400FF2801D1F020F7E7BDF88A
:102410000800262800D1F2E7BDF80800142800D1F2
:10242000EDE7BDF80800112800D1E8E7BDF8080085
:1024300020B99DF80A0020700020E0E7F120DEE7D7
:102440005400002030B587B0044600F0A1F945F2F1
:10245000AA5000F0FBFA002000F0EEFA002000F095
:10246000EBFA4FF4804000F0F1FA4FF4806000F096
:10247000EDFA204600F0EAFA002000F0E7FA002525
:1024800003E0002000F0D8FA6D1C0C2DF9DB44F2BB
:102490000131214488B200F0D9FA012012490870B4
:1024A000684600F055FAFF2802D1F02007B030BD91
:1024B000BDF80400FF2801D1F020F7E7BDF80800BF
:1024C0001D2800D1F2E7BDF80800262800D1EDE76D
:1024D000BDF80800182800D1E8E7BDF8080008B9E1
:1024E0000020E3E7F120E1E75400002010B500F000
:1024F0004FF945F2AA5000F0A9FA002000F09CFA2A
:10250000002000F099FA4FF4045000F09FFA0020E8
:1025100000F09CFA002403E0002000F08DFA641C17
:10252000102CF9DB42F2010000F090FA0120014981
:10253000087010BD5400002000B587B0684600F058
:1025400007FAFF2802D1F02007B000BDBDF8040053
:10255000FF2801D1F020F7E79DF80A0008B9F42020
:10256000F2E79DF80A00012801D1F520ECE7F120FF
:10257000EAE7000010B588B000F00AF945F2AA5069
:1025800000F064FA002000F057FA002000F054FA3E
:102590004FF4005000F05AFA002000F057FA0024DF
:1025A00003E0002000F048FA641C102CF9DB41F62F
:1025B000017000F04BFA01200D49087001A800F0ED
:1025C000C7F9FF2802D1F02008B010BDBDF80800FF
:1025D000FF2801D1F020F7E7BDF80C00282800D132
:1025E000F2E7BDF80C0008B90020EDE7F120EBE7B9
:1025F000540000201FB500F05FF90121042000F015
:10260000FDFA0220ADF80C0010208DF80F00032019
:102610008DF80E0003A91A48FEF714FC0120ADF84E
:102620000C0028208DF80F0003A91648FEF70AFCBD
:102630000121084600F0E2FA00210120FEF7E2FB4A
:102640000120019000208DF808000C208DF8090071
:1026500001208DF80A0001A8FEF7FCFA06208DF88B
:10266000000002208DF8010003208DF802000120F7
:102670008DF803006846FFF723F900F091F81FBDBD
:1026800000080140000C014070B50646002500BF5F
:1026900033E035B9012333A202211420FEF7FBF900
:1026A00005E0012332A202210F20FEF7F4F942F2E5
:1026B000107000F0ABF90446F22C00D170BD4FF65B
:1026C000FF7101EA0520FFF731FD0446F02C03D02D
:1026D000F12C01D0262C01D1F020EFE7192C01D1EB
:1026E0001920EBE7012326A202210F20FEF7D3F9E0
:1026F0004FF47A7002F0F0FB6D1C032DC9DBFFF77D
:10270000F5FD0446F02C05D0F12C03D0262C01D089
:10271000252C01D1F020D1E71A2C01D11A20CDE7C8
:102720003046FFF74FFD0446F02C03D0F12C01D0CA
:10273000222C01D1F020C1E731780802FFF782FE98
:102740000446F02C05D0F12C03D01D2C01D0262CF2
:1027500001D1F020B2E7182C01D11820AEE70020FB
:10276000ACE70000C7EBB0B4CAD6D6B80000000092
:10277000C7EBD6D8B8B4B0B4CAD6D6B800000000FB
:10278000D6B8CEC6B2C9BCAFB3C9B9A60000000066
:10279000002002494870887008707047540000207B
:1027A00010B502210D48FEF723FC002400E0641C54
:1027B000B4F57A7FFBDB02210848FEF717FC002402
:1027C00000E0641CB4F57A7FFBDB02210348FEF7CE
:1027D0000FFC642002F080FB10BD000000080140E7
:1027E00070B505464FF47A7000F010F90446F22CEB
:1027F00000D170BD0020FFF799FC0446F02C03D0F7
:10280000F12C01D0262C01D1F020F2E7192C01D1B6
:102810001920EEE72846FFF7BBFD0446F02C03D055
:10282000F12C01D0262C01D1F020E2E7142C01D1AB
:102830001420DEE7112C01D11120DAE70020D8E7BF
:1028400010B588B0FFF7A4FF45F2AA5000F0FEF8DB
:10285000002000F0F1F8002000F0EEF84FF44060A6
:1028600000F0F4F8002000F0F1F8002403E000206C
:1028700000F0E2F8641C102CF9DB40F6013000F0A7
:10288000E5F801200B49087001A800F061F8FF2865
:1028900002D1F02008B010BDBDF80800FF2801D11A
:1028A000F020F7E7BDF80C0008B90020F2E7F120AE
:1028B000F0E700005400002000B585B0012104209D
:1028C00000F09CF9204801F0CDF80820ADF8100088
:1028D00004208DF8130003208DF8120004A91B4872
:1028E000FEF7B0FA0420ADF8100018208DF81300A0
:1028F00003208DF8120004A91448FEF7A3FA012161
:10290000480400F05BF94FF4E13000900020ADF88E
:102910000400ADF80600ADF80800ADF80C000C207E
:10292000ADF80A006946084801F046F9FEF7B5FF20
:10293000012240F22551044801F019F90121024811
:1029400001F083F805B000BD0044004000080140DC
:102950002DE9F041044600250026A8464FF4A007C3
:1029600007E07F1E002F04DCFFF712FFFF20BDE809
:10297000F081254840780128F3D1032002F0ACFA19
:10298000FFF706FF002505E01F48C01C405D3044EE
:1029900086B26D1C182DF7DB1B48C17E007F41EA13
:1029A0000028464501D0FF20E1E71748C1780079AB
:1029B00041EA0020208014484079A07012488079B4
:1029C000E0701148C179007A41EA0020A0800E48E9
:1029D000417A807A41EA0020E0800B48C17A007B8E
:1029E00041EA00202081002508E00748C01C05F1CD
:1029F0000A01415C04F10A0041556D1C0E2DF4DB07
:102A000026830020B3E700005400002070B505467F
:102A1000B420B5FBF0F60BE0FFF7ACFD0446282C24
:102A200001D1761E04E00CB9002070BDF020FCE757
:102A3000002EF1D1F220F8E710B5044621460248F5
:102A400001F0D6F910BD00000044004010B5044666
:102A50002112084801F0CCF910B14FF6FF7010BDFB
:102A6000E1B2044801F0C4F910B14FF6FF70F6E787
:102A70000020F4E70044004010B500F029F80221DE
:102A80000C48FEF7B5FA0A2002F026FAFFF76CFAB6
:102A9000FFF75AF94120FEF7CBFE7A211F2001F003
:102AA00077FA012002F018FA4FF4E13000F038F81C
:102AB00010BD0000000C014010B5012000F0C4FB67
:102AC000044644F01001012001F062FA10BD00003C
:102AD00008B50121082000F091F80220ADF80000AF
:102AE00003208DF8020010208DF8030069460B4882
:102AF000FEF7A8F902210948FEF77AFA0220ADF89C
:102B0000000028208DF8030069460448FEF79AF972
:102B10004FF4165000F004F808BD0000000C01400E
:102B200010B586B004461D4800F09CFF4FF40060CD
:102B3000ADF8040004208DF8070003208DF806008E
:102B400001A91748FEF77EF94FF48060ADF8040044
:102B500018208DF8070003208DF8060001A9104801
:102B6000FEF770F90121880400F028F80294002093
:102B7000ADF80C00ADF80E00ADF81000ADF8140083
:102B80000C20ADF8120002A9044801F015F801214B
:102B9000024800F05AFF06B010BD00000048004097
:102BA000000C014001460020034A506820F44040D8
:102BB00008435060704700000010024029B1064AE7
:102BC000D2690243044BDA6104E0034AD2698243CA
:102BD000014BDA61704700000010024029B1064A3B
:102BE00012690243044B1A6104E0034A12698243EA
:102BF000014B1A61704700000010024029B1064ADB
:102C000092690243044B9A6104E0034A9269824349
:102C1000014B9A61704700000010024029B1064A3A
:102C2000D2680243044BDA6004E0034AD26882436C
:102C3000014BDA6070470000001002400149086053
:102C4000704700004004424230B5002100220024B9
:102C500000232D4D6D6805F00C0121B1042905D02C
:102C6000082923D105E0294D056022E0274D0560A4
:102C70001FE0254D6D6805F47012234D6D6805F455
:102C80008034022505EB92421CB9214D5543056065
:102C90000BE01D4D6D6805F400351DB11C4D55430D
:102CA000056002E0194D5543056002E0174D0560CF
:102CB00000BF00BF144D6D6805F0F0010909154D06
:102CC0006B5C0568DD4045600F4D6D6805F4E061A3
:102CD000090A104D6B5C4568DD4085600A4D6D68E2
:102CE00005F46051C90A0B4D6B5C4568DD40C56059
:102CF000054D6D6805F44041890B074D6B5CC56857
:102D0000B5FBF3F5056130BD0010024000127A00FA
:102D100000093D00140000202400002010B50146E9
:102D20000022002300204A11012A02D1094C236805
:102D300006E0022A02D1074C236A01E0054C636ACF
:102D400001F01F02012494401C400CB1012000E05E
:102D5000002010BD0010024000210B4A11700A4AE9
:102D6000203A82F82010012802D0042808D103E07C
:102D70000121054A117004E00521034A117000E0A9
:102D800000BF00BF704700002010024001490860EA
:102D9000704700003C0442420249096A0143014A6B
:102DA0001162704700100240024909888143014ABC
:102DB00011807047042800400348008840F010004C
:102DC000014908807047000004280040034800883B
:102DD0004FF6EF7108400149088070470428004011
:102DE00070B500260024002500F07AF80646384821
:102DF000B6FBF0F437480088A0423CD035490C803F
:102E000040F2B27510E02846FEF712FC40B1B4F56E
:102E1000B77F02D3A4F5B77404E0681C85B206E05E
:102E2000A4F26D14681C85B2B4F5B67FEBD800BF70
:102E300029488580002516E027498888FEF7F8FB99
:102E400030B1012D04D11D2C01D31D3C09E00CE053
:102E50002248405DA04203D82048405D241A00E08B
:102E600003E0681C85B21C2CE6D200BF681C1A491E
:102E70008871601CC8711648B6FBF0F100FB116444
:102E80004FF46160B4FBF0F0134908704FF46160D7
:102E9000B4FBF0F100FB11403C21B0FBF1F00E4916
:102EA00048704FF46160B4FBF0F100FB11403C212D
:102EB000B0FBF1F201FB1200074988700B46DA798A
:102EC0009979988800F028F803490872002070BDAD
:102ED000805101003C00002076000020B0810008F5
:102EE000002103480188001F008841EA0040704724
:102EF0001C28004001460020064A12880A40D0B231
:102F0000044A121F12880A4012B108B1012000E0E1
:102F10000020704704280040F0B503460C461546D3
:102F2000642093FBF0F0C6B2642093FBF0F700FB43
:102F30001730C1B2132E02DD01F16400C1B20846A0
:102F4000CF1701EB977701EBA707BAB2072092FBE7
:102F5000F0F700FB172082B25719601EDFF82CC073
:102F60001CF80000384482B2CF1701EB9777BF10EE
:102F7000A1EB87071FB9032C01DA501E82B207208C
:102F800092FBF0F700FB1720C0B2F0BDA48100084F
:102F90000EB50120FFF7AEFF20B1FFF721FF0120A2
:102FA000104908700220FFF7A5FFA0B10220FFF72B
:102FB000FBFEFFF715FF0C4880780B4949780A4A59
:102FC0001278CDE9002102900748C379827981887F
:102FD00006A000F0EFFF0520FFF7E6FE00F018F96D
:102FE0000EBD00003A00002076000020416C6172A6
:102FF0006D2054696D653A25642D25642D25642066
:1030000025643A25643A25640A00000029B1064A7D
:1030100012880243044B1A8004E0034A1288824358
:10302000014B1A8070470000002800401CB50024A6
:1030300001214FF0C050FFF7C1FD0120FEF71AFE3D
:103040000420FDF735FC45F2500188423FD0FDF7E2
:1030500027FC0120FFF780FE04E0601CC4B20A20B8
:1030600001F03AFF4120FFF759FE08B9FA2CF4DBD2
:10307000FA2C01DB01201CBD4FF48070FFF78CFEA1
:103080000120FFF783FE00F0C3F800F0CBF8012128
:103090000846FFF7BBFF00F0BBF8FFF78DFE47F6D1
:1030A000FF7000F0A5F800F0B3F800200090034690
:1030B00001221146019040F2DF7000F027F8FFF77F
:1030C00085FE45F250010420FDF700FC07E000F00A
:1030D000A9F801210846FFF799FF00F099F800F0E0
:1030E00004F8FFF77DFE0020C5E708B503208DF842
:1030F000000000208DF801008DF8020001208DF8FD
:1031000003006846FEF7DCFB08BD00002DE9F05F18
:1031100006460F4690469946DDE90AAB002440F288
:10312000B270864203DB40F63300864202DD0120A6
:10313000BDE8F09F40F2B2750AE02846FEF778FA43
:1031400010B12048044401E01F480444681C85B2C3
:10315000B542F2DB781EC7B2002510E01B48405D87
:1031600040F2A321484304EBC0143046FEF760FA56
:1031700018B1012D01D116480444681C85B2BD4226
:10318000ECDBA8F1010040F2A321484304EBC0149A
:10319000C9EB4910C0EB092004EB0014CAEB0A107C
:1031A00004EB80045C4401214FF0C050FFF706FDA2
:1031B0000120FEF75FFD204600F00CF800F028F833
:1031C0000020B5E70085E2018033E101B08100080D
:1031D0008051010000B50246FFF7EEFD100C0349D7
:1031E0000880091D0A80FFF7F1FD00BD1828004086
:1031F00000B50246FFF7E0FDC2F303400349088033
:10320000091D0A80FFF7E2FD00BD0000082800400C
:1032100000BF0348008800F020000028F9D0704764
:1032200004280040074800884FF6F7710840054918
:10323000088000BF0348008800F008000028F9D08B
:10324000704700000428004070B5044604F03F00B9
:1032500040F08005284600F0A1FD034800F0AAFDDB
:10326000C6B2304670BD00000048004010B50B46A5
:10327000002105E0048823F81140801C4C1CA1B2F9
:103280009142F7DB10BD00002DE9F05F80468A46D1
:103290001746B8F1006F02D33348804501D3BDE82B
:1032A000F09FFDF78FFDA8F1006B4FEA9B25CBF354
:1032B0004809C9F50074A74200DC3C464DE04FF0D8
:1032C000006101EB85208A142849FFF7CFFF002613
:1032D0000BE009EB0600254931F810004FF6FF71AD
:1032E000884200D003E0701C86B2A642F1DB00BF2A
:1032F000A6421BDA4FF0006101EB8520FDF7F4FCDC
:10330000002608E03AF8160006EB0901174A22F8F1
:103310001100701C86B2A642F4DB4FF0006101EB95
:1033200085208A14114900F023F804E02246514612
:10333000404600F01DF8A74200D10FE06D1C4FF091
:1033400000090AEB440AA044381B87B2B7F5007F96
:1033500002DD4FF4007400E03C46B0E700BFFDF72B
:1033600005FD00BF9BE70000000001088000002071
:103370002DE9F04105460E461746002407E036F8D1
:1033800014102846FDF7FCFCAD1C601C84B2BC4246
:10339000F5DBBDE8F081704770B505460C46284660
:1033A000FFF752FF064646EA0401284600F0F0FD0A
:1033B00070BD10B500F002F810BD00000CB5002083
:1033C000019000903348006840F480303149086033
:1033D00000BF3048006800F4003000900198401CA5
:1033E0000190009818B90198B0F5A06FF1D1294863
:1033F000006800F4003010B10120009001E00020CE
:1034000000900098012843D12348006840F0100044
:10341000214908600846006820F00300086008465B
:10342000006840F0020008601A4840681949486086
:103430000846406848600846406840F4806048603C
:103440000846406820F47C1048600846406840F414
:10345000E81048600846006840F08070086000BFCF
:103460000C48006800F000700028F9D00948406856
:1034700020F00300074948600846406840F0020019
:10348000486000BF0348406800F00C000828F9D1EC
:103490000CBD00000010024000200240042808D1AA
:1034A0004FF0E021096941F004014FF0E022116181
:1034B00007E04FF0E021096921F004014FF0E0221C
:1034C000116170477047000010B51348006840F064
:1034D00001001149086008464068104908400E493B
:1034E0004860084600680E4908400B4908600846D5
:1034F000006820F4802008600846406820F4FE0040
:1035000048604FF41F008860FFF753FF4FF00060E2
:103510000449086010BD0000001002400000FFF8E0
:10352000FFFFF6FE08ED00E010B50121064800F0AF
:103530004EF818B10121044800F03AF80348006839
:10354000401C0249086010BD0004004044000020F7
:103550007FB505460C4601210220FFF72FFBADF891
:103560000850ADF804400020ADF80A00ADF80600A0
:1035700001A90E4800F046F8012211460B4800F060
:1035800037F81D208DF8000000208DF80100032081
:103590008DF8020001208DF803006846FEF790F9CF
:1035A0000121024800F007F87FBD00000004004040
:1035B000CA430282704721B1028842F001020280B0
:1035C00004E002884FF6FE731A400280704730B55F
:1035D0000246002000230024158A05EA010395898C
:1035E00005EA010413B10CB1012000E0002030BD58
:1035F0001AB183890B43838102E083898B438381E2
:1036000070470000002202881D4B98420ED01D4BCF
:1036100098420BD0B0F1804F08D01B4B984205D098
:103620001A4B984202D01A4B984204D14FF68F732E
:103630001A404B881A43174B984207D0164B9842B2
:1036400004D04FF6FF431A40CB881A4302808B8880
:1036500083850B8803850A4B98420BD0094B98420F
:1036600008D00E4B984205D00D4B984202D00D4B1E
:10367000984201D10B7A03860123838270470000B0
:10368000002C0140003401400004004000080040CC
:10369000000C0040001000400014004000400140B9
:1036A00000440140004801402DE9F0470325002473
:1036B000102000F00DF90646112000F009F9074628
:1036C000122000F005F98046300440EA072040EA65
:1036D000080900BF07E0A94502D12046BDE8F087F0
:1036E000AD00601CC4B20C2CF5DBFF20F6E7000037
:1036F00010B500F053F8642001F0EEFB4FF40041E8
:103700002548FDF775FC642001F0E6FB4FF400410D
:103710002148FDF76BFC642001F0DEFB0B21092042
:1037200000F0FEF80721092000F0FAF888210220B5
:1037300000F0F6F88821032000F0F2F88821042038
:1037400000F0EEF88821052000F0EAF88821062034
:1037500000F0E6F88821072000F0E2F88021082038
:1037600000F0DEF800210A2000F0DAF800210B203A
:1037700000F0D6F8FF210E2000F0D2F80F21084605
:1037800000F0CEF800210C2000F0CAF800210D2036
:1037900000F0C6F810BD0000000C01401FB501216B
:1037A0000C20FFF72BFA10208DF80F0003208DF866
:1037B0000E004FF48050ADF80C0003A93048FDF71F
:1037C00041FB4FF480512E48FDF712FC4FF400509E
:1037D000ADF80C0003A92A48FDF734FB4FF4005163
:1037E0002748FDF705FC4FF40040ADF80C0003A995
:1037F0002348FDF727FB4FF400412148FDF7F6FB76
:103800004FF48070ADF80C0003A91E48FDF71AFBB9
:103810004FF480711B48FDF7E9FB48208DF80F003D
:103820004FF48040ADF80C0003A91548FDF70AFBE2
:1038300001210846FFF7E2F90E210120FDF7E2FA27
:103840004FF48040019000208DF8080008208DF88A
:10385000090001208DF80A0001A8FDF7FBF92820D6
:103860008DF8000002208DF8010004208DF8020080
:1038700001208DF803006846FEF722F81FBD000006
:10388000000C01400008014010B52321082000F081
:1038900047F80721092000F043F84FF480710248EF
:1038A000FDF7A6FB10BD00000008014010B54FF465
:1038B00080710648FDF79AFB0321092000F030F8DB
:1038C0008021082000F02CF810BD00000008014005
:1038D00070B50446FDF788FDD020FDF725FDFDF706
:1038E00027FE08B1002070BD2046FDF71DFDFDF745
:1038F0001FFE08B10020F6E7FDF7C2FDFDF774FDDD
:10390000D120FDF711FDFDF713FE08B10020EAE715
:103910000020FDF795FC0546FDF7B2FD2846E2E7DD
:1039200070B505460C46FDF75FFDD020FDF7FCFCA9
:10393000FDF7FEFD08B1012070BD2846FDF7F4FC3F
:10394000FDF7F6FD08B10120F6E72046FDF7ECFC97
:10395000FDF7EEFD08B10120EEE7FDF791FD002037
:10396000EAE7000010B540F225510A4800F0D5F80A
:1039700078B140F22551074800F058F8054800F0AA
:1039800087F9C4B22146034800F087F9022000F00D
:10399000CBF910BD0038014010B515480078401C27
:1039A0001349087040F22551124800F0B6F8F0B102
:1039B000104800F06DF9C4B20F48407870B9AA2CD5
:1039C00015D101200C49487008468178C01C445428
:1039D000C01E8078401C0849887008E0064881783D
:1039E000C01C4454C01E8078401C0349887010BD20
:1039F0002E000020004400405400002010B540F28A
:103A00002551074800F089F840B1054800F040F919
:103A1000C4B2FF20034908700348047010BD0000C1
:103A200000480040410000204200002010B5002264
:103A3000002340F66A14A14200D100BF0A120124FB
:103A40009440A3B2DC43048010BD21B1828942F4CA
:103A50000052828104E082894DF6FF731A40828110
:103A60007047000010B504462048844209D1012166
:103A70008803FFF7D3F800214FF48040FFF7CEF81A
:103A800032E01B48844209D101214804FFF7A6F81F
:103A900000214FF40030FFF7A1F825E015488442DB
:103AA00009D101218804FFF799F800214FF4802003
:103AB000FFF794F818E01048844209D10121C804A6
:103AC000FFF78CF800214FF40020FFF787F80BE098
:103AD0000A48844208D101210805FFF77FF8002138
:103AE0004FF48010FFF77AF810BD00000038014055
:103AF0000044004000480040004C0040005000409E
:103B000002460020B1F5007F00D100BF13880B40B2
:103B10000BB1012000E00020704770B50246002480
:103B200000230025002040F66A16B14200D100BFF4
:103B3000C1F3421501F01F03012606FA03F3012D1C
:103B400002D19689334006E0022D02D1168A334015
:103B500001E0968A33400C12012606FA04F4168816
:103B6000344013B10CB1012000E0002070BDF0B56D
:103B70000346002400260025002040F66A17B942BB
:103B800000D100BF1846C1F3421401F01F060127FF
:103B900007FA06F5012C01D10C3004E0022C01D10A
:103BA000103000E014301AB107682F43076002E0BC
:103BB0000768AF430760F0BD2DE9F04786B00546C2
:103BC0000E460024A24600BFA1460027B08900B1DE
:103BD00000BF2F462C8A4CF6FF700440F088044347
:103BE0002C82AC894EF6F3100440B088318908432A
:103BF000718908430443AC81AC8A4FF6FF4004400E
:103C0000B0890443AC8201A8FFF71EF81F48874221
:103C100002D1DDF810A001E0DDF80CA0A88900F4C5
:103C2000004040B10AEBCA0000EB0A1031684900BD
:103C3000B0FBF1F807E00AEBCA0000EB0A103168AC
:103C40008900B0FBF1F86420B8FBF0F00401200912
:103C5000642101FB1089A88900F4004040B13220A2
:103C600000EBC900B0FBF1F000F00700044308E0EE
:103C7000322000EB09106421B0FBF1F000F00F00DE
:103C800004432C8106B0BDE8F087000000380140F5
:103C900001468888C0F308007047C1F3080282809B
:103CA0007047000008B501210820FEF7A7FF012199
:103CB0000C20FEF7A3FF01210846FEF79FFF01211C
:103CC0001548FDF74BF92020ADF8000010208DF8C5
:103CD000030003208DF8020069461048FDF7B2F892
:103CE0001020ADF8000069460C48FDF7ABF8002045
:103CF0000B4908600B49C1F890014FF40071074867
:103D0000FDF774F9642001F0E7F84FF400710348FF
:103D1000FDF76EF908BD000000023000000C014004
:103D2000948121420080214270B504460020194947
:103D300008601949C1F89401642001F0F3F80120EA
:103D400014490860642001F0EDF800201249C1F820
:103D50009001642001F0E6F801200E49086064201B
:103D600001F0E0F800200C49C1F8900101250EE0B7
:103D700001200849091D0860642001F0D3F80020E3
:103D80000549C1F89401642001F0CCF86D1CA542EE
:103D9000EEDD70BD908121420080214210B50446C5
:103DA0002146024800F024F810BD00000048004001
:103DB00000BFFEE710B504464FF47A700B49086067
:103DC00008E00A490868411E084A116010B94FF618
:103DD000FF7010BD20212046FFF792FE0028F0D092
:103DE0002046FFF755FFC0B2F3E700003000002087
:103DF00070B504460D460C480C490860294620461B
:103E0000FFF74BFF08E009490868411E074A1160A7
:103E100010B903F04FF870BD80212046FFF770FE07
:103E20000028F0D00020F6E7FFFF0F003000002050
:103E300000B587B001210420FEF7E0FE0120ADF8B7
:103E4000180000208DF81B0003208DF81A0006A929
:103E50001D48FCF7F7FF01214802FEF7CFFE4FF4A3
:103E60004040FEF79FFE1948FCF71EFC0020019021
:103E70008DF808008DF809004FF4602003900020B1
:103E8000049001208DF8140001A91048FCF75CFC97
:103E90000120FCF7F3FC01210C48FCF7FAFB0B486E
:103EA000FCF7D6FC00BF0948FCF743FC0028FAD118
:103EB0000648FCF7DDFC00BF0448FCF723FC0028A3
:103EC000FAD107B000BD0000000801400024014005
:103ED00010B500210548FCF7DCFB0020FCF7CEFC08
:103EE00000214FF40070FEF789FE10BD0024014050
:103EF00010B504460723012221460948FCF74CFC73
:103F000001210748FCF7A9FC00BF02210448FCF787
:103F100007FC0028F9D00248FCF7FEFB10BD0000AA
:103F2000002401402DE9F04107460C4600250026FB
:103F300008E03846FFF7DCFF0544052000F0CCFF21
:103F4000701CC6B2A642F4DBB5FBF4F080B2BDE84B
:103F5000F08170B5002500BFFDF71EFB044632203E
:103F600000F0BAFF6D1CFF2C01D1C82DF4DB2046F8
:103F700070BD10B5044621460020FDF7D7F810BDEE
:103F800010B5044621464020FDF7D0F810BD0000D2
:103F900070B504460D4604F03F063046FFF7FEFEBE
:103FA0000348FFF707FF2846FFF7F8FE70BD000043
:103FB000004800400FB4054B10B503A9044A02980D
:103FC00000F018F810BC5DF814FB000099530008CD
:103FD0004800002002E008C8121F08C1002AFAD1D8
:103FE00070477047002001E001C1121F002AFBD179
:103FF000704700002DE9FF4F8DB09B460F460446E9
:10400000002606E025280BD05A460F999047641CDD
:10401000761C20780028F5D111B03046BDE8F08F2D
:104020000025A8460122984900E0054314F8013F05
:10403000203B02FA03F00842F7D120782E2817D14E
:1040400014F8010F45F004052A280ED06FF02F0256
:104050002078A0F1300109290AD808EB880102EB89
:10406000410100EB0108641CF2E757F8048B641C63
:1040700020786C280DD004DC4C2812D06A2811D18D
:1040800004E074280DD07A280CD10AE045F400151C
:1040900007E0617845F48015814202D1641C05F582
:1040A0008015641C2278692A45D008DC002AB3D028
:1040B000582A69D0632A10D0642A08D13BE0702ABC
:1040C00067D0732A13D0752A5CD0782A5CD010464A
:1040D0005A460F999047761CD3E017F8040B8DF8D9
:1040E000000000208DF80100E946012003E057F8A8
:1040F000049B4FF0FF3069074FF0000501D40AE040
:104100006D1C45450DDA8542FADB19F805100029CA
:10411000F6D106E06D1C8542FCDB19F8051000297C
:10412000F8D12E4404E019F8010B5A460F99904734
:104130006D1EF8D2A5E00A200021CDE90801C5F3E3
:10414000025002280DD001CFC117031E71F10003E8
:104150000DDA4FF0000CD0EB0C006CEB01012D23BD
:1041600008E0FF1D27F00707F7E80201EDE72B0540
:1041700004D52B238DF8283001233BE0EB0739D001
:104180002023F7E70A2000E010200021CDE90801F4
:1041900007E01020002145F00405CDE908014FF0AB
:1041A0000808C5F3025002280FD001CF00214FF0BC
:1041B000000A2B071FD5702A0DD0DDE908C38CF04B
:1041C000100C5CEA030C0CD015E0FF1D27F007076C
:1041D000F7E80201EBE740228DF828204FF0010AB2
:1041E0000BE050EA010306D030238DF828308DF81B
:1041F000292002239A46582A04D024A20DF120092E
:104200000B9209E026A2F9E7DDE90823FCF74AF959
:104210000B9B9B5C09F8013D50EA0102F4D1ADEB28
:10422000090020300890680701D44FF00108089970
:10423000884502DDA8EB010000E000208046002553
:1042400006E00AA85A46405D0F9990476D1C761CFF
:104250005545F6DB04E030205A460F999047761C0E
:10426000B8F10001A8F10108F5DC05E019F8010B2F
:104270005A460F999047761C0899481E08900029C5
:10428000F4DC641CC5E6000009280100303132333B
:104290003435363738396162636465660000000082
:1042A000303132333435363738394142434445466C
:1042B00000000000FEB5002655E30123F7A200210F
:1042C0000846FCF7E8FB0023F8A202211846FCF799
:1042D000E2FB0023F9A204211846FCF7DCFBFFF700
:1042E00038FE0446FF2C0AD10123F8A20221302017
:1042F000FCF7D1FB4FF47A7000F0EEFDFEBD0A2C06
:1043000000D1FBE7012C7BD1ACE01FE0694602A89D
:1043100003F02EFA0546012D00D1EFE7042D01D15F
:10432000012614E0082D10D10123EAA20021192052
:10433000FCF7B1FB0023EAA202211420FCF7ABFB3F
:104340004FF47A7000F0C8FD00E000E0DEE700BF47
:104350000EB1002687E064210298B0FBF1F0303006
:10436000C0B28DF804000A210298B0FBF1F0B0FB56
:10437000F1F201FB120030308DF805000298B0FB1D
:10438000F1F201FB120030308DF8060000208DF8AC
:1043900007000123D5A200210846FCF77CFB00237F
:1043A000D5A202211846FCF776FB002301AA0221C0
:1043B0002020FCF770FB0023D1A204211846FCF753
:1043C0006AFB0023D2A206211846FCF764FBD348FF
:1043D000008810B91920FFF7A7FC029881B20120CC
:1043E00003F098FA0546012D0BD10123B7A2022153
:1043F0003020FCF750FB4FF47A7000F06DFD7DE744
:1044000032E0092D00D12DE0042D00D176E7012303
:10441000C3A200210846FCF73EFB0023C3A20221F1
:104420001846FCF738FB0023C3A204211846FCF70A
:1044300032FBBA48008810B91620FFF775FCFFF769
:1044400088FD0446FF2C06D10123A0A202213020C2
:10445000FCF721FB52E70A2C00D104E00B2C00D121
:1044600000E000BF51E77EE2022C7CD1CEE040E0CC
:10447000694602A803F07CF90546012D00D13DE70D
:10448000042D01D1012635E0082D16D00123ACA260
:1044900002210020FCF7FFFA002391A20421184614
:1044A000FCF7F9FA9D48008810B91720FFF73CFC8B
:1044B0004FF47A7000F010FD1BE09DF80000012819
:1044C00016D00123A1A202210020FCF7E4FA002368
:1044D00083A204211846FCF7DEFA9048008810B940
:1044E0001720FFF721FC4FF47A7000F0F5FC00E094
:1044F00000E0BDE700BF0EB1002688E0642102980D
:10450000B0FBF1F03030C0B28DF804000A210298FF
:10451000B0FBF1F0B0FBF1F201FB120030308DF88E
:1045200005000298B0FBF1F201FB120030308DF86B
:10453000060000208DF80700012388A2002108460C
:10454000FCF7A9FA00236CA202211846FCF7A3FA93
:10455000002301AA02212020FCF79DFA002368A273
:104560000421184600E053E0FCF795FA002368A206
:1045700006211846FCF78FFA6848008810B9192000
:10458000FFF7D2FB029988B203F01AFC0546012D11
:104590000CD101234DA202213020FCF77CFA4FF40C
:1045A0007A7000F099FCFDF7CDF9A7E64DBB012329
:1045B0006DA200210846FCF76EFA00236DA20221CD
:1045C0001846FCF768FA00235BA204211846FCF7A2
:1045D00062FA5248008810B91620FFF7A5FBFFF7D2
:1045E000B8FC0446FF2C06D1012338A2022130205A
:1045F000FCF751FA82E60A2C00D108E00B2C04D11A
:1046000004E0092D00D101E078E600BF2FE7AAE120
:10461000032CFCD1A5E1012359A202210020FCF7C3
:104620003AFA00235AA204211846FCF734FAFFF79D
:1046300090FC0446FF2C0AD1012324A20221302041
:10464000FCF729FA4FF47A7000F046FC56E60A2C83
:1046500000D187E1012C1FD1B8E0694602A803F020
:1046600087F80546012D00D148E6042D01D1012629
:10467000ADE0082D11D0012331A202210020FCF76A
:104680000AFA002316A204211846FCF704FA4FF494
:104690007A7000F021FC99E020E17FE0312EC2BC6D
:1046A000C8EBB9DCC0EDD4B100000000322ED0DE82
:1046B000B8C4B9DCC0EDD4B100000000332EC9BECF
:1046C000B3FDB9DCC0EDD4B100000000B3ACCAB199
:1046D00000000000B1E0BAC5D6D8B8B400000000B0
:1046E000C7EBD6D8D0C2CAE4C8EB0000C2BCC8EB46
:1046F000B9DCC0EDD4B10000B1E0BAC500000000E3
:10470000C2BCD6B8CEC6BBF2CAE4C3DCC2EB000062
:10471000BBF2C7EBCBA2BFA8000000003E00002008
:10472000C2BCC8EBB3C9B9A600000000B0B423BC3A
:10473000CCD0F8C2BCC8EB00B0B42AB7B5BBD80027
:10474000B1E0BAC5B2BBB4E6D4DA0000B1E0BAC594
:10475000B2BBCAC7B9DCC0EDD4B10000D0DEB8C46A
:10476000B9DCC0EDD4B10000D0DEB8C4B3C9B9A67D
:1047700000000000B0B423BCCCD0F8D0DEB8C40038
:10478000312EB0B4B1E0BAC5C9BEB3FD000000001F
:10479000322EC8ABB2BFC9BEB3FD00009DF8000009
:1047A000012812D00123AFF25C0202210020FCF7A5
:1047B00072F90023AFF2D80204211846FCF76BF916
:1047C0004FF47A7000F088FB00E000E045E700BF9E
:1047D0000EB10026C6E064210298B0FBF1F0303043
:1047E000C0B28DF804000A210298B0FBF1F0B0FBD2
:1047F000F1F201FB120030308DF805000298B0FB99
:10480000F1F201FB120030308DF8060000208DF827
:1048100007000123AFF2900200210846FCF73BF9A4
:10482000002301AA19462020FCF735F900234EA2E7
:1048300002211846FCF72FF90023AFF204120421DD
:104840001846FCF728F9FFF784FB0446FF2C0BD130
:104850000123AFF2881202213020FCF71CF94FF43B
:104860007A7000F039FB49E50A2C00D17AE00B2C74
:1048700076D1029881B2012002F05CFE01233CA2B5
:1048800000210846FCF707F900233CA20221184644
:10489000FCF701F90023AFF2601204211846FCF77F
:1048A000FAF83948008810B91620FFF73DFAFFF7EB
:1048B00050FB0446FF2C0BD10123AFF2F012022172
:1048C0003020FCF7E8F84FF47A7000F005FB15E5AE
:1048D0000A2C00D146E00B2C42D142E0022C3FD101
:1048E00001232AA200210846FCF7D5F800231EA2C6
:1048F00002211846FCF7CFF80023AFF2C4120421BE
:104900001846FCF7C8F8FFF724FB0446FF2C0BD130
:104910000123AFF2482202213020FCF7BCF84FF40B
:104920007A7000F0D9FAE9E40A2C00D11AE00B2CD5
:1049300016D14FF6FF71012002F0FCFD01230CA2FD
:1049400002211920FCF7A7F80F48008810B916209B
:10495000FFF7EAF94FF47A7000F0BEFA02E0FFE7E1
:1049600000BF58E600BFA8E4B0B423C8B7C8CF0062
:10497000C9BEB3FDB3C9B9A600000000B0B423BCE2
:10498000CCD0F8C9BEB3FD003E000020C9BEB3FDC7
:10499000C8ABB2BF000000002DE9F043A3B0002770
:1049A000FDF7F6FE47E17F1C642F03D1012023B001
:1049B000BDE8F083A048007820B901209E49087026
:1049C000FDF794FDFCF7E8FD0646FF2E7DD19A48E1
:1049D000407801287CD1FDF7AFFD8146B9F1F50F94
:1049E00075D121A8FDF7FCFE0446F22C0DD1012360
:1049F00092A204213020FCF74EF84FF47A7000F0B8
:104A00006BFAFCF79FFF0120D1E7002C49D100256C
:104A100044E08C4800EBC518402269464046FEF74A
:104A200025FC9DF80000AA2837D19DF805009DF8C7
:104A30008410884231D19DF80100012813D101234F
:104A400081A202212020FCF726F88248008810B9B4
:104A50001620FFF769F94FF47A7000F03DFAFCF781
:104A600071FF0520A3E701237BA202212020FCF790
:104A700012F800237BA204211820FCF70CF87548DB
:104A8000008810B91720FFF74FF94FF47A7000F043
:104A900023FAFCF757FF062089E76D1C782DB8DB59
:104AA00015E001236CA202212020FBF7F4FF002374
:104AB0006CA204211820FBF7EEFF4FF47A7000F08F
:104AC0000BFAFCF73FFF062071E754E000E000BF5F
:104AD00020A8FCF73CFB0446012C7CD1002534E0E7
:104AE000584800EBC518402269464046FEF7BEFB19
:104AF0009DF80000AA2827D120991B98884223D12D
:104B00009DF8010001280BD101234FA20221202092
:104B1000FBF7C1FF4FF47A7000F0DEF9052046E79D
:104B200001234DA202212020FBF7B5FF00234DA257
:104B300004211820FBF7AFFF4FF47A7000F0CCF996
:104B4000FCF700FF062032E76D1C782DC8DB01233F
:104B500041A202212020FBF79EFF002341A2042155
:104B60001820FBF798FF4FF47A7000F0B5F9FCF7C6
:104B7000E9FE06201BE70A2E01D1042017E70B2EC1
:104B800058D022A9304600F07FF80446022C01D10B
:104B900004200CE7012C0DD1012328A20221302092
:104BA000FBF779FF4FF47A7000F096F9FCF7CAFE34
:104BB0000120FCE6042C14D101232DA20221202087
:104BC000FBF769FF00232DA204211820FBF763FFE8
:104BD0004FF47A7000E02DE000F07EF9FCF7B2FEB1
:104BE00029E0032C26D19DF8880001F089F90446BC
:104BF000062C13D1012318A202212020FBF74BFF22
:104C0000002318A204211820FBF745FF4FF47A7007
:104C100000F062F9FCF796FE0620C8E601230AA21E
:104C200002212020FBF737FF4FF47A7000F054F98F
:104C30000520BCE600BFB6E654000020B3ACCAB104
:104C40000000000000C00008D1E9D6A4B3C9B9A68D
:104C5000000000003E000020D1E9D6A4CAA7B0DCC5
:104C600000000000C7EBD6D8D0C2D1E9D6A400001E
:104C7000C3DCC2EBCCABB3A400000000C7EBD6D8BA
:104C8000D0C2C2BCC8EB00002DE9FE438046894675
:104C9000002089F8000044A207CA8DE8070008F147
:104CA0003000C0B28DF80000002342A20421184653
:104CB000FBF7F1FE002403E0FF203F490855641C88
:104CC0001E2CF9DB3C4880F80080012468E0FFF7E7
:104CD00040F90746FF2F10D1002408E03648005D58
:104CE000FF2800D105E0FF2033490855641C1E2C25
:104CF000F4DB00BF0120BDE8FE830A2F1AD10CB9F6
:104D00000220F8E7641EFF202B490855641EE61FA9
:104D100000250CE0002E09DB2748805DFF2801D12B
:104D2000202000E02A200DF805006D1C761C082DBF
:104D3000F0DB2EE00B2F18D10B201F49085589F806
:104D4000004084B901231DA204211220FBF7A3FE19
:104D50004FF47A7000F0C0F8FCF7F4FDFF2016491C
:104D60000855641E15E00320C5E713480755E61FE4
:104D700000250CE0002E09DB0F48805DFF2801D1E3
:104D8000202000E02A200DF805006D1C761C082D5F
:104D9000F0DB00236A4604211846FBF77CFE641C06
:104DA0001E2C94DB0420A6E7202020202020202099
:104DB000000000002A00000080040020C3DCC2EBD9
:104DC000B2BBC4DCCEAABFD50000000010B5FDF711
:104DD0000DF9FBF7F7FF302406E04FF0006101EB1F
:104DE0008420FBF781FF641C402CF6DBFBF7BEFF41
:104DF00010BD70B500240FE0601CC1B23420FCF778
:104E000070FE002504E00020FFF7BAF8681CC5B268
:104E1000182DF8DB601CC4B2062CEDDB70BD01461A
:104E2000002005E0012202EB4002D0B24A1ED1B2BE
:104E30000029F7DC7047000070B50025002002F063
:104E40009BF922E0FFF785F80446042C07D1002DDA
:104E50001BDD681EC5B2284602F08EF915E0062C4F
:104E600007D1022D11DA681CC5B2284602F084F978
:104E70000BE00A2C00D170BDFF2C06D1012303A248
:104E800002213020FBF707FEF5E7DBE7B3ACCAB140
:104E90000000000010B56FF00400FEF7FFFA0A48AA
:104EA00000680A49B0FBF1F009490870084600782B
:104EB00000EB4001C1EBC0104FF6FF7101EAC000EA
:104EC0000449088010BD00000000002000127A0094
:104ED00034000020360000200146114A12884A435F
:104EE0004FF0E0235A6100229A611A46126942F09B
:104EF00001021A6100BF4FF0E022106900F00102C8
:104F00001AB100F48032002AF5D04FF0E022126985
:104F100022F001024FF0E0231A6100229A617047EB
:104F2000360000200146114A12784A434FF0E02330
:104F30005A6100229A611A46126942F001021A610E
:104F400000BF4FF0E022106900F001021AB100F436
:104F50008032002AF5D04FF0E022126922F00102DF
:104F60004FF0E0231A6100229A617047340000205C
:104F70003EB5002001904AF655200090294805884A
:104F80004AF65520854207D101222749254808388D
:104F9000FEF76CF900203EBD002023490880012265
:104FA00069462048FEF770F9012201A91D480E3814
:104FB000FEF76AF9012201A91A480C38FEF764F9D4
:104FC000012201A917480A38FEF75EF9012201A95A
:104FD00014481038FEF758F90122134911480838CF
:104FE000FEF752F900208DF8080017208DF80A000E
:104FF00000208DF809003B208DF80B00022202A949
:105000000848F030FEF740F98024802C07D00123B7
:1050100006A200210846FBF73EFD00BFFEE7012087
:10502000B9E7000010FC00083E0000206572726FB6
:105030007221000070B5A6B0002069490870FDF724
:1050400011F90590BDF8141066A0FEF7B3FF6EA02D
:10505000FEF7B0FF012205A97448FEF707F9BDF875
:10506000141073A0FEF7A6FF012205A96F4810389F
:10507000FEF7FCF8BDF8141072A0FEF79BFF0122AA
:1050800005A96A480E38FEF7F1F8BDF8141073A0B0
:10509000FEF790FF012205A964480C38FEF7E6F8F8
:1050A000BDF8141072A0FEF785FF012205A95F4824
:1050B0000A38FEF7DBF8BDF8141073A0FEF77AFF8C
:1050C00051A0FEF777FF022204A95848F030FEF7FE
:1050D000CDF874A0FEF76EFF9DF811209DF810101A
:1050E00074A0FEF767FF79A0FEF764FF9DF8132018
:1050F0009DF812106FA0FEF75DFF43A0FEF75AFF68
:10510000002468E0744800EBC416402206A930462B
:10511000FEF7ACF82246314670A0FEF74BFF9DF833
:10512000181073A0FEF746FF9DF8191073A0FEF744
:1051300041FFBDF81A1074A0FEF73CFF9DF81D104A
:1051400074A0FEF737FF78A02199FEF733FF9DF892
:105150001C1079A0FEF72EFF7CA0FEF72BFF002588
:1051600006E00DF11E00415D7CA0FEF723FF6D1CE3
:10517000662DF6DB38A0FEF71DFF4AA0FEF71AFFEA
:105180009DF88E109DF88D009DF88C20CDE90020B3
:1051900002919DF88B309DF88A20BDF8881070A090
:1051A000FEF708FF49A0FEF705FF9DF896009DF861
:1051B00095109DF89420CDE9002102909DF8933040
:1051C0009DF89220BDF8901065A0FEF7F3FE0EA0AA
:1051D000FEF7F0FE641C782C94DB26B070BD000056
:1051E0002D00002054686572652061726520256479
:1051F0002066696E6765727320696E207468652029
:1052000051533830380A00002D2D2D2D2D2D2D2DE8
:105210002D2D2D2D2D2D2D2D2D2D2D2D2D2D2D2DBE
:105220002D2D2D2D2D2D2D2D2D2D0A0010FC00089E
:10523000494E49545F574F52442069732025780ADC
:1052400000000000616C6C757365725F616D6F7555
:105250006E742069732025640A00000061646D6922
:105260006E5F616D6F756E742069732025640A002E
:1052700066616D696C795F616D6F756E74206973BD
:105280002025640A00000000626162797369747409
:1052900065725F616D6F756E742069732025640A95
:1052A0000000000074696D652073746172743A0ABD
:1052B000000000006D696E7574653A25642C736595
:1052C000636F6E643A25640A0000000074696D65BE
:1052D0002073746F703A0A0000C000086164647241
:1052E0006573733A2578204E6F2E25640A000000FE
:1052F000666C61673A25780A000000007479706571
:105300003A25640A000000006E756D6265723A25E8
:10531000640A000066696E6765725F6E756D62652E
:10532000723A25640A0000007266636172645F6904
:10533000643A25780A00000070617373776F7264B5
:105340005F6C656E6774683A25640A0070617373F8
:10535000776F72642069733A0A00000025642C009C
:10536000796561723A25642C6D6F6E74683A2564B4
:105370002C646174653A25642C686F75723A2564F3
:105380002C6D696E7574653A25642C7365636F6E58
:10539000643A25640A00000070B504460D46E1B287
:1053A0000548FEF77AFC00BF80210348FEF7A8FB02
:1053B0000028F9D0204670BD0038014010B5002803
:1053C00021D0114B0022001F196803E0814203D84D
:1053D0000A4649680029F9D152B11368841A9C42DF
:1053E00004D1006818441060104602E0506000E0EC
:1053F000186039B102680B1A934203D10B681A4442
:1054000002604968416010BD4C00002010B5FFF7F4
:1054100041FDFDF70BFE41F61F416320FEF798F8B2
:1054200000F072FE4FF400710C48FBF7E1FDFCF751
:10543000DFFAFDF7DFF8FEF75BF9FDF71DFBFBF781
:10544000D9FD6420FFF748FDFEF7F2FCFEF72AFCC9
:10545000FFF78EFD01F0AAF8002010BD000C0140FE
:10546000F0B50B30154D20F007010024144A0FE071
:1054700003688B420BD38B4205D95E1A43184768E9
:10548000C3E9006700E04368136002C004E0021D46
:1054900010680028ECD12046002802D1286808B105
:1054A0000020F0BD064A07481060074A121A22F091
:1054B0000702C0E9002401202860D7E7500000203F
:1054C0004C000020A4040020A00600202DE9FE4F7F
:1054D00082468B4600208BF800006BA207CA8DE83D
:1054E0000700FCF72FFA6B480068FAF793FF0746AE
:1054F000694A6A4BFAF7A2FF03D20020FCF768FB67
:105500002CE064480068FAF785FF0746644A654B5B
:10551000FAF794FF03D20120FCF75AFB1EE05D4826
:105520000068FAF777FF07465D4A5F4BFAF786FF98
:1055300003D20220FCF74CFB10E056480068FAF753
:1055400069FF0746564A594BFAF778FF03D2032002
:10555000FCF73EFB02E00420FCF73AFB002354A2D8
:1055600002211820FBF7C7FA01F048FA0AF13000CF
:10557000C0B28DF80000002403E0FF204F49085519
:10558000641C1E2CF9DB4D4880F800A000234CA2BF
:1055900004211846FBF7AFFA012470E0FEF7D9FCAE
:1055A0000546FF2D10D1002408E04448005DFF2887
:1055B00000D105E0FF2041490855641C1E2CF4DB96
:1055C00000BF0120BDE8FE8F0A2D1ED10CB90220BC
:1055D000F8E7641EFF2039490855641EA4F1070945
:1055E00000260FE0B9F1000F0ADB344810F809007B
:1055F000FF2801D1202000E02A200DF80600761CAB
:1056000009F10109082EEDDB32E00B2D18D10B203A
:105610002A4908558BF8004084B9012329A20421A6
:105620001020FBF738FA4FF47A70FFF755FCFCF7BF
:1056300089F9FF2021490855641E19E00320C1E7BC
:105640001E480555A4F1070900260FE0B9F1000F27
:105650000ADB1A4810F80900FF2801D1202000E0D9
:105660002A200DF80600761C09F10109082EEDDB51
:1056700000236A4604211846FBF73DFA641C1E2CE1
:105680008CDB04209EE7000020202020202020200A
:1056900000000000280000209A99999999990D40DE
:1056A000CDCCCCCCCCCC1040CCCC1240CCCC14400B
:1056B000C7EBCAE4C8EBC3DCC2EB000080040020E7
:1056C0002A000000C3DCC2EBB2BBC4DCCEAABFD54B
:1056D0000000000010B501F027FE0446072C0FD192
:1056E000012308A202211920FBF7D5F908480088F8
:1056F00010B91620FEF718FB4FF47A70FFF7ECFB99
:1057000010BD0000C9E8D6C3B3C9B9A600000000A7
:105710003E000020FEB50026CCE30123F5A20021C7
:105720000846FBF7B8F90023F6A202211846FBF75A
:10573000B2F90023F7A204211846FBF7ACF9FEF7F3
:1057400008FC0446FF2C0AD10123F6A202213020D6
:10575000FBF7A1F94FF47A70FFF7BEFBFEBD0A2CF0
:1057600000D1FBE7012C7DD1D5E00123EFA2002180
:105770000846FBF790F90023F0A202211846FBF738
:105780008AF90023EFA204211846FBF784F91BE0F5
:10579000FEF7DFFB0446FF2C0AD10123E1A2022120
:1057A0003020FBF778F94FF47A70FFF795FBD5E7D7
:1057B0000A2C01D1012608E0012C01D1022704E0C6
:1057C000022C01D1032700E0E2E700BF0EB1002662
:1057D000A2E01FE0694602A801F0CAFF0546012DBC
:1057E00000D1BBE7042D01D1012614E0082D10D112
:1057F0000123D6A202210020FBF74DF90023D6A2F7
:1058000004211846FBF747F94FF47A70FFF764FB61
:1058100000E000E0DEE700BF0EB100267CE064217E
:105820000298B0FBF1F03030C0B28DF804000A21CC
:105830000298B0FBF1F0B0FBF1F201FB1200303046
:105840008DF805000298B0FBF1F201FB1200303038
:105850008DF8060000208DF807000123C1A2002169
:10586000084600E059E0FBF716F90023C1A2022127
:105870001846FBF710F9002301AA02212020FBF7AC
:105880000AF90023BDA204211846FBF704F90023FE
:10589000BEA206211846FBF7FEF8029881B23846F0
:1058A00002F038F80546012D0AD101239DA20221FC
:1058B0003020FBF7F0F84FF47A70FFF70DFB4DE75F
:1058C000092D00D127E0042D00D147E70123B2A222
:1058D00000210846FBF7DFF80023B2A20221184698
:1058E000FBF7D9F80023B2A204211846FBF7D3F83E
:1058F000FEF72FFB0446FF2C06D1012389A20221CB
:105900003020FBF7C8F829E70A2C00D104E00B2C63
:1059100000D100E000BF28E7CCE2022C6FD16FE19C
:10592000012382A200210846FBF7B5F8002383A2D9
:1059300002211846FBF7AFF8002382A20421184683
:10594000FBF7A9F81BE0FEF704FB0446FF2C0AD185
:10595000012374A202213020FBF79DF84FF47A70E6
:10596000FFF7BAFAFAE60A2C01D1012608E0012C69
:1059700001D1022704E0022C01D1032700E0E2E775
:1059800000BF0EB100263CE134E0694602A801F0F8
:10599000EFFE0546012D00D1E0E6042D01D10126E0
:1059A00029E0082D10D0012383A202210020FBF75B
:1059B00072F8002368A204211846FBF76CF84FF434
:1059C0007A70FFF789FA15E09DF80000B84210D010
:1059D00001237CA202210020FBF75DF800235EA2D8
:1059E00004211846FBF757F84FF47A70FFF774FA62
:1059F00000E000E0C9E700BF16B1002601E101E1C7
:105A000064210298B0FBF1F03030C0B28DF8040090
:105A10000A210298B0FBF1F0B0FBF1F201FB120099
:105A200030308DF805000298B0FBF1F201FB120056
:105A300030308DF8060000208DF80700012365A2A4
:105A400000210846FBF727F800234AA20221184646
:105A5000FBF721F8002301AA02212020FBF71BF805
:105A6000002346A204211846FBF715F8002347A29D
:105A700006211846FBF70FF8029988B202F0A0F948
:105A80000546012D0CD1012326A202213020FBF76F
:105A900002F84FF47A70FFF71FFAFBF753FF5DE649
:105AA0001DBB01234FA200210846FAF7F4FF002393
:105AB0004FA202211846FAF7EEFF00233CA2042170
:105AC0001846FAF7E8FFFEF744FA0446FF2C06D121
:105AD000012314A202213020FAF7DDFF3EE60A2C52
